:100000000C9450010C94EA0B0C940F0C0C94340CCF
:100010000C943E0C0C94480C0C94520C0C945D19EE
:100020000C945C0C0C946F010C946F010C94301DBB
:100030000C94DC1E0C94B40B0C94CA0B0C94D711CA
:100040000C94A30B0C9442210C946F010C946F013F
:100050000C946F010C94660C0C946F010C946F015E
:100060000C94BF0B0C946F010C946F010C946F01F6
:100070000C946F010C946F010C946F010C946F0140
:100080000C946F010C946F010C946F01CA15BC1590
:10009000D215E015EE1559164C1651162F163716B7
:1000A0003F164716F315F815FE15041675161316A8
:1000B0001816751675167516751675167516751645
:1000C00075167516751675167516751675167516D8
:1000D000751621162816682C882F832F732F632FEF
:1000E000082FF82EDF2ECF2E532F402F2D2F1D2F10
:1000F000BF2EA62E962E912E8C2E872E822E7D2EF2
:10010000792E662C742E6F2E6A2E652E602E5B2E35
:10011000562E472E342E2F2E192E462C032EED2D23
:10012000B82D712D3C2D372D322D2D2D662C662CA2
:10013000662C282D662C232D662C1E2D662C192D41
:10014000662C142D662C0F2D662C0A2D662C662C21
:10015000662C052D662C662C662C002D662C662CD4
:10016000662CFB2C662C662C662CF62C662C662CDA
:10017000662CF12C662C662C662CEC2C662C662CDE
:10018000662CE72C662C662C662CE22C662C662CE2
:10019000662CDD2C662C662C662CD82C662C662CE6
:1001A000662CD32C662C662C662C662C662C662C52
:1001B000662CCE2C662C662C662C662C662C662C47
:1001C000662CC92C662C662C662C662C662C662C3C
:1001D000662C662C662C662C662C662C662C662C8F
:1001E000662CC42C662C662C662C662C662C662C21
:1001F000662CBF2C662C662C662C662C662C662C16
:10020000662C662C662C662C662C662C662C662C5E
:10021000662CBA2C662C662C662C662C662C662CFA
:10022000662C662C662C662C662C662C662C662C3E
:10023000662C962C662C662C662C662C662C662CFE
:10024000662C662C662C662C662C662C662C662C1E
:10025000662C6D2CDD369C363B373E3741374F37A9
:10026000523759378537B138B838BF37C237E637D4
:10027000FC373D385F38473856389E37B037DE395F
:10028000E33925394A39E839F339DE3807399739FE
:10029000B9394D3950395B396E3900081C181410C2
:1002A00011241FBECFEFD0E1DEBFCDBF11E0A0E033
:1002B000B1E0E0E2FBE800E00BBF02C007900D9266
:1002C000A234B107D9F71EE0A2E4B1E001C01D924B
:1002D000AB37B107E1F70E94C13E0C948F450C94F7
:1002E00000008FB7F894992708958FBF0895982F2D
:1002F000969596959695E6EDF2E0E90FF11D8770DB
:1003000021E030E002C0220F331F8A95E2F780819E
:10031000822399270895282F9FB7F894E82FFF2765
:10032000E852FD4F80818F3F19F025E030E016C084
:10033000E091740E2E17C9F38091E30C8F3F49F0C2
:10034000FF27E852FD4F20832093740E20E030E019
:1003500005C02093E30C2093740EF8CF892F9927C2
:100360008FBFC901089580E00E948B0199270895ED
:100370000F931F93CF93DF93182F8FB7F894282FE5
:100380003327022F809161018823C1F481E080939B
:100390006101109339032FBF8FB7F8949927379ACB
:1003A0008FBF8FB7F894C82FDD272C2F90913F0176
:1003B000933089F02FBF80E090E038C080913903FE
:1003C0008117C1F3812F0E9477018823A1F085E076
:1003D00090E00FBF2BC080916101813009F1823024
:1003E00049F78091390380933F0190936101CFBF1A
:1003F00080E090E01BC0E12FE695E695E695FF27AB
:10040000EA52FD4F177081E090E002C0880F991FFB
:100410001A95E2F72081282B208380E090E0D9CF45
:100420008CE10E948B01CFBF80E090E0DF91CF9103
:100430001F910F91089580916601882319F081E042
:1004400090E0089581E00E94B8019927282F882321
:1004500019F481E080936601822F99270895982FDF
:10046000969596959695E8E0F3E0E90FF11D877073
:1004700021E030E002C0220F331F8A95E2F780812D
:10048000822399270895982F80915901882351F448
:10049000EFE5F3E0119283E0ED36F807D9F781E05C
:1004A00080935901292F33270024369527950794E7
:1004B000369527950794322F202D260F311DAFE555
:1004C000B3E0FD01808199278217930749F01196C7
:1004D000319683E0AD36B807A9F780E090E0089543
:1004E0001C9281E090E008959B01AC0190916A011B
:1004F0009630C8F480916901E82FFF27EE0FFF1FA7
:10050000EE0FFF1FE55DFB4F208331834283538352
:100510008F5F80936901863049F09F5F90936A01F5
:1005200080E090E0089581E090E0089510926901E4
:100530009F5F90936A0180E090E008958530910577
:10054000A1F0069719F080E090E00895A599FBCFFF
:1005500083B3992796958795929582958F70892771
:100560009F708927817090700895A499ECCF83B310
:100570009927929582958F7089279F70892781701E
:10058000907008959FB7F894292F3327422F9091A8
:100590003F01981721F04FBF80E090E008958091CF
:1005A00061018330C1F72FBF81E090E00895809111
:1005B000E60C813011F08130A0F5E8E021E061E047
:1005C0007FB7F894509107035E7F5093070387B17C
:1005D000982F9F718295869586958370A9F040E04B
:1005E000440F852F8D7F842B262F2F71922F990FEB
:1005F000990F8378892B80930703332727B9E83035
:10060000F1F02E2F27704AC0822F88508631A8F42F
:1006100040E03327892F99272817390731F1417096
:10062000DFCF823029F18130F1F08130E0F082308B
:1006300069F1E0E02FE16FE1C3CF41E0D1CF8091DC
:10064000E40C9091E50C21E08638920710F027E049
:1006500025C0833C910528F48136910568F025E09A
:100660001DC026E01BC0E0E0A9CF41E04170B8CF3B
:10067000E8E02EE16EE1A4CF8033910528F48831C3
:10068000910530F023E00AC024E008C0E0E0F1CF9B
:100690008C30910510F022E001C020E0887D822B93
:1006A000886D992786B9872F99278FBF0895EF9274
:1006B0000F931F93AE2D99E0899FF0011124E55708
:1006C000FC4F4083518362837383048315832683A5
:1006D0003783A17080858E7F8A2B8260808780E13E
:1006E0000E948B011F910F91EF9008956FB7F894BE
:1006F00082B706B601FE17C081B792B72091780184
:100700003091790140917A0150917B01280F311D80
:10071000411D511D2F5F3F4F4F4F5F4F290F311D1F
:10072000411D511D0CC020917801309179014091FB
:100730007A0150917B01280F311D411D511D862FDB
:1007400099278FBFCA01B901089580915E0188235E
:1007500019F081E090E0089580E00E94B8019927A7
:10076000282F882319F481E080935E01822F992736
:100770000895982F969596959695EAE8F3E0E90FF7
:10078000F11D877021E030E002C0220F331F8A95EF
:10079000E2F78081822399270895FC0182819927BD
:1007A000382F222781819927282B392BC901892F9E
:1007B0009927869586958370907082309105F1F027
:1007C0008330910509F1892B99F440E050E0C9018B
:1007D00084E0989F812D992711248230910559F04A
:1007E00083309105A1F0892B61F480E090E011C085
:1007F0004CE95FEFECCF82E090E00BC042E050E0CC
:10080000E6CF8CE99FEF05C048E050E0E0CF88E0FC
:1008100090E0480F591F4A5F5F4FCF01840F951F2B
:1008200008959FB7F894662341F4E82FFF27E95E07
:10083000FB4F608320E030E009C0E82FFF27E95E2E
:10084000FB4F80818823A9F321E030E0892F99278D
:100850008FBFC9010895E82F8FB7F894282F332749
:1008600090E0FF27E95EFB4F8081861709F491E055
:100870002FBF892F9927089590912D01981719F06E
:1008800080E090E0089590E080914C01823009F082
:1008900091E081E09827892F99270895882311F006
:1008A0006E9A08956E980895882311F06F9A0895AE
:1008B0006F98089580E00E944E04BA9ABB98B99A46
:1008C000B89A6C9A80E00E9454046B986A9881E010
:1008D0000E944E04709A8DB18C7F8DB908950F934C
:1008E0001F93CF93DF93182F8FB7F894C82FDD276E
:1008F0000C2F61E080E00E941104882321F0CFBF1B
:1009000085E090E021C080E00E943C048823B9F497
:1009100080914C01882351F08FB7F8949927109259
:1009200017048FBF81E090E00FBF0EC082E080937C
:100930004C0110922D010E945A04B89AC09810934D
:100940002A0180E090E0F0CFDF91CF911F910F91CD
:10095000089590E080914C01882309F491E081E0B2
:100960009827892F992708951F93182F81E00E94B7
:100970004E041FB9779BFECF8FB199271F91089521
:100980008F929F92AF92BF92CF92DF92EF92FF929F
:100990000F931F93CF93DF938FB7F8949927C0904D
:1009A0006D0ED0906E0E8090DC039090DD03E09091
:1009B0007F03F0908003A701465F5F4F2091730192
:1009C000309174014217530708F49A018FBF5901FF
:1009D0000894A108B108EA14FB04F8F484010E0D90
:1009E0001F1DE601CE0DDF1D11C088810E94B404D9
:1009F0008114910411F0F80180830894E11CF11C2A
:100A00000F5F1F4F2196EA14FB0438F4C114D10480
:100A100061F780E00E94B404EBCF81E00E945404AF
:100A20009FB7F894C114D10431F0CE0CDF1CF6014D
:100A300080818FB901C01FB8F0928003E0927F03DC
:100A4000892F99278FBF80E090E0DF91CF911F9190
:100A50000F91FF90EF90DF90CF90BF90AF909F905D
:100A60008F9008952FB7F8943327509374014093D3
:100A7000730190936E0E80936D0E7093DD036093FF
:100A8000DC031092800310927F032FBF452B29F0C7
:100A90008FB10E94C004992708958CE00E948B01B9
:100AA00080E090E008958FB7F89499271092190488
:100AB0008FBF08952FB7F894622F7727A0E0FC012D
:100AC000F695E795F695E795F695E795ED51FC4F88
:100AD000408155278770907021E030E002C0220FDE
:100AE000331F8A95E2F742235323452B09F0A1E0F7
:100AF0006FBF8A2F99270895FC01DB0190818C91AB
:100B0000981769F020911901921731F0821779F046
:100B100020E030E0891768F421E030E00AC020E0EE
:100B200030E09181FB018181891718F4F5CF20E035
:100B300030E0C9010895CF93DF93EC019B01E09170
:100B4000DE03F091DF03E35BFB4F80818883E0915C
:100B5000DE03F091DF03E35BFB4F8081FB018083C9
:100B60008091DE039091DF0301969093DF038093E1
:100B7000DE039881E2E0F1E0DF01129680819817B0
:100B800018F08181891738F41396339681E0A631E5
:100B9000B807A1F708C08C919823F901908380953C
:100BA000988198239883892F9927DF91CF91089571
:100BB000E0911501F09116013496F0931601E0933F
:100BC0001501E75BFB4F60817181828193810895FC
:100BD0008830910549F0099709F00895A59BFDCF4C
:100BE000613041F0AD980895A49BF7CF613021F0BA
:100BF000AC980895AD9A0895AC9A0895873021F184
:100C00008830A8F08A3009F443C08B3030F18C3042
:100C100009F46BC08C3008F44CC08D3039F462306C
:100C2000710508F497C089B78D7F89BF0895833017
:100C300059F1843008F1853009F44EC0863080F5D2
:100C400060FF66C0D89808958FB7F89499272BB3A2
:100C500031E023272BBB8FBF0895883009F44CC0A7
:100C6000893021F780E0672B09F081E0682F89E067
:100C700090E00E94E80508958130F9F08230B1F6E5
:100C800060FF4EC0DA98089560FF06C0D9980895B5
:100C900060FF04C0A49A0895D99A0895A49808956D
:100CA0008FB7F89499272BB332E023272BBB8FBF44
:100CB000089560FF2BC0A59A08958FB7F894772701
:100CC00060FF2AC0DA9861FF25C0D99862FF26C06C
:100CD000D89899278FBF08958FB7F89499272BB389
:100CE00034E023272BBB8FBF089562307105D0F00D
:100CF00089B78E7F89BF089580E0672B09F081E076
:100D0000682F88E090E00E94E8050895A59808956E
:100D1000D89A0895D99ADACFDA9AD5CFD89AD9CF76
:100D2000DA9A0895672B59F480916A008260809363
:100D30006A0080916A00816080936A0008958091C2
:100D40006A00826080936A0080916A008E7F80933F
:100D50006A000895672B59F480916A008860809337
:100D60006A0080916A00846080936A00089580918F
:100D70006A00886080936A0080916A008B7F80930C
:100D80006A000895E0911501F09116013496F093F0
:100D90001601E0931501E75BFB4F60817181828151
:100DA000938108952F923F924F925F926F927F921C
:100DB0008F929F92AF92BF92CF92DF92EF92FF926B
:100DC0000F931F93CF93DF93CDB7DEB729970FB65D
:100DD000F894DEBF0FBECDBF6FB76983F894209043
:100DE0003D0330903E0340903F0350904003662403
:100DF000772488246EE4A62E53E8B52ECC24DD2477
:100E0000EE24FF2400E010E0222D332D442D552D3B
:100E1000662D772D882D90E00E9410412A833B8318
:100E20004C835D836E837F8388879987822E932E80
:100E3000A42EB52EC62ED72EE82EF92E240135016C
:100E4000769467945794479400E2282D392D4A2DC3
:100E50005B2D6C2D7D2D8E2D9F2D0E940E42A22E7E
:100E6000B32EC42ED52EA30192012A0D3B1D4C1D7D
:100E70005D1D57FF05C05F772F5F3F4F4F4F5F4F9F
:100E800020933D0330933E0340933F035093400330
:100E9000E9818E2F99278FBFCA01B90129960FB614
:100EA000F894DEBF0FBECDBFDF91CF911F910F91A0
:100EB000FF90EF90DF90CF90BF90AF909F908F907A
:100EC0007F906F905F904F903F902F9008950E9479
:100ED000D206DC01CB010895EF92FF920F931F938E
:100EE000623029F1633060F0653009F45AC0663031
:100EF000F1F0643009F469C0EE24FF24870172C068
:100F0000662309F442C06130B9F7E0917803F091AB
:100F10007903E80FF91F80819927982F882721816D
:100F20003327822B932B7C01002711275BC0E09194
:100F30007803F0917903E80FF91F82819927AA2796
:100F4000BB27EE24F82E092F1A2F208133274427A0
:100F50005527522F44273327222781819927AA27F3
:100F6000BB27DC0199278827282B392B4A2B5B2BA1
:100F700083819927AA27BB27282B392B4A2B5B2B48
:100F8000E22AF32A042B152B2DC0E0917803F0916F
:100F90007903E80FF91F8081E82EFF24002711272D
:100FA00021C0E0917803F0917903E80FF91F808167
:100FB0009927982F882721813327822B932B7C0117
:100FC0000027F7FC0095102F0DC0E0917803F091F9
:100FD0007903E80FF91F8081E82EFF24E7FCF094E5
:100FE0000F2D1F2DC801B7011F910F91FF90EF909A
:100FF0000895982F80915901882351F4EFE5F3E08B
:10100000119283E0ED36F807D9F781E0809359011A
:10101000492F55270024569547950794569547958F
:101020000794542F402D9A01260F311D70E08091B6
:101030005F0399272817390721F1E0E6F3E005C09F
:10104000319683E0ED36F80769F07723C9F48081A3
:10105000992728173907A1F771E0319683E0ED361B
:10106000F80799F7772359F4A0E0B0E03E97808124
:10107000882349F011963196AE30B105C1F7089535
:10108000089571E0DACFA15ABC4F640F6C930895B4
:10109000CF93DF93461738F1E82FFF2750E0A62FB4
:1010A000BB27C1E0D0E005C080E0580F6F5F461756
:1010B000B8F0262F3327CF01022E02C095958795D1
:1010C0000A94E2F780FFF0CF2A1B3B0BCE0102C04F
:1010D000880F991F2A95E2F7580F6F5F461748F758
:1010E000852F992702C080E090E0DF91CF9108958D
:1010F0000E94480821E030E002C0220F331F8A9589
:10110000E2F7822F99270895CF93DF93582F8823F2
:1011100081F1C82FDD276091DE037091DF03A0E02D
:10112000B0E040E0FB01E35BFB4F20813327CE01C1
:10113000841B9109880F991F880F991F880F991F89
:10114000089702C0220F331F8A95E2F7A20FB31F40
:101150006F5F7F4F4F5F451738F4423018F36F5F72
:101160007F4F4F5F4517C8F37093DF036093DE0333
:1011700002C0A0E0B0E0CD01DF91CF910895CF9300
:10118000DF93EC01E0912001F0912101309749F0CB
:10119000208131814281538121153105410551055D
:1011A00039F4D0932101C093200181E090E00BC07D
:1011B00088819981AA81BB8182179307A407B5070B
:1011C00084F380E090E0DF91CF910895423029F0E0
:1011D000433051F0413079F0089520E63AEE40E096
:1011E00050E00E94AC44089520E83EEE46E350E013
:1011F0000E94AC44089528EE33E040E050E00E94A5
:10120000AC440895EF92FF920F931F93CF93DF9317
:10121000782F8823C1F1C82FDD274091DE0350913C
:10122000DF03EE24FF24870160E0FA01E35BFB4F5C
:1012300080819927AA27BB279E01261B3109220FEF
:10124000331F220F331F220F331F2850304004C09A
:10125000880F991FAA1FBB1F2A95D2F7E80EF91E07
:101260000A1F1B1F4F5F5F4F6F5F671738F46430B3
:10127000E0F24F5F5F4F6F5F6717C8F35093DF0374
:101280004093DE0303C0EE24FF248701C801B701A9
:10129000DF91CF911F910F91FF90EF900895DF9212
:1012A000EF92FF920F931F938FB7F894282F332755
:1012B000D22E91B782B746B7981711F041FF02C0FE
:1012C0002FBF79C080917C03882351F5209178014C
:1012D0003091790140917A0150917B0170E065EE87
:1012E00000B601FCFDCF82B7861709F452C0DA01BF
:1012F000C9010196A11DB11D860F911DA11DB11D32
:1013000082179307A407B50710F4622F609561BF99
:10131000DFBE772309F44FC08FE00E948B014BC0E2
:101320000E947603E0901304F090140400911504D9
:10133000109116042091FF013091000240910102AA
:10134000509102026E197F09800B910B621773078F
:101350008407950700F5D801C701820F931FA41FCA
:10136000B51F209178013091790140917A01509117
:101370007B01821B930BA40BB50B873E9105A10546
:10138000B10508F0ABCF823098F0682F615070E063
:10139000A7CF6F5FACCF10927C0371E065EE209118
:1013A00078013091790140917A0150917B0198CF79
:1013B00070E061E095CF1F910F91FF90EF90DF906B
:1013C0000895AFB7F894BB27E1E0E0937C03609306
:1013D00013047093140480931504909316042093BF
:1013E000FF01309300024093010250930202AFBF0D
:1013F0000E944F0908952FB7F89433278091530323
:10140000909154032FBF0895FC0187819927982F4D
:10141000882726813327822B932B08952FB7F894A2
:10142000332780912E0190912F012FBF0895FC0149
:1014300081859927982F882720853327822B932B06
:101440000895FC0183859927089580E88093AD0273
:10145000109236031092E70C1092E20C10922D03BA
:101460000895CF93DF93FC0116A6DC019F96ED0152
:101470001B821A82198280E887A7DF91CF91089595
:101480008FB7F89420918103309182036CB57DB5BC
:1014900006B602FE04C02F5F3F4F6CB57DB599279D
:1014A0008FBF8827992744275527A901332722274B
:1014B000622B732B842B952B0895EF92FF920F9341
:1014C0001F930E94400A7B018C0120914F033091B1
:1014D00050034091510350915203809147039091E2
:1014E0004803A0914903B0914A03820F931FA41FA0
:1014F000B51FE216F30604071507D0F1821793070C
:10150000A407B507D0F59C01AD012E193F09400B8A
:10151000510B213060E8360760E0460760E056076F
:10152000A8F180E090E8A0E0B0E0E80EF91E0A1F04
:101530001B1FE0924F03F09250030093510310934E
:10154000520380E090E8AFEFBFEFE80EF91E0A1FEC
:101550001B1F205030484040504020934703309399
:1015600048034093490350934A0340E050E81FC0AA
:1015700082179307A407B50728F4E816F9060A07A7
:101580001B0708F220E030E040E050E080934F037A
:1015900090935003A0935103B093520310924703CA
:1015A000109248031092490310924A03A901B7010F
:1015B0002CB53DB5C9018E199F090396841795076F
:1015C00038F0B9016D5F7F4F41F06150704007C046
:1015D000640F751F61157105C1F760E070E07BBD98
:1015E0006ABD80E186BF87B7806187BF1F910F9179
:1015F000FF90EF9008950F931F930FB7F894112762
:1016000060934F0370935003809351039093520360
:1016100020934703309348034093490350934A0370
:101620000E945D0A0FBF1F910F91089597B79F7D8C
:1016300097BF90E296BF882321F08EB580648EBD5F
:1016400003C08EB58F7B8EBD87B7806287BF80E079
:1016500090E0089580916801E82FFF27EE0FFF1FAB
:10166000EE0FFF1FE55DFB4F408151816281738169
:1016700020916A01222361F08F5F80936801863098
:1016800021F0215020936A0103C010926801F9CF24
:10169000CB01BA010895E3EEF3E08FB7F894282F59
:1016A000332780818F3F49F42FBF319683E0EE3E90
:1016B000F80799F781E090E008952FBF80E090E06F
:1016C0000895CF93DF93C0E0D0E004C02196C835E1
:1016D000D10529F0CE010E945A058823B9F7CE0121
:1016E000DF91CF910895AF92BF92CF92DF92EF92A8
:1016F000FF920F931F93CF93DF93CDB7DEB7289759
:101700000FB6F894DEBF0FBECDBF20E070E0E091D1
:101710000001F091010132E14DE65CE46FE480915B
:1017200001019E2F28960FB6F894DEBF0FBECDBFE5
:10173000DF91CF911F910F91FF90EF90DF90CF90AD
:10174000BF90AF9008951F920F920FB60F92112481
:101750008F9383B783BF00B600FCFDCF8F910F90AE
:101760000FBE0F901F90189578941F920F920FB68E
:101770000F9211240F900FBE0F901F901895789420
:101780001F920F920FB60F9211240F900FBE0F9061
:101790001F90189578941F920F920FB60F921124F4
:1017A0002F933F938F939F932FB7F8943327809174
:1017B0008103909182030196909382038093810329
:1017C0002FBF9F918F913F912F910F900FBE0F9040
:1017D0001F9018951F920F920FB60F9211242F93FE
:1017E0003F934F935F936F937F938F939F93AF93A9
:1017F000BF93EF93FF9385E10E948B01FF91EF91DF
:10180000BF91AF919F918F917F916F915F914F9118
:101810003F912F910F900FBE0F901F9018951F9220
:101820000F920FB60F9211242F933F934F935F9314
:101830006F937F938F939F93AF93BF93EF93FF9398
:1018400086E10E948B01FF91EF91BF91AF919F9133
:101850008F917F916F915F914F913F912F910F9059
:101860000FBE0F901F9018951F920F920FB60F92F8
:1018700011240F900FBE0F901F9018951F920F927A
:101880000FB60F9211240F900FBE0F901F90189556
:101890001F920F920FB60F9211240F900FBE0F9050
:1018A0001F9018951F920F920FB60F9211240F9050
:1018B0000FBE0F901F9018951F920F920FB60F92A8
:1018C00011240F900FBE0F901F9018951F920F922A
:1018D0000FB60F9211242F933F934F935F936F9303
:1018E0007F938F939F93AF93BF93EF93FF9344B1F5
:1018F00055B178948FB7F894992720910703322F28
:101900003695317021708FBF222301F53398809175
:101910006D03813009F441C0823009F054C0332393
:1019200009F445C010926D038091E60C882309F4F8
:1019300041C0813009F047C0109233035093EB0C43
:101940004093EA0C82E20E948B013DC08FB7F8946D
:1019500099278FBF2FB7F894332786B1582F577028
:10196000482F4072987D942B952B8074977B982BF1
:1019700090619F77892F992786B9887D842B852B45
:1019800087738061992786B9887D842B852B877B17
:101990008069992786B92FBF16C0332341F0509331
:1019A000E2034093E1038DE10E948B010CC00E9491
:1019B000D70209C0109241035093020340930103E0
:1019C0008BE10E948B01FF91EF91BF91AF919F91AD
:1019D0008F917F916F915F914F913F912F910F90D8
:1019E0000FBE0F901F9018959C0180915501882380
:1019F00031F481E080933C0181E090E00895909182
:101A0000530182E2989FF0011124D901ED5FFD4F4F
:101A100001900D928150E1F7809153018F5F65E055
:101A20000E94CB4490935301809155018150809343
:101A30005501882331F481E080933C0180E090E0FF
:101A4000089580E090E008959C0140915501453053
:101A500018F081E090E008959091540182E2989FFF
:101A6000F0011124ED5FFD4FD9010D9001928150DD
:101A7000E1F7892F8F5F65E00E94CB44909354017A
:101A80004F5F4093550180913C01813019F080E017
:101A900090E0089510923C0182E10E948B0180E069
:101AA00090E00895AF92BF92CF92DF92EF92FF92B3
:101AB0000F931F93CF93DF93CDB7DEB728970FB661
:101AC000F894DEBF0FBECDBF6D837E838F83988772
:101AD0005A01233009F446C02430B8F0CD80DE80AE
:101AE000EF80F884033009F49DC0043000F1053024
:101AF00009F46EC0053008F0D3C0E0917803F0918E
:101B00007903EA0DFB1DC082EFC0CD80DE80EF803F
:101B1000F884033009F4A5C0043048F0053009F416
:101B200057C0053050F3063009F0DEC005C0013063
:101B300009F44EC0023008F3E0917803F091790384
:101B4000EA0DFB1DC382BB27AF2D9E2D8D2D8283F9
:101B5000C701AA27BB2781838F2D9927AA27BB27D7
:101B60008083C2C02D813E814F8158850330D9F1D9
:101B7000043018F1053009F4B2C0053008F445C04E
:101B8000063009F0B1C0CA01B9010E946243E09178
:101B90007803F0917903EA0DFB1D6383272F382F1B
:101BA000492F552722839C01442755272183692FDC
:101BB000772788279927608397C0013009F480C070
:101BC000023008F470C0CA01B9010E946743DFCF38
:101BD000E0917803F0917903EA0DFB1DC1828D2D10
:101BE0009927808381C0E0917803F0917903EA0D11
:101BF000FB1D29833A834B835C8389819A81AB8166
:101C0000BC8180839183A283B38380917803909178
:101C10007903A80EB91ECA01B9010E946243F501F9
:101C2000608362C00091780310917903040F151F3F
:101C3000C701B6010E94954369837A838B839C8395
:101C400089819A81AB81BC81F80180839183A283D1
:101C5000B383E0917803F0917903EA0DFB1DC08214
:101C600043C00091780310917903040F151FF7FE0C
:101C7000DFCFC701B6016170707080709070A701EE
:101C800096015695479537952795622B732B842B94
:101C9000952B0E9495439B01AC010E949242CCCFB0
:101CA000063011F549CF8091780390917903A80E01
:101CB000B91ECA01B9010E946743F501608314C0CF
:101CC000CA01B9010E946743E0917803F09179035A
:101CD000EA0DFB1D6183672F7727608305C0CA016A
:101CE000B9010E946243F0CF28960FB6F894DEBF88
:101CF0000FBECDBFDF91CF911F910F91FF90EF905D
:101D0000DF90CF90BF90AF900895CF92DF92EF9287
:101D1000FF920F931F9341E060E00E944808182F44
:101D20000E94D8056B017C01612FC6010E946C07DF
:101D30006F5F7F4F8F4F9F4F012F212FA6010E9472
:101D4000520D1F910F91FF90EF90DF90CF9008956B
:101D5000CF92DF92EF92FF920F931F9341E060E0EA
:101D60000E944808182F0E94D8056B017C01612F42
:101D7000C6010E946C076150704080409040012F66
:101D8000212FA6010E94520D1F910F91FF90EF90FD
:101D9000DF90CF900895CF92DF92EF92FF920F9352
:101DA000CF93DF93CDB7DEB724970FB6F894DEBF9D
:101DB0000FBECDBF42E060E00E944808082F0E949D
:101DC000D8056B017C01033039F00E94D80526E06C
:101DD000A6010E94520D0EC00E94C20669837A833A
:101DE0008B839C8369817A818B819C8123E0A6010E
:101DF0000E94520D24960FB6F894DEBF0FBECDBFE1
:101E0000DF91CF910F91FF90EF90DF90CF900895E9
:101E10008F929F92AF92BF92CF92DF92EF92FF92FA
:101E20000F931F93CF93DF93EC0180911701909153
:101E30001801009709F48FC0209709F476C077271E
:101E4000FB01EE0FFF1FEE0FFF1F80912401909109
:101E50002501E80FF91F80819181A281B3818883D8
:101E60009983AA83BB8380911701909118014C013B
:101E7000880C991C880C991C009124011091250153
:101E8000800E911E019790931801809317017B019A
:101E9000EB01CC0FDD1F8C179D077CF548C05C0162
:101EA000AA0CBB1CAA0CBB1C6801CA0CDB1CB4012D
:101EB000C6010E947C05892BD1F1EE0CFF1CEE0CB3
:101EC000FF1C0E0D1F1DF60180819181A281B3813F
:101ED000F80180839183A283B3839E01220F331F75
:101EE00080911701909118017E0182179307B4F138
:101EF000E9010091240110912501C817D90779F251
:101F00005E01AA0CBB1CAA0CBB1CC8018A0D9B1D40
:101F1000BC0104960E947C05892B31F221965E015A
:101F2000AA0CBB1CAA0CBB1CBFCF7727A0CF5701A4
:101F3000AA0CBB1CAA0CBB1CA00EB11EF401808114
:101F40009181A281B381F50180839183A283B383C0
:101F500081E090E008C080E090E005C0009124019D
:101F600010912501E9CFDF91CF911F910F91FF9043
:101F7000EF90DF90CF90BF90AF909F908F9008959B
:101F80006F927F928F929F92AF92BF92CF92DF9289
:101F9000EF92FF920F931F93CF93DF93CDB7DEB7EE
:101FA00024970FB6F894DEBF0FBECDBF782F452B18
:101FB00009F1A0911701B09118011A161B060CF037
:101FC00074C0C0902401D0902501F60186819781CC
:101FD0002817390709F46EC041E050E04F5F5F4FAA
:101FE000A417B5077CF082859385349628173907A6
:101FF000A9F760C0A0911701B0911801C090240109
:10200000D090250179836A833C832B838D010F5FF8
:102010001F4F1093180100931701023011057CF136
:102020003E010894611C711C19C0000F111F000FA4
:10203000111FC00ED11EF50180819181A281B38153
:10204000F60180839183A283B383F2E0EF16F1045B
:102050003CF18701C0902401D09025017801F594CE
:10206000E7944701880C991C880C991C5601A80C10
:10207000B91CB501C3010E947C05892BB1F648014A
:10208000880C991C880C991C8C0C9D1C89819A8148
:10209000AB81BC81F40180839183A283B3830AC0A6
:1020A000C0902401D0902501EFCFC0902401D090A2
:1020B0002501A8CF24960FB6F894DEBF0FBECDBF82
:1020C000DF91CF911F910F91FF90EF90DF90CF9014
:1020D000BF90AF909F908F907F906F900895CF9317
:1020E000DF93EC0188819927382F2227898199274E
:1020F000282B392B2115310549F040E050E06FEFD6
:10210000809119010E94C00F19821882DF91CF912E
:1021100008958F929F92AF92BF92CF92DF92EF92EB
:10212000FF920F931F93CF93DF936C01A62E209104
:10213000260130912701FC01E20FF31F8081E82E78
:10214000FF24E7FCF0949FE7E922FF24B82EB09427
:10215000BB1CBB24BB1C83E08B19B82E1E141F04B0
:1021600094F5882E9924C0E0D0E000E010E012C081
:10217000F601E20FF31FE00FF11F81818A15F1F0E4
:102180002196080D191DEC16FD06E9F02091260197
:102190003091270182E0B81659F7CE01880F991FB8
:1021A0002C0D3D1D820F931F01960E946F102196EA
:1021B000080D191DEC16FD0649F705C0CF01029662
:1021C0000E946F10DDCFDF91CF911F910F91FF9093
:1021D000EF90DF90CF90BF90AF909F908F90089539
:1021E0009C01409158014A3018F081E090E0089538
:1021F0009091570182E2989FF0011124E85EF24F1E
:10220000D9010D9001928150E1F7892F8F5F6AE02B
:102210000E94CB44909357014F5F409358018091A7
:102220003D01813019F080E090E0089510923D0169
:1022300083E10E948B0180E090E00895A5ECB1E07D
:10224000FC0185E001900D928150E1F782EA8093D4
:10225000BF0185E08093C001809130039927982FBA
:102260008827209131033327822B932B8093C2013F
:10227000892F99278093C1011092C3018FEB91E0C0
:102280000E94F0100895A5ECB1E0FC018CE10190F2
:102290000D928150E1F781EA8093BF018CE1809338
:1022A000C0018FEF8093C2018093C1011092C301DE
:1022B0008FEB91E00E94F01008959C0180915801ED
:1022C000882331F481E080933D0181E090E008951E
:1022D0009091560182E2989FF0011124D901E85EA5
:1022E000F24F01900D928150E1F7809156018F5F7E
:1022F0006AE00E94CB44909356018091580181502E
:1023000080935801882331F481E080933D0180E07F
:1023100090E0089580E090E008959C01809158013C
:10232000882319F481E090E008959091560182E2AB
:10233000989FF0011124D901E85EF24F01900D92AF
:102340008150E1F780E090E00895FB0180917803EF
:1023500090917903E80FF91F83819927382F22275D
:1023600084819927282B392BA5ECB1E08BE10190D2
:102370000D928150E1F781E98093BF018BE1809359
:10238000C0012093C201832F99278093C10110922D
:10239000C301442319F081E08093C3018091E003DD
:1023A0008093C4018FEB91E00E94F01008951F927A
:1023B0000F920FB60F9211242F933F934F935F9379
:1023C0006F937F938F939F93AF93BF93EF93FF93FD
:1023D00083B783BF00B600FCFDCF81B79927019674
:1023E000AA27BB27209178013091790140917A0189
:1023F00050917B01280F391F4A1F5B1F20937801E2
:102400003093790140937A0150937B0178940E9434
:102410004F09FF91EF91BF91AF919F918F917F9164
:102420006F915F914F913F912F910F900FBE0F9041
:102430001F901895EF92FF920F931F93CF93DF9306
:10244000982F8FB7F894E82E80916101833021F0A6
:10245000EFBE81E090E050C080913F018917C1F745
:102460008091D6028823B9F080916001082F11274E
:10247000E80109C0FC2E8F2D0E9477018823A9F462
:10248000C017D107B9F12196C330D10599F7C0E043
:10249000D0E0FF24F0CF83E080933F0110926101F0
:1024A0003798EFBE80E090E027C0EF2DE695E695E7
:1024B000E695FF274F2D5527EA52FD4F9A012770C9
:1024C000307081E090E002C0880F991F2A95E2F7F2
:1024D0008095208128232083F09260014093390366
:1024E0008FEF80933F0181E0809361018CE10E9436
:1024F0008B01D7CF4FEFF2CFDF91CF911F910F918B
:10250000FF90EF9008950F931F93182F0FB7F89433
:1025100061E080E00E941104882369F081E090E08E
:1025200002C0880F991F1A95E2F720914B01282BC2
:1025300020934B0134C010932A010E943C0488234D
:10254000D9F40E94A904882321F180914C018823A9
:10255000B9F080914C038F3F11F5E0912C01EE23EF
:10256000F1F080912B018F3FB9F0FF27E45BFC4F26
:10257000108210922C0113C08BE00E948B010FC0BF
:1025800081E080934C0110922E038DE00E948B011C
:1025900006C00E945A04D9CF10922B01EACF802F97
:1025A00099278FBF80E090E01F910F9108951F93AE
:1025B00083E00E946F049927182F882319F083E085
:1025C0000E948312812F99271F910895CF92DF9245
:1025D000EF92FF920F931F93CFB6F894DD240E94E1
:1025E000D206DC01CB0166E470E00E94D744BBE078
:1025F000EB2EF12CE80EF91EF092720EE092710EA5
:102600000E94400A00271127A80197010E94FB0A97
:10261000CFBE1F910F91FF90EF90DF90CF90089564
:10262000EF92FF920F931F9380934B034BE453E081
:10263000382F20E0CA01B9010E9474020BE413E0B4
:10264000FF2481E0E82EC801B7010E947402809146
:102650004201882311F40E948B011F910F91FF907A
:10266000EF9008959B01AC01E0911501F0911601E6
:102670003497F0931601E0931501809185039091B2
:1026800086038E179F0738F4E35BFB4F208331836B
:1026900042835383089584E10E94101381E0809364
:1026A000140160E070E00E94FE0508950E94C206D9
:1026B00090580E9432130895EF92FF920F931F9348
:1026C0000E94C2067B018C010E94C2069B01AC01E4
:1026D000C801B7010E9491420E9432131F910F91CD
:1026E000FF90EF900895EF92FF920F931F930E9437
:1026F000C2067B018C010E94C2069B01AC01C8018D
:10270000B7010E9492420E9432131F910F91FF90D5
:10271000EF900895EF92FF920F931F930E94C206CD
:102720007B018C010E94C2069B01AC01C801B7016C
:102730000E9449440E9432131F910F91FF90EF9025
:102740000895EF92FF920F931F930E94C2067B01A0
:102750008C010E94C2069B01AC01C801B7010E9416
:10276000FA420E9432131F910F91FF90EF9008954B
:10277000EF92FF920F931F930E94C2067B018C0180
:102780000E94C2069B01AC01C801B7010E94F6423B
:10279000882329F460E070E080E89FE304C060E0F3
:1027A00070E080E090E00E9432131F910F91FF9043
:1027B000EF900895EF92FF920F931F930E94C2062D
:1027C0007B018C010E94C2069B01AC01C801B701CC
:1027D0000E94F642882329F060E070E080E89FE3E1
:1027E00004C060E070E080E090E00E9432131F912E
:1027F0000F91FF90EF900895EF92FF920F931F9328
:102800000E94C2067B018C010E94C2069B01AC01A2
:10281000C801B7010E94454418162CF460E070E02E
:1028200080E89FE304C060E070E080E090E00E94F8
:1028300032131F910F91FF90EF9008950F931F9304
:102840009A01162F082FC901B8010E9474028091C5
:102850004201882311F40E948B011F910F9108956A
:10286000FA01813909F008952093320360817727B6
:1028700042E353E088E20E941E1442E353E060E02A
:1028800089E20E941E1408950F93FA01813979F4A8
:102890000093E1016081772741EE51E08AE20E94D6
:1028A0001E1441EE51E060E08BE20E941E140F9175
:1028B00008951F93162F882309F07DC0862F8F71EE
:1028C0008430C9F1853018F5823009F44FC0833067
:1028D00009F469C049E75EE0612F77276F71707076
:1028E0006530710589F16630710584F562307105D6
:1028F00009F450C06430710509F458C061307105A5
:1029000009F44AC080E060E00E941E1454C0853083
:1029100091F18630F9F686E090E00E949E0220E078
:1029200030E0813009F444C02093150D1092140D4D
:1029300044E15DE0D1CF46E751E0612F77276F7129
:1029400070706530710579F688E0DDCF673071050C
:1029500081F06730710544F068307105F9F0693035
:10296000710581F68EE0CFCF89E0CDCF4AE753E005
:10297000B3CF8AE0C8CF85E090E00E949E0220E0BD
:1029800030E0813069F02093780E1092770E47E79F
:102990005EE0A2CF86E0B7CF85E0B5CF8BE0B3CFC6
:1029A00021E030E0F0CF4FE65EE096CF87E0ABCF9E
:1029B00021E030E0B9CF1F9108951F93CF93DF93AB
:1029C000182F633089F1643070F0653009F461C00C
:1029D000653008F049C082E00E94B80164E0812FB0
:1029E0000E94F907B0C0613009F465C0623009F097
:1029F000AAC08FB7F894C82FDD2780916301882380
:102A000009F077C091E0909363011092FD02CFBF6F
:102A100080916401882309F484C09093650162E089
:102A2000812F0E94F9078FC08FB7F89420E0CA9BCE
:102A300017C0C99B11C0C89B0DC099278FBF822F9B
:102A400099278093700E10926F0E63E0812F0E9481
:102A5000591479C02460F1CF2260C899EECFFACF23
:102A600021E0C999E8CFF8CF663009F06CC086E064
:102A700090E00E949E0220E030E0813009F460C0C6
:102A80002093EF031092EE0366E0812F0E94591409
:102A90005AC085E090E00E949E0220E030E0813044
:102AA00009F43CC02093AF021092AE0265E0812F82
:102AB0000E94591448C08FB7F894C82FDD27809121
:102AC0005B01882361F460935B0110922704CFBF00
:102AD00080915C018823F1F060935D0105C08091D5
:102AE0002704882361F4CFBF61E0812F0E94F9079A
:102AF0002AC08091FD028823C1F4CFBF90CF80E02F
:102B00000E94B903882379F780918A0381608093BA
:102B10008A03E9CF88E10E948B01E6CF21E030E013
:102B2000C1CF8FE10E948B017ACF80E00E942F02FB
:102B3000882319F780910803816080930803DDCF13
:102B400021E030E09DCFDF91CF911F9108950F9349
:102B50001F938A019B019927AA27BB27FC01359760
:102B6000E532F10508F0C1C0EA5BFF4FEE0FFF1F31
:102B70000590F491E02D09944230510561057105ED
:102B800008F4A4C0642F77276770707085E00E94F6
:102B9000FE05ABC0642F77276770707081E00E94DC
:102BA000FE05A3C0423051056105710508F496C0C9
:102BB000642F77276770707086E00E94FE0595C0CD
:102BC000423051056105710508F478C0642F7727FC
:102BD0006770707087E00E94FE0587C061E080E04A
:102BE0000E94DD1482C066E080E00E94DD147DC09A
:102BF000642F77278CE00E94FE0577C0642F77272B
:102C00008DE00E94FE0571C04093EE0C4EEE5CE03C
:102C1000602F8CE00E941E144EEE5CE060E08DE0C0
:102C20000E941E1462C0BA018EE00E94FE055DC0C3
:102C30001092EE0C4EEE5CE060E08FE00E941E14FD
:102C400054C040E0B80188E290E00E94A5114DC058
:102C500041E0B80189E290E00E94A51146C0642FCE
:102C600077276170707089E00E94FE053EC0642F76
:102C70007727617070708AE00E94FE0536C0642F6D
:102C80007727617070708BE00E94FE052EC065E0B2
:102C900080E00E94DD1429C064E080E00E94DD1421
:102CA00024C0642F77276170707088E00E94FE0551
:102CB0001CC062E080E00E94DD1417C0642F7727FB
:102CC0006170707084E00E94FE050FC0642F77274A
:102CD0006170707082E00E94FE0507C0642F772744
:102CE0006170707083E00E94FE051F910F9108953E
:102CF0001F9341E060E00E9448082091DE0330917C
:102D0000DF03F901E35BFB4F10812F5F3F4F3093EF
:102D1000DF032093DE038F5F0E940209AB01BC0139
:102D2000812F0E94A7151F9108959B01AC01E0918E
:102D30001501F09116013497F0931601E0931501F7
:102D400080918503909186038E179F0738F4E35B8B
:102D5000FB4F2083318342835383089584E10E9493
:102D6000101381E08093140160E070E00E94FE0582
:102D700008950E94D80560957095809590950E9461
:102D8000951608950E94D80520E030E040E050E01C
:102D9000611571058105910521F421E030E040E0E5
:102DA00050E0CA01B9010E94951608950E94D80505
:102DB00090958095709561957F4F8F4F9F4F0E94A2
:102DC00095160895EF92FF920F931F930E94D805D6
:102DD0007B018C010E94D80520E030E040E050E00B
:102DE0006E157F058007910724F021E030E040E078
:102DF00050E0CA01B9010E9495161F910F91FF90F2
:102E0000EF900895EF92FF920F931F930E94D805C1
:102E10007B018C010E94D80520E030E040E050E0CA
:102E20006E157F058007910724F421E030E040E033
:102E300050E0CA01B9010E9495161F910F91FF90B1
:102E4000EF900895EF92FF920F931F930E94D80581
:102E50007B018C010E94D80520E030E040E050E08A
:102E6000E616F7060807190724F421E030E040E0F1
:102E700050E0CA01B9010E9495161F910F91FF9071
:102E8000EF900895EF92FF920F931F930E94D80541
:102E90007B018C010E94D805E114F10401051105A4
:102EA00029F061E070E080E090E012C020E030E0C6
:102EB00040E050E0611571058105910519F4CA01E2
:102EC000B90106C021E030E040E050E0CA01B9019C
:102ED0000E9495161F910F91FF90EF900895EF9229
:102EE000FF920F931F930E94D8057B018C010E94D3
:102EF000D805E114F1040105110579F020E0611510
:102F000071058105910539F081E02827622F772727
:102F10008827992706C021E0F7CF60E070E080E0C5
:102F200090E00E9495161F910F91FF90EF900895E9
:102F300041E060E00E9448088F5F0E9402090E9401
:102F400095160895CF93DF93CDB7DEB724970FB6CC
:102F5000F894DEBF0FBECDBF41E060E00E9448089C
:102F60008130C1F0813058F40E94D8059B01AC013A
:102F700097FD19C00E9495430E94321327C08230EA
:102F800011F0833019F50E94C2060E9467430E9427
:102F900095161CC00E94D80569837A838B839C8315
:102FA0000E949543E9CF6170707080709070569563
:102FB000479537952795622B732B842B952B0E9471
:102FC00095439B01AC010E949242D6CF24960FB646
:102FD000F894DEBF0FBECDBFDF91CF9108951F9350
:102FE000CF93DF93CDB7DEB724970FB6F894DEBF4B
:102FF0000FBECDBF42E060E00E944808182F0E943B
:10300000D8059B01AC01FB011330F1F0143088F0BE
:10301000153009F441C0153060F564E0C9010E9423
:103020006C07772767FD7095872F972F0E9495165D
:1030300046C01130E1F1123028F162E0C9010E946E
:103040006C070E9495163BC080917803909179039C
:10305000E80FF91F80819181A281B38189839A83CE
:10306000AB83BC8369817A818B819C810E943213FE
:1030700026C0163021F566E0C9010E946C070E9447
:1030800095161DC060E0C9010E946C07772788274C
:1030900099270E94951613C065E0C9010E946C072C
:1030A000882777FD8095982F0E94951608C061E0CB
:1030B000C9010E946C07882799270E9495162496BB
:1030C0000FB6F894DEBF0FBECDBFDF91CF911F9139
:1030D0000895CF92DF92EF92FF920F931F93CF93B9
:1030E000DF938C01E62E6A01F22E8FB7F894C82F79
:1030F000DD2760E080E00E942B04882321F0CFBF11
:1031000080E090E022C0CFBF0E0D111D802F80689F
:103110000E94B404E82E16950795802F807C0E94AB
:10312000B404FF2081F08F2D9927EC0102C08F2D70
:103130009927FE01E81BF90BEC0DFD1D80810E9413
:10314000B404FA94A1F78E2D9927DF91CF911F91A6
:103150000F91FF90EF90DF90CF900895CF93DF9382
:10316000CDB7DEB72C970FB6F894DEBF0FBECDBF3C
:103170008FB7F894282FAE014F5F5F4FDA01EFE170
:10318000F4E088E001900D928150E1F780913703DF
:10319000909138038987892F99278A8780915303D3
:1031A000909154038B87892F99278C872FBF2CE010
:1031B00060E080E691E00E9469182C960FB6F894C2
:1031C000DEBF0FBECDBFDF91CF9108951F93CF9388
:1031D000DF93182F8FB7F894C82FDD2760E080E0C9
:1031E0000E942B04882321F0CFBF80E090E005C02F
:1031F000CFBF812F0E94B4049927DF91CF911F91F7
:103200000895EF92FF920F931F93CF93DF93182FA0
:103210007B01042F8FB7F894C82FDD2760E080E092
:103220000E942B04882321F0CFBF80E090E014C0DF
:10323000CFBF1064812F9927909358038093570331
:103240000E94B404182F402F5527B70180E090E06A
:103250000E943205812F9927DF91CF911F910F9105
:10326000FF90EF900895C09860916D0170916E018C
:1032700041E08FE30E940119089582E090E090936D
:10328000FC028093FB0281E08093360320E030E073
:1032900080912A01843071F0232B49F484E00E944C
:1032A0006F04882321F084E00E94831208950E9415
:1032B0003319089521E030E0EFCF1F920F920FB63F
:1032C0000F9211242F933F934F935F936F937F93AC
:1032D0008F939F93AF93BF93EF93FF938091FB02E4
:1032E0009091FC02019731F080912D038F5F8093C4
:1032F0002D0308C082E090E09093FC028093FB02D3
:103300000E943D19FF91EF91BF91AF919F918F91D5
:103310007F916F915F914F913F912F910F900FBED1
:103320000F901F90189580914B01882321F4809174
:103330002A018F3F19F081E090E0089560E080E07D
:103340000E942B048823B9F381E0809329048091A3
:10335000D702882329F01092290485E090E008958F
:1033600080E00E943C048111C09A80914C0182301F
:1033700051F00E94A904882319F480E00E944E04B1
:1033800080E090E0089580912D01882391F780914D
:103390002B0120E030E08F3F11F421E030E0232BBF
:1033A000D1F49FEF90932D018F3F61F0282F3327A9
:1033B000F901E45BFC4F808180932B018F3F89F002
:1033C0009083822F80932E0381E080934C018DE0C7
:1033D0000E948B01CECF8FEF80932D0110924C0174
:1033E000C8CF90932C01ECCF1F93CF93DF939FB75F
:1033F000F894C92FDD271C2F90912A01981721F0EE
:10340000CFBF81E090E040C08FEF80932A01E09130
:103410004B01EE2351F14E2F552740FD32C070E095
:1034200065E0872F8F5F0E94CB44792F292F3327A8
:10343000CA01022E02C0959587950A94E2F780FF93
:10344000F0CF81E090E002C0880F991F2A95E2F743
:10345000809570932A018E2380934B018BE00E940C
:103460008B011FBF80E090E00FC08FB7F8949927C1
:10347000109217048FBF0E949319CFBF80E090E095
:1034800003C070E08EEFE5CFDF91CF911F910895DB
:103490001F93CF93DF938FB7F894C82FDD271C2F8E
:1034A0008091FB029091FC02892BA1F010923603CF
:1034B00080912D03882341F40E9911C0882331F4A3
:1034C0000E943D191FBF17C0B79BF6CF8150809354
:1034D0002D03F6CF84E00E94F419CFBF0CC081E029
:1034E00090E09093FC028093FB0210922D0384E005
:1034F0000E94F419E7CFDF91CF911F9108950E94A8
:10350000250AC09AC09888E00E94E61888E00E94C8
:10351000E618C09A84E00E94F4190E94481A08959F
:10352000FF920F931F93CF93DF93F82E8B018FB7EA
:10353000F894C82FDD2760E080E00E942B048823E8
:1035400021F0CFBF80E090E00CC0CFBF8F2D0E9454
:10355000B404812F99270E94B404802F0E94B404E0
:103560009927DF91CF911F910F91FF9008951F939D
:103570001FB7F89480912C038823C1F460E070E0B9
:1035800080913A03882319F190E080911E048823EA
:1035900009F181E09827892F992782959295907F4C
:1035A0009827807F9827826E926220C060E0809189
:1035B0006C0E882389F081E068277727762F6627AD
:1035C000770F770F770F80913A038823E9F682EE21
:1035D00092E20CC091E0DDCF61E081E068277727BF
:1035E000762F6627770F770F770FEDCF682B792B24
:1035F00081E10E94901A812F99278FBF1F91089512
:103600008FB7F8949927609128048FBF85E0689F51
:10361000B0011124625D7E4F706488E10E94901AAF
:103620000895EF92FF921F93CF93DF93E0903B03B7
:10363000F0903C03F70183A59927182F882309F4FC
:103640001FE0C09880910603181749F0612F772773
:103650006F717070606E706885E10E94901A1093AF
:103660000603F70110818FB7F894C82FDD2760E0BB
:1036700080E00E942B04882311F0CFBF12C0CFBF7F
:103680008EE390E090935803809357038EE30E945B
:10369000B4041150412F552760E070E0C7010E942B
:1036A0003205DF91CF911F91FF90EF9008950F9316
:1036B0001F93CF93DF93EC010FB7F89411270E946B
:1036C000CD03FC018FE380830FBF1092F00C1092AA
:1036D000EF0C61E082E00E941104882319F085E07C
:1036E00090E078C080912A048F5F80932A048150F3
:1036F0008B838FB7F894082F112762E081E00E9436
:103700002B04882309F447C08FB7F894992724E045
:10371000209318048FBFD0937303C09372030FBF1D
:10372000FE013196818129819927982F8827332797
:10373000822B932B80729C7C8983892F992781838C
:103740002981982F882733272164822B932B898303
:10375000892F992781831DA619A61AA61AAA19AA24
:1037600018AA80E88FA761E060931B044091720360
:10377000509173038FB7F894282F332780914D0110
:1037800090914E018830910511F0019751F02FBFB3
:1037900080E090E01FC00FBF0E94530581E090E0E1
:1037A00019C082E090E090934E0180934D016093A8
:1037B000750E50933C0340933B03109275012FBF4D
:1037C0000E94D712882319F080E090E003C00E9485
:1037D000111BFACFDF91CF911F910F9108951F9385
:1037E000182F81E090E090934E0180934D0110924C
:1037F000D7020E9493198FB7F89499271093470125
:103800008FBF87E00E948B011F9108951F93CF9374
:10381000DF938FB7F894C82FDD271C2F80914D01BF
:1038200090914E010897A1F1C0988091750E882360
:10383000C1F085E00E94E61883FF18C083E090E0A5
:1038400021E090934E0180934D01C09A1FBF222327
:10385000B1F01092750183E00E94F4190E94E61203
:103860002FC084E00E94E61883FDE8CF80E00E942C
:10387000E61883FFE3CF85E090E020E0E2CF0E94EE
:10388000400A20E431E040E050E00E94FB0A18C00A
:1038900089E00E94E61883E00E94F419C09A81E052
:1038A00090E090934E0180934D018FB7F894992743
:1038B00023E0209347018FBF87E00E948B01CFBF99
:1038C000DF91CF911F9108951F93CF93DF938FB70F
:1038D000F894992710912A018FBF1230C9F0133044
:1038E00038F0133009F442C0143009F0B5C03BC0C1
:1038F0001123F9F4C0988FB7F894C82FDD27809171
:10390000480190914901029709F452C0CFBFA4C069
:10391000C0988FB7F894C82FDD2760E080E00E9440
:103920002B048823A1F1CFBFC09A82E00E94F41932
:1039300093C0113009F090C0C09886E00E94E6184C
:103940000E94001B0E94B71A0E94AE18C09AC0982D
:1039500083E00E94E618C09A81E00E94F41989E091
:103960000E948B0179C00E94331976C08FB7F894FA
:10397000992720914D018FBF2430B9F0283009F4E8
:1039800050C0223079F083E00E94F41965C0CFBFA7
:1039900083E50E94B40480E00E94B40480E00E94A9
:1039A000B404C2CF0E94111B57C00E94061C54C011
:1039B00083E090E0909349018093480168E170E0D2
:1039C0008DE10E94901A81E08093550310924A0184
:1039D00080B399270024880F991F001C880F991F16
:1039E000001C892F902D81709070809356038AE07F
:1039F0000E948B0181E00E94E6186FE772E08CE183
:103A00000E94901A0E94001B0E94B71A66E57AE293
:103A100087E10E94901A6FEE70E885E10E94901A8B
:103A200075CFC09889E00E94E618C09A83E00E9492
:103A3000F4198FB7F894992721E030E030934E01C4
:103A400020934D018FBF8FB7F894992710934701AA
:103A50008FBF87E00E948B01DF91CF911F91089566
:103A600078941F920F920FB60F9211242F923F92CB
:103A70004F925F926F927F928F929F92AF92BF927E
:103A8000CF92DF92EF92FF920F931F932F933F936A
:103A90004F935F936F937F938F939F93AF93BF9356
:103AA000CF93DF93EF93FF93C6B5D7B58FB7F89455
:103AB000282E0E94400A9B012C1B3D0B44275527B2
:103AC0002B013C01421A530A640A750A80914D0188
:103AD00090914E018530910509F445C0069709F48F
:103AE00079C080914F01882341F03090340310E079
:103AF000F1E03F1609F03CC18EC030903403332012
:103B0000B1F7B1E03B2E309234030E94160B80B324
:103B10002091E20C283098F4E091E70CE20FFF27A7
:103B2000E770F070EE0FFF1FEE0FFF1FE357F34F2C
:103B300040825182628273822F5F2093E20C309226
:103B40004F01D0935A03C0935903849911C1992707
:103B5000929582958F7089279F708927182F1170F1
:103B600030903403C5CF86E090E090934E0180936F
:103B70004D0131E0332E3092340310924F0180E03A
:103B80000E94160BE0913B03F0913C0342AABB2735
:103B9000A72D962D852D81ABC301AA27BB2780AB0E
:103BA000872D9927AA27BB2787A7E0913B03F09190
:103BB0003C0386A5882309F052C0818185FF02C09D
:103BC0003092D70283E00E94F41987B78F7E87BFB7
:103BD0008499CEC01092340381E00E94160BE091CC
:103BE0003B03F0913C03818185FF11C087E090E0A9
:103BF00090934E0180934D010E94400A20E031E0F5
:103C000040E050E00E94FB0A849BB2C06ACF80E093
:103C10000E94EF1BF9CF1092340381E00E94160B33
:103C200010924F01112309F0A3C080915903909184
:103C30005A03C81BD90B2A9708F09AC08091E20C4E
:103C4000882319F081508093E20C80913B0390917E
:103C50003C03009709F48CC00E94310A89C060813E
:103C6000655077274B018E0E9F1EF4012081E18065
:103C70008281A3809927AA27BB27BA2FA92F982F23
:103C80008827332744275527522F442733272227B5
:103C9000FF24002711278701FF24EE242E293F2926
:103CA000402B512BBB24CC24DD242A293B294C2931
:103CB0005D29822B932BA42BB52B84199509A6097A
:103CC000B7098383292F3A2F4B2F552722839D0134
:103CD0004427552721838B2F9927AA27BB27808329
:103CE000C09824E0A40180E090E00E946918C09A86
:103CF000F4012081E1808281A3809927AA27BB2734
:103D0000BA2FA92F982F8827332744275527522FBA
:103D1000442733272227FF24002711278701FF2468
:103D2000EE242E293F29402B512BBB24CC24DD240B
:103D30002A293B294C295D29822B932BA42BB52BB7
:103D4000840D951DA61DB71D8383292F3A2F4B2F58
:103D5000552722839D014427552721838B2F99279F
:103D6000AA27BB278083E0913B03F0913C0325CF3A
:103D70002FBEFF91EF91DF91CF91BF91AF919F91B6
:103D80008F917F916F915F914F913F912F911F91F3
:103D90000F91FF90EF90DF90CF90BF90AF909F90EA
:103DA0008F907F906F905F904F903F902F900F90EB
:103DB0000FBE0F901F90189578941F920F920FB618
:103DC0000F9211241F932F933F934F935F936F9301
:103DD0007F938F939F93AF93BF93EF93FF9387B797
:103DE0008F7E87BF78941FB7F89480914703909196
:103DF0004803A0914903B0914A030097A105B1057A
:103E0000A9F580914D0190914E0185309105D9F031
:103E10008630910570F583309105B9F1049771F101
:103E20008091480190914901019709F046C082E0D4
:103E300090E09093490180934801DE98DE9A80E0FB
:103E40000E9483123AC089E00E94E61881E00E9435
:103E5000160B83E00E94F41987E00E94EF1B80910B
:103E6000480190914901019741F5E1CF0E945D0A17
:103E700024C08730910571F0089789F70E94D71206
:103E8000882369F70E94061CEACF869907C00E9422
:103E9000E612E5CF80E00E94EF1BE1CF84E090E0E6
:103EA00090934E0180934D010E94400A27E030E03C
:103EB00040E050E00E94FB0AD2CF812F99278FBFAC
:103EC000FF91EF91BF91AF919F918F917F916F91F2
:103ED0005F914F913F912F911F910F900FBE0F90C7
:103EE0001F901895CF92DF92EF92FF920F931F933E
:103EF000CF93DF93EB01809157039091580386FF96
:103F000005C08F7B8F3309F0B4C118C08E3309F020
:103F1000B0C1C09A80914D0190914E01089709F46B
:103F2000B3C08091750E882331F584E090E09093C2
:103F30004E0180934D010E94061C9BC1C0906D01F3
:103F4000D0906E01F6014081409300038091FB0206
:103F50009091FC028530910589F18630910509F434
:103F60004DC0029709F4A9C010923603C09A84E0AC
:103F70000E94F4197EC183E00E94F41983E090E06E
:103F800090934E0180934D010E94D206DC01CB013B
:103F900066E371E00E94D7444BE0E42EF12CE80E7A
:103FA000F91EF0928901E09288010E94400A0027E0
:103FB0001127A80197010E94FB0A5BC186E090E0EF
:103FC0009093FC028093FB0280913A03882341F096
:103FD00080911E04882321F4E601898185FDCCC0EF
:103FE000409100034750552788E090E0C80ED91E45
:103FF000B60180E090E00E9432053BC1C09A8091FA
:104000002D03882309F489C0B79937C00E9B35C0AA
:104010002091E20C222389F1809100038B3068F11A
:10402000213009F403C18091E70C9927019668E0DB
:1040300070E00E94EB448093E70C21502093E20C47
:10404000222309F0E8C080910003F601E80FF11D7A
:10405000808187FF0FC0CD2B69F0E6016981677011
:10406000E0916D01F0916E01623009F45FC0613042
:1040700009F4CDC00E94481AFCC080916D01909156
:104080006E010E94310ADFCFC09889E00E94E618D5
:10409000C09A83E00E94F41981E090E090934E0171
:1040A00080934D018FB7F894992723E0209347011F
:1040B0008FBF87E00E948B01DCC085E090E0909389
:1040C000FC028093FB025091AD02842F9927019648
:1040D000252F332728173907ECF0B79906C00E991A
:1040E00004C0541B51505093AD02409100034B3219
:1040F00088F4442309F482C0483008F46FC008945F
:10410000C11CD11C47E050E0B60180E090E00E9465
:104110003205AFC00E947F1AACC084E00E94F4193F
:1041200080912D03882309F471CF6ECFA0913B03BA
:10413000B0913C03109709F49DCF80914D0190916F
:104140004E01079709F096CFED019B818381981767
:1041500009F090CF87B78F7E87BF908181E08DA7D0
:10416000E90FF11D8291319689A780818F778AA707
:1041700080E00E94EF1B7ECF0F81EE800E94FB0942
:104180001127102F0027FF240E291F2908171907B0
:1041900061F08F812E819927982F88273327822BD2
:1041A000932B8F5F9F4F09F01BCFE60189818770AA
:1041B000813009F015CFC09AC0988AE00E94E618B5
:1041C000C09AC098409100034750E8E0F0E0CE0E5E
:1041D000DF1EB6018FE30E9401194BC086E090E01C
:1041E0009093FC028093FB0255270894C11CD11CBC
:1041F000B60180E090E00E9432053BC01092360389
:10420000C09A84E00E94F4190E94481A32C08EE0DD
:104210000E948B012EC080916D0190916E010E94D1
:10422000310A1092E70C1092E20C0DCFE091E70CEE
:10423000FF27EE0FFF1FEE0FFF1FE357F34F208105
:10424000318142815381E0916D01F0916E0122AB89
:10425000BB27A52F942F832F81ABCA01AA27BB2789
:1042600080AB252F33274427552727A72091E20C21
:10427000DACEDF91CF911F910F91FF90EF90DF90F9
:10428000CF9008951F920F920FB60F9211242F9383
:104290003F934F935F936F937F938F939F93AF93CE
:1042A000BF93EF93FF932FB1E091DC03F091DD0317
:1042B000309739F080917F0390918003E80FF91FC8
:1042C000208380917F0390918003019690938003D7
:1042D00080937F0380E00E945404409173015091C9
:1042E000740180917F03909180038417950718F4DF
:1042F0000E94C0041CC06091DC037091DD038091BA
:104300006D0E90916E0E1092DD031092DC031092F0
:104310006E0E10926D0E1092740110927301109235
:10432000800310927F032FB120E00E94721FFF9143
:10433000EF91BF91AF919F918F917F916F915F911D
:104340004F913F912F910F900FBE0F901F90189596
:104350002F923F924F925F926F927F928F929F9295
:10436000AF92BF92CF92DF92EF92FF920F931F9383
:10437000CF93DF93CDB7DEB725970FB6F894DEBFA6
:104380000FBECDBF40E060E00E944808A82E80919B
:10439000DE039091DF03FC01E35BFB4F008101969C
:1043A0009093DF038093DE03112747E067E0802FBF
:1043B0000E944808B82E46E064E0802F0E9448081A
:1043C000282E43E063E0802F0E944808C82E42E078
:1043D00060E0802F0E944808382E83E0281609F4F8
:1043E00077C0222D237081E090E001C0880F2A95CC
:1043F000EAF78D8301E010E0C80102C0880F991F21
:10440000BA94E2F70E9484082C01C80102C0880F08
:10441000991FCA94E2F70E9484083C0102C0000F71
:10442000111FAA94E2F7802F0E9484084C01AA244D
:10443000BB24632DC3010E946C07681579058A05AA
:104440009B0508F041C083E02816E9F00E94D805DA
:104450006B017C01632DC3010E946C07A5019401CF
:104460000E94FE44ED812E2F3327442755270E94BA
:10447000AC44460E571E022D26E0A201C701B6012C
:104480000E94520D28C00E94C20669837A838B83E2
:104490009C83632DC3010E946C07A50194010E94B7
:1044A000FE44ED812E2F3327442755270E94AC442C
:1044B000460E571E69817A818B819C8103E023E03F
:1044C000A2010E94520D07C08BE00E94101303C08E
:1044D000E4E0ED838FCF25960FB6F894DEBF0FBED4
:1044E000CDBFDF91CF911F910F91FF90EF90DF90A3
:1044F000CF90BF90AF909F908F907F906F905F9084
:104500004F903F902F9008958F929F92BF92CF929D
:10451000DF92EF92FF920F931F93CF93DF93CDB76C
:10452000DEB72A970FB6F894DEBF0FBECDBF40E0CE
:1045300060E00E944808C82E8091DE039091DF035E
:10454000FC01E35BFB4F008101969093DF038093B6
:10455000DE03E02EFF24FC82EB8247E067E08B81E4
:104560000E944808F82E46E064E08B810E944808CB
:10457000182F43E063E08B810E944808E82E42E058
:1045800060E08B810E944808D82E133009F454C093
:10459000137081E090E0B82E01C0BB0C1A95EAF7C9
:1045A00001E010E01E830D83C80102C0880F991F2F
:1045B000FA94E2F70E9484084C01C80102C0880FF7
:1045C000991FEA94E2F70E9484087C0102C0000F60
:1045D000111FCA94E2F71E830D838D810E94840807
:1045E0009A8389836D2DC7010E946C07E981FA8146
:1045F0009F0144275527621773078407950720F00A
:104600008BE00E9410131BC07401002711270E9429
:10461000FE442B2D3327442755270E94AC44E60E39
:10462000F71E081F191FEF82F88609871A87C8012D
:10463000B7010E94951603C034E0B32EB1CF2A967D
:104640000FB6F894DEBF0FBECDBFDF91CF911F91A3
:104650000F91FF90EF90DF90CF90BF909F908F9041
:104660000895DF92EF92FF920F931F9340E060E076
:104670000E944808D82E0E94D8057B018C0181E059
:1046800090E002C0880F991FDA94E2F70E94840834
:10469000AC0180917803909179038E0D9F1D6091FC
:1046A0001A0170911B010E947F451F910F91FF908D
:1046B000EF90DF90089540E060E00E94480821E01C
:1046C00030E002C0220F331F8A95E2F7822F0E944A
:1046D000840860E00E948910089540E060E00E9434
:1046E000480821E030E002C0220F331F8A95E2F72C
:1046F000822F0E9484089093DF038093DE03089545
:1047000040E060E00E94480821E030E002C0220F53
:10471000331F8A95E2F7822F0E948408E091780384
:10472000F0917903E80FF91F8081882349F0809187
:10473000DE039091DF0301969093DF038093DE0305
:104740000895DF92EF92FF920F931F9340E060E095
:104750000E944808D82E8091DE039091DF03FC016F
:10476000E35BFB4F008101969093DF038093DE03B0
:10477000112747E067E0802F0E944808E82E46E0B6
:1047800060E0802F0E944808182F81E090E002C06E
:10479000880F991FDA94E2F70E948408FF249C0195
:1047A000A701612F80E00E94C00F1F910F91FF9021
:1047B000EF90DF900895DF92EF92FF920F931F9397
:1047C000CF93DF93182F41E061E00E944808E82E64
:1047D00040E060E0812F0E944808D82E01E010E000
:1047E000C80102C0880F991FEA94E2F70E9484086A
:1047F000EC0102C0000F111FDA94E2F7802F0E9433
:104800008408AC01892B99F020E030E0E0E0F0E092
:10481000EC0FFD1F8091780390917903E80FF91F49
:1048200010822F5F3F4FF9014217530789F7DF913D
:10483000CF911F910F91FF90EF90DF900895DF923D
:10484000EF92FF920F931F93CF93DF93182F41E0C6
:1048500061E00E944808E82E40E060E0812F0E945D
:104860004808D82E01E010E0C80102C0880F991F47
:10487000EA94E2F70E948408EC0102C0000F111FC5
:10488000DA94E2F7802F0E9484088C010E94D805F8
:10489000611571058105910529F0D093DF03C0935F
:1048A000DE0304C01093DF030093DE03DF91CF919A
:1048B0001F910F91FF90EF90DF900895BF92CF92DC
:1048C000DF92EF92FF920F931F93CF93DF93CDB7B9
:1048D000DEB728970FB6F894DEBF0FBECDBF80912C
:1048E000DE039091DF03FC01E35BFB4F0081019647
:1048F0009093DF038093DE03112747E067E0802F6A
:104900000E944808E82E46E064E0802F0E94480894
:10491000B82E43E063E0802F0E944808D82E42E082
:1049200060E0802F0E944808C82E01E010E0C80116
:1049300002C0880F991FEA94E2F70E9484087C0164
:1049400002C0000F111FDA94E2F7802F0E94840842
:1049500023E0C21649F06C2D0E946C070B2D2C2D04
:10496000A7010E94520D1EC0E0917803F0917903D7
:10497000E80FF91F80819181A281B3818D839E838D
:10498000AF83B8878D819E81AF81B88589839A83F3
:10499000AB83BC8369817A818B819C810B2DA701BC
:1049A0000E94520D28960FB6F894DEBF0FBECDBF01
:1049B000DF91CF911F910F91FF90EF90DF90CF90FB
:1049C000BF9008952F923F924F925F926F927F9285
:1049D0008F929F92AF92BF92CF92DF92EF92FF920F
:1049E0000F931F93CF93DF93CDB7DEB725970FB605
:1049F000F894DEBF0FBECDBFE091DE03F091DF0380
:104A0000CF010196E35BFB4F00811127FC01E35BC3
:104A1000FB4FE08001969093DF038093DE03FF2439
:104A200047E067E0802F0E944808B82E46E064E027
:104A3000802F0E944808382E43E063E0802F0E94B8
:104A40004808C82E42E060E0802F0E944808282EC7
:104A500042E062E08E2D0E944808D82E41E060E0DE
:104A60008E2D0E944808F82E23E0321609F479C0F2
:104A7000232D237081E090E001C0880F2A95EAF78A
:104A80008D8301E010E0C80102C0880F991FBA941D
:104A9000E2F70E9484083C01C80102C0880F991FF8
:104AA000CA94E2F70E9484082C0102C0000F111F73
:104AB000DA94E2F7802F0E9484088C018F2D8F5F9B
:104AC0000E9402096B017C01622DC2010E946C07E9
:104AD0004801AA24BB24681579058A059B05E8F5D9
:104AE000E3E03E16A9F0A50194010E94FE44ED8189
:104AF0002E2F3327442755270E94AC44660E771E7D
:104B0000032D222DA301C701B6010E94520D41C001
:104B1000F7FC2AC0C701B6010E94954369837A83D6
:104B20008B839C83622DC2010E946C07A5019401B6
:104B30000E94FE44ED812E2F3327442755270E94E3
:104B4000AC44660E771E69817A818B819C8103E07B
:104B5000222DA3010E94520D1CC08BE00E94101355
:104B600018C084E08D838DCFC701B601617070706D
:104B700080709070F694E794D794C7946C297D293F
:104B80008E299F290E9495439B01AC010E9492426D
:104B9000C5CF25960FB6F894DEBF0FBECDBFDF910F
:104BA000CF911F910F91FF90EF90DF90CF90BF902A
:104BB000AF909F908F907F906F905F904F903F90BD
:104BC0002F9008954F925F926F927F928F929F9253
:104BD000AF92BF92CF92DF92EF92FF920F931F930B
:104BE000CF93DF93CDB7DEB728970FB6F894DEBF2B
:104BF0000FBECDBFE091DE03F091DF03CF01019640
:104C0000E35BFB4F00811127FC01E35BFB4FE0807E
:104C100001969093DF038093DE03FF2447E067E073
:104C2000802F0E944808D82E46E064E0802F0E9422
:104C30004808682E43E063E0802F0E944808B82EA1
:104C400042E060E0802F0E944808582E44E064E073
:104C50008E2D0E944808882E43E063E08E2D0E942E
:104C60004808982E42E060E08E2D0E944808782E79
:104C700023E0621609F488C0262D237081E090E0BD
:104C8000482E01C0440C2A95EAF701E010E0C80163
:104C900002C0880F991FDA94E2F70E9484086C0121
:104CA000C80102C0880F991FBA94E2F70E948408D5
:104CB0005C01C80102C0880F991F8A94E2F70E9424
:104CC00084087C0102C0000F111F9A94E2F7802F24
:104CD0000E9484084C01652DC5010E946C070027C5
:104CE00011276E157F058007910708F049C023E062
:104CF0007216B1F0A80197010E94FE44242D3327BB
:104D0000442755270E94AC44C60ED71E672DC40108
:104D10000E946C07062D272DA6010E94520D37C058
:104D2000E0917803F0917903E80DF91D808191817C
:104D3000A281B3818D839E83AF83B8878D819E814D
:104D4000AF81B88589839A83AB83BC83652DC50108
:104D50000E946C07A80197010E94FE44242D33276E
:104D6000442755270E94AC44C60ED71E69817A811C
:104D70008B819C81062D23E0A6010E94520D07C065
:104D80008BE00E94101303C054E0452E7ECF28967E
:104D90000FB6F894DEBF0FBECDBFDF91CF911F914C
:104DA0000F91FF90EF90DF90CF90BF90AF909F90CA
:104DB0008F907F906F905F904F900895FF920F9328
:104DC0001F93182FF090190142E061E00E944808FB
:104DD000082F40E060E0812F0E94480821E030E089
:104DE00002C0220F331F8A95E2F7822F0E948408A7
:104DF0009C0140E050E06FEF8F2D800F0E94C00FAC
:104E00001F910F91FF9008950F931F93CF93DF93FE
:104E1000CDB7DEB724970FB6F894DEBF0FBECDBF77
:104E2000182F43E063E00E944808082F42E060E04A
:104E3000812F0E944808182F81E090E002C0880F5F
:104E4000991F0A95E2F70E948408133031F0612F10
:104E50000E946C070E94951614C0E0917803F091AF
:104E60007903E80FF91F80819181A281B381898341
:104E70009A83AB83BC8369817A818B819C810E94F8
:104E8000321324960FB6F894DEBF0FBECDBFDF916C
:104E9000CF911F910F910895EF92FF920F931F935F
:104EA000CF93DF93CDB7DEB724970FB6F894DEBF6C
:104EB0000FBECDBF182F43E063E00E944808082FC3
:104EC00042E060E0812F0E944808182F81E090E0C6
:104ED00002C0880F991F0A95E2F70E9484087C019E
:104EE000133041F00E94D805012F26E0A7010E944F
:104EF000520D0FC00E94C20669837A838B839C8304
:104F000069817A818B819C8103E023E0A7010E9463
:104F1000520D24960FB6F894DEBF0FBECDBFDF91C1
:104F2000CF911F910F91FF90EF900895CF92DF9254
:104F3000EF92FF920F931F93CF93DF93182F41E0CF
:104F400061E00E944808E82E40E060E0812F0E9466
:104F50004808D82E01E010E0C80102C0880F991F50
:104F6000EA94E2F70E9484087C0102C0000F111F3E
:104F7000DA94E2F7802F0E9484086C0120911701D7
:104F800030911801121613065CF5C1E0D0E004E080
:104F900010E006C021960C5F1F4F2C173D0704F14F
:104FA000E0912401F0912501E00FF11F82819381AE
:104FB0008E159F0578F3C816D90660F36C2F80E034
:104FC00090E00E94080F2197045010402091170193
:104FD0003091180121960C5F1F4F2C173D0704F7E5
:104FE000DF91CF911F910F91FF90EF90DF90CF90C5
:104FF0000895DF92EF92FF920F931F93182F41E0D5
:1050000061E00E944808E82E40E060E0812F0E94A5
:105010004808D82E01E010E0C80102C0880F991F8F
:10502000EA94E2F70E9484087C0102C0000F111F7D
:10503000DA94E2F7802F0E9484082091780330915F
:10504000790360911A0170911B01AC01C701820FB5
:10505000931F0E947F451F910F91FF90EF90DF906B
:105060000895BF92CF92DF92EF92FF920F931F931A
:10507000182F42E062E00E944808C82E41E061E03B
:10508000812F0E944808E82E40E060E0812F0E94B6
:105090004808B82E01E010E0C80102C0880F991F2F
:1050A000CA94E2F70E9484086C01C80102C0880F0C
:1050B000991FEA94E2F70E9484087C0102C0000F65
:1050C000111FBA94E2F7802F0E9484082091780380
:1050D00030917903E20EF31EA601B701820F931FF0
:1050E0000E947F451F910F91FF90EF90DF90CF902E
:1050F000BF900895AF92BF92CF92DF92EF920F933D
:105100001F935B016C018091A50381FF03C08D7F1C
:105110008093A5030E947603AB01BC01E1E0EE2E73
:105120009601850182E00E9457031F910F91EF9035
:10513000DF90CF90BF90AF900895DF92EF92FF92F3
:105140000F931F93182F41E061E00E944808E82E5A
:1051500040E060E0812F0E944808D82E01E010E076
:10516000C80102C0880F991FEA94E2F70E948408E0
:105170007C0102C0000F111FDA94E2F7802F0E9419
:105180008408EE0CFF1C20912601309127012E0D82
:105190003F1DE091EC0CF091ED0CE20FF31F9183B9
:1051A00080838091A50381FD06C062E070E080E00D
:1051B00090E00E947A281F910F91FF90EF90DF906E
:1051C0000895AF92BF92CF92DF92EF920F931F9309
:1051D0005B016C010E947603AB01BC01A1E0EA2EE9
:1051E0009601850184E00E9457031F910F91EF9073
:1051F000DF90CF90BF90AF900895EF92FF920F9302
:105200001F93CF93DF93CDB7DEB725970FB6F894F2
:10521000DEBF0FBECDBF0FB7F894112781E00E940B
:10522000160B81E0E82EF12CF0924E01E0924D0138
:1052300010924F011092D702109206030FBF0FB7C2
:10524000F89411270E94250AF092FC02E092FB02DA
:105250001092360389B78F7B89BF80E488BF8AB7F5
:1052600080628ABF8AB78F7E8ABF89B7806489BF10
:105270000FBF8FB7F894082F1127809148019091A4
:105280004901049709F43CC00FBF0FB7F8941127E8
:10529000C09A80E00E94F4190FBF8FB7F894992745
:1052A00022E0209318048FBF20910001309101016A
:1052B0002093E301832F99278093E20180912801B5
:1052C000882311F11092280181E0809329018983BC
:1052D0001B821A821D821C828FEF80933103809380
:1052E0003003CE0101960E941E1164EF71E080E050
:1052F00090E00E94E128209100013091010104C05A
:1053000083E00E94E618C0CF20935E03832F992785
:1053100080935D0325960FB6F894DEBF0FBECDBF18
:10532000DF91CF911F910F91FF90EF900895AF9271
:10533000BF92CF92DF92EF920F931F935B016C01AC
:105340000E947603AB01BC0191E0E92E9601850134
:1053500085E00E9457031F910F91EF90DF90CF904F
:10536000BF90AF900895AF92BF92CF92DF92EF922D
:105370000F931F935B016C010E947603AB01BC018C
:1053800021E0E22E9601850183E00E9457031F91E0
:105390000F91EF90DF90CF90BF90AF900895AF92B4
:1053A000BF92CF92DF92EF92FF921F93CF93DF9342
:1053B0004091B102552766EB72E086E991E00E94C8
:1053C0007F458091B40280FF91C06AE8E62E61E0DB
:1053D000F62E670157010894A11CB11C20918C0185
:1053E0003327322F222780918B0199278062282B27
:1053F000392B20938B01232F332720938C0180910D
:10540000B5029927E82F882351F0FF27E770F07045
:10541000EC5CFE4F80818032D0F48093B5018091A6
:10542000B102C82FDD271C2F8091B2022091B30258
:105430004091B002CE3168F0609143037091440313
:1054400080914503909146030E94B3297EC08FE16D
:10545000E4CF9927982F88273327822B932BF601A7
:1054600043878683892F9927809391012FB7F894DA
:10547000332780913703909138032FBF8483892F7E
:10548000992780938F010E940E0AF6018087892F49
:1054900099278093930120918C013327322F222763
:1054A00080918B01992780649868282B392B218360
:1054B000232F3327F5012183135F10938A011D5099
:1054C00080913101882369F1109231016C2F8AE8B3
:1054D00091E00E94571B9927282F882319F08FEFFE
:1054E00080933101222309F0A7CF2FC03AE8E32EA1
:1054F00031E0F32E670157010894A11CB11C809183
:105500008C019927982F882720918B013327822B94
:10551000932B8F7D80938B01892F992780938C010A
:105520006ECF812F992790936F0380936E03F09233
:105530005201E092510181E10E948B018091310181
:10554000882309F479CF10924203DF91CF911F9104
:10555000FF90EF90DF90CF90BF90AF900895809133
:1055600003038F5F8093030380EB92E00E948D1111
:10557000882381F48091B002813A49F0823A39F06F
:10558000803A29F08C3810F0863908F008950E948E
:10559000CF29089580EB92E00E945D1108950F934A
:1055A0001F93CF93DF93EB01142F87FF77C080EB1E
:1055B00092E00E948D1100E08091B40280FD01E034
:1055C000112349F5002321F580EB92E00E945D1143
:1055D000109203036091430370914403809145034B
:1055E000909146030E94B3298091B002E82FFF27D3
:1055F000EC3808F453C0E63908F050C00130E1F14E
:1056000020E046EB52E0BE018E2F0E94301446C0CF
:105610008DA58823C9F680910303853058F46091E5
:1056200043037091440380914503909146030E9487
:10563000B32934C080EB92E00E945D111092030305
:105640006091430370914403809145039091460318
:105650000E94B3298091B002E82FFF27EC38F0F0C8
:10566000E639E0F4013091F0212F46EB52E0BE0123
:105670008E2F0E94301412C00DA5112720E046EB9A
:1056800052E0BE018E2F0E94441408C000E0212F7A
:1056900046EB52E0BE018E2F0E944414DF91CF9161
:1056A0001F910F910895CF93DF93C0915101D09135
:1056B000520160916E03CE010E94571B482F55275F
:1056C000442351F08FEF809331016091510170912B
:1056D00052018B850E94CF2ADF91CF910895AF921E
:1056E000BF92CF92DF92EF920F931F935B016C01F9
:1056F00080919C0381FF03C08D7F80939C030E9457
:105700007603AB01BC01E1E0EE2E9601850181E05C
:105710000E9457031F910F91EF90DF90CF90BF90A1
:10572000AF900895EF92FF920F931F93CF93DF9363
:105730007A018B01A901C0917803D091790320915E
:10574000FE023091FF02C20FD31F9C01220F331FB4
:10575000280F391F220F331FC20FD31F80911E0144
:1057600090911F01AA2797FDA095BA2FE81AF90A70
:105770000A0B1B0B17FD1CC0FE01E192F192019375
:1057800011934183852F99278C83CE010E94BF08F6
:10579000892B91F08FEFE8168FEFF8068FEF08074F
:1057A0008FE7180749F0C801B7010E946F2B04C0AA
:1057B000EE24FF248701E0CFDF91CF911F910F915D
:1057C000FF90EF9008954F925F926F927F928F9229
:1057D0009F92AF92BF92CF92DF92EF92FF920F9380
:1057E0001F93CF93DF93CDB7DEB72E970FB6F89404
:1057F000DEBF0FBECDBF81E08093420180931901CF
:1058000003E0402E512C4C0E5D1E61E0C2010E944F
:10581000080F892B09F4FDC39B818091190198170A
:1058200011F0909319012D813E812115310569F305
:1058300080911401882349F73093DF032093DE031E
:1058400012E0612E712C6C0E7D1EB3014E01089486
:10585000811C911CC4010E949B0599819130A9F281
:1058600080911401882389F61A81892F9927AA2704
:10587000BB27FC013297EF3BF10540F5E559FF4F9F
:10588000EE0FFF1F0590F491E02D09948091DE0347
:105890009091DF03FC01E35BFB4F20810196909325
:1058A000DF038093DE033327223009F44FC3233014
:1058B00008F43DC3203109F473C3213109F49BC3BB
:1058C000233021F40E9476030E949516B301C2CFC3
:1058D000812F0E94B916B301BDCF42E060E0812F55
:1058E0000E944808D82E43E063E0812F0E94780888
:1058F000082F45E064E0812F0E944808182F802F70
:105900000E9484087C01812F8F5F0E9402096F83AF
:10591000788789879A8723E0D21609F425C30D2D4D
:1059200026E0A7010E94520DB30194CF43E063E04B
:10593000812F0E947808082F42E060E0812F0E94AA
:1059400048088091DE039091DF03FC01E35BFB4F8D
:10595000108101969093DF038093DE03802F0E94D5
:105960008408AA27BB27AC01BD01812F0E94A7157F
:10597000B30170CF812F0E944C27B3016BCF812FD1
:105980000E940427B30166CF812F0E94DE26B30157
:1059900061CF812F0E943128B3015CCF812F0E94FB
:1059A000EF17B30157CF812F0E94CB0EB30152CF17
:1059B000812F0E94A80EB3014DCF812F0E94850E2A
:1059C000B30148CF812F0E94F927B30143CF812F24
:1059D0000E947816B3013ECF812F0E949627B30113
:1059E00039CF812F0E949D28B30134CF812F0E948F
:1059F0001F24B3012FCF812F0E94DB23B3012ACFB5
:105A0000812F0E94A217B30125CF812F0E949817E2
:105A1000B30120CF812F0E94A123B3011BCF812F7F
:105A20000E948023B30116CF812F0E946D23B30102
:105A300011CF812F0E945B23B3010CCF812F0E94D5
:105A40003123B30107CF812F0E948422B30102CFFB
:105A5000812F0E94A821B301FDCE812F0E94E22553
:105A6000B301F8CE812F0E94E224B301F3CE812F3F
:105A70000E945E24B301EECE8091DE039091DF039D
:105A8000FC01E35BFB4F008101969093DF03809361
:105A9000DE03112743E063E0802F0E947808E82EA0
:105AA00042E061E0802F0E944808F82E40E060E06C
:105AB000802F0E947808B82E8E2D0E9484086C01D9
:105AC0008F2D8F5F0E9402097B018C018B2D0E941C
:105AD00084089C01B801A701C6010E94922BB30162
