S01800006275696C642F6D696361322F6D61696E2E737265632D
S11300000C9473020C94CC0B0C94F10B0C94160C02
S11300100C94200C0C942A0C0C94340C0C943E0C70
S11300200C94480C0C9492020C9492020C949B0B2A
S11300300C947A0B0C94850B0C94AC0B0C94D71089
S11300400C94690B0C94D81B0C9492020C9492029D
S11300500C9492020C94631A0C9492020C949202E3
S11300600C94900B0C9492020C9492020C949202B5
S11300700C9492020C9492020C9492020C949202AC
S11300800C9492020C9492020C94920285147714AC
S11300908D149B14A914141507150C15EA14F214E5
S11300A0FA140215AE14B314B914BF143015CE14D7
S11300B0D314301530153015301530153015301572
S11300C03015301530153015301530153015301504
S11300D03015DC14E314CA26F329E629E129DC29C6
S11300E0D729D229CD29C829C329BE29B929B42998
S11300F0AF29AA29A529A0299B29962991298C29C8
S11301008829C82683297E29792974296F296A298F
S1130110652960295B29562951294C29362920292A
S1130120EB28A4286F28352830282B28C826C82671
S1130130C8262628C8262128C8261C28C8261028F0
S1130140C8260328C826E727C826E227C826C826C3
S1130150C826DD27C826C826C826D827C826C82604
S1130160C826D327C826C826C826CE27C826C82608
S1130170C826C927C826C826C8268127C826C8264F
S1130180C8266427C826C826C8265F27C826C826C6
S1130190C8264627C826C826C8262D27C826C82606
S11301A0C8261827C826C826C826C826C826C8268A
S11301B0C826AB26C826C826C826C826C826C826E8
S11301C0C826ED26C826C826C826C826C826C82696
S11301D0C826C826C826C826C826C826C826C826AB
S11301E0C826E826C826C826C826C826C826C8267B
S11301F0C826E326C826C826C826C826C826C82670
S1130200C826C826C826C826C826C826C826C8267A
S1130210C826DE26C826C826C826C826C826C82654
S1130220C826C826C826C826C826C826C826C8265A
S1130230C826D926C826C826C826C826C826C82639
S1130240C826C826C826C826C826C826C826C8263A
S1130250C826D426583117315C3187318B31993116
S1130260A131C2313B32F7313032C631E731EA31A4
S1130270F4318D32953298329B329E32A132A432BF
S1130280A732AA32AD32B032B332B632C132D4322E
S1130290FD3200002110422063308440A550C66026
S11302A0E770088129914AA16BB18CC1ADD1CEE12F
S11302B0EFF13112100273325222B5529442F772A6
S11302C0D662399318837BB35AA3BDD39CC3FFF37F
S11302D0DEE36224433420040114E664C774A444B6
S11302E085546AA54BB528850995EEE5CFF5ACC5CF
S11302F08DD55336722611163006D776F666955686
S1130300B4465BB77AA719973887DFF7FEE79DD71E
S1130310BCC7C448E5588668A77840086118022815
S11303202338CCC9EDD98EE9AFF9488969990AA96E
S11303302BB9F55AD44AB77A966A711A500A333AE5
S1130340122AFDDBDCCBBFFB9EEB799B588B3BBBBE
S11303501AABA66C877CE44CC55C222C033C600C75
S1130360411CAEED8FFDECCDCDDD2AAD0BBD688D0E
S1130370499D977EB66ED55EF44E133E322E511EC5
S1130380700E9FFFBEEFDDDFFCCF1BBF3AAF599F5E
S1130390788F8891A981CAB1EBA10CD12DC14EF1FE
S11303A06FE18010A100C230E32004502540467064
S11303B06760B9839893FBA3DAB33DC31CD37FE38F
S11303C05EF3B1029012F322D232354214527762B4
S11303D05672EAB5CBA5A89589856EF54FE52CD55F
S11303E00DC5E234C324A014810466744764245404
S11303F00544DBA7FAB79987B8975FE77EF71DC76F
S11304003CD7D326F2369106B01657667676154653
S113041034564CD96DC90EF92FE9C899E9898AB9BE
S1130420ABA94458654806782768C018E1088238A3
S1130430A3287DCB5CDB3FEB1EFBF98BD89BBBABCE
S11304409ABB754A545A376A167AF10AD01AB32AF3
S1130450923A2EFD0FED6CDD4DCDAABD8BADE89D1E
S1130460C98D267C076C645C454CA23C832CE01C43
S1130470C10C1FEF3EFF5DCF7CDF9BAFBABFD98FAE
S1130480F89F176E367E554E745E932EB23ED10E93
S1130490F01E00081C181410ABBA83AAAA00802509
S11304A0009224200000201C000000190000801687
S11304B0005D74140000C01200C54E1100491210F2
S11304C000BD04880552061C07E607B0087B0945F1
S11304D00A0F0BAA01F10138028002C7020E03556C
S11304E0039C03E3030011241FBECFEFD0E1DEBF62
S11304F0CDBF11E0A0E0B1E0E0E3F3E800E00BBF22
S113050002C007900D92A834B107D9F71EE0A8E401
S1130510B1E001C01D92AB31B107E1F70E94C539CA
S11305200C9497410C9400008FB7F8949927089580
S11305308FBF089520912D0430912E046CB57DB5A4
S113054006B602FE04C02F5F3F4F6CB57DB5882709
S1130550992744275527A90133272227622B732B78
S1130560842B952B0895E2E9F2E06927660FF11DCB
S1130570E60FF11DC895982F802D3196C8959025CA
S11305800895880F949890E007C097989698969A43
S11305909F5F973049F0880F87FFF7CF979A969817
S11305A0969A9F5F9730B9F7979A9698969A949AE5
S11305B080E007C097989698969A8F5F883049F0A4
S11305C0660F67FFF7CF979A9698969A8F5F883051
S11305D0B9F7949A979A969A08956091E80489E0F5
S11305E00E94C10260E08BE00E94C10261E180E0F0
S11305F00E94C1028DE790E0019701960197E1F70F
S11306000895282F9FB7F894E82FFF27E758FC4F49
S113061080818F3F19F025E030E016C0E091010E93
S11306202E17C9F38091760C8F3F49F0FF27E758C6
S1130630FC4F20832093010E20E030E005C020937E
S1130640760C2093010EF8CF892F99278FBFC9010B
S1130650089580E00E9401039927089583E00E9491
S113066001039927089582E00E94010399270895C0
S113067080915B01813039F080915C01813059F4C3
S113068085E090E00895A898A09887E10E9401036E
S113069080E090E0089581E090E0089589E10E946F
S11306A00103992708952F923F924F925F926F9280
S11306B07F928F929F92AF92BF92CF92DF92EF92EE
S11306C0FF920F931F93CF93DF93CDB7DEB7299794
S11306D00FB6F894DEBF0FBECDBF6FB76983F89431
S11306E020900004309001044090020450900304D0
S11306F0662477248824BEE4AB2EA3E8BA2ECC2447
S1130700DD24EE24FF2400E010E0222D332D442DBF
S1130710552D662D772D882D90E00E94383D2A8333
S11307203B834C835D836E837F8388879987822E86
S1130730932EA42EB52E24013501769467945794F4
S1130740479400E20E94363EA22EB32EC42ED52E2C
S1130750A30192012A0D3B1D4C1D5D1D57FF05C0D1
S11307605F772F5F3F4F4F4F5F4F209300043093CD
S113077001044093020450930304E9818E2F9927C6
S11307808FBFCA01B90129960FB6F894DEBF0FBE18
S1130790CDBFDF91CF911F910F91FF90EF90DF902C
S11307A0CF90BF90AF909F908F907F906F905F900D
S11307B04F903F902F9008958FB7F8949927379AC8
S11307C08FBF80E090E00895CF93DF938FB7F894C4
S11307D0C82FDD279C2F80912F01843021F09FBFEB
S11307E081E090E017C080914F01813069F0823040
S11307F0B1F78091CE0480932F0183E080934F0161
S1130800CFBF80E090E006C08BE00E940103CFBF21
S113081080E090E0DF91CF9108958091790C813050
S113082009F44AC0813038F5E8E020E060E07FB7A1
S1130830F8945091A1035E7F5093A10387B1982F40
S11308409F71829586958695837031F140E0440FBF
S1130850852F8D7F842B262F2F71922F990F990F1F
S11308608378892B8093A103332727B9E830D1F00B
S11308702E2F277055C08230F9F08330A1F18130DA
S1130880C9F18130C8F18230A9F1833009F445C03F
S1130890E0E02FE16FE1CBCF822F8850863180F0EA
S11308A041E0D5CF8091770C9091780C21E0863887
S11308B0920778F027E034C0E8E021E061E0B7CFA8
S11308C040E03327892F99272817390781F0417091
S11308D0BECF833C910528F48136910578F025E05C
S11308E01FC026E01DC0E8E02EE16EE1A0CF41E08C
S11308F04170ADCFE0E0E1CFE0E097CF80339105E8
S113090028F48831910520F023E00AC024E008C0CF
S11309108C30910520F022E003C0E0E0E5CF20E038
S1130920887D822B886D992786B9872F99278FBF59
S11309300895982F969596959695E6E3F4E0E90F39
S1130940F11D877021E030E002C0220F331F8A9529
S1130950E2F780818223992708950F931F93182F1C
S11309608FB7F894282F3327022F80914F018823C3
S113097089F08091CE04811749F0812F0E94990457
S11309808823A9F085E090E00FBF26C02FBF80E048
S113099090E022C081E080934F011093CE042FBFDA
S11309A00E94DC030E94E40380E090E015C0E12F84
S11309B0E695E695E695FF27EA5CFB4F177081E024
S11309C090E002C0880F991F1A95E2F72081282B26
S11309D0208380E090E0D8CF1F910F9108952FB726
S11309E0F894332780913001909131012FBF0895FD
S11309F061EE80E00E94C1026091CE0389E00E9412
S1130A00C1028AEF90E0019701960197E1F76091A6
S1130A1027048BE00E94C10284E190E001970196D3
S1130A200197E1F70895E0912A01F0912B0186A145
S1130A309927982F882727A13327822B932BCC968D
S1130A4020912D0130912E018217930720F480A567
S1130A50826080A703C080A58D7F80A78AE00E9462
S1130A60010385E080936A0108959B01AC01909194
S1130A7068019630C8F480916701E82FFF27EE0FD4
S1130A80FF1FEE0FFF1FE053FB4F20833183428390
S1130A9053838F5F80936701863049F09F5F909303
S1130AA0680180E090E0089581E090E0089510925C
S1130AB067019F5F9093680180E090E008958091C2
S1130AC06101882319F081E090E0089582E00E949A
S1130AD0AD049927282F882319F481E080936101BC
S1130AE0822F99270895982F969596959695E2EAE0
S1130AF0F3E0E90FF11D877021E030E002C0220F1E
S1130B00331F8A95E2F78081822399270895982FCD
S1130B1080915601882351F4E0E1F4E0119284E0DD
S1130B20EE31F807D9F781E080935601292F332756
S1130B300024369527950794369527950794322FE8
S1130B40202D260F311DA0E1B4E0FD0180819927FD
S1130B508217930749F01196319684E0AE31B807B5
S1130B60A9F780E090E008951C9281E090E0089558
S1130B7085309105A1F0069719F080E090E0089582
S1130B80A599FBCF83B399279695879592958295DE
S1130B908F7089279F708927817090700895A49918
S1130BA0ECCF83B39927929582958F7089279F7094
S1130BB089278170907008959FB7F894292F33275F
S1130BC0422F90912F01981721F04FBF80E090E0C1
S1130BD0089580914F018330C1F72FBF81E090E0E9
S1130BE008950F931F938FB7F89499272091FF03CB
S1130BF020933C0123E0209358018FBF00913C01D6
S1130C0081E00E94DC05882381F080915C018823C7
S1130C1061F482E080931E0411E01093790C0E9429
S1130C200D0410935C010093A0031F910F9108958C
S1130C3080915B01882319F081E090E0089581E0C0
S1130C400E94AD049927282F882319F481E080930A
S1130C505B01822F99270895982F969596959695DE
S1130C60E8E7F3E0E90FF11D877021E030E002C00E
S1130C70220F331F8A95E2F78081822399270895F2
S1130C80EF920F931F93AE2D99E0899FF0011124E9
S1130C90E95CFB4F40835183628373830483158330
S1130CA026833783A17080858E7F8A2B826080871C
S1130CB08EE00E9401031F910F91EF9008956FB78A
S1130CC0F89482B706B601FE17C081B792B7209197
S1130CD028023091290240912A0250912B02280FB8
S1130CE0311D411D511D2F5F3F4F4F4F5F4F290F46
S1130CF0311D411D511D0CC0209128023091290243
S1130D0040912A0250912B02280F311D411D511D83
S1130D10862F99278FBFCA01B9010895AF92BF9258
S1130D20CF92DF92EF92FF920F931F93F82E5A0106
S1130D306B010E945F06AB01BC01A1E0EA2E9601A3
S1130D4085018F2D0E9440061F910F91FF90EF9017
S1130D50DF90CF90BF90AF9008952FB7F894622F93
S1130D607727A0E0FC01F695E795F695E795F695CB
S1130D70E795E856FB4F408155278770907021E036
S1130D8030E002C0220F331F8A95E2F74223532337
S1130D90452B09F0A1E06FBF8A2F99270895FC0124
S1130DA0DB0190818C91981769F0209119019217B9
S1130DB031F0821779F020E030E0891768F421E0FF
S1130DC030E00AC020E030E09181FB018181891785
S1130DD018F4F5CF20E030E0C9010895CF93DF93F4
S1130DE0EC019B01E0919304F0919404ED50FB4FCE
S1130DF080818883E0919304F0919404ED50FB4F3B
S1130E008081FB01808380919304909194040196E6
S1130E1090939404809393049881E2E0F1E0DF01DD
S1130E2012968081981718F08181891738F41396E7
S1130E30339681E0A631B807A1F708C08C919823B6
S1130E40F90190838095988198239883892F992715
S1130E50DF91CF910895E0911501F0911601349638
S1130E60F0931601E0931501E151FB4F608171810C
S1130E708281938108958830910549F0099709F09A
S1130E800895A59BFDCF613041F0AD980895A49BD2
S1130E90F7CF613021F0AC980895AD9A0895AC9ADB
S1130EA00895873021F18830A8F08A3009F443C0CE
S1130EB08B3030F18C3009F46BC08C3008F44CC0AA
S1130EC08D3039F46230710508F497C089B78D7F8D
S1130ED089BF0895833059F1843008F1853009F4CD
S1130EE04EC0863080F560FF66C0D89808958FB7ED
S1130EF0F89499272BB331E023272BBB8FBF089598
S1130F00883009F44CC0893021F780E0672B09F060
S1130F1081E0682F89E090E00E943B0708958130CA
S1130F20F9F08230B1F660FF4EC0DA98089560FFA0
S1130F3006C0D998089560FF04C0A49A0895D99A68
S1130F400895A49808958FB7F89499272BB332E0A5
S1130F5023272BBB8FBF089560FF2BC0A59A08954C
S1130F608FB7F894772760FF2AC0DA9861FF25C00D
S1130F70D99862FF26C0D89899278FBF08958FB754
S1130F80F89499272BB334E023272BBB8FBF089504
S1130F9062307105D0F089B78E7F89BF089580E0F3
S1130FA0672B09F081E0682F88E090E00E943B07FE
S1130FB00895A5980895D89A0895D99ADACFDA9A17
S1130FC0D5CFD89AD9CFDA9A0895672B59F480915E
S1130FD06A00826080936A0080916A0081608093D5
S1130FE06A00089580916A00826080936A0080910B
S1130FF06A008E7F80936A000895672B59F480916C
S11310006A00886080936A0080916A00846080939B
S11310106A00089580916A00886080936A008091D4
S11310206A008B7F80936A000895E0911501F09126
S113103016013496F0931601E0931501E151FB4F2C
S113104060817181828193810895EF92FF920F9361
S11310501F93623029F1633060F0653009F45AC09F
S11310606630F1F0643009F469C0EE24FF2487018E
S113107072C0662309F442C06130B9F7E0912504D7
S1131080F0912604E80FF91F80819927982F88276B
S113109021813327822B932B7C01002711275BC0EE
S11310A0E0912504F0912604E80FF91F8281992725
S11310B0AA27BB27EE24F82E092F1A2F20813327C5
S11310C044275527522F44273327222781819927E4
S11310D0AA27BB27DC0199278827282B392B4A2BE1
S11310E05B2B83819927AA27BB27282B392B4A2BD3
S11310F05B2BE22AF32A042B152B2DC0E091250447
S1131100F0912604E80FF91F8081E82EFF240027C0
S1131110112721C0E0912504F0912604E80FF91F5E
S113112080819927982F882721813327822B932B1D
S11311307C010027F7FC0095102F0DC0E0912504D9
S1131140F0912604E80FF91F8081E82EFF24E7FCC4
S1131150F0940F2D1F2DC801B7011F910F91FF901F
S1131160EF900895982F80915601882351F4E0E17F
S1131170F4E0119284E0EE31F807D9F781E080932E
S11311805601492F5527002456954795079456959F
S113119047950794542F402D9A01260F311D70E076
S11311A08091100499272817390721F1E1E1F4E02F
S11311B005C0319684E0EE31F80769F07723C9F46D
S11311C08081992728173907A1F771E0319684E0C7
S11311D0EE31F80799F7772359F4A0E0B0E03E9791
S11311E08081882349F011963196AE30B105C1F75C
S11311F00895089571E0DACFA05FBB4F640F6C933C
S11312000895CF93DF93461738F1E82FFF2750E076
S1131210A62FBB27C1E0D0E005C080E0580F6F5F68
S11312204617B8F0262F3327CF01022E02C095951A
S113123087950A94E2F780FFF0CF2A1B3B0BCE017F
S113124002C0880F991F2A95E2F7580F6F5F46175F
S113125048F7852F992702C080E090E0DF91CF9175
S113126008950E94010921E030E002C0220F331FDB
S11312708A95E2F7822F99270895CF93DF93582F09
S1131280882381F1C82FDD27609193047091940421
S1131290A0E0B0E040E0FB01ED50FB4F208133279C
S11312A0CE01841B9109880F991F880F991F880FFD
S11312B0991F089702C0220F331F8A95E2F7A20FE5
S11312C0B31F6F5F7F4F4F5F451738F4423018F3F9
S11312D06F5F7F4F4F5F4517C8F37093940460931B
S11312E0930402C0A0E0B0E0CD01DF91CF91089556
S11312F0CF93DF93EC01E0912001F091210130972D
S113130049F0208131814281538121153105410504
S1131310510539F4D0932101C093200181E090E07C
S11313200BC088819981AA81BB8182179307A40786
S1131330B50784F380E090E0DF91CF9108954230C7
S113134029F0433051F0413079F0089520E63AEE27
S113135040E050E00E94D440089520E83EEE46E389
S113136050E00E94D440089528EE33E040E050E07D
S11313700E94D4400895EF92FF920F931F93CF934E
S1131380DF93782F8823C1F1C82FDD274091930480
S113139050919404EE24FF24870160E0FA01ED509B
S11313A0FB4F80819927AA27BB279E01261B310961
S11313B0220F331F220F331F220F331F28503040B8
S11313C004C0880F991FAA1FBB1F2A95D2F7E80EE5
S11313D0F91E0A1F1B1F4F5F5F4F6F5F671738F4BB
S11313E06430E0F24F5F5F4F6F5F6717C8F350934D
S11313F094044093930403C0EE24FF248701C8019E
S1131400B701DF91CF911F910F91FF90EF90089555
S1131410DF92EF92FF920F931F938FB7F894282FC8
S11314203327D22E91B782B746B7981711F041FFF0
S113143002C02FBF79C080912A04882351F52091DE
S113144028023091290240912A0250912B0270E027
S113145065EE00B601FCFDCF82B7861709F452C0D1
S1131460DA01C9010196A11DB11D860F911DA11DAF
S1131470B11D82179307A407B50710F4622F609576
S113148061BFDFBE772309F44FC08DE00E940103E2
S11314904BC00E945F06E090C604F090C704009120
S11314A0C8041091C9042091A2023091A302409172
S11314B0A4025091A5026E197F09800B910B62174B
S11314C073078407950700F5D801C701820F931F9E
S11314D0A41FB51F209128023091290240912A02AD
S11314E050912B02821B930BA40BB50B873E9105E5
S11314F0A105B10508F0ABCF823098F0682F615098
S113150070E0A7CF6F5FACCF10922A0471E065EE54
S1131510209128023091290240912A0250912B02F5
S113152098CF70E061E095CF1F910F91FF90EF90FD
S1131530DF900895AFB7F894BB27E1E0E0932A0465
S11315406093C6047093C7048093C8049093C9043D
S11315502093A2023093A3024093A4025093A502C5
S1131560AFBF0E94080A0895FC0182819927982F31
S1131570882723813327822B932B0895FC018681AE
S113158099270895FC0180A599278170907008958A
S11315906FE380E00E94C10260E08BE00E94C10220
S11315A0089582E080936A0110929204109291044B
S11315B00E94ED02BB98BA9880EC8DB9B898089552
S11315C080916601E82FFF27EE0FFF1FEE0FFF1F2C
S11315D0E053FB4F40815181628173812091680106
S11315E0222361F08F5F80936601863021F02150C1
S11315F02093680103C010926601F9CFCB01BA01B0
S113160008950E94E00A0895E8E9F4E08FB7F89499
S1131610282F332780818F3F49F42FBF319684E0F0
S1131620E23AF80799F781E090E008952FBF80E04F
S113163090E00895CF93DF93C0E0D0E004C02196FA
S1131640C035D10529F0CE010E94AD068823B9F733
S1131650CE01DF91CF91089566EA8EE00E94C10227
S1131660949880E090E02CE108C097989698969A18
S113167001968730910551F0220F27FFF6CF979AF4
S11316809698969A019687309105B1F7979896980F
S1131690969A8F98949A20E008C0220F2160969A17
S11316A001973FEF8F3F930751F096988799F5CFB5
S11316B0220F969A01973FEF8F3F9307B1F7949AC1
S11316C08F9A979A23FFCCCF66E28EE00E94C102E4
S11316D008951F920F920FB60F9211248F9383B720
S11316E083BF00B600FCFDCF8F910F900FBE0F900B
S11316F01F90189578941F920F920FB60F92112491
S11317000F900FBE0F901F90189578941F920F9210
S11317100FB60F9211240F900FBE0F901F901895C3
S113172078941F920F920FB60F9211240F900FBE50
S11317300F901F90189578941F920F920FB60F92E6
S113174011248F939F9386B597B59F918F910F9096
S11317500FBE0F901F90189578941F920F920FB69A
S11317600F9211242F933F938F939F932FB7F89445
S1131770332780912D0490912E04019690932E048A
S113178080932D042FBF9F918F913F912F910F90A4
S11317900FBE0F901F9018951F920F920FB60F92C5
S11317A011242F933F934F935F936F937F938F9362
S11317B09F93AF93BF93EF93FF9382E10E94010342
S11317C0FF91EF91BF91AF919F918F917F916F9115
S11317D05F914F913F912F910F900FBE0F901F90EB
S11317E018951F920F920FB60F9211242F933F93C7
S11317F04F935F936F937F938F939F93AF93BF9315
S1131800EF93FF9383E10E940103FF91EF91BF9156
S1131810AF919F918F917F916F915F914F913F9184
S11318202F910F900FBE0F901F9018951F920F923B
S11318300FB60F9211240F900FBE0F901F901895A2
S11318401F920F920FB60F9211240F900FBE0F909C
S11318501F9018951F920F920FB60F9211240F909C
S11318600FBE0F901F9018951F920F920FB60F92F4
S113187011240F900FBE0F901F9018951F920F9276
S11318800FB60F9211240F900FBE0F901F90189552
S11318901F920F920FB60F9211240F900FBE0F904C
S11318A01F9018959C0180915201882331F481E0A6
S11318B080933A0181E090E008959091500182E292
S11318C0989FF0011124D901EA55FD4F01900D9222
S11318D08150E1F7809150018F5F65E00E94F340F1
S11318E0909350018091520181508093520188233A
S11318F031F481E080933A0180E090E0089580E043
S113190090E008959C0180915501882331F481E091
S113191080933B0181E090E008959091530182E22D
S1131920989FF0011124D901E855F34F01900D92CD
S11319308150E1F7809153018F5F6AE00E94F34088
S113194090935301809155018150809355018823D0
S113195031F481E080933B0180E090E0089580E0E1
S113196090E008959C0180915501882319F481E049
S113197090E008959091530182E2989FF001112420
S1131980D901E855F34F01900D928150E1F780E0C1
S113199090E008959C0140915201453018F081E097
S11319A090E008959091510182E2989FF0011124F2
S11319B0EA55FD4FD9010D9001928150E1F7892F2D
S11319C08F5F65E00E94F340909351014F5F409315
S11319D0520180913A01813019F080E090E008953D
S11319E010923A018FE00E94010380E090E0089594
S11319F0AF92BF92CF92DF92EF92FF920F931F9319
S1131A00CF93DF93CDB7DEB728970FB6F894DEBF38
S1131A100FBECDBF6D837E838F8398875A01233099
S1131A2009F446C02430B8F0CD80DE80EF80F8841D
S1131A30033009F49DC0043000F1053009F46EC090
S1131A40053008F0D3C0E0912504F0912604EA0D96
S1131A50FB1DC082EFC0CD80DE80EF80F8840330B0
S1131A6009F4A5C0043048F0053009F457C0053026
S1131A7050F3063009F0DEC005C0013009F44EC051
S1131A80023008F3E0912504F0912604EA0DFB1DD1
S1131A90C382BB27AF2D9E2D8D2D8283C701AA271C
S1131AA0BB2781838F2D9927AA27BB278083C2C098
S1131AB02D813E814F8158850330D9F1043018F1CE
S1131AC0053009F4B2C0053008F445C0063009F009
S1131AD0B1C0CA01B9010E948A3FE0912504F09186
S1131AE02604EA0DFB1D6383272F382F492F552722
S1131AF022839C01442755272183692F7727882730
S1131B009927608397C0013009F480C0023008F43B
S1131B1070C0CA01B9010E948F3FDFCFE091250454
S1131B20F0912604EA0DFB1DC1828D2D9927808337
S1131B3081C0E0912504F0912604EA0DFB1D298360
S1131B403A834B835C8389819A81AB81BC81808396
S1131B509183A283B3838091250490912604A80ED7
S1131B60B91ECA01B9010E948A3FF501608362C0AF
S1131B700091250410912604040F151FC701B60116
S1131B800E94BD3F69837A838B839C8389819A8178
S1131B90AB81BC81F80180839183A283B383E091FC
S1131BA02504F0912604EA0DFB1DC08243C0009178
S1131BB0250410912604040F151FF7FEDFCFC7017B
S1131BC0B6016170707080709070A701960156958F
S1131BD0479537952795622B732B842B952B0E9461
S1131BE0BD3F9B01AC010E94BA3ECCCF063011F53B
S1131BF049CF8091250490912604A80EB91ECA01EC
S1131C00B9010E948F3FF501608314C0CA01B90174
S1131C100E948F3FE0912504F0912604EA0DFB1DFC
S1131C206183672F7727608305C0CA01B9010E94C9
S1131C308A3FF0CF28960FB6F894DEBF0FBECDBF13
S1131C40DF91CF911F910F91FF90EF90DF90CF9094
S1131C50BF90AF9008958F929F92AF92BF92CF9210
S1131C60DF92EF92FF920F931F93CF93DF93EC01D8
S1131C708091170190911801009709F48FC0209763
S1131C8009F476C07727FB01EE0FFF1FEE0FFF1F4D
S1131C908091240190912501E80FF91F80819181A1
S1131CA0A281B38188839983AA83BB83809117011E
S1131CB0909118014C01880C991C880C991C009176
S1131CC0240110912501800E911E01979093180113
S1131CD0809317017B01EB01CC0FDD1F8C179D074F
S1131CE07CF548C05C01AA0CBB1CAA0CBB1C680197
S1131CF0CA0CDB1CB401C6010E94CF06892BD1F1AA
S1131D00EE0CFF1CEE0CFF1C0E0D1F1DF601808156
S1131D109181A281B381F80180839183A283B383EB
S1131D209E01220F331F80911701909118017E01AB
S1131D3082179307B4F1E901009124011091250160
S1131D40C817D90779F25E01AA0CBB1CAA0CBB1CEC
S1131D50C8018A0D9B1DBC0104960E94CF06892BE5
S1131D6031F221965E01AA0CBB1CAA0CBB1CBFCF8E
S1131D707727A0CF5701AA0CBB1CAA0CBB1CA00E32
S1131D80B11EF40180819181A281B381F501808328
S1131D909183A283B38381E090E008C080E090E067
S1131DA005C00091240110912501E9CFDF91CF9165
S1131DB01F910F91FF90EF90DF90CF90BF90AF9065
S1131DC09F908F9008956F927F928F929F92AF927F
S1131DD0BF92CF92DF92EF92FF920F931F93CF9314
S1131DE0DF93CDB7DEB724970FB6F894DEBF0FBEEE
S1131DF0CDBF782F452B09F1A0911701B09118019F
S1131E001A161B060CF074C0C0902401D090250152
S1131E10F601868197812817390709F46EC041E0DD
S1131E2050E04F5F5F4FA417B5077CF08285938520
S1131E30349628173907A9F760C0A0911701B0910B
S1131E401801C0902401D090250179836A833C83D2
S1131E502B838D010F5F1F4F1093180100931701FF
S1131E60023011057CF13E010894611C711C19C0FB
S1131E70000F111F000F111FC00ED11EF50180812C
S1131E809181A281B381F60180839183A283B3837C
S1131E90F2E0EF16F1043CF18701C0902401D090E8
S1131EA025017801F594E7944701880C991C880C66
S1131EB0991C5601A80CB91CB501C3010E94CF0698
S1131EC0892BB1F64801880C991C880C991C8C0C40
S1131ED09D1C89819A81AB81BC81F40180839183AB
S1131EE0A283B3830AC0C0902401D0902501EFCF10
S1131EF0C0902401D0902501A8CF24960FB6F89461
S1131F00DEBF0FBECDBFDF91CF911F910F91FF9028
S1131F10EF90DF90CF90BF90AF909F908F907F9085
S1131F206F900895CF93DF93EC0188819927382F20
S1131F30222789819927282B392B2115310549F02E
S1131F4040E050E06FEF809119010E94E30E198286
S1131F501882DF91CF9108958F929F92AF92BF9292
S1131F60CF92DF92EF92FF920F931F93CF93DF9361
S1131F706C01A62E2091260130912701FC01E20F6D
S1131F80F31F8081E82EFF24E7FCF0949FE7E92209
S1131F90FF24B82EB094BB1CBB24BB1C83E08B195C
S1131FA0B82E1E141F0494F5882E9924C0E0D0E0A6
S1131FB000E010E012C0F601E20FF31FE00FF11F82
S1131FC081818A15F1F02196080D191DEC16FD0684
S1131FD0E9F0209126013091270182E0B81659F7E3
S1131FE0CE01880F991F2C0D3D1D820F931F019662
S1131FF00E94920F2196080D191DEC16FD0649F753
S113200005C0CF0102960E94920FDDCFDF91CF91E0
S11320101F910F91FF90EF90DF90CF90BF90AF9002
S11320209F908F9008959C01409155014A3018F07B
S113203081E090E008959091540182E2989FF0012C
S11320401124E855F34FD9010D9001928150E1F725
S1132050892F8F5F6AE00E94F340909354014F5F91
S11320604093550180913B01813019F080E090E06C
S1132070089510923B0180E10E94010380E090E00A
S11320800895A6E6B2E0FC0185E001900D9281502E
S1132090E1F782EA8093600285E080936102809197
S11320A0C6039927982F88272091C7033327822BAB
S11320B0932B80936302892F992780936202109255
S11320C0640280E692E00E9413100895A6E6B2E04E
S11320D0FC018CE101900D928150E1F781EA80933B
S11320E060028CE1809361028FEF8093630280939E
S11320F062021092640280E692E00E941310089536
S1132100FB018091250490912604E80FF91F838137
S11321109927382F222784819927282B392BA6E643
S1132120B2E08BE101900D928150E1F781E9809357
S113213060028BE18093610220936302832F9927CD
S11321408093620210926402442319F081E0809328
S11321506402809195048093650280E692E00E9477
S113216013100895CF93DF93CDB7DEB724970FB63E
S1132170F894DEBF0FBECDBFE0912504F091260494
S1132180E80FF91F80819181A281B38189839A83A9
S1132190AB83BC8369817A818B819C8124960FB641
S11321A0F894DEBF0FBECDBFDF91CF9108951F928B
S11321B00F920FB60F9211242F933F934F935F9377
S11321C06F937F938F939F93AF93BF93EF93FF93FB
S11321D083B783BF00B600FCFDCF81B79927019672
S11321E0AA27BB27209128023091290240912A0274
S11321F050912B02280F391F4A1F5B1F209328027E
S11322003093290240932A0250932B0278940E941F
S1132210080AFF91EF91BF91AF919F918F917F91A8
S11322206F915F914F913F912F910F900FBE0F903F
S11322301F901895EF92FF920F931F93CF93DF9304
S1132240982F8FB7F894E82E80914F01833021F0B6
S1132250EFBE81E090E050C080912F018917C1F753
S1132260809136048823B9F080914E01082F1127FC
S1132270E80109C0FC2E8F2D0E9499048823A9F43B
S1132280C017D107B9F12196C430D10599F7C0E040
S1132290D0E0FF24F0CF84E080932F0110924F010F
S11322A03798EFBE80E090E027C0EF2DE695E695E5
S11322B0E695FF274F2D5527EA5CFB4F9A012770BF
S11322C0307081E090E002C0880F991F2A95E2F7F0
S11322D08095208128232083F0924E014093CE04E0
S11322E08FEF80932F0181E080934F018BE00E9458
S11322F00103D7CF4FEFF2CFDF91CF911F910F9111
S1132300FF90EF90089581E00E941A1110925B01F2
S113231080915A01813011F40E9418068FB7F89405
S1132320992710925A01109259018FBF089582E0A3
S113233080931E041092790C0E940D0480E090E0BA
S113234008951F938FB7F8949927209198032093A9
S11323503D0123E020935E018FBF10913D0182E097
S11323600E94DC05882381F080916201882361F456
S113237082E080931E048093790C0E940D0481E016
S1132380809362011093020E1F9108951F93982F5A
S113239080912C01843019F09093A30C1FC090936A
S11323A02C0180914F01882379F412E010934F019E
S11323B01092CE040E94DC030E94E40380912F015A
S11323C0882331F010924F0180E00E94AD0406C0D2
S11323D010931E041092790C0E940D0480E090E08A
S11323E01F9108950F931F936BE380E00E94C10235
S11323F080ED97E0019701960197E1F769E380E0AA
S11324000E94C10288EC90E0019701960197E1F7E0
S11324100FB7F89411270E94D10A0FBF1F910F9193
S113242008950F931F939A01162F082FC901B8011D
S11324300E94350580914801882311F40E9401030C
S11324401F910F910895FA01813909F0089520939D
S1132450C8036081772748EC53E088E20E94111298
S113246048EC53E060E089E20E94111208950F9352
S1132470FA01813979F4009382026081772742E876
S113248052E08AE20E94111242E852E060E08BE2DC
S11324900E9411120F9108951F93162F882309F09B
S11324A07DC0862F8F718430C9F1853018F5823054
S11324B009F44FC0833009F469C049E15EE0612F3B
S11324C077276F7170706530710589F16630710519
S11324D084F56230710509F450C06430710509F463
S11324E058C06130710509F44AC080E060E00E9480
S11324F0111254C0853091F18630F9F686E090E0EF
S11325000E94B80520E030E0813009F444C02093F3
S1132510A50C1092A40C44EA5CE0D1CF46E252E050
S1132520612F77276F7170706530710579F688E0D7
S1132530DDCF6730710581F06730710544F0683094
S11325407105F9F06930710581F68EE0CFCF89E02D
S1132550CDCF48E254E0B3CF8AE0C8CF85E090E025
S11325600E94B80520E030E0813069F02093060E27
S11325701092050E45E05EE0A2CF86E0B7CF85E07D
S1132580B5CF8BE0B3CF21E030E0F0CF4CEF5DE08E
S113259096CF87E0ABCF21E030E0B9CF1F9108950B
S11325A01F93CF93DF93182F633089F1643070F059
S11325B0653009F461C0653008F049C083E00E94C9
S11325C0AD0464E0812F0E94B208B0C0613009F408
S11325D065C0623009F0AAC08FB7F894C82FDD2710
S11325E080915E01882309F077C091E090935E01A9
S11325F010929803CFBF80915F01882309F484C0AF
S11326009093600162E0812F0E94B2088FC08FB75F
S1132610F89420E0CA9B17C0C99B11C0C89B0DC089
S113262099278FBF822F99278093FD0D1092FC0D5F
S113263063E0812F0E944C1279C02460F1CF2260A4
S1132640C899EECFFACF21E0C999E8CFF8CF663028
S113265009F06CC086E090E00E94B80520E030E00C
S1132660813009F460C02093A3041092A20466E0B0
S1132670812F0E944C125AC085E090E00E94B80558
S113268020E030E0813009F43CC0209351031092E3
S1132690500365E0812F0E944C1248C08FB7F89414
S11326A0C82FDD2780915801882361F46093580175
S11326B01092FF03CFBF809159018823F1F06093FA
S11326C05A0105C08091FF03882361F4CFBF61E004
S11326D0812F0E94B2082AC0809198038823C1F4F4
S11326E0CFBF90CF80E00E942C06882379F7809199
S11326F07803816080937803E9CF85E10E94010328
S1132700E6CF21E030E0C1CF8AE10E9401037ACF15
S113271080E00E947305882319F78091A2038160E9
S11327208093A203DDCF21E030E09DCFDF91CF91F4
S11327301F910895CF93DF9310921E04C0919604C5
S1132740D09197048091790C8330F9F40E941A1186
S1132750C09327028D2F992780932602C0E0D0E0F2
S113276064E08C2F0E948705813051F02196C4309B
S1132770D10559F064E08C2F0E9487058130B1F7B0
S113278064E08C2F0E944C12F1CFDF91CF91089519
S113279067E080E00E944C12089568E080E00E94A7
S11327A04C120895BF92CF92DF92EF92FF920F9353
S11327B01F93CF93DF9310925C01C0909B03D09042
S11327C09C03E090A0038FB7F894B82E8091580131
S11327D08330E1F0BFBEEE2009F06AC0C0921A0E49
S11327E08D2D99278093190EC0E0D0E061E08C2FE5
S11327F00E948705813029F02196C430D105B1F7B4
S113280057C061E08C2F0E944C12F6CF80913C019E
S1132810E81601F780917803882309F43EC080917B
S11328205701082F1127E80109C0FC2E8F2D0E94A3
S11328302C06882359F4C017D10769F12196C130B9
S1132840D10599F7C0E0D0E0FF24F0CFEF2DE69555
S1132850E695E695FF274F2D5527E858FC4F9A013A
S11328602770307081E090E002C0880F991F2A958C
S1132870E2F78095208128232083F092570140932A
S1132880FF038FEF80933C0181E08093580184E142
S11328900E9401039FCF4FEFF2CF81E080933C0170
S11328A0109258018093590186E10E94010392CF4E
S11328B0DF91CF911F910F91FF90EF90DF90CF9018
S11328C0BF9008950F931F938A019B019927AA270C
S11328D0BB27FC013597E532F10508F0C1C0EA5B7E
S11328E0FF4FEE0FFF1F0590F491E02D0994423045
S11328F051056105710508F4A4C0642F772767703A
S1132900707085E00E945107ABC0642F7727677011
S1132910707081E00E945107A3C0423051056105E7
S1132920710508F496C0642F77276770707086E08D
S11329300E94510795C0423051056105710508F4A4
S113294078C0642F77276770707087E00E94510702
S113295087C061E080E00E94D01282C066E080E01F
S11329600E94D0127DC0642F77278CE00E9451070B
S113297077C0642F77278DE00E94510771C0409380
S1132980800C40E85CE0602F8CE00E94111240E86B
S11329905CE060E08DE00E94111262C0BA018EE03A
S11329A00E9451075DC01092800C40E85CE060E03A
S11329B08FE00E94111254C040E0B80188E290E018
S11329C00E9480104DC041E0B80189E290E00E946D
S11329D0801046C0642F77276170707089E00E9470
S11329E051073EC0642F7727617070708AE00E949F
S11329F0510736C0642F7727617070708BE00E9496
S1132A0051072EC065E080E00E94D01229C064E026
S1132A1080E00E94D01224C0642F77276170707008
S1132A2088E00E9451071CC062E080E00E94D0123E
S1132A3017C0642F77276170707084E00E9451077B
S1132A400FC0642F77276170707082E00E94510775
S1132A5007C0642F77276170707083E00E9451076C
S1132A601F910F9108950F931F9305E812E0609151
S1132A7085027727A8018CE20E941112A80160E068
S1132A808DE20E9411121F910F910895EF92FF920F
S1132A900F931F938093090449E054E0382F20E0FA
S1132AA0CA01B9010E94350509E014E0FF2481E060
S1132AB0E82EC801B7010E9435058091480188239A
S1132AC011F40E9401031F910F91FF90EF9008955C
S1132AD09B01AC01E0911501F09116013497F0933C
S1132AE01601E093150180913104909132048E1700
S1132AF09F0738F4ED50FB4F208331834283538387
S1132B00089584E10E94461581E08093140160E0F9
S1132B1070E00E94510708950E94150890580E9481
S1132B2068150895EF92FF920F931F930E94150862
S1132B307B018C010E9415089B01AC01C801B701FF
S1132B400E94B93E0E9468151F910F91FF90EF906B
S1132B500895EF92FF920F931F930E9415087B0133
S1132B608C010E9415089B01AC01C801B7010E94A9
S1132B70BA3E0E9468151F910F91FF90EF9008953F
S1132B80EF92FF920F931F930E9415087B018C0113
S1132B900E9415089B01AC01C801B7010E94714055
S1132BA00E9468151F910F91FF90EF900895EF9286
S1132BB0FF920F931F930E9415087B018C010E94C2
S1132BC015089B01AC01C801B7010E94223F0E9475
S1132BD068151F910F91FF90EF900895EF92FF9267
S1132BE00F931F930E9415087B018C010E94150806
S1132BF09B01AC01C801B7010E941E3F882329F440
S1132C0060E070E080E89FE304C060E070E080E092
S1132C1090E00E9468151F910F91FF90EF90089526
S1132C20EF92FF920F931F930E9415087B018C0172
S1132C300E9415089B01AC01C801B7010E941E3F08
S1132C40882329F060E070E080E89FE304C060E03E
S1132C5070E080E090E00E9468151F910F91FF9052
S1132C60EF900895EF92FF920F931F930E9415081F
S1132C707B018C010E9415089B01AC01C801B701BE
S1132C800E946D4088232CF060E070E080E89FE3B0
S1132C9004C060E070E080E090E00E9468151F913D
S1132CA00F91FF90EF900895EF92FF920F931F936F
S1132CB00E9415087B018C010E9415089B01AC0140
S1132CC0C801B7010E941E3F18162CF060E070E0A6
S1132CD080E89FE304C060E070E080E090E00E9440
S1132CE068151F910F91FF90EF900895EF92FF9256
S1132CF00F931F930E9415087B018C010E941508F5
S1132D009B01AC01C801B7010E946D4018162CF458
S1132D1060E070E080E89FE304C060E070E080E081
S1132D2090E00E9468151F910F91FF90EF90089515
S1132D30EF92FF920F931F930E9415087B018C0161
S1132D400E9415089B01AC01C801B7010E941E3FF7
S1132D5088232CF460E070E080E89FE304C060E026
S1132D6070E080E090E00E9468151F910F91FF9041
S1132D70EF9008959B01AC01E0911501F0911601CB
S1132D803497F0931601E0931501809131049091EA
S1132D9032048E179F0738F4ED50FB4F20833183A4
S1132DA042835383089584E10E94461581E0809311
S1132DB0140160E070E00E9451070895EF92FF92C1
S1132DC00F931F930E942B077B018C010E942B07FA
S1132DD0E61AF70A080B190BC801B7010E94BA16C4
S1132DE01F910F91FF90EF900895EF92FF920F9330
S1132DF01F930E942B077B018C010E942B07E60E78
S1132E00F71E081F191FC801B7010E94BA161F91A7
S1132E100F91FF90EF900895EF92FF920F931F93FD
S1132E200E942B077B018C010E942B079B01AC01A4
S1132E30611571058105910539F0C801B7010E943A
S1132E4035410E94BA1609C060E070E080E090E06D
S1132E500E94BA168AE00E9446151F910F91FF90B6
S1132E60EF900895EF92FF920F931F930E942B0708
S1132E707B018C010E942B079B01AC01C801B701A7
S1132E800E94D4400E94BA161F910F91FF90EF90B8
S1132E900895EF92FF920F931F930E942B077B01DB
S1132EA08C010E942B079B01AC0161157105810502
S1132EB0910549F0C801B7010E943541CA01B90121
S1132EC00E94BA1609C060E070E080E090E00E94C1
S1132ED0BA168AE00E9446151F910F91FF90EF9059
S1132EE00895EF92FF920F931F930E942B077B018B
S1132EF08C010E942B07E62AF72A082B192BC801FC
S1132F00B7010E94BA161F910F91FF90EF90089598
S1132F10EF92FF920F931F930E942B077B018C016A
S1132F200E942B07E622F72208231923C801B701C0
S1132F300E94BA161F910F91FF90EF900895EF929F
S1132F40FF920F931F930E942B077B018C010E9419
S1132F502B0704C0EE0CFF1C001F111F6A95D2F74B
S1132F60C801B7010E94BA161F910F91FF90EF900C
S1132F700895EF92FF920F931F930E942B077B01FA
S1132F808C010E942B0704C015950795F794E794CC
S1132F906A95D2F7C801B7010E94BA161F910F9122
S1132FA0FF90EF900895EF92FF920F931F930E946A
S1132FB02B077B018C010E942B07E626F7260827A6
S1132FC01927C801B7010E94BA161F910F91FF90EB
S1132FD0EF900895EF92FF920F931F930E942B0797
S1132FE07B018C010E942B0720E030E040E050E0A0
S1132FF0E616F7060807190721F421E030E040E05F
S113300050E0CA01B9010E94BA161F910F91FF90B6
S1133010EF900895EF92FF920F931F930E942B0756
S11330207B018C010E942B0720E030E040E050E05F
S1133030E616F7060807190721F021E030E040E022
S113304050E0CA01B9010E94BA161F910F91FF9076
S1133050EF900895EF92FF920F931F930E942B0716
S11330607B018C010E942B0720E030E040E050E01F
S1133070E616F7060807190724F021E030E040E0DF
S113308050E0CA01B9010E94BA161F910F91FF9036
S1133090EF900895EF92FF920F931F930E942B07D6
S11330A07B018C010E942B0720E030E040E050E0DF
S11330B06E157F058007910724F021E030E040E0A1
S11330C050E0CA01B9010E94BA161F910F91FF90F6
S11330D0EF900895EF92FF920F931F930E942B0796
S11330E07B018C010E942B0720E030E040E050E09F
S11330F06E157F058007910724F421E030E040E05D
S113310050E0CA01B9010E94BA161F910F91FF90B5
S1133110EF900895EF92FF920F931F930E942B0755
S11331207B018C010E942B0720E030E040E050E05E
S1133130E616F7060807190724F421E030E040E01A
S113314050E0CA01B9010E94BA161F910F91FF9075
S1133150EF900895EF92FF920F931F930E942B0715
S11331607B018C010E942B07E114F1040105110578
S113317029F061E070E080E090E012C020E030E0EF
S113318040E050E0611571058105910519F4CA010B
S1133190B90106C021E030E040E050E0CA01B901C5
S11331A00E94BA161F910F91FF90EF900895EF922D
S11331B0FF920F931F930E942B077B018C010E94A7
S11331C02B07E114F1040105110579F020E06115E4
S11331D071058105910539F081E02827622F772751
S11331E08827992706C021E0F7CF60E070E080E0EF
S11331F090E00E94BA161F910F91FF90EF900895EE
S11332001F938091930490919404FC01ED50FB4F23
S113321020810196909394048093930433272A3059
S113322029F12B3098F02D3009F44AC02E3088F162
S1133230203109F48CC0213109F0ECC00E942B0725
S1133240683008F072C0609395046FC0213009F4AF
S113325047C0213060F1223009F46CC0233009F0FA
S1133260D9C00E945F060E94BA16D4C00E942B07E0
S1133270AB01BC0120912504309126041091650115
S11332801A30A8F161E070E080E090E00E94BA1684
S1133290C1C02B3009F485C02C3009F0BBC060914B
S11332A065017727882799270E94BA16B3C06091D1
S11332B0000170910101882799270E94BA16AAC0BB
S11332C010926301109264011092650181E0809371
S11332D03E0160E070E080E090E00E94BA169AC07F
S11332E00E945303882799270E94BA1693C090918D
S11332F0640182E1989FF0011124240F351FEF58D7
S1133300FE4FD9010D9001928150E1F7892F8F5F13
S11333106AE00E94F340909364011F5F109365017B
S113332080913E01813009F44CC060E070E080E09F
S113333090E0ACCF0E942B07DC01CB0160E00E943F
S113334025087727882799270E94BA1663C00E9408
S11333502B07609335040E942B076093210470931C
S1133360220480932304909324040E942B077093D7
S1133370EE046093ED040E942B0720912504309104
S11333802604260F371F309334042093330481E03E
S11333908093C50360E070E080E090E00E94BA167C
S11333A039C00E942B079B01AC01609125047091E8
S11333B0260480916501882351F481E080933E01C5
S11333C061CF10923E018EE10E940103AECF620FE5
S11333D0731F9091630182E1989FF0011124DB0136
S11333E0EF58FE4F01900D928150E1F780916301F7
S11333F08F5F6AE00E94F34090936301109165012E
S1133400115010936501112309F08FCF81E080934F
S11334103E018BCF1F91089541E060E00E940109B5
S11334208F5F0E94BB090E94BA160895CF93DF9361
S1133430CDB7DEB724970FB6F894DEBF0FBECDBF6D
S113344041E060E00E9401098130C1F0813058F40C
S11334500E942B079B01AC0197FD19C00E94BD3F40
S11334600E94681527C0823011F0833019F50E943C
S113347015080E948F3F0E94BA161CC00E942B0799
S113348069837A838B839C830E94BD3FE9CF6170FB
S11334907070807090705695479537952795622B7C
S11334A0732B842B952B0E94BD3F9B01AC010E9482
S11334B0BA3ED6CF24960FB6F894DEBF0FBECDBF6A
S11334C0DF91CF9108951F920F920FB60F9211249E
S11334D01F932F933F934F935F936F937F938F9398
S11334E09F93AF93BF93CF93DF93EF93FF93C4B1B5
S11334F0D5B178948FB7F89499272091A103322FEE
S11335003695317021708FBF222309F03BC0339868
S113351080911E04813009F45CC0823009F021C11D
S1133520332309F460C010921E048091790C813019
S113353009F469C0813008F059C01FB7F89480912C
S11335402C01813009F476C0813008F466C08230E1
S113355009F47BC0833009F4B1C08091A30C80933B
S11335602C01843009F462C084E08093A30C82E0CF
S113357080931E041092790C0E940D04812F9927C8
S11335808FBFEFC08FB7F89499278FBF2FB7F894E8
S1133590332786B1582F5770482F4072987D942B4B
S11335A0952B8074977B982B90619F77892F99270F
S11335B086B9887D842B852B87738061992786B98A
S11335C0887D842B852B877B8069992786B92FBFBB
S11335D0C8C0332341F0D0939704C09396048CE081
S11335E00E940103BEC00E940D04BBC0823009F0DA
S11335F0B8C01092C903D0937D0CC0937C0C8DE1AC
S11336000E940103AEC010920404D0939C03C093A3
S11336109B0388E10E940103A4C0E0912A01F09178
S11336202B01C7A38D2F992786A397CF80E00E94F3
S11336301A11A4CFD093CC03C093CB0388E00E948B
S1133640010387E00E94010388CF2091730C2F5F50
S11336502093730C80912D0190912E010C968C1760
S11336609D07F8F48091CA038F5F8093CA0388236F
S1133670D1F083E080934D0187E080936A0110923A
S113368092041092910410925F0210925E028AEAF0
S113369080932C028093FE0D0E94F804BB9ABA9A80
S11336A05CCF1092CA038091CF0480FDE2CF253015
S11336B009F44CC082E00E94C6114FCF80912D01C5
S11336C090912E019C013695279536952795821B5E
S11336D0930B8C179D07A0F08091730C8F5F8093E0
S11336E0730C8150863040F185E080932C0181E099
S11336F080934D0185E00E9401030E94D10A2DCFE1
S113370087E00E94010380912D0190912E019C017C
S1133710369527953695279536952795820F931FCD
S1133720C817D90708F019CFD093CC03C093CB03A3
S113373088E00E94010311CF83E00E94C61180E556
S113374090E0019701960197E1F707CF0E94530398
S11337506F7070706F5F7F4F7093CB046093CA0477
S1133760FCCEFF91EF91DF91CF91BF91AF919F91EB
S11337708F917F916F915F914F913F912F911F9105
S11337800F900FBE0F901F90189580914D018230BD
S113379009F0089580912C01843019F085E080931C
S11337A02C0181E080934D0185E00E94010308957E
S11337B01F920F920FB60F9211244F925F926F9245
S11337C07F928F929F92AF92BF92CF92DF92EF92AD
S11337D0FF920F931F932F933F934F935F936F9396
S11337E07F938F939F93AF93BF93CF93DF93EF9385
S11337F0FF930FB18091FE0D8FB94091690142FD95
S1133800009580916A01883009F44FC0893028F10D
S11338108B3009F499C08C3008F458C08D3009F409
S11338206DC18D3008F412C18E3009F052C389E0A5
S11338300E9401038091CF048D7F8093CF048091F7
S11338402C01843019F085E080932C0181E0809371
S11338504D0185E00E9401033CC3843009F48EC00D
S1133860853008F44DC0863009F46BC1873009F007
S113387030C380912C028093FE0DC0919104D091AD
S113388092042196D0939204C09391048091740C75
S11338909091750CC817D90708F41BC383E3809370
S11338A02C0288E080936A0114C380912C028093D7
S11338B0FE0D8CEC80932C0289E080936A01CFEF9B
S11338C0DFEFD0939204C093910403C3893009F4C9
S11338D050C18A3009F0FDC280912C028093FE0D04
S11338E080915E0290915F02892F992780932C0228
S11338F08BE080936A011092920410929104E9C2C1
S1133900823009F4CBC0833009F0E3C20A3A09F4E7
S11339109AC1053509F497C1C0919104D0919204DC
S11339202196D0939204C0939104C130D10509F437
S113393042C2279708F457C282E080936A0110922A
S1133940920410929104C5C280912C028093FE0DC2
S1133950C0919104D09192042196D0939204C09383
S11339609104249708F4B5C240FF90C08CE0809382
S11339706A011092920410929104ABC2E0912A0160
S1133980F0912B0154815E3108F017C18091FF0D35
S11339909091000E982F8827202F3327822B932B6A
S11339A09093000E8093FF0D46954695469547707B
S11339B0BC0102C0769567954A95E2F7809191041F
S11339C090919204E80FF91F6083EC012196D09343
S11339D09204C0939104595F052F11270C171D07FA
S11339E008F007C10C171D0709F40EC1A69709F0CA
S11339F070C2E0912A01F0912B0185A124A140E03D
S1133A0050E09927982F88273327822B932B2091D6
S1133A105E0230915F028217930709F44AC1242F92
S1133A2044A3852F9927482F85A38091690180FF9E
S1133A300AC0842F9927982F88273327822B932B0A
S1133A40892B09F09BC10E94130543C280912C026B
S1133A508093FE0DC0919104D09192042196D0934D
S1133A609204C0939104C130D10509F41DC1249777
S1133A7008F42FC28DE080936A011092000E109218
S1133A80FF0D109292041092910423C2BB98BA982D
S1133A900E94ED028EE080936A011BC20A3A09F487
S1133AA0BAC0053509F4B7C010929204109291047B
S1133AB090E08091CF0481FF0CC280FD03C0992364
S1133AC009F086C18091CA049091CB04009709F44F
S1133AD000C201979093CB048093CA04892B09F008
S1133AE0F8C180912C01843019F085E080932C0179
S1133AF01092730C82E00E94C611EBC180912C02DB
S1133B008093FE0DC0919104D09192042196D0939C
S1133B109204C09391048091FF0D9091000E20E0D7
S1133B200AC0FAEB83389F0709F4AFC02F5F28302F
S1133B3009F44DC0000F880F991F07FFF2CF816071
S1133B40F0CFC0919104D09192042196D093920425
S1133B50C0939104C031D10508F07EC0CB30D105AB
S1133B6008F4B7C1C357DB4FFE0184918093FE0D67
S1133B70B0C14090030E5090040E80912C028093AB
S1133B80FE0DC0919104D09192042196D093920499
S1133B90C09391048C3C09F48FC0F201848199276D
S1133BA00796C817D90708F45CC080915E02809319
S1133BB02C028AE080936A018CC182E080936A01BE
S1133BC010929204109291040E94C51B82C190939A
S1133BD0000E8093FF0D629708F47BC1E091030E01
S1133BE0F091040E80A58E7F80A78EE080936A01F9
S1133BF070C180915E0290915F020E94B302909323
S1133C005F0280935E02EECEC4E2D0E0D0939204D1
S1133C10C09391045EC1C0919104D0919204219605
S1133C20D0939204C0939104239758F083E0809337
S1133C306A0110929204109291041092000E109254
S1133C40FF0D91E036CF802F9927982F88279093E6
S1133C50000E8093FF0D3DC10E94ED02BB98BA98FF
S1133C60F2CE8091030E9091040EC80FD91F688183
S1133C7060932C0280915E0290915F020E94B302D5
S1133C8090935F0280935E0224C19093000E809310
S1133C90FF0DE091030EF091040E80A5816080A7D2
S1133CA08EE080936A0115C1BB98BA980E94ED0218
S1133CB010C141E050E0B3CE0E949A023B014C0196
S1133CC0E091030EF091040E65A7BB27A92D982D52
S1133CD0872D84A7C401AA27BB2783A7892D9927E9
S1133CE0AA27BB2782A7E091030EF091040E81A5B9
S1133CF0882309F4E9C084818D5FE80FF11D2081D8
S1133D00E1808281A3809927AA27BB27BA2FA92FF4
S1133D10982F8827332744275527522F44273327A2
S1133D202227FF24002711278701FF24EE242E29B0
S1133D303F29402B512BBB24CC24DD242A293B29A9
S1133D404C295D29822B932BA42BB52B861997091B
S1133D50A809B9098383292F3A2F4B2F552722838A
S1133D609D014427552721838B2F9927AA27BB27F9
S1133D708083C0919104D09192040FCF0081E1809F
S1133D800E94EF041127102F0027FF240E291F295A
S1133D900817190709F057CE86E080936A0110923C
S1133DA09204109291040E94F804BB9ABA9A8AEA87
S1133DB08093FE0D8EC0202F33278091FF0D9091AC
S1133DC0000E822B932B9093000E8093FF0D81C0E5
S1133DD00E9453036F7070706F5F7F4F7093CB04BA
S1133DE06093CA0476C00E949A023B014C01C091C0
S1133DF0FF0DD091000E9C2F8827202F3327822B74
S1133E00932B9093000E8093FF0D17E005C0115083
S1133E101F3F09F45EC0000FCC0FDD1F07FD52C029
S1133E2033E3CC3CD30799F7E0912A01F0912B01BD
S1133E3084E080936A018DE184831092920410924D
S1133E40910410925F0210925E0280912C018430E2
S1133E5019F085E080932C0182E080934D01812F3D
S1133E608770880F880F880FE0916901E77CE82B41
S1133E70E0936901E695E695E695E770FF27E15C36
S1133E80FE4F8081992787FD9095A92FB92F681A35
S1133E90790A8A0A9B0AE0912A01F0912B0165A60E
S1133EA0BB27A92D982D872D84A7C401AA27BB273A
S1133EB083A7892D9927AA27BB2782A780E00E9480
S1133EC0C611A5CFC160ACCFC0919104D09192042A
S1133ED064CEFF91EF91DF91CF91BF91AF919F910C
S1133EE08F917F916F915F914F913F912F911F918E
S1133EF00F91FF90EF90DF90CF90BF90AF909F9085
S1133F008F907F906F905F904F900F900FBE0F90A7
S1133F101F901895FF920F931F93182FF09019017B
S1133F2042E061E00E940109082F40E060E0812F37
S1133F300E94010921E030E002C0220F331F8A955C
S1133F40E2F7822F0E943D099C0140E050E06FEFB0
S1133F508F2D800F0E94E30E1F910F91FF90089503
S1133F600F931F93CF93DF93CDB7DEB724970FB68C
S1133F70F894DEBF0FBECDBF182F43E063E00E946C
S1133F800109082F42E060E0812F0E940109182FE7
S1133F9081E090E002C0880F991F0A95E2F70E9421
S1133FA03D09133031F0612F0E9425080E94BA1692
S1133FB014C0E0912504F0912604E80FF91F8081D4
S1133FC09181A281B38189839A83AB83BC83698104
S1133FD07A818B819C810E94681524960FB6F8948F
S1133FE0DEBF0FBECDBFDF91CF911F910F9108951A
S1133FF0DF92EF92FF920F931F93182F41E061E03D
S11340000E940109E82E40E060E0812F0E9401092E
S1134010D82E01E010E0C80102C0880F991FEA946D
S1134020E2F70E943D097C0102C0000F111FDA94DF
S1134030E2F7802F0E943D09209125043091260447
S113404060911A0170911B01AC01C701820F931F8B
S11340500E9487411F910F91FF90EF90DF90089588
S11340602F923F924F925F926F927F928F929F9284
S1134070AF92BF92CF92DF92EF92FF920F931F9372
S1134080CF93DF93CDB7DEB725970FB6F894DEBF95
S11340900FBECDBFE0919304F0919404CF0101963B
S11340A0ED50FB4F00811127FC01ED50FB4FE080E8
S11340B001969093940480939304FF2447E067E06F
S11340C0802F0E940109B82E46E064E0802F0E94F0
S11340D00109382E43E063E0802F0E940109C82EB5
S11340E042E060E0802F0E940109282E42E062E055
S11340F08E2D0E940109D82E41E060E08E2D0E9491
S11341000109F82E23E0321609F479C0232D237017
S113411081E090E001C0880F2A95EAF78D8301E0E1
S113412010E0C80102C0880F991FBA94E2F70E94F8
S11341303D093C01C80102C0880F991FCA94E2F7E7
S11341400E943D092C0102C0000F111FDA94E2F70E
S1134150802F0E943D098C018F2D8F5F0E94BB0927
S11341606B017C01622DC2010E9425084801AA242A
S1134170BB24681579058A059B05E8F5E3E03E163E
S1134180A9F0A50194010E941341ED812E2F33273C
S1134190442755270E94D440660E771E032D222DF6
S11341A0A301C701B6010E94F80C41C0F7FC2AC064
S11341B0C701B6010E94BD3F69837A838B839C83C8
S11341C0622DC2010E942508A50194010E94134199
S11341D0ED812E2F3327442755270E94D440660EA5
S11341E0771E69817A818B819C8103E0222DA30152
S11341F00E94F80C1CC08BE00E94461518C084E095
S11342008D838DCFC701B60161707070807090701E
S1134210F694E794D794C7946C297D298E299F2915
S11342200E94BD3F9B01AC010E94BA3EC5CF2596BA
S11342300FB6F894DEBF0FBECDBFDF91CF911F91B3
S11342400F91FF90EF90DF90CF90BF90AF909F9031
S11342508F907F906F905F904F903F902F90089534
S11342604F925F926F927F928F929F92AF92BF9282
S1134270CF92DF92EF92FF920F931F93CF93DF932E
S1134280CDB7DEB728970FB6F894DEBF0FBECDBF0B
S1134290E0919304F0919404CF010196ED50FB4F0B
S11342A000811127FC01ED50FB4FE08001969093B3
S11342B0940480939304FF2447E067E0802F0E94D6
S11342C00109D82E46E064E0802F0E940109682E7F
S11342D043E063E0802F0E940109B82E42E060E0D1
S11342E0802F0E940109582E44E064E08E2D0E9424
S11342F00109882E43E063E08E2D0E940109982E67
S113430042E060E08E2D0E940109782E23E06216BF
S113431009F488C0262D237081E090E0482E01C066
S1134320440C2A95EAF701E010E0C80102C0880FA6
S1134330991FDA94E2F70E943D096C01C80102C09A
S1134340880F991FBA94E2F70E943D095C01C801E5
S113435002C0880F991F8A94E2F70E943D097C01EC
S113436002C0000F111F9A94E2F7802F0E943D09AA
S11343704C01652DC5010E942508002711276E15E3
S11343807F058007910708F049C023E07216B1F059
S1134390A80197010E941341242D33274427552750
S11343A00E94D440C60ED71E672DC4010E94250862
S11343B0062D272DA6010E94F80C37C0E091250494
S11343C0F0912604E80DF91D80819181A281B381C9
S11343D08D839E83AF83B8878D819E81AF81B8859D
S11343E089839A83AB83BC83652DC5010E9425080C
S11343F0A80197010E941341242D332744275527F0
S11344000E94D440C60ED71E69817A818B819C811B
S1134410062D23E0A6010E94F80C07C08BE00E9441
S1134420461503C034E0432E7ECF28960FB6F89489
S1134430DEBF0FBECDBFDF91CF911F910F91FF90D3
S1134440EF90DF90CF90BF90AF909F908F907F9030
S11344506F905F904F9008952F923F924F925F928A
S11344606F927F928F929F92AF92BF92CF92DF9280
S1134470EF92FF920F931F93CF93DF93CDB7DEB7E5
S113448025970FB6F894DEBF0FBECDBF40E060E0C5
S11344900E940109A82E8091930490919404FC0138
S11344A0ED50FB4F00810196909394048093930404
S11344B0112747E067E0802F0E940109B82E46E0EB
S11344C064E0802F0E940109282E43E063E0802FDE
S11344D00E940109C82E42E060E0802F0E94010979
S11344E0382E83E0281609F477C0222D237081E04A
S11344F090E001C0880F2A95EAF78D8301E010E06F
S1134500C80102C0880F991FBA94E2F70E943D09BE
S11345102C01C80102C0880F991FCA94E2F70E94B7
S11345203D093C0102C0000F111FAA94E2F7802F3D
S11345300E943D094C01AA24BB24632DC3010E949F
S11345402508681579058A059B0508F041C083E0B4
S11345502816E9F00E942B076B017C01632DC3012F
S11345600E942508A50194010E941341ED812E2F7C
S11345703327442755270E94D440460E571E022D48
S113458026E0A201C701B6010E94F80C28C00E94CF
S1134590150869837A838B839C83632DC3010E94EE
S11345A02508A50194010E941341ED812E2F332784
S11345B0442755270E94D440460E571E69817A81AC
S11345C08B819C8103E023E0A2010E94F80C07C0C8
S11345D08BE00E94461503C0E4E0ED838FCF25965F
S11345E00FB6F894DEBF0FBECDBFDF91CF911F9100
S11345F00F91FF90EF90DF90CF90BF90AF909F907E
S11346008F907F906F905F904F903F902F90089580
S11346108F929F92BF92CF92DF92EF92FF920F936D
S11346201F93CF93DF93CDB7DEB72A970FB6F894D5
S1134630DEBF0FBECDBF40E060E00E940109C82E7E
S11346408091930490919404FC01ED50FB4F008100
S113465001969093940480939304E02EFF24FC82AB
S1134660EB8247E067E08B810E940109F82E46E067
S113467064E08B810E940109182F43E063E08B8181
S11346800E940109E82E42E060E08B810E9401094A
S1134690D82E133009F454C0137081E090E0B82E82
S11346A001C0BB0C1A95EAF701E010E01E830D83EC
S11346B0C80102C0880F991FFA94E2F70E943D09CD
S11346C04C01C80102C0880F991FEA94E2F70E94C6
S11346D03D097C0102C0000F111FCA94E2F71E833A
S11346E00D838D810E943D099A8389836D2DC701B5
S11346F00E942508E981FA819F0144275527621702
S113470073078407950720F08BE00E9446151BC0B1
S11347107401002711270E9413412B2D33274427AE
S113472055270E94D440E60EF71E081F191FEF827A
S1134730F88609871A87C801B7010E94BA1603C010
S113474044E0B42EB1CF2A960FB6F894DEBF0FBE64
S1134750CDBFDF91CF911F910F91FF90EF90DF902C
S1134760CF90BF909F908F900895DF92EF92FF9229
S11347700F931F9340E060E00E940109D82E0E942D
S11347802B077B018C0181E090E002C0880F991F08
S1134790DA94E2F70E943D09AC01809125049091DE
S11347A026048E0D9F1D60911A0170911B010E94B9
S11347B087411F910F91FF90EF90DF900895DF9252
S11347C0EF92FF920F931F9340E060E00E94010973
S11347D0D82E8091930490919404FC01ED50FB4FEA
S11347E0008101969093940480939304112747E0E9
S11347F067E0802F0E940109E82E46E060E0802FE8
S11348000E940109182F81E090E002C0880F991FCF
S1134810DA94E2F70E943D09FF249C01A701612F6D
S113482080E00E94E30E1F910F91FF90EF90DF90C4
S11348300895DF92EF92FF920F931F93CF93DF932C
S1134840182F41E061E00E940109E82E40E060E099
S1134850812F0E940109D82E01E010E0C80102C096
S1134860880F991FEA94E2F70E943D09EC0102C007
S1134870000F111FDA94E2F7802F0E943D09AC016A
S1134880892B99F020E030E0E0E0F0E0EC0FFD1F30
S11348908091250490912604E80FF91F10822F5F60
S11348A03F4FF9014217530789F7DF91CF911F91C9
S11348B00F91FF90EF90DF900895DF92EF92FF92B7
S11348C00F931F93CF93DF93182F41E061E00E9471
S11348D00109E82E40E060E0812F0E940109D82EF2
S11348E001E010E0C80102C0880F991FEA94E2F7C2
S11348F00E943D09EC0102C0000F111FDA94E2F797
S1134900802F0E943D098C010E942B0761157105BF
S11349108105910529F0D0939404C093930404C0B5
S11349201093940400939304DF91CF911F910F91FE
S1134930FF90EF90DF900895DF92EF92FF920F9334
S11349401F93CF93DF93CDB7DEB728970FB6F894B4
S1134950DEBF0FBECDBF182F42E060E00E94010908
S1134960D82E43E063E0812F0E940109082F45E01F
S113497064E0812F0E940109182F81E090E002C0B9
S1134980880F991F0A95E2F70E943D097C01812F47
S11349908F5F0E94BB0923E0D21631F00D2D26E073
S11349A0A7010E94F80C14C069837A838B839C83CB
S11349B089819A81AB81BC818D839E83AF83B887C3
S11349C06D817E818F81988503E0A7010E94F80C98
S11349D028960FB6F894DEBF0FBECDBFDF91CF91FE
S11349E01F910F91FF90EF90DF900895EF92FF9247
S11349F00F931F93CF93DF93CDB7DEB724970FB6F2
S1134A00F894DEBF0FBECDBF182F43E063E00E94D1
S1134A100109082F42E060E0812F0E940109182F4C
S1134A2081E090E002C0880F991F0A95E2F70E9486
S1134A303D097C01133041F00E942B07012F26E031
S1134A40A7010E94F80C0FC00E94150869837A839D
S1134A508B839C8369817A818B819C8103E023E031
S1134A60A7010E94F80C24960FB6F894DEBF0FBE7F
S1134A70CDBFDF91CF911F910F91FF90EF900895DB
S1134A800F931F93182F43E063E00E940109082F3E
S1134A9042E060E0812F0E9401098091930490918B
S1134AA09404FC01ED50FB4F108101969093940403
S1134AB08093930481E090E002C0880F991F0A95C7
S1134AC0E2F70E943D09AA27BB27AC01BD01812F53
S1134AD00E9462141F910F910895AF92BF92CF92DA
S1134AE0DF92EF920F931F935B016C01809151044D
S1134AF081FF03C08D7F809351040E945F06AB0148
S1134B00BC01E1E0EE2E9601850182E00E944006A0
S1134B101F910F91EF90DF90CF90BF90AF900895C9
S1134B20EF92FF920F931F93CF93DF937A018B0140
S1134B30A901C0912504D0912604209199033091B4
S1134B409A03C20FD31F9C01220F331F280F391F52
S1134B50220F331FC20FD31F80911E0190911F019A
S1134B60AA2797FDA095BA2FE81AF90A0A0B1B0B7E
S1134B7017FD1CC0FE01E192F19201931193418350
S1134B80852F99278C83CE010E947809892B91F077
S1134B908FEFE8168FEFF8068FEF08078FE71807F7
S1134BA049F0C801B7010E946D2504C0EE24FF241A
S1134BB08701E0CFDF91CF911F910F91FF90EF908C
S1134BC00895AF92BF92CF92DF92EF920F931F930B
S1134BD05B016C0180915A0481FF03C08D7F809337
S1134BE05A040E945F06AB01BC0111E0E12E96015C
S1134BF0850183E00E9440061F910F91EF90DF90A2
S1134C00CF90BF90AF900895DF92EF92FF920F93F1
S1134C101F93182F41E061E00E940109E82E40E053
S1134C2060E0812F0E940109D82E01E010E0C80144
S1134C3002C0880F991FEA94E2F70E943D097C01A3
S1134C4002C0000F111FDA94E2F7802F0E943D0981
S1134C50EE0CFF1C20912601309127012E0D3F1DE3
S1134C60E0917E0CF0917F0CE20FF31F918380831F
S1134C7080915A0481FD06C062E070E080E090E01B
S1134C800E94E1251F910F91FF90EF90DF9008950E
S1134C904F925F926F927F928F929F92AF92BF9248
S1134CA0CF92DF92EF92FF920F931F93CF93DF93F4
S1134CB0CDB7DEB72A970FB6F894DEBF0FBECDBFCF
S1134CC081E0809348018093190123E0422E512C06
S1134CD04C0E5D1E61E0C2010E942B0E892B09F46B
S1134CE0F5C39B8180911901981711F090931901D4
S1134CF02D813E812115310569F3809114018823AA
S1134D0049F7309394042093930492E0692E712C14
S1134D106C0E7D1EB3014E010894811C911CC401CC
S1134D200E94EE0699819130A9F2809114018823A2
S1134D3089F6FA80892F9927AA27BB27FC01329785
S1134D40EF3BF10528F5E559FF4FEE0FFF1F0590E6
S1134D50F491E02D099442E060E08F2D0E94010956
S1134D60182F0E942B07DC01CB01133009F45DC31B
S1134D70143008F44EC3153009F494C3153008F404
S1134D807BC3163029F466E00E9425080E94BA16F7
S1134D90B301C5CF0E942B076095709580959095BF
S1134DA00E94BA16B301BBCF8F2D0E949C24B3017D
S1134DB0B6CF8F2D0E944025B301B1CF8F2D0E9415
S1134DC0F624B301ACCF8F2D0E94B01FB301A7CF3F
S1134DD08F2D0E948A1FB301A2CF42E062E08F2D83
S1134DE00E943109082F41E061E08F2D0E943109B2
S1134DF0182F40E060E08F2D0E943109D82E802FBB
S1134E000E943D097C01812F0E943D098C018D2D5A
S1134E100E943D092091250430912604020F131F9E
S1134E20A701B801820F931F0E948741B30177CF76
S1134E3042E060E08F2D0E940109082F0E942B0799
S1134E406B017C01033009F407C30E942B0726E0A1
S1134E50A6010E94F80CB30162CF41E060E08F2DFF
S1134E600E940109182F0E942B076B017C01612FFE
S1134E70C6010E9425086150704080409040012F77
S1134E80212FA6010E94F80CB30149CF41E060E054
S1134E908F2D0E940109182F0E942B076B017C01A2
S1134EA0612FC6010E9425086F5F7F4F8F4F9F4F70
S1134EB0012F212FA6010E94F80CB30130CF8F2DB2
S1134EC00E94F81FB3012BCF41E060E08F2D0E94B8
S1134ED001092091930430919404F901ED50FB4FA2
S1134EE010812F5F3F4F30939404209393048F5F7E
S1134EF00E94BB09AB01BC01812F0E946214B30163
S1134F000ECF41E061E08F2D0E943109082F40E06F
S1134F1060E08F2D0E943109182F802F0E943D09D7
S1134F206C01812F0E943D095C0120911701309191
S1134F301801121613060CF02BCF81E0E82EF12C89
S1134F4004E010E009C00894E11CF11C0C5F1F4F41
S1134F502E153F050CF41CCFE0912401F09125019E
S1134F60E00FF11F828193818C159D0560F3A816D3
S1134F70B90648F36E2D80E090E00E942B0E089451
S1134F80E108F108045010402091170130911801F4
S1134F90DACF8F2D0E940426B301C1CE8F2D0E943B
S1134FA05D24B301BCCE8F2D0E941924B301B7CE6A
S1134FB08F2D0E94161AB301B2CE8F2D0E940C1AA7
S1134FC0B301ADCE8F2D0E94DF23B301A8CE40E004
S1134FD060E08F2D0E9431090E943D09E091250473
S1134FE0F0912604E80FF91F8081882309F4D0CEBC
S1134FF080919304909194040196909394048093E7
S11350009304B3018CCE40E060E08F2D0E943109FF
S11350100E943D099093940480939304B3017FCE3E
S113502040E060E08F2D0E9431090E943D0960E05C
S11350300E94AC0FB30173CE8F2D0E94B523B30130
S11350406ECE8F2D0E940823B30169CE8F2D0E944E
S11350502C22B30164CE8F2D0E943021B3015FCE88
S11350608F2D0E943020B3015ACE809193049091E9
S11350709404FC01ED50FB4F00810196909394043D
S113508080939304112747E067E0802F0E94310941
S1135090E82E46E064E0802F0E940109B82E43E028
S11350A063E0802F0E943109F82E42E060E0802FF7
S11350B00E940109182F8E2D0E943D096C018F2D2D
S11350C00E943D09133009F4B6C1612F0E942508DE
S11350D00B2D212FA6010E94F80CB30120CE809144
S11350E0930490919404FC01ED50FB4F00810196D0
S11350F09093940480939304112743E063E0802FFA
S11351000E943109E82E42E061E0802F0E940109EB
S1135110F82E40E060E0802F0E943109B82E8E2DD9
S11351200E943D096C018F2D8F5F0E94BB097B019A
S11351308C018B2D0E943D099C01B801A701C60179
S11351400E949025B301EBCD809193049091940437
S1135150FC01ED50FB4F00810196909394048093E1
S11351609304112747E065E0802F0E940109B82EBF
S113517044E063E0802F0E940109A82E42E062E02F
S1135180802F0E943109D82E41E061E0802F0E94D7
S11351903109E82E40E060E0802F0E943109F82EAA
S11351A08D2D0E943D096C018E2D0E943D098C01BC
S11351B08F2D0E943D097C016A2DC8010E9425089B
S11351C04B2D0E949F09AB01BC019701C6010E94AF
S11351D09025B301A4CD8091930490919404FC0193
S11351E0ED50FB4F008101969093940480939304B7
S11351F0112741E061E0802F0E943109F82E40E040
S113520060E0802F0E943109D82E46E064E0802FB0
S11352100E940109C82E8F2D0E943D097C018D2D0D
S11352200E943D098C010E942B074C2D0E949F096E
S1135230AB01BC019801C7010E949025B3016FCD59
S11352402091930430919404F901ED50FB4F808137
S11352502F5F3F4F309394042093930440E050E039
S113526060E070E00E946214B30159CD0E942B07E4
S1135270AB01BC012091930430919404F901ED50E9
S1135280FB4F80812F5F3F4F30939404209393040E
S11352900E946214B30143CD8F2D0E940019B30103
S11352A03ECD8F2D0E949816B30139CD8F2D0E94CB
S11352B07616B30134CD8F2D0E945416B3012FCD31
S11352C08F2D0E943216B3012ACD8F2D0E94101605
S11352D0B30125CD8F2D0E94EE15B30120CD8F2D66
S11352E00E94D715B3011BCD8F2D0E94C015B301A9
S11352F016CD8F2D0E94A915B30111CD8F2D0E94BB
S11353009215B3010CCD8F2D0E948C15B30107CDDE
S11353100E942B07B30103CD8F2D0E94D718B30130
S1135320FECC8F2D0E94AA18B301F9CC8F2D0E94B8
S11353308A18B301F4CC8F2D0E946A18B301EFCC04
S11353408F2D0E944A18B301EACC8F2D0E942A188F
S1135350B301E5CC8F2D0E940A18B301E0CC8F2D48
S11353600E94EA17B301DBCC8F2D0E94D317B3013F
S1135370D6CC8F2D0E94B917B301D1CC8F2D0E94AA
S11353809F17B301CCCC8F2D0E948817B301C7CCD3
S11353908F2D0E947117B301C2CC8F2D0E94491723
S11353A0B301BDCC8F2D0E943217B301B8CC8F2D21
S11353B00E940C17B301B3CC8F2D0E94F516B301D4
S11353C0AECC8F2D0E94DE16B301A9CC0E942B0710
S11353D090958095709561957F4F8F4F9F4F0E9458
S11353E0BA16B3019CCC0E942B0720E030E040E0C9
S11353F050E0611571058105910531F0CA01B901CB
S11354000E94BA16B3018BCC21E030E040E050E0BA
S1135410F5CF113009F451C01230D0F162E00E948E
S113542025080E94BA16B3017ACC0E94B2100E94D9
S11354306815B30174CC0E94B2106F837887898792
S11354409A876F81788589859A850B2D23E0A6013B
S11354500E94F80CB30163CC0E9415086F8378870F
S113546089879A876F81788589859A8523E0A60143
S11354700E94F80CB30153CC64E00E9425087727FE
S113548067FD7095872F972F0E94BA16B30147CCFA
S113549060E00E9425087727882799270E94BA167A
S11354A0B3013DCC65E00E942508882777FD8095EF
S11354B0982F0E94BA16B30132CC61E00E942508ED
S11354C0882799270E94BA16B30129CC1092480163
S11354D00E94290380E090E02A960FB6F894DEBF7C
S11354E00FBECDBFDF91CF911F910F91FF90EF9031
S11354F0DF90CF90BF90AF909F908F907F906F90F0
S11355005F904F900895EF92FF920F931F93CF9364
S1135510DF9380911401813009F474C08091680193
S1135520882309F471C080914801882309F06CC074
S11355300E94E00A072F7C01162F40917A0C5091AB
S11355407B0CC0912504D0912604FE01E40FF51FC5
S113555021812095221F2227221F83E0821B282FCE
S113556060910C0470910D04A0E0B0E023C08A2F78
S113557099278617970708F041C0818199278F776B
S113558090703327FC01E29FC001E39F900DF29FCE
S1135590900D11244E5F5F4F480F591FFE01E40F19
S11355A0F51F21812095221F2227221F83E0821BC1
S11355B0282F119680811817D1F69A012F5F3F4F3B
S11355C0E9F0809114018823F9F4F0921B01E09230
S11355D01A0181E080931901602FC9010E94AC0F68
S11355E080911E0190911F01019790931F01809358
S11355F01E0180E090E00E94482606C080E00E94E0
S1135600010302C00E94E00ADF91CF911F910F9124
S1135610FF90EF9008950F931F9320910001309114
S1135620010120930F04232F332720930E0481308C
S1135630E1F11092140160E070E081E00E945107F2
S11356400E945F066093E9047093EA048093EB047C
S11356509093EC0480911401882399F583EF94E0EE
S113566090932501809324018091CC049091CD04E2
S1135670880F991F880F991F89509B4F909327017A
S113568080932601909326048093250420916D0134
S113569030916E0140E050E06FEF81E00E94E30E34
S11356A080E090E00E9448260CC00091680100232D
S11356B009F4BFCF10E00E94E00A1F5F0117D9F779
S11356C0B8CF1F910F910895AF92BF92CF92DF92FE
S11356D0EF920F931F935B016C010E945F06AB0175
S11356E0BC01E1E0EE2E9601850180E00E944006B7
S11356F01F910F91EF90DF90CF90BF90AF900895DE
S113570080914D01843029F0853061F0813089F039
S113571008956091A0027091A102882799270E94A0
S1135720642B089561E070E080E090E00E94642BB7
S1135730089580913F0481FDEBCF90E080912D028C
S11357408F31B0F4992369F08091A0029091A10265
S1135750892B81F460E07AE080E090E00E94642B81
S1135760089560E870E080E090E00E94642B089562
S113577091E0E8CF6EE170E080E090E00E94642B5D
S113578008951F931FB7F8948091CF0481FD16C02C
S11357908091A0029091A102892B81F090E08091E8
S11357A02D028F31F8F4992301F520E0812F9927F8
S11357B08FBF2223C9F10E94F21136C080914D019E
S11357C08450823090F780912C01843019F085E068
S11357D080932C0181E080934D0185E00E940103B8
S11357E021E0E4CF91E0992301F390E080916A01F4
S11357F08330C1F09923C9F60E94C80A81E08093DE
S11358006A016F98B89AC09880912C01843019F07D
S113581085E080932C0184E080934D010E94802BCD
S113582020E0C4CF91E0E6CF1F910895AF92BF92DC
S1135830CF92DF92EF920F931F935B016C010E9452
S11358405F06AB01BC01F1E0EF2E9601850186E015
S11358500E9440061F910F91EF90DF90CF90BF9070
S1135860AF9008956F927F928F929F92AF92BF9262
S1135870CF92DF92EF92FF920F931F93CF93DF9318
S1135880CDB7DEB76C970FB6F894DEBF0FBECDBFB1
S11358904B015C01CC24DD24E7E3F4E0608561FF87
S11358A013C02081318142815381E480F5800681D7
S11358B01781D501C401821B930BA40BB50B8E1564
S11358C09F05A007B10748F40894C11CD11C399660
S11358D02AE0C216D10411F79FC260FF70C06D7F29
S11358E0608724E0C21609F49FC02C1508F470C028
S11358F082E0C81609F424C18C1508F09DC00091FB
S113590026011091270140917E0C50917F0C6091EB
S11359100A0470910B046115710509F47DC2D80164
S1135920A40FB51F8D919C911197892B09F0AFC1DC
S113593020E009C0EE0FFF1FEA0FFB1F8081918159
S1135940892B09F0A4C12F5FE22FFF27E617F70781
S113595088F39801CA016B014901880E991EA09031
S11359602201B0902301C501B6010E94FF407C01D1
S11359708C01000F111F080D191DD8012D913C91A8
S11359802115310509F09AC1E0E0F0E013C0C5012A
S11359908E0F9F1FB6010E94FF407C018C01000FF7
S11359A0111F080D191DD8012D913C9121153105A8
S11359B009F084C13196CE16DF0649F72DC22E0DAB
S11359C03F1D401F511F208331834283538389CF5E
S11359D0A6E0CA1609F447C0CA1650F1B8E0CB16BF
S11359E009F499C1E9E0CE1609F016C29FB7F894FC
S11359F020915E01222309F4E1C180913D018130AF
S1135A0009F4D7C130E0892F99278FBF332309F4D4
S1135A1003C28FB7F894082F112780913D0181307C
S1135A2009F4E2C10FBFF8C184E00E940103F4C18C
S1135A3081E00E940103F0C1CC2009F0EDC18FB7D1
S1135A40F894082F1127F02E80914D01843009F429
S1135A5099C1853009F4A0C1813009F4B1C10E9413
S1135A60802BFFBED9C18091A60C9927982F882737
S1135A702091A70C3327822B932B20914B0130913B
S1135A804C01820F931F0E94AD068823F1F180918F
S1135A906B019927982F882720916C013327822B3B
S1135AA0932B8A83892F992789832091A60C3327E6
S1135AB0322F22278091A70C9927282B392B8091EC
S1135AC04B0190914C01280F391F2C83832F992768
S1135AD08B83F901EE0FFF1FE20FF31FEE0FFF1F81
S1135AE0EE0FFF1FEE0FFF1FED50FB4F20E030E0E5
S1135AF0DE01159681918D932F5F3F4F283131053B
S1135B00C9F7CE0101960E94661080914B019091D5
S1135B104C01019690934C0180934B0120916F01AD
S1135B203327322F2227409170015527242B352B00
S1135B308217930708F419C181E0809329016CC18D
S1135B400E945F069B01AC01E090E904F090EA0436
S1135B500091EB041091EC046093E9047093EA045F
S1135B608093EB049093EC04C0902601D09027011D
S1135B708091990390919A03C80ED91E81E0809375
S1135B801901E0912001F0912101309709F444C1F9
S1135B902E193F09400B510B79018A0180819181B3
S1135BA0A281B381281739074A075B070CF0A9C003
S1135BB05FEF652E5FEF752E5FEF852E5FE7952E05
S1135BC010922101109220012091740330917503E9
S1135BD02115310589F1AA24BB2480E090E0FC0161
S1135BE0EE0FFF1FE80FF91FEE0FFF1FEC0DFD1D59
S1135BF084819581892BD1F080819181A281B381A7
S1135C00681679068A069B06B1F18E199F09A00BC6
S1135C10B10B80839183A283B383B7FD2CC0CF01E2
S1135C200E9478092091740330917503C50101968F
S1135C305C018217930798F280E090E00E94482666
S1135C4010921F0110921E01E0912001F091210198
S1135C50309709F4E1C060817181828193816F3F43
S1135C60FFEF7F07FFEF8F07FFE79F0709F4D4C01B
S1135C700E946D25D1C01192119211921192CF01FF
S1135C800E94920F2091740330917503CFCF62E08C
S1135C9070E080E090E00E94E1252091260130919F
S1135CA0270180917E0C90917F0CC0900A04D090C3
S1135CB00B04C114D10409F04FCEAEC040E050E053
S1135CC06FEF81E00E94E30EF8011182108260916F
S1135CD00A0470910B04C70101960E94FF4090933F
S1135CE023018093220180911E0190911F0101974D
