S01700006275696C642F697269732F6D61696E2E7372656343
S11300000C946E010C949A0C0C94BF0C0C94E40C9C
S11300100C94EE0C0C94F80C0C94020D0C940C0D36
S11300200C94160D0C948D010C948D010C948D017F
S11300300C948D010C9403120C948D010C94DA0A27
S11300400C94AD1F0C94E31F0C94B80B0C94C30BCD
S11300500C94CE0B0C948D010C948D010C948D0199
S11300600C94F50A0C948D010C948D010C948D0163
S11300700C948D010C94FC0B0C948D010C948D014B
S11300800C948D010C948D010C948D010C948D01B4
S11300900C948D010C948D010C948D010C948D01A4
S11300A00C948D010C948D010C948D010C948D0194
S11300B00C948D010C948D010C948D010C948D0184
S11300C00C948D010C948D010C948D015F155115C8
S11300D0671575158315EE15E115E615C415CC15D0
S11300E0D415DC1588158D15931599150A16A815C0
S11300F0AD150A160A160A160A160A160A160A165A
S11301000A160A160A160A160A160A160A160A16EB
S11301100A16B615BD15E32A392E2C2E1C2E0C2ECC
S1130120462EFC2DE32DD62DC62DB32DA02D902DBE
S1130130802D672D572D472D372D262D0F2DF52C6E
S1130140F12CE12AEA2CDA2CCA2CBA2CAA2C9A2CEF
S11301508A2C7B2C6C2C592C432CBE2A3E2C392CFB
S1130160342C2F2C2A2C252C202C1B2CE12AE12A80
S1130170E12A162CE12A112CE12A0C2CE12A072C65
S1130180E12A022CE12AFD2BE12AF82BE12AE12ABB
S1130190E12AF32BE12AE12AE12AEE2BE12AE12AE2
S11301A0E12AC22BE12AE12AE12AA02BE12AE12A51
S11301B0E12A712BE12AE12AE12A292BE12AE12A09
S11301C0E12A242BE12AE12AE12A1F2BE12AE12A50
S11301D0E12A1A2BE12AE12AE12A152BE12AE12A54
S11301E0E12A102BE12AE12AE12AE12AE12AE12A83
S11301F0E12A0B2BE12AE12AE12AE12AE12AE12A78
S1130200E12A062BE12AE12AE12AE12AE12AE12A6C
S1130210E12AE12AE12AE12AE12AE12AE12AE12A82
S1130220E12A012BE12AE12AE12AE12AE12AE12A51
S1130230E12AFC2AE12AE12AE12AE12AE12AE12A47
S1130240E12AE12AE12AE12AE12AE12AE12AE12A52
S1130250E12AF72AE12AE12AE12AE12AE12AE12A2C
S1130260E12AE12AE12AE12AE12AE12AE12AE12A32
S1130270E12AF22AE12AE12AE12AE12AE12AE12A11
S1130280E12AE12AE12AE12AE12AE12AE12AE12A12
S1130290E12AED2A19387337B237B537B837C6377C
S11302A0EC374A35AF35CD3674387E3890362E3932
S11302B00836B236BB36FC3769376E37DD3802395B
S11302C0D238433905399436D836FA361F372237AF
S11302D02D3740370B3800020E060C0411241FBEC4
S11302E0CFEFD1E2DEBFCDBF12E0A0E0B2E0ECEA96
S11302F0F6E800E00BBF02C007900D92A234B107EC
S1130300D9F71EE1A2E4B2E001C01D92AB33B107FC
S1130310E1F70E94D23C0C9455430C9400008FB733
S1130320F894992708958FBF08959B01AC0190918B
S113033063029630C8F480916202E82FFF27EE0F23
S1130340FF1FEE0FFF1FEA5EF94F208331834283C4
S113035053838F5F80936202863049F09F5F90934E
S1130360630280E090E0089581E090E008951092A7
S113037062029F5F9093630280E090E00895282FCB
S11303809FB7F894E82FFF27E758FB4F80818F3FF2
S113039019F025E030E016C0E0912E1E2E17C9F3A7
S11303A08091091C8F3F49F0FF27E758FB4F2083BA
S11303B020932E1E20E030E005C02093091C2093DA
S11303C02E1EF8CF892F99278FBFC901089580E089
S11303D00E94BF0199270895982F96959695969512
S11303E0E3E7F4E0E90FF11D877021E030E002C09B
S11303F0220F331F8A95E2F780818223992708957B
S11304000F931F93CF93DF93182F8FB7F894282F50
S11304103327022F809157028823E1F481E08093EF
S113042057021093D9042FBF2FB7F8943327809124
S11304307A00806880937A002FBF8FB7F894C82F12
S1130440DD272C2F90913E02933089F02FBF80E05E
S113045090E038C08091D9048117C1F3812F0E94A4
S1130460EC018823A1F085E090E00FBF2BC08091C0
S11304705702813009F1823049F78091D904809381
S11304803E0290935702CFBF80E090E01BC0E12F63
S1130490E695E695E695FF27ED58FB4F177081E04A
S11304A090E002C0880F991F1A95E2F72081282B4B
S11304B0208380E090E0D9CF89E10E94BF01CFBFC3
S11304C080E090E0DF91CF911F910F91089580918A
S11304D05C02882319F081E090E0089581E00E9495
S11304E000029927282F882319F481E080935C0265
S11304F0822F99270895982F969596959695E5EAD3
S1130500F4E0E90FF11D877021E030E002C0220F12
S1130510331F8A95E2F78081822399270895982FC3
S113052080914F02882351F4E0E2F5E0119285E0D6
S1130530EE32F807D9F781E080934F02292F332751
S11305400024369527950794369527950794322FDE
S1130550202D260F311DA0E2B5E0FD0180819927F1
S11305608217930749F01196319685E0AE32B807A9
S1130570A9F780E090E008951C9281E090E008954E
S113058085309105A1F0069719F080E090E0089578
S11305903D99FBCF86B1992796958795929582953B
S11305A08F7089279F7089278170907008953C9976
S11305B0ECCF86B19927929582958F7089279F7089
S11305C089278170907008959FB7F894292F332755
S11305D0422F90913E02981721F04FBF80E090E0A7
S11305E00895809157028330C1F72FBF81E090E0D6
S11305F0089580910D1C813011F08130A8F5E8E058
S113060021E061E07FB7F8944091A3044E7F4093CA
S1130610A30480917C00982F9F718295869586957E
S11306208370B9F090E09170990F842F8D7F892B9E
S1130630262F2F71922F990F990F8378892B8093EE
S1130640A304332720937C00E830D1F02E2F2770A9
S113065043C050E03327892F99272817390709F019
S113066051E091E09527DFCF823001F18130E1F054
S11306708130D0F0823041F1E0E02FE16FE1C2CF70
S113068080910A1C90910B1C21E08638920710F08F
S113069027E022C0833C910528F48136910550F06F
S11306A025E01AC026E018C0E0E0AACFE8E02EE179
S11306B06EE1A8CF8033910528F48831910530F09C
S11306C023E00AC024E008C0E0E0F1CF8C309105BB
S11306D010F022E001C020E0887D822B886D9927EC
S11306E080937A00872F99278FBF0895EF920F93F5
S11306F01F93AE2D99E0899FF0011124E458FA4F1D
S113070040835183628373830483158326833783F1
S1130710A17080858E7F8A2B826080878BE00E9407
S1130720BF011F910F91EF9008956FB7F8948091D6
S1130730B200B99B19C08091B3009091B20020918E
S11307407404309175044091760450917704280F15
S1130750311D411D511D2F5F3F4F4F4F5F4F290FDB
S1130760311D411D511D0CC020917404309175043C
S11307704091760450917704280F311D411D511D7D
S1130780862F99278FBFCA01B9010895AF92BF92EE
S1130790CF92DF92EF92FF920F931F93F82E5A019C
S11307A06B010E949503AB01BC01A1E0EA2E960106
S11307B085018F2D0E9476031F910F91FF90EF907A
S11307C0DF90CF90BF90AF9008958091540288231A
S11307D019F081E090E0089580E00E9400029927DA
S11307E0282F882319F481E080935402822F9927BB
S11307F00895982F969596959695EBE7F5E0E90F71
S1130800F11D877021E030E002C0220F331F8A956A
S1130810E2F7808182239927089590E0809148022D
S1130820882309F491E081E09827892F9927089576
S1130830882321F08CB580648CBD08958CB58F7BA2
S11308408CBD0895882321F08CB580688CBD0895F3
S11308508CB58F778CBD08950F931F9380E00E9411
S113086018040FB7F8941127229A2398219A209AF2
S11308708CB580618CBD80E00E9422048CB5877F9A
S11308808CBD8CB58B7F8CBD81E00E9418048DB526
S113089081608DBD8CB58C7F8CBD0FBF1F910F9176
S11308A008950F931F93CF93DF93082F1FB7F894E6
S11308B00E940D048823A1F1812F99278FBF8FB740
S11308C0F894C82FDD272C2F809148028823E1F06B
S11308D0E02FFF27E951FB4F80818F3F21F085E016
S11308E090E02FBF23C0E09131020E17C1F3809135
S11308F030028F3FC1F0FF27E951FB4F0083009383
S1130900310280E090E0EDCF81E0809348020093D3
S1130910EA048EE00E94BF01CFBF80E090E006C0F1
S11309200E942C04C9CF00933002E9CFDF91CF910C
S11309301F910F910895FB0121E030E002C0220FC6
S1130940331F8A95E2F785A5822B85A708958E9695
S113095008958FB7F89420917005309171054091F6
S11309607205509173056091840070918500B09B6D
S113097008C02F5F3F4F4F4F5F4F609184007091CD
S1130980850099278FBF88279927A9013327222714
S1130990622B732B842B952B089583E090E00895AC
S11309A0FC0182819927982F882721813327822B64
S11309B0932B96958795929582958F7089279F7032
S11309C08927817090700895FC0140E050E0828195
S11309D09927982F882721813327822B932B87747B
S11309E09C7C8154984811F441E050E0CA01089578
S11309F0FC0187819927982F882726813327822B0A
S1130A00932B0895AC01EFB7F894209184003091B2
S1130A108500C901841B950B03968617970738F048
S1130A20B9016D5F7F4F41F06150704007C0640FA2
S1130A30751F61157105C1F760E070E0709389005E
S1130A406093880082E086BB80916F00826080930F
S1130A506F008E2F99278FBF08950196089520E087
S1130A6030E0FC0181818770823011F421E030E0B4
S1130A70C90108952FB7F894332780912A029091E1
S1130A802B022FBF08950F931F93CF93DF93EC0195
S1130A900E94D004882319F480E090E014C0CE01B1
S1130AA00E94E4048823C1F3CE010E94F8048C015F
S1130AB00E943A0520E00817190709F021E081E0B7
S1130AC02827822F9927DF91CF911F910F910895A5
S1130AD0FC016E5F60830895FB0121E030E002C0F9
S1130AE0220F331F8A95E2F785A58223992708955B
S1130AF0FC018081825099270895FC018185992702
S1130B00982F882720853327822B932B0895EF92E3
S1130B10FF920F931F937C018FB7F894992700914C
S1130B20EF051091F0050F5E1E4F1093F005009332
S1130B30EF05015111408FBF89E00E94BF01C80138
S1130B40B7010E94BD428A5D9E4F1F910F91FF9095
S1130B50EF9008952FB7F894622F7727A0E0FC0157
S1130B60F695E795F695E795F695E795E053FA4FF0
S1130B70408155278770907021E030E002C0220F39
S1130B80331F8A95E2F742235323452B09F0A1E052
S1130B906FBF8A2F99270895FC01DB0190818C9106
S1130BA0981769F020911902921731F0821779F0A1
S1130BB020E030E0891768F421E030E00AC020E04A
S1130BC030E09181FB018181891718F4F5CF20E091
S1130BD030E0C9010895CF93DF93EC019B01E091CC
S1130BE0C605F091C705E75BF94F80818883E091E2
S1130BF0C605F091C705E75BF94F8081FB0180834F
S1130C008091C6059091C70501969093C70580937E
S1130C10C6059881E2E0F2E0DF0112968081981720
S1130C2018F08181891738F41396339682E0A6313F
S1130C30B807A1F708C08C919823F9019083809597
S1130C40988198239883892F9927DF91CF910895CC
S1130C50E0911502F09116023496F0931602E09397
S1130C601502EB5BF94F6081718182819381089554
S1130C708830910549F0099709F008953D9BFDCF0F
S1130C80613041F0459808953C9BF7CF613021F0E5
S1130C9044980895459A0895449A0895873011F127
S1130CA0883098F08A3009F441C08B3020F18C30C0
S1130CB009F469C08C3008F44AC08D3029F46230DC
S1130CC0710508F493C0E9980895833059F184308C
S1130CD008F1853009F44EC0863080F560FF64C0A9
S1130CE0109808958FB7F894992722B131E02327FB
S1130CF022B98FBF0895883009F44AC0893021F79A
S1130D0080E0672B09F081E0682F89E090E00E9481
S1130D10380608958130F9F08230B1F660FF4CC096
S1130D201298089560FF06C01198089560FF04C0EA
S1130D303C9A0895119A08953C9808958FB7F894B1
S1130D40992722B132E0232722B98FBF089560FF8B
S1130D5029C03D9A08958FB7F894772760FF28C07B
S1130D60129861FF23C0119862FF24C0109899273C
S1130D708FBF08958FB7F894992722B134E02327C1
S1130D8022B98FBF089562307105C0F0E8980895C4
S1130D9080E0672B09F081E0682F88E090E00E94F2
S1130DA0380608953D980895109A0895119ADCCF55
S1130DB0129AD7CF109ADBCF129A0895672B59F461
S1130DC080916900826080936900809169008160EC
S1130DD0809369000895809169008260809369001E
S1130DE0809169008E7F809369000895672B59F480
S1130DF080916900886080936900809169008460B3
S1130E0080936900089580916900886080936900E7
S1130E10809169008B7F809369000895E0911502A9
S1130E20F09116023496F0931602E0931502EB5BF0
S1130E30F94F608171818281938108952F923F924D
S1130E404F925F926F927F928F929F92AF92BF92D6
S1130E50CF92DF92EF92FF920F931F93CF93DF9382
S1130E60CDB7DEB729970FB6F894DEBF0FBECDBF5E
S1130E706FB76983F8942090DA043090DB044090D3
S1130E80DC045090DD046624772488248EE4A82EA4
S1130E9003E8B02ECC24DD24EE24FF2400E010E08F
S1130EA0222D332D442D552D662D772D882D90E040
S1130EB00E94F63E2A833B834C835D836E837F834B
S1130EC088879987822E932EA42EB52E240135016E
S1130ED0769467945794479400E20E94F43FA22EBC
S1130EE0B32EC42ED52EA30192012A0D3B1D4C1DF9
S1130EF05D1D57FF05C05F772F5F3F4F4F4F5F4F1B
S1130F002093DA043093DB044093DC045093DD0433
S1130F10E9818E2F99278FBFCA01B90129960FB68F
S1130F20F894DEBF0FBECDBFDF91CF911F910F911B
S1130F30FF90EF90DF90CF90BF90AF909F908F90F5
S1130F407F906F905F904F903F902F900895EF9215
S1130F50FF920F931F93623029F1633060F0653084
S1130F6009F45AC06630F1F0643009F469C0EE2423
S1130F70FF24870172C0662309F442C06130B9F7C7
S1130F80E0916605F0916705E80FF91F80819927C4
S1130F90982F882721813327822B932B7C010027CC
S1130FA011275BC0E0916605F0916705E80FF91F12
S1130FB082819927AA27BB27EE24F82E092F1A2FFE
S1130FC02081332744275527522F442733272227AC
S1130FD081819927AA27BB27DC0199278827282BF9
S1130FE0392B4A2B5B2B83819927AA27BB27282BD4
S1130FF0392B4A2B5B2BE22AF32A042B152B2DC009
S1131000E0916605F0916705E80FF91F8081E82EED
S1131010FF240027112721C0E0916605F0916705A0
S1131020E80FF91F80819927982F8827218133277A
S1131030822B932B7C010027F7FC0095102F0DC009
S1131040E0916605F0916705E80FF91F8081E82EAD
S1131050FF24E7FCF0940F2D1F2DC801B7011F9149
S11310600F91FF90EF900895982F80914F0288235D
S113107051F4E0E2F5E0119285E0EE32F807D9F799
S113108081E080934F02492F5527002456954795B8
S11310900794569547950794542F402D9A01260F8F
S11310A0311D70E08091200599272817390721F117
S11310B0E1E2F5E005C0319685E0EE32F80769F02B
S11310C07723C9F48081992728173907A1F771E09C
S11310D0319685E0EE32F80799F7772359F4A0E0CA
S11310E0B0E03E978081882349F011963196AE3066
S11310F0B105C1F70895089571E0DACFA05EBA4F43
S1131100640F6C930895CF93DF93461738F1E82F5B
S1131110FF2750E0A62FBB27C1E0D0E005C080E048
S1131120580F6F5F4617B8F0262F3327CF01022ED2
S113113002C0959587950A94E2F780FFF0CF2A1BA9
S11311403B0BCE0102C0880F991F2A95E2F7580F76
S11311506F5F461748F7852F992702C080E090E01B
S1131160DF91CF9108950E94830821E030E002C00E
S1131170220F331F8A95E2F7822F99270895CF9380
S1131180DF93582F882381F1C82FDD276091C6058E
S11311907091C705A0E0B0E040E0FB01E75BF94FC8
S11311A020813327CE01841B9109880F991F880F52
S11311B0991F880F991F089702C0220F331F8A9521
S11311C0E2F7A20FB31F6F5F7F4F4F5F451738F4ED
S11311D0423018F36F5F7F4F4F5F4517C8F370932A
S11311E0C7056093C60502C0A0E0B0E0CD01DF9161
S11311F0CF910895CF93DF93EC01E0912002F09119
S11312002102309749F02081318142815381211597
S113121031054105510539F4D0932102C0932002D0
S113122081E090E00BC088819981AA81BB818217FB
S11312309307A407B50784F380E090E0DF91CF9192
S11312400895423029F0433051F0413079F0089547
S113125020E63AEE40E050E00E949242089520E8F1
S11312603EEE46E350E00E949242089528EE33E0B9
S113127040E050E00E9492420895EF92FF920F9353
S11312801F93CF93DF93782F8823C1F1C82FDD27D5
S11312904091C6055091C705EE24FF24870160E004
S11312A0FA01E75BF94F80819927AA27BB279E01A2
S11312B0261B3109220F331F220F331F220F331F26
S11312C02850304004C0880F991FAA1FBB1F2A95BD
S11312D0D2F7E80EF91E0A1F1B1F4F5F5F4F6F5FA7
S11312E0671738F46430E0F24F5F5F4F6F5F671742
S11312F0C8F35093C7054093C60503C0EE24FF24EA
S11313008701C801B701DF91CF911F910F91FF9021
S1131310EF900895DF92EF92FF920F931F938FB790
S1131320F894282F3327D22E9091B3008091B200E5
S113133047B3981711F041FF02C02FBF80C08091BE
S1131340D804882389F52091740430917504409160
S113135076045091770470E065EE8091B60083FDC9
S1131360FCCF8091B200861709F457C0DA01C90195
S11313700196A11DB11D860F911DA11DB11D8217DE
S11313809307A407B50710F4622F60958091B60007
S113139083FDFCCF6093B300DFBE772309F44FC015
S11313A08AE00E94BF014BC00E949503E0909A031B
S11313B0F0909B0300919C0310919D032091371C96
S11313C03091381C4091391C50913A1C6E197F0998
S11313D0800B910B621773078407950700F5D801FA
S11313E0C701820F931FA41FB51F2091740430916D
S11313F075044091760450917704821B930BA40BDF
S1131400B50B873E9105A105B10508F0A4CF823044
S113141098F0682F615070E0A0CF6F5FA7CF109253
S1131420D80471E065EE2091740430917504409104
S113143076045091770491CF70E061E08ECF1F91D4
S11314400F91FF90EF90DF900895AFB7F894BB270A
S1131450E1E0E093D80460939A0370939B03809334
S11314609C0390939D032093371C3093381C409326
S1131470391C50933A1CAFBF0E948A0908958AE030
S113148090E008950F931F938C010E943F0A080F68
S1131490111DC8011F910F9108950F931F938C0183
S11314A00E943F0A8F5F080F111DC8011F910F9101
S11314B008952FB7F894332780912C022FBF9927D2
S11314C0089588E290E00895CF93DF93DC016623CA
S11314D089F0FC01319621813327322F2227EC0138
S11314E0898199278062282B392B2983232F33273D
S11314F0218310C0FC01319681819927982F882778
S1131500ED0129813327822B932B8F7D8983892FAA
S113151099278183DF91CF91089580916102E82F0B
S1131520FF27EE0FFF1FEE0FFF1FEA5EF94F40810A
S113153051816281738120916302222361F08F5F64
S113154080936102863021F021502093630203C00E
S113155010926102F9CFCB01BA0108950E948D0A5D
S11315600895E0EDF5E006C02FBF319685E0ED3E2D
S1131570F80759F08FB7F894282F332780818F3FCD
S113158099F32FBF80E090E0089581E090E0089502
S1131590CF93DF93C0E0D0E004C02196C83ED105CC
S11315A029F0CE010E94AA058823B9F7CE01DF9164
S11315B0CF9108951F920F920FB60F9211248F931B
S11315C08091B0008093B0008091B60081FDFCCF83
S11315D08F910F900FBE0F901F9018958EBD0DB474
S11315E007FEFDCF8EB5992708951F920F920FB66F
S11315F00F9211248F929F92AF92BF92CF92DF925B
S1131600EF92FF920F931F932F933F934F935F9308
S11316106F937F938F939F93AF93BF93CF93DF93F6
S1131620EF93FF932EB5E091C405F091C505309773
S113163039F080916C0590916D05E80FF91F2083B6
S113164080916C0590916D05019690936D05809342
S11316506C0580E00E942204E0906C05F0906D051A
S11316608091200390912103E816F90608F045C003
S1131670C090241ED090251E8090C4059090C5056E
S11316809701265F3F4F2817390708F448C05C01CB
S11316900894A108B108EA14FB04F8F484010E0DBF
S11316A01F1DE601CE0DDF1D11C088810E94EE0AC8
S11316B08114910411F0F80180830894E11CF11C59
S11316C00F5F1F4F2196EA14FB0438F4C114D104B0
S11316D061F780E00E94EE0AEBCF81E00E942204D1
S11316E0C114D10431F1CE0CDF1CF60180818EBD12
S11316F0F0926D05E0926C051EC01092C505109223
S1131700C4051092251E1092241E109221031092DB
S1131710200310926D0510926C058EB50CC0C901A2
S11317205C010894A108B108EA14FB0408F4B6CFDC
S1131730D4CF1EBCDDCFFF91EF91DF91CF91BF914C
S1131740AF919F918F917F916F915F914F913F9155
S11317502F911F910F91FF90EF90DF90CF90BF904A
S1131760AF909F908F900F900FBE0F901F90189581
S113177078941F920F920FB60F9211240F900FBE00
S11317800F901F90189578941F920F920FB60F9296
S113179011240F900FBE0F901F90189578941F92EC
S11317A00F920FB60F9211242F933F938F939F9311
S11317B0AF93BF932FB7F89433278091700590911E
S11317C07105A0917205B09173050196A11DB11D1B
S11317D08093700590937105A0937205B09373057F
S11317E02FBFBF91AF919F918F913F912F910F90F8
S11317F00FBE0F901F9018951F920F920FB60F9265
S113180011242F933F934F935F936F937F938F9301
S11318109F93AF93BF93EF93FF93409178005091C0
S1131820790078948FB7F89499272091A304322FE4
S11318303695317021708FBF222321F580917A0073
S1131840877F80937A0080912E05813009F445C00A
S1131850823009F05EC0332309F449C010922E058A
S113186080910D1C882309F44BC0813009F051C0CC
S11318701092D2045093111C4093101C8FE10E94CB
S1131880BF0147C08FB7F89499278FBF2FB7F8943B
S1131890332780917A00582F5770482F4072987DD3
S11318A0942B952B8074977B982B90619F77892F2D
S11318B0992780937A00887D842B852B8773806198
S11318C0992780937A00887D842B852B877B806978
S11318D0992780937A002FBF1CC0332341F0509383
S11318E0CD054093CC058AE10E94BF0112C08DE76B
S11318F090E0019701960197E1F70E94F90209C06F
S11319001092DE0450939E0440939D0488E10E944B
S1131910BF01FF91EF91BF91AF919F918F917F9103
S11319206F915F914F913F912F910F900FBE0F9048
S11319301F9018951F920F920FB60F9211242F9398
S11319403F934F935F936F937F938F939F93AF9343
S1131950BF93EF93FF9382E10E94BF01FF91EF9148
S1131960BF91AF919F918F917F916F915F914F91B3
S11319703F912F910F900FBE0F901F9018951F92BB
S11319800F920FB60F9211242F933F934F935F93AF
S11319906F937F938F939F93AF93BF93EF93FF9333
S11319A083E10E94BF01FF91EF91BF91AF919F919D
S11319B08F917F916F915F914F913F912F910F90F4
S11319C00FBE0F901F9018951F920F920FB60F9293
S11319D011240F900FBE0F901F9018951F920F9215
S11319E00FB60F9211240F900FBE0F901F901895F1
S11319F01F920F920FB60F9211240F900FBE0F90EB
S1131A001F9018951F920F920FB60F9211240F90EA
S1131A100FBE0F901F9018951F920F920FB60F9242
S1131A2011240F900FBE0F901F9018951F920F92C4
S1131A300FB60F9211240F900FBE0F901F901895A0
S1131A409C0180914B02882331F481E080933B0216
S1131A5081E090E008959091490282E2989FF0011C
S1131A601124D901E256FC4F01900D928150E1F707
S1131A70809149028F5F65E00E94B14290934902D0
S1131A8080914B02815080934B02882331F481E092
S1131A9080933B0280E090E0089580E090E0089518
S1131AA09C0140914B02453018F081E090E008958C
S1131AB090914A0282E2989FF0011124E256FC4F71
S1131AC0D9010D9001928150E1F7892F8F5F65E074
S1131AD00E94B14290934A024F5F40934B0280911F
S1131AE03B02813019F080E090E0089510923B02AF
S1131AF08FE00E94BF0180E090E008959C018091F6
S1131B004E02882331F481E080933C0281E090E02E
S1131B10089590914C0282E2989FF0011124D9011A
S1131B20E053F34E01900D928150E1F780914C0205
S1131B308F5F6AE00E94B14290934C0280914E0202
S1131B40815080934E02882331F481E080933C02DB
S1131B5080E090E0089580E090E008959C018091F9
S1131B604E02882319F481E090E0089590914C028C
S1131B7082E2989FF0011124D901E053F34E0190C1
S1131B800D928150E1F780E090E00895AF92BF920A
S1131B90CF92DF92EF92FF920F931F93CF93DF9335
S1131BA0CDB7DEB728970FB6F894DEBF0FBECDBF12
S1131BB06D837E838F8398875A01233009F446C04E
S1131BC02430B8F0CD80DE80EF80F884033009F44F
S1131BD09DC0043000F1053009F46EC0053008F0F2
S1131BE0D3C0E0916605F0916705EA0DFB1DC08244
S1131BF0EFC0CD80DE80EF80F884033009F4A5C007
S1131C00043048F0053009F457C0053050F306306D
S1131C1009F0DEC005C0013009F44EC0023008F3FB
S1131C20E0916605F0916705EA0DFB1DC382BB27B1
S1131C30AF2D9E2D8D2D8283C701AA27BB278183BB
S1131C408F2D9927AA27BB278083C2C02D813E816F
S1131C504F8158850330D9F1043018F1053009F467
S1131C60B2C0053008F445C0063009F0B1C0CA015D
S1131C70B9010E944841E0916605F0916705EA0DBB
S1131C80FB1D6383272F382F492F552722839C015F
S1131C90442755272183692F77278827992760832D
S1131CA097C0013009F480C0023008F470C0CA0142
S1131CB0B9010E944D41DFCFE0916605F0916705BF
S1131CC0EA0DFB1DC1828D2D9927808381C0E0918F
S1131CD06605F0916705EA0DFB1D29833A834B8362
S1131CE05C8389819A81AB81BC8180839183A28347
S1131CF0B3838091660590916705A80EB91ECA0149
S1131D00B9010E944841F501608362C000916605F3
S1131D1010916705040F151FC701B6010E947B418E
S1131D2069837A838B839C8389819A81AB81BC810B
S1131D30F80180839183A283B383E0916605F091D7
S1131D406705EA0DFB1DC08243C000916605109132
S1131D506705040F151FF7FEDFCFC701B6016170D9
S1131D60707080709070A7019601569547953795CD
S1131D702795622B732B842B952B0E947B419B010F
S1131D80AC010E947840CCCF063011F549CF809148
S1131D90660590916705A80EB91ECA01B9010E9493
S1131DA04D41F501608314C0CA01B9010E944D413F
S1131DB0E0916605F0916705EA0DFB1D6183672FCD
S1131DC07727608305C0CA01B9010E944841F0CF5A
S1131DD028960FB6F894DEBF0FBECDBFDF91CF912A
S1131DE01F910F91FF90EF90DF90CF90BF90AF9035
S1131DF00895CF92DF92EF92FF920F931F9341E0E9
S1131E0060E00E948308182F0E9428066B017C0161
S1131E10612FC6010E94A7076F5F7F4F8F4F9F4FAF
S1131E20012F212FA6010E94C60D1F910F91FF9033
S1131E30EF90DF90CF900895CF92DF92EF92FF92D0
S1131E400F931F9341E060E00E948308182F0E94C3
S1131E5028066B017C01612FC6010E94A70761500F
S1131E60704080409040012F212FA6010E94C60D92
S1131E701F910F91FF90EF90DF90CF900895CF9234
S1131E80DF92EF92FF920F93CF93DF93CDB7DEB73C
S1131E9024970FB6F894DEBF0FBECDBF42E060E0DA
S1131EA00E948308082F0E9428066B017C010330DE
S1131EB039F00E94280626E0A6010E94C60D0EC035
S1131EC00E940E0769837A838B839C8369817A815C
S1131ED08B819C8123E0A6010E94C60D24960FB637
S1131EE0F894DEBF0FBECDBFDF91CF910F91FF906D
S1131EF0EF90DF90CF9008958F929F92AF92BF9210
S1131F00CF92DF92EF92FF920F931F93CF93DF93C1
S1131F10EC018091170290911802009709F48FC088
S1131F20209709F476C07727FB01EE0FFF1FEE0F11
S1131F30FF1F8091240290912502E80FF91F8081F0
S1131F409181A281B38188839983AA83BB83809181
S1131F501702909118024C01880C991C880C991C4A
S1131F600091240210912502800E911E01979093F6
S1131F701802809317027B01EB01CC0FDD1F8C1735
S1131F809D077CF548C05C01AA0CBB1CAA0CBB1CB9
S1131F906801CA0CDB1CB401C6010E94CC05892B64
S1131FA0D1F1EE0CFF1CEE0CFF1C0E0D1F1DF601F3
S1131FB080819181A281B381F80180839183A2837E
S1131FC0B3839E01220F331F809117029091180250
S1131FD07E0182179307B4F1E90100912402109164
S1131FE02502C817D90779F25E01AA0CBB1CAA0CFA
S1131FF0BB1CC8018A0D9B1DBC0104960E94CC0524
S1132000892B31F221965E01AA0CBB1CAA0CBB1CC5
S1132010BFCF7727A0CF5701AA0CBB1CAA0CBB1CAF
S1132020A00EB11EF40180819181A281B381F501DA
S113203080839183A283B38381E090E008C080E031
S113204090E005C00091240210912502E9CFDF91B0
S1132050CF911F910F91FF90EF90DF90CF90BF90A1
S1132060AF909F908F9008956F927F928F929F92DE
S1132070AF92BF92CF92DF92EF92FF920F931F9392
S1132080CF93DF93CDB7DEB724970FB6F894DEBFB6
S11320900FBECDBF782F452B09F1A0911702B09147
S11320A018021A161B060CF074C0C0902402D090BB
S11320B02502F601868197812817390709F46EC035
S11320C041E050E04F5F5F4FA417B5077CF0828575
S11320D09385349628173907A9F760C0A091170291
S11320E0B0911802C0902402D090250279836A83AB
S11320F03C832B838D010F5F1F4F109318020093B5
S11321001702023011057CF13E010894611C711C18
S113211019C0000F111F000F111FC00ED11EF501B1
S113212080819181A281B381F60180839183A2830E
S1132130B383F2E0EF16F1043CF18701C09024026E
S1132140D09025027801F594E7944701880C991CF6
S1132150880C991C5601A80CB91CB501C3010E9436
S1132160CC05892BB1F64801880C991C880C991C64
S11321708C0C9D1C89819A81AB81BC81F401808384
S11321809183A283B3830AC0C0902402D090250215
S1132190EFCFC0902402D0902502A8CF24960FB68A
S11321A0F894DEBF0FBECDBFDF91CF911F910F9189
S11321B0FF90EF90DF90CF90BF90AF909F908F9063
S11321C07F906F900895CF93DF93EC0188819927D6
S11321D0382F222789819927282B392B211531055E
S11321E049F040E050E06FEF809119020E943410F2
S11321F019821882DF91CF9108958F929F92AF92A6
S1132200BF92CF92DF92EF92FF920F931F93CF93DF
S1132210DF936C01A62E2091260230912702FC0147
S1132220E20FF31F8081E82EFF24E7FCF0949FE780
S1132230E922FF24B82EB094BB1CBB24BB1C83E052
S11322408B19B82E1E141F0494F5882E9924C0E00F
S1132250D0E000E010E012C0F601E20FF31FE00F3F
S1132260F11F81818A15F1F02196080D191DEC16D4
S1132270FD06E9F0209126023091270282E0B8168B
S113228059F7CE01880F991F2C0D3D1D820F931F06
S113229001960E94E3102196080D191DEC16FD0607
S11322A049F705C0CF0102960E94E310DDCFDF910C
S11322B0CF911F910F91FF90EF90DF90CF90BF903F
S11322C0AF909F908F9008959C0140914E024A30A8
S11322D018F081E090E0089590914D0282E2989F79
S11322E0F0011124E053F34ED9010D900192815075
S11322F0E1F7892F8F5F6AE00E94B14290934D020B
S11323004F5F40934E0280913C02813019F080E08F
S113231090E0089510923C0280E10E94BF0180E0A9
S113232090E00895A0E6B3E0FC0185E001900D92F1
S11323308150E1F782EA80935A0385E080935B033E
S11323408091CE049927982F88272091CF04332792
S1132350822B932B80935D03892F992780935C03B1
S113236010925E038AE593E00E9464110895A0E64A
S1132370B3E0FC018CE101900D928150E1F781EA18
S113238080935A038CE180935B038FEF80935D030A
S113239080935C0310925E038AE593E00E946411CB
S11323A00895FB018091660590916705E80FF91F78
S11323B083819927382F222784819927282B392B29
S11323C0A0E6B3E08BE101900D928150E1F781E941
S11323D080935A038BE180935B0320935D03832FE7
S11323E0992780935C0310925E03442319F081E0E3
S11323F080935E038091C90580935F038AE593E02F
S11324000E94641108951F920F920FB60F92112427
S11324102F933F934F935F936F937F938F939F93E8
S1132420AF93BF93EF93FF938091B0008093B0007C
S11324308091B60081FDFCCF8091B300992701966D
S1132440AA27BB2720917404309175044091760427
S113245050917704280F391F4A1F5B1F209374047F
S113246030937504409376045093770478940E94D3
S11324708A09FF91EF91BF91AF919F918F917F91C5
S11324806F915F914F913F912F910F900FBE0F90DD
S11324901F90189521E02093EB042093C805209108
S11324A0840030918500BC01C9010E940205089591
S11324B00E943F0A8E5F992708951F93982F1FB794
S11324C0F89480914702823011F020E034C080916A
S11324D02F029817D1F780912D0220E030E08F3F32
S11324E021F1232BD9F49FEF90932F028F3F61F0BA
S11324F0282F3327F901E353FB4F808180932D026A
S11325008F3FB1F09083822F8093CA0481E080933F
S1132510470285E00E94BF0121E00DC08FEF809348
S11325202F021092470221E006C021E030E0D9CF0B
S113253090932E02E7CF812F99278FBF81E0282720
S1132540822F99271F9108958FB7F894282F332746
S1132550922F80913202882321F4809148028230A4
S1132560E9F09FBF8FB7F894282F33278091480252
S1132570882339F02FBF80E00E94510480E090E06E
S1132580089582E080934802109232022FBF0E9485
S11325902C04209A289A81E090E008952FBF81E0CE
S11325A090E008950F931F93982F1FB7F89480918C
S11325B04802823069F000E0812F99278FBF1FB74E
S11325C0F8940E940D048823B9F50E94180434C0BD
S11325D080913202981779F78091300220E030E040
S11325E08F3F21F1232BD9F49FEF909332028F3F39
S11325F061F0282F3327F901E951FB4F8081809343
S113260030028F3FB1F09083822F8093EA0481E0FF
S1132610809348028EE00E94BF0101E0CDCF8FEF8E
S1132620809332021092480201E0C6CF21E030E0EC
S1132630D9CF90933102E7CF812F99278FBF81E0C3
S11326400827802F99271F910F9108950E94610AEE
S11326508B5099270895EF92FF920F931F93CF9376
S1132660DF93982F8FB7F894E82E80915702833028
S113267021F0EFBE81E090E054C080913E028917C2
S1132680C1F7809173048823B9F080915602082F12
S11326901127E80109C0FC2E8F2D0E94EC0188232C
S11326A0C9F4C017D107D9F12196C330D10599F7E0
S11326B0C0E0D0E0FF24F0CF83E080933E0210928C
S11326C0570280917A008F7780937A00EFBE80E082
S11326D090E027C0EF2DE695E695E695FF274F2D70
S11326E05527ED58FB4F9A012770307081E090E038
S11326F002C0880F991F2A95E2F78095208128232C
S11327002083F09256024093D9048FEF80933E02C7
S113271081E08093570289E10E94BF01D7CF4FEF38
S1132720F2CFDF91CF911F910F91FF90EF90089519
S11327308091D604823009F0089581E08093D60414
S113274087E00E94BF01089580933B1C882321F4F5
S113275084E08093D60403C081E08093D60487E0AC
S11327600E94BF0108950F931F939A01162F082FFB
S1132770C901B8010E94950180914202882311F495
S11327800E94BF011F910F910895FA01813909F048
S113279008952093D0046081772740ED54E088E2C7
S11327A00E94B31340ED54E060E089E20E94B31349
S11327B008950F93FA01813979F400937C036081C1
S11327C077274CE753E08AE20E94B3134CE753E0C7
S11327D060E08BE20E94B3130F9108951F93162FAC
S11327E0882309F07DC0862F8F718430C9F185302C
S11327F018F5823009F44FC0833009F469C049E305
S11328005EE1612F77276F7170706530710589F112
S11328106630710584F56230710509F450C0643086
S1132820710509F458C06130710509F44AC080E0AB
S113283060E00E94B31354C0853091F18630F9F6FC
S113284086E090E00E94C00220E030E0813009F48C
S113285044C02093CD1C1092CC1C4CEC5CE1D1CF35
S113286042E253E0612F77276F7170706530710514
S113287079F688E0DDCF6730710581F06730710546
S113288044F068307105F9F06930710581F68EE025
S1132890CFCF89E0CDCF48E655E0B3CF8AE0C8CFAB
S11328A085E090E00E94C00220E030E0813069F0D1
S11328B02093331E1092321E42E35EE1A2CF86E0E3
S11328C0B7CF85E0B5CF8BE0B3CF21E030E0F0CFD8
S11328D047E25EE196CF87E0ABCF21E030E0B9CFAD
S11328E01F9108951F93CF93DF93182F633089F1BD
S11328F0643070F0653009F461C0653008F049C097
S113290082E00E94000264E0812F0E943408B0C07B
S1132910613009F465C0623009F0AAC08FB7F89439
S1132920C82FDD2780915902882309F077C091E0F0
S11329309093590210929A04CFBF80915A0288232F
S113294009F484C090935B0262E0812F0E943408F2
S11329508FC08FB7F89420E0029B17C0019B11C071
S1132960009B0DC099278FBF822F99278093281E23
S11329701092271E63E0812F0E94EE1379C0246019
S1132980F1CF22600099EECFFACF21E00199E8CF90
S1132990F8CF663009F06CC086E090E00E94C00277
S11329A020E030E0813009F460C02093EE051092FD
S11329B0ED0566E0812F0E94EE135AC085E090E099
S11329C00E94C00220E030E0813009F43CC0209332
S11329D04B0410924A0465E0812F0E94EE1348C014
S11329E08FB7F894C82FDD2780915102882361F4B2
S11329F06093510210921506CFBF80915202882332
S1132A00F1F06093530205C080911506882361F4A8
S1132A10CFBF61E0812F0E9434082AC080919A04BC
S1132A208823C1F4CFBF90CF80E00E94F9038823AC
S1132A3079F780917B05816080937B05E9CF85E1FF
S1132A400E94BF01E6CF21E030E0C1CF8CE10E94BB
S1132A50BF017ACF80E00E947B02882319F780911E
S1132A60A50481608093A504DDCF21E030E09DCFF3
S1132A70DF91CF911F9108950F931F938A019B01BA
S1132A809927AA27BB27FC013597E532F10508F001
S1132A90C1C0EA59FF4FEE0FFF1F0590F491E02DDE
S1132AA00994423051056105710508F4A4C0642FEE
S1132AB077276770707085E00E944E06ABC0642F64
S1132AC077276770707081E00E944E06A3C0423081
S1132AD051056105710508F496C0642F7727677066
S1132AE0707086E00E944E0695C042305105610523
S1132AF0710508F478C0642F77276770707087E0D9
S1132B000E944E0687C061E080E00E94721482C079
S1132B1066E080E00E9472147DC0642F77278CE009
S1132B200E944E0677C0642F77278DE00E944E06E0
S1132B3071C04093141C44E15CE1602F8CE00E945E
S1132B40B31344E15CE160E08DE00E94B31362C022
S1132B50BA018EE00E944E065DC01092141C44E13E
S1132B605CE160E08FE00E94B31354C040E0B80120
S1132B7088E290E00E94D1114DC041E0B80189E2A1
S1132B8090E00E94D11146C0642F77276170707065
S1132B9089E00E944E063EC0642F772761707070F2
S1132BA08AE00E944E0636C0642F772761707070E9
S1132BB08BE00E944E062EC065E080E00E947214F5
S1132BC029C064E080E00E94721424C0642F772737
S1132BD06170707088E00E944E061CC062E080E064
S1132BE00E94721417C0642F77276170707084E09C
S1132BF00E944E060FC0642F77276170707082E0C8
S1132C000E944E0607C0642F77276170707083E0BE
S1132C100E944E061F910F9108950E942806AB0151
S1132C20BC012091C6053091C705F901E75BF94F56
S1132C3080812F5F3F4F3093C7052093C6050E94C4
S1132C403C1508952091C6053091C705F901E75B4D
S1132C50F94F80812F5F3F4F3093C7052093C605FE
S1132C6040E050E060E070E00E943C1508951F933E
S1132C7041E060E00E9483082091C6053091C705B9
S1132C80F901E75BF94F10812F5F3F4F3093C70580
S1132C902093C6058F5F0E943D09AB01BC01812FC3
S1132CA00E943C151F910895EF92FF920F931F937A
S1132CB08093E60446EE54E0382F20E0CA01B901BF
S1132CC00E94950106EE14E0FF24B1E0EB2EC8014A
S1132CD0B7010E94950180914202882311F40E9459
S1132CE0BF011F910F91FF90EF9008959B01AC01DC
S1132CF0E0911502F09116023497F0931602E093D6
S1132D00150280917605909177058E179F0738F408
S1132D10E75BF94F2083318342835383089584E131
S1132D200E94541681E08093140260E070E00E94D7
S1132D304E0608950E941E07882799270E9476163A
S1132D4008950E942806DC01CB0160E00E94A707D9
S1132D507727882799270E94761608950E9495035D
S1132D600E94761608951F930E942806AB01BC01A9
S1132D702091660530916705109160021A3028F0A1
S1132D8061E070E080E090E028C090915F0282E111
S1132D90989FF0011124240F351FE559FD4FD901E7
S1132DA00D9001928150E1F7892F8F5F6AE00E94B4
S1132DB0B14290935F021F5F1093600280914002C2
S1132DC0813029F060E070E080E090E006C010926D
S1132DD0400280E20E94BF01F5CF0E9476161F9147
S1132DE008950E9428069B01AC01609166057091CC
S1132DF0670580916002882341F481E0809340025A
S1132E0061E070E080E090E025C0620F731F909154
S1132E105E0282E1989FF0011124DB01E559FD4F28
S1132E2001900D928150E1F780915E028F5F6AE01C
S1132E300E94B14290935E0280916002815080931F
S1132E406002882319F481E08093400260E070E01E
S1132E5080E090E00E947616089510925E0210922F
S1132E605F021092600281E08093400260E070E0B3
S1132E7080E090E00E94761608950E9428066093F0
S1132E807A050E9428066093620570936305809317
S1132E906405909365050E94280670933906609333
S1132EA038060E9428062091660530916705260F92
S1132EB0371F309379052093780581E08093C80407
S1132EC060E070E080E090E00E94761608950E9431
S1132ED02806683010F46093C90560E070E080E073
S1132EE090E00E947616089541E060E00E94830815
S1132EF08F5F0E943D090E94761608959B01AC01E4
S1132F00E0911502F09116023497F0931602E093C3
S1132F10150280917605909177058E179F0738F4F6
S1132F20E75BF94F2083318342835383089584E11F
S1132F300E94541681E08093140260E070E00E94C5
S1132F404E060895CF93DF93CDB7DEB724970FB61F
S1132F50F894DEBF0FBECDBF41E060E00E9483085D
S1132F608130C1F0813058F40E9428069B01AC01E5
S1132F7097FD19C00E947B410E947E1727C08230B2
S1132F8011F0833019F50E940E070E944D410E94F2
S1132F9076161CC00E94280669837A838B839C83DF
S1132FA00E947B41E9CF617070708070907056957B
S1132FB0479537952795622B732B842B952B0E946D
S1132FC07B419B01AC010E947840D6CF24960FB67A
S1132FD0F894DEBF0FBECDBFDF91CF9108951F934C
S1132FE0CF93DF93CDB7DEB724970FB6F894DEBF47
S1132FF00FBECDBF42E060E00E948308182F0E94FC
S113300028069B01AC01FB011330F1F0143088F069
S1133010153009F441C0153060F564E0C9010E941F
S1133020A707772767FD7095872F972F0E9476163D
S113303046C01130E1F1123028F162E0C9010E946A
S1133040A7070E9476163BC080916605909167059C
S1133050E80FF91F80819181A281B38189839A83CA
S1133060AB83BC8369817A818B819C810E947E17AA
S113307026C0163021F566E0C9010E94A7070E9408
S113308076161DC060E0C9010E94A707772788272C
S113309099270E94761613C065E0C9010E94A7070C
S11330A0882777FD8095982F0E94761608C061E0E6
S11330B0C9010E94A707882799270E94761624969B
S11330C00FB6F894DEBF0FBECDBFDF91CF911F9135
S11330D008953F924F925F926F927F928F929F9248
S11330E0AF92BF92CF92DF92EF92FF920F931F9312
S11330F0CF93DF93EC0180911F03882361F48091C7
S1133100261E853041F40E94A412882321F0809168
S11331103A06882319F085E090E084C1BE0182E07C
S11331200E946C05882309F07EC090E080912F05F1
S1133130981781F090932F05289885EC8EBD0DB4D7
S113314007FEFDCF8EB590689EBD0DB407FEFDCF82
S11331508EB5289ACE010E94E404882309F12898A8
S113316086E88EBD0DB407FEFDCF8EB51EBC0DB432
S113317007FEFDCF8EB5289A99278F719070209104
S1133180DF044091D104240F312D311D359527954D
S11331903595279535952795281739070CF4BBCF16
S11331A0289882EC8EBD0DB407FEFDCF8EB589E064
S11331B08EBD0DB407FEFDCF8EB5289A0E94A904DA
S11331C07B018C01BE0184E00E946C05882319F503
S11331D088249924289881E88EBD0DB407FEFDCF7C
S11331E08EB51EBC0DB407FEFDCF8EB5289A8F7127
S11331F0893001F1289882EC8EBD0DB407FEFDCF15
S11332008EB586E08EBD0DB407FEFDCF8EB5289A2F
S113321085E090E007C1CE010E94780583504E01FD
S1133220880E911CD7CFCE010E94A704FC01918186
S11332309F707CCF8FB7F89499272F9AC090840001
S1133240D09085008FBF2F98289880E68EBD9881F6
S11332500DB407FEFDCF8EB59EBD892F82508730F9
S113326008F0DAC0A82E3324CE010E942D05AC014B
S1133270FC012A2D31910DB407FEFDCF8EB53EBD64
S11332802150C1F7AA94BA016A0D711D6F5F7F4F77
S1133290CE18DF0882EA90E0C80ED91E2601662403
S11332A057FC6094762C4E0C5F1C601E711E8114BA
S11332B09104E1F1D4012C91F401E1808281A38095
S11332C09927AA27BB27BA2FA92F982F88273327F6
S11332D044275527522F442733272227FF2400272A
S11332E011278701FF24EE242E293F29402B512B3F
S11332F0BB24CC24DD242A293B294C295D29822B9B
S1133300932BA42BB52B84199509A609B70983839C
S1133310292F3A2F4B2F552722839D0144275527C8
S113332021838B2F9927AA27BB278083932D915024
S11333309F3F51F0DB012D91BD010DB407FEFDCF80
S11333408EB52EBD9150B0F70DB407FEFDCF8EB5EE
S1133350289A289882EC8EBD0DB407FEFDCF8EB559
S113336086E08EBD0DB407FEFDCF8EB5289A81147C
S11333709104D9F1F4012081E1808281A38099270D
S1133380AA27BB27BA2FA92F982F8827332744278A
S11333905527522F442733272227FF24002711279C
S11333A08701FF24EE242E293F29402B512BBB24D7
S11333B0CC24DD242A293B294C295D29822B932BFB
S11333C0A42BB52B840D951DA61DB71D8383292F12
S11333D03A2F4B2F552722839D01442755272183BC
S11333E08B2F9927AA27BB278083BE0181E00E94E7
S11333F09B04CE010E94CD048C5FC81BD10948AA4E
S113340059AA6AAA7BAA86E08093261E84E0809348
S11334101F0380E090E006C027EF322E390E87E0CC
S1133420A82E22CFDF91CF911F910F91FF90EF90A3
S1133430DF90CF90BF90AF909F908F907F906F90D0
S11334405F904F903F900895BF92CF92DF92EF929A
S1133450FF920F931F93CF93DF9380913A068823B3
S113346019F590911F03992309F0AFC08091261E8E
S1133470853009F48AC08CE00E94BF018091C805A0
S1133480823009F4CCC08FB7F894282F3327809169
S1133490A404813009F4F8C481E08093A4042FBF0C
S11334A080913A068823E9F20E94A4128823C9F283
S11334B08FB7F8949927C090E004D090E1048FBFAF
S11334C010923A0628988FE88EBD0DB407FEFDCF02
S11334D08EB51EBC0DB407FEFDCF8EB5289A282FDD
S11334E090911F03933009F4EEC0973009F4EBC0B8
S11334F0C22FDD27C2FF06C0963009F4F7C0992316
S113350009F4F6C0C3FFAFCF943009F494C29530E8
S113351009F0A9CF289886E88EBD0DB407FEFDCF2B
S11335208EB51EBC0DB407FEFDCF8EB5289A9091C2
S1133530DF048F71292F26952695821B980F90936F
S1133540DF0499E090931F03289880E28EBD0DB4A8
S113355007FEFDCF8EB51EBC0DB407FEFDCF8EB5A4
S1133560282F3327422F233028F0822F99278B9737
S11335700CF498C1289A85E08093261E10921F03AC
S11335808091261E853009F076CF80913A068823F3
S113359009F071CF80917004882309F06CCF809179
S11335A0D704882309F067CF90E08091C805882369
S11335B009F491E0992309F45ECF0E949813809155
S11335C01F03882309F05ACF56CF993009F4BCCF92
S11335D0892F8150833008F058C08150823008F41C
S11335E0FAC0933009F4B0C0892F8150823008F4B6
S11335F014C1913009F46EC0923009F049C0809131
S1133600261E833009F03ACF98E090931F0310925E
S11336101F0386E00E94BF0190911F033CC01092DB
S1133620C8051091EB04123009F445C01330B9F108
S1133630113009F028CF20916E0530916F058091EB
S11336408400909185004091D704403809F48EC2DB
S11336507901E81AF90A47FD84C2C091D304D091D4
S1133660D40480917004882309F45AC015E0842F8F
S113367099278F77019709F491C247FD7CC2109274
S1133680D704812F0E94A413FECE973009F4EAC018
S1133690983009F4BCCF992309F0F0CEE7CE80919D
S11336A0261E8230D1F180911F03863009F422C294
S11336B00E94991FE8CE109270041092D70480E003
S11336C00E94A413E0CE85E08093261E98E0909398
S11336D01F030ECF8091261E833009F0CFCE2F9A80
S11336E09093261E98E090931F0391CF10921F038E
S11336F0243009F4ADC1E0914804F091490485A552
S1133700877F85A7E0914804F091490485A58D7FC2
S113371085A795E090931F03F5CE1093261EC8CF7E
S1133720CE010E9469189927882309F02FC28DA51C
S11337308E7F8DA710937004D093301EC0932F1EDC
S113374043E04093D7049FCE8091261E833009F036
S113375095CE0E94A412882309F42CC228988FE8DD
S11337608EBD0DB407FEFDCF8EB51EBC0DB407FE95
S1133770FDCF8EB5289A809181008064809381006A
S113378080E286BB80916F00806280936F0090918D
S1133790C904289888EC8EBD0DB407FEFDCF8EB504
S11337A090669EBD0DB407FEFDCF8EB5289A28986D
S11337B082EC8EBD0DB407FEFDCF8EB586E08EBDC6
S11337C00DB407FEFDCF8EB5289A84E08093261EA3
S11337D090911F030ECF2091261E213009F001CFB6
S11337E030E08091C805882309F431E0332309F4DB
S11337F0F8CE2F9883E08093EB042093C805809142
S11338008400909185006BE273E00E94020582E0DF
S11338108093261E90911F03ECCE8091261E853046
S113382009F0E7CE0E94A412882309F4F1C1289874
S113383082EC8EBD0DB407FEFDCF8EB583E08EBD48
S11338400DB407FEFDCF8EB5289A80916F008F7D51
S113385080936F0010923A0683E08093261E909125
S11338601F03C7CE0E94A412882309F440C190917B
S1133870C904289888EC8EBD0DB407FEFDCF8EB523
S113388090669EBD0DB407FEFDCF8EB5289A80913B
S1133890261E853009F0B8CE84E08093261E9091D0
S11338A01F03F6CE1EBCE0914804F0914904208326
S11338B00EEFF02EF20E26E02F1508F42BC1EE24A5
S11338C0CF010E942D05AC012F2DFC0100E010E07A
S11338D00DB407FEFDCF8EB51EBC808381910827F1
S11338E0002E0295007F0025012E102F02950F70E7
S11338F00026069510270127000F000F000F002552
S1133900215031F7FA94EA01CF0DD11D219680910F
S11339104804909149040E942F05882309F400C1AA
S113392020E030E080917004823009F446C1232BFA
S113393019F19E2D91509F3F21F10DB407FEFDCF4B
S11339408EB51EBC88830827002E0295007F0025B3
S1133950012E102F02950F700026069510270127BF
S1133960000F000F000F002591509F3F51F021964A
S11339700DB407FEE2CFE4CF0DB407FEFDCF8EB544
S1133980F9CD0DB407FEFDCF8EB51EBC98012827D6
S1133990022E2295207F2025032E322F22952F7070
S11339A00226269532272327220F220F220F2025B5
S11339B00DB407FEFDCF8EB51EBCE901C8270C2E41
S11339C0C295C07FC0250D2EDC2FC295CF700C266A
S11339D0C695DC27CD27CC0FCC0FCC0FC0250DB45A
S11339E007FEFDCF0EB5112780914804909149043C
S11339F00E94A704FC010083289A85E08093261E78
S1133A0010921F03CD2B09F031CDE0904804F090C3
S1133A104904C7010E942F05882309F4FCC0809142
S1133A207004823009F4D6C1F0924904E09248044B
S1133A3090911F032DCE85E08093261E10921F03C4
S1133A4080917004833009F079C0109270040ECD17
S1133A50289886E88EBD0DB407FEFDCF8EB51EBC3A
S1133A600DB407FEFDCFFEB4289A2FE1F222809117
S1133A70D104982F969596953F2D391B830F8093EB
S1133A80D1040091480410914904F80185A58B7F65
S1133A9085A7B80183E00E949B04C8010E94A70483
S1133AA0FC01F1820E94A904C61AD70A29EF3FEF4C
S1133AB0C20ED31E76010027F7FC0095102FE60EE8
S1133AC0F71E081F191FC0904804D0904904B6017E
S1133AD081E00E949B04C6010E94CD048C5FC81A39
S1133AE0D108F601E0AAF1AA02AB13AB12CE909171
S1133AF01F03CECD10921F03289881E88EBD0DB40C
S1133B0007FEFDCF8EB51EBC0DB407FEFDCF8EB5EE
S1133B10289ACECD17EFE12EE40EB7E0FB2ED0CEDF
S1133B208FB7F894282F332790E080912E068330A6
S1133B3008F491E02FBF292F3327F9CEC0912F1E0F
S1133B40D091301ECE010E94D0048823C9F5109272
S1133B5070041092D70480E00E94A41390911F0374
S1133B6082CC1E141F040CF481CD77CD1092D7049F
S1133B700E94981388CC1E141F040CF080CD40E8DA
S1133B804093D704C7010E944A127BCD9927182F6E
S1133B90882309F4D5CD4091D70469CD842F80784A
S1133BA082608093D70480E198E00E9487050E9498
S1133BB04A1269CC90911F0317CD21E030E0B7CEB3
S1133BC0CE010E94E404882311F2CE010E94F8047D
S1133BD08F5F9F4F09F4BBCF90E08091C805882385
S1133BE009F491E0992309F4B2CF12E01093EB04A5
S1133BF081E08093C805809184009091850069E9F3
S1133C0073E00E9402051093700490911F032BCC63
S1133C1090911F03EECC80917004882309F4BBC0FB
S1133C20C0918400D0918500C7010E944305882378
S1133C3011F0C45EDC4FD0936F05C0936E05809184
S1133C408400909185009E01281B390B12161306DF
S1133C509CF48091D704882309F088C090E0809177
S1133C60C805882309F491E0992331F0C9010E9421
S1133C704A1240E84093D704C7010E947D058C0195
S1133C80C09078042C2D3327F901EE0FFF1FE55C5B
S1133C90F94F808191810817190709F46BC040918D
S1133CA0CA05DD24BB24E0E0F0E0CBE3D6E0A9E2E2
S1133CB0BEE1BD015E2F9F01888199810817190714
S1133CC009F4D3C08C91E42FE81BDE1610F4DE2E29
S1133CD0B22E852F8F5FF90131966F5F7F4F229649
S1133CE01196E530F10531F7853009F4A7C0842F2A
S1133CF08F778F3709F490C02C2D3327E7014B8140
S1133D00822F9927FC01EC5CF14E208120FF28C012
S1133D10FC01ED5CF94F8081481709F485CE40839E
S1133D20DFB6F89480912E068330B0F4E0910C1C39
S1133D30E80FE33008F0E350FF27EE0FFF1FEC5DC0
S1133D40FC4F00811181F182E0828F5F80932E0607
S1133D5088E00E94BF0178018D2D99278FBF64CE22
S1133D6021602083FC01ED5CF94FD9CF80688093FA
S1133D70D70482CF9091CA05F901E75DF14E8081A5
S1133D80891709F4BBCF492F4F5F4093CA0540837D
S1133D90E0E8DE2EACCFC7010E944305882309F476
S1133DA03FCF63E082E395E00E94680582E0809360
S1133DB0330510923405F70183818093350582E33E
S1133DC095E00E946918882309F02ACF83E0809344
S1133DD0700426CFE7019B81E0912F1EF091301EE5
S1133DE08381981709F020CE89818770823009F089
S1133DF01BCE80916F008D7F80936F001092C80559
S1133E00BF0180E00E949B04109270041092D704BA
S1133E1080E00E94A41308CEFEE7FD1508F06CCFE5
S1133E20E9E2FEE1942F907880818F678413908378
S1133E3031962EE1EE32F207B9F75ECFCB2CB09279
S1133E407804EB2DFF27DF01AA0FBB1FA55CB94F38
S1133E500D931C934F5F4093CA05DF01A75DB14EDC
S1133E604C93EC5CF14E108242CFC22E2093780426
S1133E70EB018881841709F441CF4F5F4093CA0551
S1133E80488370E8D72E33CF1092A4042FBFDF915C
S1133E90CF911F910F91FF90EF90DF90CF90BF9043
S1133EA008958FB7F894282F33278091A404815064
S1133EB08093A404803811F02FBF089581E080938B
S1133EC0A4042FBF0E94241A0895CF93DF93EC011A
S1133ED00E943F0AFE01E80FF11D8FE38083809169
S1133EE066028F5F809366028B832FB7F894332723
S1133EF08091A4048F5F8093A4042FBF8091D60483
S1133F00882319F0C5E0D0E00EC0D093CF05C0934C
S1133F10CE0581E08093D6041092CB0587E00E9401
S1133F20BF01C0E0D0E00E94511FCE01DF91CF91CC
S1133F3008958FB7F894282F33278091A4048823F9
S1133F4029F080688093A4042FBF089581E08093B2
S1133F50A4042FBF0E94241A089578941F920F92EC
S1133F600FB60F9211242F933F934F935F936F9348
S1133F707F938F939F93AF93BF93EF93FF93E6E861
S1133F80F0E080819181208131818FB7F894992765
S1133F903093E1042093E00421E020933A068FBF9C
S1133FA00E94991FFF91EF91BF91AF919F918F91C3
S1133FB07F916F915F914F913F912F910F900FBE21
S1133FC00F901F90189578941F920F920FB60F922E
S1133FD011242F933F934F935F936F937F938F930A
S1133FE09F93AF93BF93EF93FF9380916F008D7F67
S1133FF080936F0078949FB7F8948091C8058130BE
S113400019F482E08093C805892F99278FBF0E94F5
S1134010991FFF91EF91BF91AF919F918F917F91E4
S11340206F915F914F913F912F910F900FBE0F9021
S11340301F9018950F931F93CF93DF93CDB7DEB7DF
S113404024970FB6F894DEBF0FBECDBF182F43E000
S113405063E00E948308082F42E060E0812F0E9401
S11340608308182F81E090E002C0880F991F0A95F9
S1134070E2F70E94BF08133031F0612F0E94A707B6
S11340800E94761614C0E0916605F0916705E80F6A
S1134090F91F80819181A281B38189839A83AB8343
S11340A0BC8369817A818B819C810E947E172496CE
S11340B00FB6F894DEBF0FBECDBFDF91CF911F9135
S11340C00F910895EF92FF920F931F93CF93DF9375
S11340D0CDB7DEB724970FB6F894DEBF0FBECDBFC1
S11340E0182F43E063E00E948308082F42E060E059
S11340F0812F0E948308182F81E090E002C0880F6E
S1134100991F0A95E2F70E94BF087C01133041F021
S11341100E942806012F26E0A7010E94C60D0FC0A9
S11341200E940E0769837A838B839C8369817A81D9
S11341308B819C8103E023E0A7010E94C60D249695
S11341400FB6F894DEBF0FBECDBFDF91CF911F91A4
S11341500F91FF90EF9008950F931F93182F43E052
S113416063E00E948308082F42E060E0812F0E94F0
S113417083088091C6059091C705FC01E75BF94F60
S1134180108101969093C7058093C60581E090E065
S113419002C0880F991F0A95E2F70E94BF08AA2758
S11341A0BB27AC01BD01812F0E943C151F910F91CB
S11341B00895DF92EF92FF920F931F93CF93DF93B3
S11341C0CDB7DEB728970FB6F894DEBF0FBECDBFCC
S11341D0182F42E060E00E948308D82E43E063E099
S11341E0812F0E948308082F45E064E0812F0E94FC
S11341F08308182F81E090E002C0880F991F0A9568
S1134200E2F70E94BF087C01812F8F5F0E943D0965
S113421023E0D21631F00D2D26E0A7010E94C60D31
S113422014C069837A838B839C8389819A81AB814F
S1134230BC818D839E83AF83B8876D817E818F819E
S1134240988503E0A7010E94C60D28960FB6F8943E
S1134250DEBF0FBECDBFDF91CF911F910F91FF90B5
S1134260EF90DF900895DF92EF92FF920F931F93E8
S1134270182F41E061E00E948308E82E40E060E0EE
S1134280812F0E948308D82E01E010E0C80102C0EB
S1134290880F991FEA94E2F70E94BF087C0102C0CC
S11342A0000F111FDA94E2F7802F0E94BF082091BB
S11342B066053091670560911A0270911B02AC018A
S11342C0C701820F931F0E9445431F910F91FF90D6
S11342D0EF90DF900895BF92CF92DF92EF92FF921A
S11342E00F931F93182F42E062E00E948308C82EA8
S11342F041E061E0812F0E948308E82E40E060E005
S1134300812F0E948308B82E01E010E0C80102C08A
S1134310880F991FCA94E2F70E94BF086C01C80174
S113432002C0880F991FEA94E2F70E94BF087C013B
S113433002C0000F111FBA94E2F7802F0E94BF0839
S11343402091660530916705E20EF31EA601B701C0
S1134350820F931F0E9445431F910F91FF90EF908E
S1134360DF90CF90BF900895FF920F931F93182F63
S1134370F090190242E061E00E948308082F40E0B7
S113438060E0812F0E94830821E030E002C0220F08
S1134390331F8A95E2F7822F0E94BF089C0140E0F8
S11343A050E06FEF8F2D800F0E9434101F910F91FA
S11343B0FF900895BF92CF92DF92EF92FF920F93F6
S11343C01F93CF93DF93CDB7DEB728970FB6F8943A
S11343D0DEBF0FBECDBF8091C6059091C705FC011D
S11343E0E75BF94F008101969093C7058093C6055A
S11343F0112747E067E0802F0E948308E82E46E0FB
S113440064E0802F0E948308B82E43E063E0802F8D
S11344100E948308D82E42E060E0802F0E94830827
S1134420C82E01E010E0C80102C0880F991FEA9469
S1134430E2F70E94BF087C0102C0000F111FDA944A
S1134440E2F7802F0E94BF0823E0C21649F06C2DCA
S11344500E94A7070B2D2C2DA7010E94C60D1EC07C
S1134460E0916605F0916705E80FF91F808191815D
S1134470A281B3818D839E83AF83B8878D819E8112
S1134480AF81B88589839A83AB83BC8369817A8140
S11344908B819C810B2DA7010E94C60D28960FB617
S11344A0F894DEBF0FBECDBFDF91CF911F910F9166
S11344B0FF90EF90DF90CF90BF9008952F923F929E
S11344C04F925F926F927F928F929F92AF92BF9220
S11344D0CF92DF92EF92FF920F931F93CF93DF93CC
S11344E0CDB7DEB725970FB6F894DEBF0FBECDBFAC
S11344F0E091C605F091C705CF010196E75BF94F3E
S113450000811127FC01E75BF94FE080019690934D
S1134510C7058093C605FF2447E067E0802F0E940B
S11345208308B82E46E064E0802F0E948308382E6A
S113453043E063E0802F0E948308C82E42E060E0DD
S1134540802F0E948308282E42E062E08E2D0E9474
S11345508308D82E41E060E08E2D0E948308F82E57
S113456023E0321609F479C0232D237081E090E012
S113457001C0880F2A95EAF78D8301E010E0C80195
S113458002C0880F991FBA94E2F70E94BF083C0149
S1134590C80102C0880F991FCA94E2F70E94BF089D
S11345A02C0102C0000F111FDA94E2F7802F0E9441
S11345B0BF088C018F2D8F5F0E943D096B017C0128
S11345C0622DC2010E94A7074801AA24BB246815D2
S11345D079058A059B05E8F5E3E03E16A9F0A501F7
S11345E094010E94D142ED812E2F33274427552771
S11345F00E949242660E771E032D222DA301C7014D
S1134600B6010E94C60D41C0F7FC2AC0C701B6011D
S11346100E947B4169837A838B839C83622DC201D0
S11346200E94A707A50194010E94D142ED812E2F7B
S11346303327442755270E949242660E771E6981CC
S11346407A818B819C8103E0222DA3010E94C60DF7
S11346501CC08BE00E94541618C084E08D838DCF5B
S1134660C701B6016170707080709070F694E79421
S1134670D794C7946C297D298E299F290E947B4158
S11346809B01AC010E947840C5CF25960FB6F894E3
S1134690DEBF0FBECDBFDF91CF911F910F91FF9071
S11346A0EF90DF90CF90BF90AF909F908F907F90CE
S11346B06F905F904F903F902F9008954F925F922C
S11346C06F927F928F929F92AF92BF92CF92DF921E
S11346D0EF92FF920F931F93CF93DF93CDB7DEB783
S11346E028970FB6F894DEBF0FBECDBFE091C60584
S11346F0F091C705CF010196E75BF94F00811127BF
S1134700FC01E75BF94FE08001969093C705809325
S1134710C605FF2447E067E0802F0E948308D82E57
S113472046E064E0802F0E948308682E43E063E043
S1134730802F0E948308B82E42E060E0802F0E9400
S11347408308582E44E064E08E2D0E948308882E4E
S113475043E063E08E2D0E948308982E42E060E0DF
S11347608E2D0E948308782E23E0621609F488C0F7
S1134770262D237081E090E0482E01C0440C2A9538
S1134780EAF701E010E0C80102C0880F991FDA942B
S1134790E2F70E94BF086C01C80102C0880F991F8C
S11347A0BA94E2F70E94BF085C01C80102C0880FF6
S11347B0991F8A94E2F70E94BF087C0102C0000F8F
S11347C0111F9A94E2F7802F0E94BF084C01652DB7
S11347D0C5010E94A707002711276E157F058007D2
S11347E0910708F049C023E07216B1F0A8019701BF
S11347F00E94D142242D3327442755270E949242F8
S1134800C60ED71E672DC4010E94A707062D272DAB
S1134810A6010E94C60D37C0E0916605F0916705B8
S1134820E80DF91D80819181A281B3818D839E83DE
S1134830AF83B8878D819E81AF81B88589839A8340
S1134840AB83BC83652DC5010E94A707A80197010E
S11348500E94D142242D3327442755270E94924297
S1134860C60ED71E69817A818B819C81062D23E037
S1134870A6010E94C60D07C08BE00E94541603C017
S113488034E0432E7ECF28960FB6F894DEBF0FBED9
S1134890CDBFDF91CF911F910F91FF90EF90DF90EB
S11348A0CF90BF90AF909F908F907F906F905F90CC
S11348B04F9008952F923F924F925F926F927F9202
S11348C08F929F92AF92BF92CF92DF92EF92FF921C
S11348D00F931F93CF93DF93CDB7DEB725970FB612
S11348E0F894DEBF0FBECDBF40E060E00E948308B5
S11348F0A82E8091C6059091C705FC01E75BF94F8E
S1134900008101969093C7058093C605112747E05F
S113491067E0802F0E948308B82E46E064E0802F71
S11349200E948308282E43E063E0802F0E948308BE
S1134930C82E42E060E0802F0E948308382E83E076
S1134940281609F477C0222D237081E090E001C07D
S1134950880F2A95EAF78D8301E010E0C80102C0B0
S1134960880F991FBA94E2F70E94BF082C01C8016E
S113497002C0880F991FCA94E2F70E94BF083C0145
S113498002C0000F111FAA94E2F7802F0E94BF08F3
S11349904C01AA24BB24632DC3010E94A7076815F8
S11349A079058A059B0508F041C083E02816E9F0E3
S11349B00E9428066B017C01632DC3010E94A70796
S11349C0A50194010E94D142ED812E2F3327442763
S11349D055270E949242460E571E022D26E0A20140
S11349E0C701B6010E94C60D28C00E940E07698344
S11349F07A838B839C83632DC3010E94A707A5013F
S1134A0094010E94D142ED812E2F3327442755274C
S1134A100E949242460E571E69817A818B819C8145
S1134A2003E023E0A2010E94C60D07C08BE00E94B0
S1134A30541603C0E4E0ED838FCF25960FB6F894A7
S1134A40DEBF0FBECDBFDF91CF911F910F91FF90BD
S1134A50EF90DF90CF90BF90AF909F908F907F901A
S1134A606F905F904F903F902F9008958F929F92F8
S1134A70BF92CF92DF92EF92FF920F931F93CF9347
S1134A80DF93CDB7DEB72A970FB6F894DEBF0FBE1B
S1134A90CDBF40E060E00E948308C82E8091C60527
S1134AA09091C705FC01E75BF94F00810196909353
S1134AB0C7058093C605E02EFF24FC82EB8247E005
S1134AC067E08B810E948308F82E46E064E08B81C6
S1134AD00E948308182F43E063E08B810E948308BF
S1134AE0E82E42E060E08B810E948308D82E1330C8
S1134AF009F454C0137081E090E0B82E01C0BB0CDF
S1134B001A95EAF701E010E01E830D83C80102C084
S1134B10880F991FFA94E2F70E94BF084C01C8015C
S1134B2002C0880F991FEA94E2F70E94BF087C0133
S1134B3002C0000F111FCA94E2F71E830D838D81FA
S1134B400E94BF089A8389836D2DC7010E94A7071D
S1134B50E981FA819F014427552762177307840767
S1134B60950720F08BE00E9454161BC074010027A7
S1134B7011270E94D1422B2D3327442755270E9409
S1134B809242E60EF71E081F191FEF82F886098766
S1134B901A87C801B7010E94761603C044E0B42EF8
S1134BA0B1CF2A960FB6F894DEBF0FBECDBFDF910A
S1134BB0CF911F910F91FF90EF90DF90CF90BF9016
S1134BC09F908F900895DF92EF92FF920F931F931F
S1134BD040E060E00E948308D82E0E9428067B01F2
S1134BE08C0181E090E002C0880F991FDA94E2F70B
S1134BF00E94BF08AC0180916605909167058E0DF7
S1134C009F1D60911A0270911B020E9445431F91DF
S1134C100F91FF90EF90DF90089540E060E00E94D4
S1134C20830821E030E002C0220F331F8A95E2F7A7
S1134C30822F0E94BF0860E00E94FD10089540E0AA
S1134C4060E00E94830821E030E002C0220F331F9D
S1134C508A95E2F7822F0E94BF089093C70580933C
S1134C60C605089540E060E00E94830821E030E03A
S1134C7002C0220F331F8A95E2F7822F0E94BF08D9
S1134C80E0916605F0916705E80FF91F808188239C
S1134C9049F08091C6059091C70501969093C70588
S1134CA08093C6050895DF92EF92FF920F931F93AE
S1134CB040E060E00E948308D82E8091C605909160
S1134CC0C705FC01E75BF94F008101969093C70586
S1134CD08093C605112747E067E0802F0E94830870
S1134CE0E82E46E060E0802F0E948308182F81E0C0
S1134CF090E002C0880F991FDA94E2F70E94BF087F
S1134D00FF249C01A701612F80E00E9434101F91B1
S1134D100F91FF90EF90DF900895AF92BF92CF92E2
S1134D20DF92EF920F931F935B016C0180918D05CD
S1134D3081FF03C08D7F80938D050E949503AB0195
S1134D40BC01E1E0EE2E9601850181E00E9476032C
S1134D501F910F91EF90DF90CF90BF90AF90089587
S1134D60AF92BF92CF92DF92EF920F931F935B01AA
S1134D706C010E949503AB01BC01F1E0EF2E96019A
S1134D80850183E00E9476031F910F91EF90DF90DD
S1134D90CF90BF90AF900895AF92BF92CF92DF9221
S1134DA0EF920F931F935B016C010E949503AB017B
S1134DB0BC01A1E0EA2E9601850184E00E947603FD
S1134DC01F910F91EF90DF90CF90BF90AF90089517
S1134DD0AF92BF92CF92DF92EF920F931F935B013A
S1134DE06C010E949503AB01BC01B1E0EB2E96016E
S1134DF0850182E00E9476031F910F91EF90DF906E
S1134E00CF90BF90AF900895BF92CF92DF92EF9270
S1134E10FF920F931F93CF93DF93CDB7DEB72697FF
S1134E200FB6F894DEBF0FBECDBF10914D040E94A3
S1134E302613F82E0E94610A8B508F1568F580E0C6
S1134E4090E0412F552762E574E00E94454380912C
S1134E50500480FFA3C061E08AE293E00E94640AE8
S1134E60809151049927E82F882309F085C0009187
S1134E704D0410914E04E0904F04B0904C04F01691
S1134E8098F46091E2047091E3048091E4049091B9
S1134E90E5040E94E826CCC08AE293E00E945812FE
S1134EA09927865D9C4FCDCF8AE293E00E94E4046B
S1134EB0882309F479C04BE2C42E43E0D42E212F79
S1134EC03327922F88279A8389838E2D9927E98106
S1134ED0FA81E82BF92BFA83E983055F8AE2E82E4D
S1134EE083E0F82E602FC7010E9468050E943A05EE
S1134EF0F6018783892F9927809333030E94590AE7
S1134F009927F601838310922F03C7010E943F0A59
S1134F10E82FEF5FFF27EE0DFF1DB0822981F60118
S1134F20258389819A81892F99279E838D838093F4
S1134F3031038FB7F894282F3327809147028823B1
S1134F4009F444C02FBFF092CC04E092CB048FB795
S1134F50F894082F1127902F80914702882309F491
S1134F6044C08091CD048F3F09F449C085E09FBFC0
S1134F70882309F086CF5CC0FF27E770F070ED5CF2
S1134F80FD4F10816AE273E082E00E949B048AE292
S1134F9093E00E94A704FC01118369CF60E08AE2D8
S1134FA093E00E94640A5CCF3BE2C32E33E0D32E2D
S1134FB080912B0399278073907081649868809303
S1134FC02B03892F992780932C0379CF82E0809338
S1134FD0470210922F022FBFC7010E94651F992715
S1134FE0182F8823E9F4812FC3CF81E080934702EF
S1134FF01092CA0485E00E94BF010FBF19C0E0915E
S11350002E02EE2309F4B2CF80912D028F3F69F076
S1135010FF27E353FB4F108210922E0280E0A7CFAC
S113502080E00E945D12812FA3CF10922D02F4CF55
S113503026960FB6F894DEBF0FBECDBFDF91CF9199
S11350401F910F91FF90EF90DF90CF90BF90089544
S113505080919F048F5F80939F048CE494E00E946E
S1135060AE0D882381F480914C04813A49F0823A50
S113507039F0803A29F08C3810F0863908F0089518
S11350800E94042708958CE494E00E947E0D089504
S1135090EF92FF920F931F93CF93DF93EC01162FA0
S11350A00E943F0A8F5FFE01E80FF11D808187FF98
S11350B080C08CE494E00E94AE0D00E08091500426
S11350C080FD01E0112371F5002331F58CE494E0B7
S11350D00E947E0D10929F046091E2047091E3049B
S11350E08091E4049091E5040E94E82680914C04A8
S11350F0E82EFF248E2D8C3808F45BC0863908F026
S113510058C0013009F43FC020E042E554E0BE013C
S11351108E2D0E94C5134DC0BE0180E00E946C0517
S11351208823A1F680919F04853058F46091E204AD
S11351307091E3048091E4049091E5040E94E826D0
S113514038C08CE494E00E947E0D10929F0460911C
S1135150E2047091E3048091E4049091E5040E94D8
S1135160E82680914C04E82FFF27EC3810F1E6394B
S113517000F50130B1F0212F42E554E0BE018E2F3D
S11351800E94C51316C0BE0180E00E946C059927D9
S1135190082F20E042E554E0BE018E2D0E94D91371
S11351A008C000E0212F42E554E0BE018E2F0E948A
S11351B0D913DF91CF911F910F91FF90EF90089534
S11351C0AF92BF92CF92DF92EF920F931F935B0146
S11351D06C018091840581FF03C08D7F80938405D9
S11351E00E949503AB01BC01E1E0EE2E960185011E
S11351F080E00E9476031F910F91EF90DF90CF9093
S1135200BF90AF900895EF92FF920F931F93CF93A7
S1135210DF937A018B01A901C0916605D0916705DE
S113522020919B0430919C04C20FD31F9C01220F38
S1135230331F280F391F220F331FC20FD31F809132
S11352401E0290911F02AA2797FDA095BA2FE81A73
S1135250F90A0A0B1B0B17FD1CC0FE01E192F19227
S1135260019311934183852F99278C83CE010E944A
S1135270FA08892B91F08FEFE8168FEFF8068FEF7D
S113528008078FE7180749F0C801B7010E94E02812
S113529004C0EE24FF248701E0CFDF91CF911F915A
S11352A00F91FF90EF900895CF92DF92EF92FF92CB
S11352B00F931F938091C6059091C705FC01E75B8E
S11352C0F94F008101969093C7058093C605112775
S11352D041E061E0802F0E948308E82E40E060E016
S11352E0802F0E948308D82E46E064E0802F0E941D
S11352F08308C82E01E010E0C80102C0880F991F7E
S1135300EA94E2F70E94BF087C0102C0000F111F5B
S1135310DA94E2F7802F0E94BF088C010E942806CD
S11353204C2D0E942109AB01BC019801C7010E94C8
S113533003291F910F91FF90EF90DF90CF90089574
S11353409F92AF92BF92CF92DF92EF92FF920F9310
S11353501F938091C6059091C705FC01E75BF94F47
S1135360008101969093C7058093C605112747E0F5
S113537065E0802F0E948308982E44E063E0802F2C
S11353800E948308A82E42E062E0802F0E948308D6
S1135390C82E41E061E0802F0E948308E82E40E09F
S11353A060E0802F0E948308B82E01E010E0C8015D
S11353B002C0880F991FCA94E2F70E94BF086C01CB
S11353C0C80102C0880F991FEA94E2F70E94BF083F
S11353D07C0102C0000F111FBA94E2F7802F0E94D3
S11353E0BF088C016A2DC7010E94A707492D0E949E
S11353F02109AB01BC019801C6010E9403291F9138
S11354000F91FF90EF90DF90CF90BF90AF909F905F
S113541008959F92AF92BF92CF92DF92EF92FF9244
S11354200F931F938091C6059091C705FC01E75B1C
S1135430F94F008101969093C7058093C605112703
S113544043E063E0802F0E948308E82E42E061E09D
S1135450802F0E948308D82E40E060E0802F0E94B5
S11354608308982E01E010E0C80102C0880F991F3C
S1135470EA94E2F70E94BF085C018D2D8F5F0E94C1
S11354803D096B017C0102C0000F111F9A94E2F7E1
S1135490802F0E94BF089C01B701A601C5010E948C
S11354A003291F910F91FF90EF90DF90CF90BF9051
S11354B0AF909F9008954F925F926F927F928F92D8
S11354C09F92AF92BF92CF92DF92EF92FF920F938F
S11354D01F93CF93DF93CDB7DEB726970FB6F8941B
S11354E0DEBF0FBECDBF81E08093420280931902DC
S11354F043E0442E512C4C0E5D1E61E0C2010E941B
S11355007C0F892B09F439C49B8180911902981767
S113551011F0909319022D813E812115310569F313
S113552080911402882349F73093C7052093C60558
S113553032E0632E712C6C0E7D1EB3014E01089473
S1135540811C911CC4010E94EB0599819130A9F240
S113555080911402882389F6FA80892F9927AA2733
S1135560BB27FC013297EF3BF10558F5E557FF4F98
S1135570EE0FFF1F0590F491E02D09948091C6056C
S11355809091C705FC01E75BF94F20810196909348
S1135590C7058093C60533272A3009F4B5C32B30D9
S11355A008F09FC3213009F4CAC3213008F4B2C300
S11355B0223009F4D6C3233021F483E090E00E9422
S11355C0AE16B301BFCF0E942806609570958095F2
S11355D090950E947616B301B5CF8F2D0E94D920E5
S11355E0B301B0CF8F2D0E94AC20B301ABCF8F2D70
S11355F00E946220B301A6CF8F2D0E941A20B3010E
S1135600A1CF8F2D0E94B421B3019CCF8F2D0E9476
S11356106B21B30197CF8F2D0E94EF17B30192CF67
S11356208F2D0E943F0FB3018DCF8F2D0E941C0F31
S1135630B30188CF8F2D0E94F90EB30183CF8F2D34
S11356400E943321B3017ECF8F2D0E943716B30100
S113565079CF41E061E08F2D0E94B308082F40E02C
S113566060E08F2D0E94B308182F802F0E94BF087E
S11356706C01812F0E94BF085C01209117023091B8
S11356801802121613060CF09CCF11E0E12EF12C37
S113569004E010E009C00894E11CF11C0C5F1F4FEA
S11356A02E153F050CF48DCFE0912402F0912502D4
S11356B0E00FF11F828193818C159D0560F3A8167C
S11356C0B90648F36E2D80E090E00E947C0F0894A8
S11356D0E108F1080450104020911702309118029B
S11356E0DACF41E061E08F2D0E94B308182F40E02B
S11356F060E08F2D0E94B308F82E812F0E94BF080E
S11357008C018F2D0E94BF08000F111F20912602CB
S113571030912702200F311FE091121CF091131CCD
S1135720E20FF31F9183808380918D0581FD49CF22
S113573062E070E080E090E00E948D26B30102CF29
S113574041E061E08F2D0E94B308082F40E060E043
S11357508F2D0E94B308182F802F0E94BF087C0150
S1135760812F0E94BF088C010E94280661157105D3
S11357708105910509F0AFC21093C7050093C605D2
S1135780B301E0CE41E061E08F2D0E94B308082F01
S113579040E060E08F2D0E94B308182F802F0E94F4
S11357A0BF087C01812F0E94BF08AC01892B09F43A
S11357B008CF20E030E0E0E0F0E0809166059091D1
S11357C06705E80FF91FEE0DFF1D10822F5F3F4F95
S11357D0F9012417350789F7B301B4CE8F2D0E9440
S11357E0A217B301AFCE8F2D0E947417B301AACEB6
S11357F08F2D0E945326B301A5CE8F2D0E943226F1
S1135800B301A0CE8F2D0E941F26B3019BCE8F2DF6
S11358100E940D26B30196CE8F2D0E94E325B3017D
S113582091CE8F2D0E943625B3018CCE8F2D0E94F0
S11358305A24B30187CE8F2D0E945E23B30182CEFA
S11358408F2D0E945E22B3017DCE8F2D0E94DA211E
S1135850B30178CE8F2D0E94092AB30173CE8F2D08
S11358600E94A029B3016ECE8F2D0E945429B3014A
S113587069CE8F2D0E942216B30164CE8F2D0E9413
S11358800D16B3015FCE0E940E077B018C010E94AE
S11358900E079B01AC01C801B7010E94DC408823BC
S11358A0B4F460E070E080E89FE30E947E17B301E7
S11358B049CE0E940E077B018C010E940E079B01BA
S11358C0AC01C801B7010E942B42181654F360E0E2
S11358D070E080E090E0E9CF0E940E077B018C012C
S11358E00E940E079B01AC01C801B7010E94DC4075
S11358F01816BCF6ECCF0E940E077B018C010E94A7
S11359000E079B01AC01C801B7010E942B4287FF1F
S1135910C8CFDDCF0E940E077B018C010E940E07C9
S11359209B01AC01C801B7010E94DC40882309F047
S1135930B8CFCDCF0E940E077B018C010E940E07C9
S11359409B01AC01C801B7010E94DC40882309F423
S1135950A8CFBDCF0E940E077B018C010E940E07C9
S11359609B01AC01C801B7010E94E0400E947E1770
S1135970B301E8CD0E940E077B018C010E940E0743
S11359809B01AC01C801B7010E942F420E947E17FF
S1135990B301D8CD0E940E077B018C010E940E0733
S11359A09B01AC01C801B7010E9478400E947E1798
S11359B0B301C8CD0E940E077B018C010E940E0723
S11359C09B01AC01C801B7010E9477400E947E1779
S11359D0B301B8CD0E940E0790580E947E17B30100
S11359E0B1CD0E942806B301ADCD0E9428067B01EB
S11359F08C010E942806E114F1040105110509F443
S1135A0065C120E0611571058105910509F421E066
S1135A1081E02827622F7727882799276DC00E9465
S1135A2028067B018C010E942806E114F10401057B
S1135A30110509F046C120E030E040E050E0611576
S1135A4071058105910509F455C050C00E942806CE
S1135A507B018C010E94280620E030E040E050E009
S1135A60E616F706080719070CF044C03FC00E9469
S1135A7028067B018C010E94280620E030E040E0EB
S1135A8050E06E157F0580079107A4F52FC00E9492
S1135A9028067B018C010E94280620E030E040E0CB
S1135AA050E06E157F058007910724F11FC00E9406
S1135AB028067B018C010E94280620E030E040E0AB
S1135AC050E0E616F70608071907A4F00FC00E9475
S1135AD028067B018C010E94280620E030E040E08B
S1135AE050E0E616F7060807190721F021E030E038
S1135AF040E050E0CA01B9010E947616B30122CDFC
S1135B000E9428067B018C010E94280620E030E0D8
S1135B1040E050E0E616F7060807190759F7E6CF04
S1135B200E9428067B018C010E942806E626F7269F
S1135B3008271927C801B7010E947616B30102CDC0
S1135B400E9428067B018C010E94280604C015953A
S1135B500795F794E7946A95D2F7C801B7010E94B4
S1135B607616B301EFCC0E9428067B018C010E94BB
S1135B70280604C0EE0CFF1C001F111F6A95D2F703
S1135B80C801B7010E947616B301DCCC0E94280636
S1135B907B018C010E942806E622F72208231923A0
S1135BA0C801B7010E947616B301CCCC0E94280626
S1135BB07B018C010E942806E62AF72A082B192B60
S1135BC0C801B70199CF0E9428067B018C010E946D
S1135BD028069B01AC01611571058105910509F049
S1135BE06BC060E070E080E090E00E9476168AE08E
S1135BF00E945416B301A6CC0E9428067B018C0196
S1135C000E9428069B01AC01C801B7010E94924280
S1135C100E947616B30196CC0E9428067B018C0163
S1135C200E942806E60EF71E081F191FC801B701B7
S1135C300E947616B30186CC0E9428067B018C0153
S1135C400E942806E61AF70A080B190BC801B701C7
S1135C500E947616B30176CC0E9428069095809512
S1135C60709561957F4F8F4F9F4F0E947616B301B9
S1135C7069CC0E94280620E030E040E050E0611545
S1135C8071058105910509F035CF30CF0E942806B2
S1135C907B018C010E9428069B01AC0161157105F2
S1135CA08105910509F49DCFC801B7010E94F34213
S1135CB00E947616B30146CCC801B7010E94F34294
S1135CC019CF61E070E080E090E016CF60E070E012
S1135CD080E090E011CFF092C705E092C605B301D1
S1135CE031CC2D3091F12E30F8F42B3009F43FC033
