:100000000C9467020C9486020C9486020C9486026F
:100010000C9486020C9486020C9486020C94860240
:100020000C9486020C9486020C9486020C94510A5D
:100030000C94300A0C943B0A0C94620A0C94150F31
:100040000C941F0A0C9490150C9486020C94860252
:100050000C9486020C943D190C9486020C94860232
:100060000C94460A0C9486020C9486020C94860228
:100070000C9486020C9486020C9486020C948602E0
:100080000C9486020C9486020C948602F31AE51AEC
:10009000FB1A091B171B821B751B7A1B581B601B45
:1000A000681B701B1C1B211B271B2D1B9E1B3C1B35
:1000B000411B9E1B9E1B9E1B9E1B9E1B9E1B9E1BD5
:1000C0009E1B9E1B9E1B9E1B9E1B9E1B9E1B9E1B68
:1000D0009E1B4A1B511B042421271C27172712276C
:1000E0000D27FD26E526D526C526B2269F268F2676
:1000F000792674266F266A26652660265B26562694
:10010000522602244D26482643263E2639263426EA
:100110002F262A26252620261B26162611260C26C3
:1001200007260226FD25F825F325EE2502240224C4
:100130000224E9250224E4250224DF250224DA250D
:100140000224D5250224D0250224CB250224022412
:100150000224C625022402240224C12502240224EA
:100160000224952502240224022473250224022459
:1001700002244425022402240224FC240224022412
:100180000224DF24022402240224BC2402240224A8
:100190000224A3240224022402248A240224022406
:1001A00002247524022402240224022402240224AC
:1001B0000224E5230224022402240224022402242D
:1001C00002244A24022402240224022402240224B7
:1001D00002240224022402240224022402240224EF
:1001E00002243124022402240224022402240224B0
:1001F00002241824022402240224022402240224B9
:1002000002240224022402240224022402240224BE
:10021000022413240224022402240224022402249D
:10022000022402240224022402240224022402249E
:1002300002240E2402240224022402240224022482
:10024000022402240224022402240224022402247E
:1002500002240924B92B182C592C852CA52CD92D16
:10026000E02D7A2B212D852DBF2DB42CB82CBC2C44
:10027000C62C182DFF2DCA2D1A2E00002110422049
:1002800063308440A550C660E770088129914AA177
:100290006BB18CC1ADD1CEE1EFF1311210027332EE
:1002A0005222B5529442F772D662399318837BB3C7
:1002B0005AA3BDD39CC3FFF3DEE36224433420047E
:1002C0000114E664C774A44485546AA54BB5288517
:1002D0000995EEE5CFF5ACC58DD5533672261116CE
:1002E0003006D776F6669556B4465BB77AA7199767
:1002F0003887DFF7FEE79DD7BCC7C448E558866856
:10030000A7784008611802282338CCC9EDD98EE9B6
:10031000AFF9488969990AA92BB9F55AD44AB77A2D
:10032000966A711A500A333A122AFDDBDCCBBFFB06
:100330009EEB799B588B3BBB1AABA66C877CE44C3D
:10034000C55C222C033C600C411CAEED8FFDECCD56
:10035000CDDD2AAD0BBD688D499D977EB66ED55E0D
:10036000F44E133E322E511E700E9FFFBEEFDDDFA6
:10037000FCCF1BBF3AAF599F788F8891A981CAB132
:10038000EBA10CD12DC14EF16FE18010A100C23064
:10039000E3200450254046706760B9839893FBA31F
:1003A000DAB33DC31CD37FE35EF3B1029012F322B4
:1003B000D2323542145277625672EAB5CBA5A8956F
:1003C00089856EF54FE52CD50DC5E234C324A01404
:1003D00081046674476424540544DBA7FAB79987FF
:1003E000B8975FE77EF71DC73CD7D326F236910654
:1003F000B01657667676154634564CD96DC90EF947
:100400002FE9C899E9898AB9ABA9445865480678A3
:100410002768C018E1088238A3287DCB5CDB3FEB5E
:100420001EFBF98BD89BBBAB9ABB754A545A376AF3
:10043000167AF10AD01AB32A923A2EFD0FED6CDD2E
:100440004DCDAABD8BADE89DC98D267C076C645C43
:10045000454CA23C832CE01CC10C1FEF3EFF5DCF3E
:100460007CDF9BAFBABFD98FF89F176E367E554E93
:10047000745E932EB23ED10EF01E00081C181410AC
:10048000ABBA83AAAA008025009224200000201C79
:100490000000001900008016005D74140000C012F6
:1004A00000C54E110049121000BD04880552061CFB
:1004B00007E607B0087B09450A0F0BAA01F10138CE
:1004C000028002C7020E0355039C03E303001124BC
:1004D0001FBECFEFD0E1DEBFCDBF11E0A0E0B1E0A5
:1004E000E2EEF8E700E00BBF02C007900D92A634E1
:1004F000B107D9F71DE0A6E4B1E001C01D92A13E0D
:10050000B107E1F70E94AD340C94703C0C940000EC
:100510008FB7F894992708958FBF089520910A0402
:1005200030910B0440910C0450910D046CB57DB5D5
:1005300006B602FE06C02F5F3F4F4F4F5F4F6CB5B0
:100540007DB57695679588279927EFE0220F331FB1
:10055000441F551FEA95D1F7622B732B842B952BE3
:100560000895EAE7F2E06927660FF11DE60FF11D35
:10057000C895982F802D3196C89590250895880F9D
:10058000959890E007C097989698969A9F5F9730B5
:1005900049F0880F87FFF7CF979A9698969A9F5FB2
:1005A0009730B9F7979A9698969A959A80E007C0EF
:1005B00097989698969A8F5F883049F0660F67FFF4
:1005C000F7CF979A9698969A8F5F8830B9F7959A51
:1005D000979A969A08956091B50489E00E94BF02A7
:1005E00060E08BE00E94BF0261E180E00E94BF02F8
:1005F0008DE790E00197F1F70895282F9FB7F894C1
:10060000E82FFF27E659FC4F80818F3F19F025E046
:1006100030E016C0E091CA0D2E17C9F38091430C4B
:100620008F3F49F0FF27E659FC4F20832093CA0DE6
:1006300020E030E005C02093430C2093CA0DF8CF92
:10064000892F99278FBFC901089580E00E94FD027C
:10065000992708952F923F924F925F926F927F92C7
:100660008F929F92AF92BF92CF92DF92EF92FF92C2
:100670000F931F93CF93DF93CDB7DEB729970FB6B4
:10068000F894DEBF0FBECDBF6FB76983F89420909A
:10069000DE033090DF034090E0035090E1036624D6
:1006A000772488241EE4A12EB3E8BB2ECC24DD24BD
:1006B000EE24FF2400E010E0222D332D442D552D93
:1006C000662D772D882D90E00E9411382A833B8378
:1006D0004C835D836E837F8388879987822E932ED8
:1006E000A42EB52E2401350176946794579447942F
:1006F00000E20E940F39A22EB32EC42ED52EA301E4
:1007000092012A0D3B1D4C1D5D1D57FF05C05F77F3
:100710002F5F3F4F4F4F5F4F2093DE033093DF0338
:100720004093E0035093E103E9818E2F99278FBF17
:10073000CA01B90129960FB6F894DEBF0FBECDBF2E
:10074000DF91CF911F910F91FF90EF90DF90CF90AD
:10075000BF90AF909F908F907F906F905F904F90E1
:100760003F902F9008958FB7F8949927379A8FBFAD
:1007700080E090E00895CF93DF938FB7F894C82F6F
:10078000DD279C2F80912F01843021F09FBF81E0D5
:1007900090E017C080914D01813069F08230B1F74F
:1007A00080919B0480932F0183E080934D01CFBF04
:1007B00080E090E006C08BE00E94FD02CFBF80E0A9
:1007C00090E0DF91CF910895A79AAF9AA69AAE983C
:1007D00008958091460C8130C9F1813038F5E8E008
:1007E00020E060E07FB7F894509182035E7F5093E1
:1007F000820387B1982F9F71829586958695837025
:1008000049F140E0440F852F8D7F842B262F2F71D7
:10081000922F990F990F8378892B80938203332726
:1008200027B9E830E9F02E2F27704EC0823071F0E2
:10083000833061F08130A1F18130A0F1823081F10B
:10084000833071F1E0E02FE16FE1CCCFE8E021E00F
:1008500061E0C8CF822F8850863160F041E0D2CF6E
:100860008091440C9091450C21E08638920758F015
:1008700027E02AC040E03327892F99272817390716
:1008800061F04170BFCF833C910528F4813691051A
:1008900058F025E019C026E017C041E04170B2CF02
:1008A000E0E0D5CFE0E09CCF8033910528F488319B
:1008B000910520F023E008C024E006C08C309105AB
:1008C00010F022E001C020E0887D822B886D9927FE
:1008D00086B9872F99278FBF0895982F969596955B
:1008E0009695E5E1F4E0E90FF11D877021E030E035
:1008F00002C0220F331F8A95E2F780818223992755
:1009000008950F931F93182F8FB7F894282F33272C
:10091000022F80914D01882389F080919B048117DB
:1009200049F0812F0E946D048823A9F085E090E0B2
:100930000FBF26C02FBF80E090E022C081E08093EF
:100940004D0110939B042FBF0E94B3030E94BB0371
:1009500080E090E015C0E12FE695E695E695FF274B
:10096000EB5EFB4F177081E090E002C0880F991F8B
:100970001A95E2F72081282B208380E090E0D8CFE1
:100980001F910F91089580914B01823009F00895D5
:1009900080912C01843019F085E080932C0181E056
:1009A00080934B0185E00E94FD0208952FB7F894D3
:1009B000332780913001909131012FBF089561EE6E
:1009C00080E00E94BF026091AD0389E00E94BF02F7
:1009D0008AEF90E00197F1F7609104048BE00E94A8
:1009E000BF0284E190E00197F1F70895E0912A01B8
:1009F000F0912B0186A19927982F882727A13327CB
:100A0000822B932BCC9620912D0130912E018217B1
:100A1000930720F480A5826080A703C080A58D7F06
:100A200080A78AE00E94FD0285E080935C01089522
:100A30009B01AC0190915A019630C8F48091590104
:100A4000E82FFF27EE0FFF1FEE0FFF1FE356FB4FB0
:100A500020833183428353838F5F80935901863093
:100A600049F09F5F90935A0180E090E0089581E003
:100A700090E00895109259019F5F90935A0180E091
:100A800090E00895EF920F931F93AE2D99E0899F08
:100A9000F0011124EA5EFB4F40835183628373832C
:100AA0000483158326833783A17080858E7F8A2BEC
:100AB000826080878EE00E94FD021F910F91EF906F
:100AC00008956FB7F89482B706B601FE17C081B7D4
:100AD00092B720911A0230911B0240911C02509152
:100AE0001D02280F311D411D511D2F5F3F4F4F4FDC
:100AF0005F4F290F311D411D511D0CC020911A025D
:100B000030911B0240911C0250911D02280F311D93
:100B1000411D511D862F99278FBFCA01B901089524
:100B2000AF92BF92CF92DF92EF92FF920F931F93FB
:100B3000F82E5A016B010E946105AB01BC01E1E096
:100B4000EE2E960185018F2D0E9442051F910F9177
:100B5000FF90EF90DF90CF90BF90AF9008952FB7A8
:100B6000F894622F7727A0E0FC01F695E795F695BB
:100B7000E795F695E795EB59FB4F40815527877030
:100B8000907021E030E002C0220F331F8A95E2F717
:100B900042235323452B09F0A1E06FBF8A2F9927E9
:100BA0000895FC01DB0190818C91981769F02091E8
:100BB0001901921731F0821779F020E030E089179F
:100BC00068F421E030E00AC020E030E09181FB01D0
:100BD0008181891718F4F5CF20E030E0C90108952C
:100BE000CF93DF93EC019B01E0916004F0916104ED
:100BF000E054FB4F80818883E0916004F0916104B0
:100C0000E054FB4F8081FB018083809160049091D0
:100C10006104019690936104809360049881E2E0FE
:100C2000F1E0DF0112968081981718F08181891711
:100C300038F41396339681E0A631B807A1F708C0BF
:100C40008C919823F90190838095988198239883BB
:100C5000892F9927DF91CF910895E0911501F091A7
:100C600016013496F0931601E0931501E454FB4FFE
:100C700060817181828193810895823029F085306D
:100C800039F0813071F0089560FD13C0DA9A08954B
:100C90008FB7F89499272BB334E023272BBB8FBF52
:100CA00008958FB7F89460FF06C0DA9899278FBF30
:100CB0000895DA980895DA9AF9CFE0911501F09144
:100CC00016013496F0931601E0931501E454FB4F9E
:100CD00060817181828193810895EF92FF920F93D9
:100CE0001F93623029F1633060F0653009F45AC017
:100CF0006630F1F0643009F469C0EE24FF24870106
:100D000072C0662309F442C06130B9F7E091020471
:100D1000F0910304E80FF91F80819927982F882705
:100D200021813327822B932B7C01002711275BC065
:100D3000E0910204F0910304E80FF91F82819927E2
:100D4000AA27BB27EE24F82E092F1A2F208133273C
:100D500044275527522F442733272227818199275B
:100D6000AA27BB27DC0199278827282B392B4A2B58
:100D70005B2B83819927AA27BB27282B392B4A2B4A
:100D80005B2BE22AF32A042B152B2DC0E0910204E1
:100D9000F0910304E80FF91F8081E82EFF2400275B
:100DA000112721C0E0910204F0910304E80FF91F1C
:100DB00080819927982F882721813327822B932B95
:100DC0007C010027F7FC0095102F0DC0E091020474
:100DD000F0910304E80FF91F8081E82EFF24E7FC5F
:100DE000F0940F2D1F2DC801B7011F910F91FF9097
:100DF000EF900895982F80915401882351F4EDEEDF
:100E0000F3E0119283E0EB3FF807D9F781E080939C
:100E10005401492F55270024569547950794569518
:100E200047950794542F402D9A01260F311D70E0ED
:100E30008091ED0399272817390721F1EEEEF3E0B1
:100E400005C0319683E0EB3FF80769F07723C9F4DA
:100E50008081992728173907A1F771E0319683E03F
:100E6000EB3FF80799F7772359F4A0E0B0E03E97FD
:100E70008081882349F011963196AE30B105C1F7D3
:100E80000895089571E0DACFA351BC4F640F6C93BD
:100E90000895CF93DF93461738F1E82FFF2750E0EE
:100EA000A62FBB27C1E0D0E005C080E0580F6F5FE0
:100EB0004617B8F0262F3327CF01022E02C0959592
:100EC00087950A94E2F780FFF0CF2A1B3B0BCE01F7
:100ED00002C0880F991F2A95E2F7580F6F5F4617D7
:100EE00048F7852F992702C080E090E0DF91CF91ED
:100EF00008950E94490721E030E002C0220F331F0D
:100F00008A95E2F7822F99270895CF93DF93582F80
:100F1000882381F1C82FDD276091600470916104FE
:100F2000A0E0B0E040E0FB01E054FB4F208133271C
:100F3000CE01841B9109880F991F880F991F880F74
:100F4000991F089702C0220F331F8A95E2F7A20F5C
:100F5000B31F6F5F7F4F4F5F451738F4423018F370
:100F60006F5F7F4F4F5F4517C8F3709361046093C5
:100F7000600402C0A0E0B0E0CD01DF91CF91089500
:100F8000CF93DF93EC01E0912001F09121013097A4
:100F900049F020813181428153812115310541057C
:100FA000510539F4D0932101C093200181E090E0F4
:100FB0000BC088819981AA81BB8182179307A407FE
:100FC000B50784F380E090E0DF91CF91089542303F
:100FD00029F0433051F0413079F0089520E63AEE9F
:100FE00040E050E00E94AD3B089520E83EEE46E32D
:100FF00050E00E94AD3B089528EE33E040E050E021
:101000000E94AD3B0895EF92FF920F931F93CF93F1
:10101000DF93782F8823C1F1C82FDD27409160042A
:1010200050916104EE24FF24870160E0FA01E0544E
:10103000FB4F80819927AA27BB279E01261B3109D8
:10104000220F331F220F331F220F331F285030402F
:1010500004C0880F991FAA1FBB1F2A95D2F7E80E5C
:10106000F91E0A1F1B1F4F5F5F4F6F5F671738F432
:101070006430E0F24F5F5F4F6F5F6717C8F35093C4
:1010800061044093600403C0EE24FF248701C8017B
:10109000B701DF91CF911F910F91FF90EF900895CD
:1010A000DF92EF92FF920F931F938FB7F894282F40
:1010B0003327D22E91B782B746B7981711F041FF68
:1010C00002C02FBF79C080910704882351F5209179
:1010D0001A0230911B0240911C0250911D0270E0D7
:1010E00065EE00B601FCFDCF82B7861709F452C049
:1010F000DA01C9010196A11DB11D860F911DA11D27
:10110000B11D82179307A407B50710F4622F6095ED
:1011100061BFDFBE772309F44FC08DE00E94FD025E
:101120004BC00E946105E0909304F09094040091FC
:10113000950410919604209194023091950240916B
:101140009602509197026E197F09800B910B6217DE
:1011500073078407950700F5D801C701820F931F15
:10116000A41FB51F20911A0230911B0240911C024E
:1011700050911D02821B930BA40BB50B873E91056A
:10118000A105B10508F0ABCF823098F0682F61500F
:1011900070E0A7CF6F5FACCF1092070471E065EEEF
:1011A00020911A0230911B0240911C0250911D02A5
:1011B00098CF70E061E095CF1F910F91FF90EF9075
:1011C000DF900895AFB7F894BB27E1E0E093070400
:1011D0006093930470939404809395049093960481
:1011E0002093940230939502409396025093970275
:1011F000AFBF0E9450080895982F80915401882312
:1012000051F4EDEEF3E0119283E0EB3FF807D9F7EC
:1012100081E080935401292F3327002436952795A8
:101220000794369527950794322F202D260F311DD0
:10123000ADEEB3E0FD01808199278217930749F055
:101240001196319683E0AB3FB807A9F780E090E0B4
:1012500008951C9281E090E0089591E09093FB0343
:101260008093460C0E94E90380E090E008952FB738
:10127000F894332780919B0480932F0183E080931F
:101280004D012FBF80912F01823069F0833059F0DA
:10129000813049F0813069F0813078F08230C9F0D6
:1012A000833099F008950E94E40380912F018130EA
:1012B00099F781E00E942D09089582E08093FB0355
:1012C0001092460C0E94E903089583E00E942D09C4
:1012D000089582E00E942D090895FC0182819927DA
:1012E000982F882723813327822B932B0895FC0185
:1012F000868199270895FC0180A5992781709070B7
:1013000008956FE380E00E94BF0260E08BE00E94DE
:10131000BF02089582E080935C0110925F041092F6
:101320005E040E94EB02BB98BA9880EC8DB9B89825
:10133000089580915801E82FFF27EE0FFF1FEE0F51
:10134000FF1FE356FB4F40815181628173812091E1
:101350005A01222361F08F5F80935801863021F07B
:10136000215020935A0103C010925801F9CFCB01AC
:10137000BA010895E5E6F4E08FB7F894282F3327F3
:1013800080818F3F49F42FBF319684E0EF36F80714
:1013900099F781E090E008952FBF80E090E00895F4
:1013A000CF93DF93C0E0D0E004C02196C035D105D3
:1013B00029F0CE010E94AF058823B9F7CE01DF9155
:1013C000CF91089566EA8EE00E94BF0295982CE1C5
:1013D00080E090E008C097989698969A019687309A
:1013E000910551F0220F27FFF6CF979A9698969A7B
:1013F000019687309105B1F797989698969A8F98AD
:10140000959A20E008C0220F2160969A01973FEF3D
:101410008F3F930751F096988799F5CF220F969AB0
:1014200001973FEF8F3F9307B1F7959A8F9A979A5D
:1014300023FFCCCF66E28EE00E94BF0208951F9288
:101440000F920FB60F9211248F9383B783BF00B60C
:1014500000FCFDCF8F910F900FBE0F901F9018953D
:1014600078941F920F920FB60F9211240F900FBE17
:101470000F901F90189578941F920F920FB60F92AD
:1014800011240F900FBE0F901F90189578941F9203
:101490000F920FB60F9211240F900FBE0F901F9056
:1014A000189578941F920F920FB60F9211248F9374
:1014B0009F9386B597B59F918F910F900FBE0F9018
:1014C0001F90189578941F920F920FB60F921124C7
:1014D0002F933F938F939F93AF93BF932FB7F8941E
:1014E000332780910A0490910B04A0910C04B091D1
:1014F0000D040196A11DB11D80930A0490930B0465
:10150000A0930C04B0930D042FBFBF91AF919F9196
:101510008F913F912F910F900FBE0F901F901895B4
:101520009C0180915001882331F481E080933A013D
:1015300081E090E0089590914E0182E2989FF00141
:101540001124D901E856FD4F01900D928150E1F729
:1015500080914E018F5F65E00E94CC3B90934E01DD
:1015600080915001815080935001882331F481E0B3
:1015700080933A0180E090E0089580E090E0089543
:101580009C0180915301882331F481E080933B01D9
:1015900081E090E008959091510182E2989FF001DE
:1015A0001124D901EF58F34F01900D928150E1F7CA
:1015B000809151018F5F6AE00E94CC3B9093510172
:1015C00080915301815080935301882331F481E04D
:1015D00080933B0180E090E0089580E090E00895E2
:1015E0009C0180915301882319F481E090E00895D3
:1015F0009091510182E2989FF0011124D901EF5896
:10160000F34F01900D928150E1F780E090E0089552
:101610009C0140915001453018F081E090E0089520
:1016200090914F0182E2989FF0011124E856FD4FFE
:10163000D9010D9001928150E1F7892F8F5F65E00C
:101640000E94CC3B90934F014F5F4093500180919B
:101650003A01813019F080E090E0089510923A014B
:101660008FE00E94FD0280E090E00895AF92BF926B
:10167000CF92DF92EF92FF920F931F93CF93DF935E
:10168000CDB7DEB728970FB6F894DEBF0FBECDBF3B
:101690006D837E838F8398875A01233009F446C077
:1016A0002430B8F0CD80DE80EF80F884033009F478
:1016B0009DC0043000F1053009F46EC0053008F01B
:1016C000D3C0E0910204F0910304EA0DFB1DC08237
:1016D000EFC0CD80DE80EF80F884033009F4A5C030
:1016E000043048F0053009F457C0053050F3063097
:1016F00009F0DEC005C0013009F44EC0023008F325
:10170000E0910204F0910304EA0DFB1DC382BB27A4
:10171000AF2D9E2D8D2D8283C701AA27BB278183E4
:101720008F2D9927AA27BB278083C2C02D813E8198
:101730004F8158850330D9F1043018F1053009F490
:10174000B2C0053008F445C0063009F0B1C0CA0186
:10175000B9010E94633AE0910204F0910304EA0D9A
:10176000FB1D6383272F382F492F552722839C0188
:10177000442755272183692F772788279927608356
:1017800097C0013009F480C0023008F470C0CA016B
:10179000B9010E94683ADFCFE0910204F09103049E
:1017A000EA0DFB1DC1828D2D9927808381C0E091B8
:1017B0000204F0910304EA0DFB1D29833A834B8355
:1017C0005C8389819A81AB81BC8180839183A28370
:1017D000B3838091020490910304A80EB91ECA013C
:1017E000B9010E94633AF501608362C0009102046E
:1017F00010910304040F151FC701B6010E94963A09
:1018000069837A838B839C8389819A81AB81BC8134
:10181000F80180839183A283B383E0910204F09165
:101820000304EA0DFB1DC08243C000910204109125
:101830000304040F151FF7FEDFCFC701B601617067
:10184000707080709070A7019601569547953795F6
:101850002795622B732B842B952B0E94963A9B0124
:10186000AC010E949339CCCF063011F549CF80915D
:10187000020490910304A80EB91ECA01B9010E9486
:10188000683AF501608314C0CA01B9010E94683A40
:10189000E0910204F0910304EA0DFB1D6183672FC0
:1018A0007727608305C0CA01B9010E94633AF0CF6F
:1018B00028960FB6F894DEBF0FBECDBFDF91CF9153
:1018C0001F910F91FF90EF90DF90CF90BF90AF905E
:1018D00008958F929F92AF92BF92CF92DF92EF9234
:1018E000FF920F931F93CF93DF93EC018091170129
:1018F00090911801009709F48FC0209709F476C0E1
:101900007727FB01EE0FFF1FEE0FFF1F80912401D1
:1019100090912501E80FF91F80819181A281B38107
:1019200088839983AA83BB838091170190911801C2
:101930004C01880C991C880C991C00912401109171
:101940002501800E911E0197909318018093170135
:101950007B01EB01CC0FDD1F8C179D077CF548C088
:101960005C01AA0CBB1CAA0CBB1C6801CA0CDB1CCA
:10197000B401C6010E94D105892BD1F1EE0CFF1CE8
:10198000EE0CFF1C0E0D1F1DF60180819181A281BE
:10199000B381F80180839183A283B3839E01220FD8
:1019A000331F80911701909118017E0182179307D0
:1019B000B4F1E9010091240110912501C817D9075C
:1019C00079F25E01AA0CBB1CAA0CBB1CC8018A0DD3
:1019D0009B1DBC0104960E94D105892B31F22196F2
:1019E0005E01AA0CBB1CAA0CBB1CBFCF7727A0CFE3
:1019F0005701AA0CBB1CAA0CBB1CA00EB11EF40103
:101A000080819181A281B381F50180839183A2833A
:101A1000B38381E090E008C080E090E005C00091D1
:101A2000240110912501E9CFDF91CF911F910F91F2
:101A3000FF90EF90DF90CF90BF90AF909F908F90EE
:101A400008956F927F928F929F92AF92BF92CF92A2
:101A5000DF92EF92FF920F931F93CF93DF93CDB757
:101A6000DEB724970FB6F894DEBF0FBECDBF782F38
:101A7000452B09F1A0911701B09118011A161B0608
:101A80000CF074C0C0902401D0902501F60186812D
:101A900097812817390709F46EC041E050E04F5F85
:101AA0005F4FA417B5077CF082859385349628177D
:101AB0003907A9F760C0A0911701B0911801C09033
:101AC0002401D090250179836A833C832B838D0187
:101AD0000F5F1F4F1093180100931701023011057B
:101AE0007CF13E010894611C711C19C0000F111F8C
:101AF000000F111FC00ED11EF50180819181A281BE
:101B0000B381F60180839183A283B383F2E0EF1661
:101B1000F1043CF18701C0902401D09025017801A7
:101B2000F594E7944701880C991C880C991C560180
:101B3000A80CB91CB501C3010E94D105892BB1F6CF
:101B40004801880C991C880C991C8C0C9D1C89815F
:101B50009A81AB81BC81F40180839183A283B3839A
:101B60000AC0C0902401D0902501EFCFC09024017D
:101B7000D0902501A8CF24960FB6F894DEBF0FBEF3
:101B8000CDBFDF91CF911F910F91FF90EF90DF902C
:101B9000CF90BF90AF909F908F907F906F9008955F
:101BA000CF93DF93EC0188819927382F22278981F1
:101BB0009927282B392B2115310549F040E050E0B9
:101BC0006FEF809119010E94210D19821882DF9117
:101BD000CF9108958F929F92AF92BF92CF92DF9252
:101BE000EF92FF920F931F93CF93DF936C01A62E7A
:101BF0002091260130912701FC01E20FF31F808123
:101C0000E82EFF24E7FCF0949FE7E922FF24B82E9A
:101C1000B094BB1CBB24BB1C83E08B19B82E1E14D4
:101C20001F0494F5882E9924C0E0D0E000E010E075
:101C300012C0F601E20FF31FE00FF11F81818A1538
:101C4000F1F02196080D191DEC16FD06E9F0209122
:101C500026013091270182E0B81659F7CE01880F8E
:101C6000991F2C0D3D1D820F931F01960E94D00DD0
:101C70002196080D191DEC16FD0649F705C0CF0188
:101C800002960E94D00DDDCFDF91CF911F910F9171
:101C9000FF90EF90DF90CF90BF90AF909F908F908C
:101CA00008959C01409153014A3018F081E090E082
:101CB00008959091520182E2989FF0011124EF580B
:101CC000F34FD9010D9001928150E1F7892F8F5F79
:101CD0006AE00E94CC3B909352014F5F40935301C6
:101CE00080913B01813019F080E090E008951092DE
:101CF0003B0180E10E94FD0280E090E00895A8E5AC
:101D0000B2E0FC0185E001900D928150E1F782EA9A
:101D10008093520285E0809353028091A603992715
:101D2000982F88272091A7033327822B932B80930A
:101D30005502892F9927809354021092560282E50A
:101D400092E00E94510E0895A8E5B2E0FC018CE1FA
:101D500001900D928150E1F781EA809352028CE16B
:101D6000809353028FEF8093550280935402109218
:101D7000560282E592E00E94510E0895FB01809187
:101D8000020490910304E80FF91F83819927382FEB
:101D9000222784819927282B392BA8E5B2E08BE1F3
:101DA00001900D928150E1F781E9809352028BE11D
:101DB0008093530220935502832F992780935402D6
:101DC00010925602442319F081E0809356028091CC
:101DD00062048093570282E592E00E94510E0895BA
:101DE000CF93DF93CDB7DEB724970FB6F894DEBF5D
:101DF0000FBECDBFE0910204F0910304E80FF91F7C
:101E000080819181A281B38189839A83AB83BC83D2
:101E100069817A818B819C8124960FB6F894DEBF0C
:101E20000FBECDBFDF91CF9108951F920F920FB6D5
:101E30000F9211242F933F934F935F936F937F9350
:101E40008F939F93AF93BF93EF93FF9383B783BF1A
:101E500000B600FCFDCF81B799270196AA27BB27C2
:101E600020911A0230911B0240911C0250911D02D8
:101E7000280F391F4A1F5B1F20931A0230931B0241
:101E800040931C0250931D0278940E945008FF91C9
:101E9000EF91BF91AF919F918F917F916F915F91E2
:101EA0004F913F912F910F900FBE0F901F9018955B
:101EB000DF92EF92FF920F931F93CF93DF93982FB0
:101EC0008FB7F894D82E80914D01833021F0DFBE7A
:101ED00081E090E068C0E0902F01E916C1F78091A1
:101EE00015048823C1F080914C01082F1127E801C7
:101EF0000AC0FC2E8F2D0E946D04882311F5C01797
:101F0000D10709F44EC02196C430D10591F7C0E045
:101F1000D0E0FF24EFCF84E080932F0110924D0199
:101F200082E0E81659F083E0E81641F081E0E81617
:101F300029F03798DFBE80E090E035C0A698A798DA
:101F4000F8CFEF2DE695E695E695FF274F2D55271F
:101F5000EB5EFB4F9A012770307081E090E002C089
:101F6000880F991F2A95E2F78095208128232083E6
:101F7000F0924C0140939B048FEF80932F0181E0FE
:101F800080934D018BE00E94FD0282E0E81631F063
:101F900083E0E81619F081E0E81661F6A698A798A4
:101FA000C9CF4FEFE7CFDF91CF911F910F91FF90F6
:101FB000EF90DF9008950F931F936BE380E00E94F2
:101FC000BF0280ED97E00197F1F769E380E00E949E
:101FD000BF0288EC90E00197F1F70FB7F894112752
:101FE0000E948A090FBF1F910F910895EF92FF92EF
:101FF0000F931F938093E60346EE53E0382F20E0C3
:10200000CA01B9010E94180506EE13E0FF24B1E0F1
:10201000EB2EC801B7010E94180580914601882364
:1020200011F40E94FD021F910F91FF90EF9008950F
:102030009B01AC01E0911501F09116013497F093EA
:102040001601E093150180911004909111048E17F0
:102050009F0738F4E054FB4F20833183428353833E
:10206000089584E10E94F60F81E08093140160E0FE
:1020700070E00E943D0608950E942D0660957095BF
:10208000809590950E94181008950E942D0620E0DA
:1020900030E040E050E0611571058105910521F4C3
:1020A00021E030E040E050E0CA01B9010E94181080
:1020B00008950E942D0690958095709561957F4FAB
:1020C0008F4F9F4F0E9418100895EF92FF920F9329
:1020D0001F930E942D067B018C010E942D06E61A9B
:1020E000F70A080B190BC801B7010E9418101F91BD
:1020F0000F91FF90EF900895EF92FF920F931F932F
:102100000E942D067B018C010E942D06E60EF71E13
:10211000081F191FC801B7010E9418101F910F91C5
:10212000FF90EF900895EF92FF920F931F930E94FC
:102130002D067B018C010E942D0620E030E040E05E
:1021400050E0E616F7060807190721F021E030E015
:1021500040E050E0CA01B9010E9418101F910F9190
:10216000FF90EF900895EF92FF920F931F930E94BC
:102170002D067B018C010E942D0620E030E040E01E
:1021800050E0E616F7060807190724F021E030E0D2
:1021900040E050E0CA01B9010E9418101F910F9150
:1021A000FF90EF900895EF92FF920F931F930E947C
:1021B0002D067B018C010E942D0620E030E040E0DE
:1021C00050E06E157F058007910724F021E030E094
:1021D00040E050E0CA01B9010E9418101F910F9110
:1021E000FF90EF900895EF92FF920F931F930E943C
:1021F0002D067B018C010E942D0620E030E040E09E
:1022000050E06E157F058007910724F421E030E04F
:1022100040E050E0CA01B9010E9418101F910F91CF
:10222000FF90EF900895EF92FF920F931F930E94FB
:102230002D067B018C010E942D0620E030E040E05D
:1022400050E0E616F7060807190724F421E030E00D
:1022500040E050E0CA01B9010E9418101F910F918F
:10226000FF90EF900895EF92FF920F931F930E94BB
:102270002D067B018C010E942D06E114F10401055D
:10228000110529F061E070E080E090E012C020E0EC
:1022900030E040E050E0611571058105910519F4C9
:1022A000CA01B90106C021E030E040E050E0CA01B7
:1022B000B9010E9418101F910F91FF90EF9008959F
:1022C000EF92FF920F931F930E942D067B018C01CA
:1022D0000E942D06E114F1040105110579F020E0BA
:1022E000611571058105910539F081E02827622F7C
:1022F00077278827992706C021E0F7CF60E070E0B4
:1023000080E090E00E9418101F910F91FF90EF90D5
:1023100008951F938091600490916104FC01E05442
:10232000FB4F2081019690936104809360043327D2
:102330002A3029F12B3098F02D3009F44AC02E3084
:1023400088F1203109F48CC0213109F0ECC00E94E1
:102350002D06683008F072C0609362046FC02130AF
:1023600009F447C0213060F1223009F46CC02330F9
:1023700009F0D9C00E9461050E941810D4C00E94C3
:102380002D06AB01BC012091020430910304109191
:1023900057011A30A8F161E070E080E090E00E94FF
:1023A0001810C1C02B3009F485C02C3009F0BBC017
:1023B000609157017727882799270E941810B3C08A
:1023C0006091000170910101882799270E941810DF
:1023D000AAC010925501109256011092570181E047
:1023E00080933C0160E070E080E090E00E94181073
:1023F0009AC00E942A03882799270E94181093C028
:102400009091560182E1989FF0011124240F351F0D
:10241000ED59FE4FD9010D9001928150E1F7892FBE
:102420008F5F6AE00E94CC3B909356011F5F109330
:10243000570180913C01813009F44CC060E070E0AC
:1024400080E090E0ACCF0E942D06DC01CB0160E083
:102450000E946D067727882799270E94181063C06D
:102460000E942D06609314040E942D066093FE03C3
:102470007093FF0380930004909301040E942D0643
:102480007093BB046093BA040E942D06209102044D
:1024900030910304260F371F309313042093120446
:1024A00081E08093A50360E070E080E090E00E940E
:1024B000181039C00E942D069B01AC0160910204E6
:1024C0007091030480915701882351F481E0809337
:1024D0003C0161CF10923C0182E10E94FD02AECF2F
:1024E000620F731F9091550182E1989FF0011124B2
:1024F000DB01ED59FE4F01900D928150E1F7809183
:1025000055018F5F6AE00E94CC3B9093550110917A
:102510005701115010935701112309F08FCF81E01B
:1025200080933C018BCF1F91089541E060E00E94B1
:1025300049078F5F0E9403080E9418100895EF92C8
:10254000FF920F931F930E942D067B018C010E9426
:102550002D069B01AC01611571058105910539F0CE
:10256000C801B7010E940E3C0E94181009C060E02B
:1025700070E080E090E00E9418108AE00E94F60F60
:102580001F910F91FF90EF9008950F931F939A0161
:10259000162F082FC901B8010E9418058091460125
:1025A000882311F40E94FD021F910F910895FA01F2
:1025B000813909F008952093A8036081772748EABC
:1025C00053E088E20E94C51248EA53E060E089E2E5
:1025D0000E94C51208950F93FA01813979F400938E
:1025E00074026081772744E752E08AE20E94C512B4
:1025F00044E752E060E08BE20E94C5120F9108951B
:10260000882301F5862F8F718330E9F08430B1F192
:10261000823019F14FED5DE077276F717070653092
:102620007105C9F066307105DCF46230710559F14D
:102630006430710581F16130710549F180E060E03D
:102640000E94C512089545EC5DE077276F717070A8
:102650006530710539F788E0F2CF45E054E0DCCF12
:102660006730710591F0673071055CF06830710575
:1026700081F06930710511F78EE0E1CF48E152E059
:10268000CBCF89E0DCCF86E0DACF8AE0D8CF85E017
:10269000D6CF8BE0D4CF87E0D2CFCF93DF93109209
:1026A000FB03C0916304D09164048091460C823096
:1026B00009F440C08330F1F0813009F45BC082300E
:1026C000E1F18330D1F0813009F05CC0C093E00DBE
:1026D0008D2F99278093DF0DC0E0D0E061E08C2F33
:1026E0000E94FC08813009F448C02196C430D1050D
:1026F000A9F748C083E00E94580FC09319028D2F9C
:10270000992780931802C0E0D0E064E08C2F0E94EB
:10271000FC08813051F02196C430D10599F164E074
:102720008C2F0E94FC088130B1F764E08C2F0E944E
:102730000013F1CF82E00E94580FC09306048D2F42
:10274000992780930504C0E0D0E062E08C2F0E94BE
:10275000FC08813051F02196C430D10599F062E037
:102760008C2F0E94FC088130B1F762E08C2F0E9410
:102770000013F1CF0E94580FA9CF61E08C2F0E9467
:102780000013B3CFDF91CF9108959B01AC01E0918D
:102790001501F09116013497F0931601E09315019D
:1027A00080911004909111048E179F0738F4E05423
:1027B000FB4F2083318342835383089584E10E9439
:1027C000F60F81E08093140160E070E00E943D0606
:1027D00008950E945D0690580E94C5130895EF92D7
:1027E000FF920F931F930E945D067B018C010E9454
:1027F0005D069B01AC01C801B7010E9492390E949D
:10280000C5131F910F91FF90EF900895EF92FF92E3
:102810000F931F930E945D067B018C010E945D0651
:102820009B01AC01C801B7010E9493390E94C513F6
:102830001F910F91FF90EF900895EF92FF920F93E9
:102840001F930E945D067B018C010E945D069B0127
:10285000AC01C801B7010E944A3B0E94C5131F91F9
:102860000F91FF90EF900895EF92FF920F931F93B7
:102870000E945D067B018C010E945D069B01AC01FC
:10288000C801B7010E94FB390E94C5131F910F9127
:10289000FF90EF900895EF92FF920F931F930E9485
:1028A0005D067B018C010E945D069B01AC01C801A5
:1028B000B7010E94F739882329F460E070E080E8CE
:1028C0009FE304C060E070E080E090E00E94C513E8
:1028D0001F910F91FF90EF900895EF92FF920F9349
:1028E0001F930E945D067B018C010E945D069B0187
:1028F000AC01C801B7010E94F739882329F060E0D4
:1029000070E080E89FE304C060E070E080E090E069
:102910000E94C5131F910F91FF90EF900895EF92C1
:10292000FF920F931F930E945D067B018C010E9412
:102930005D069B01AC01C801B7010E94463B88239C
:102940002CF060E070E080E89FE304C060E070E09D
:1029500080E090E00E94C5131F910F91FF90EF90CF
:102960000895EF92FF920F931F930E945D067B01E3
:102970008C010E945D069B01AC01C801B7010E9459
:10298000F73918162CF060E070E080E89FE304C08F
:1029900060E070E080E090E00E94C5131F910F910D
:1029A000FF90EF900895EF92FF920F931F930E9474
:1029B0005D067B018C010E945D069B01AC01C80194
:1029C000B7010E94463B18162CF460E070E080E8E6
:1029D0009FE304C060E070E080E090E00E94C513D7
:1029E0001F910F91FF90EF900895EF92FF920F9338
:1029F0001F930E945D067B018C010E945D069B0176
:102A0000AC01C801B7010E94F73988232CF460E0BB
:102A100070E080E89FE304C060E070E080E090E058
:102A20000E94C5131F910F91FF90EF900895CF93CF
:102A3000DF93CDB7DEB724970FB6F894DEBF0FBE95
:102A4000CDBF41E060E00E9449078130C1F0813094
:102A500058F40E942D069B01AC0197FD19C00E94FD
:102A6000963A0E94C51327C0823011F0833019F5C1
:102A70000E945D060E94683A0E9418101CC00E94C5
:102A80002D0669837A838B839C830E94963AE9CFD3
:102A90006170707080709070569547953795279546
:102AA000622B732B842B952B0E94963A9B01AC01D1
:102AB0000E949339D6CF24960FB6F894DEBF0FBE8E
:102AC000CDBFDF91CF9108951F93982F80912C0156
:102AD000843019F090936E0C1FC090932C0180915C
:102AE0004D01882379F412E010934D0110929B045C
:102AF0000E94B3030E94BB0380912F01882331F011
:102B000010924D0180E00E94810406C01093FB03E7
:102B10001092460C0E94E90380E090E01F91089516
:102B20001F920F920FB60F9211244F925F926F92E5
:102B30007F928F929F92AF92BF92CF92DF92EF924D
:102B4000FF920F931F932F933F934F935F936F9336
:102B50007F938F939F93AF93BF93CF93DF93EF9325
:102B6000FF930FB18091C70D8FB940915B0142FD7A
:102B7000009580915C01883009F44FC0893028F1BC
:102B80008B3009F499C08C3008F458C08D3009F4AA
:102B90006DC18D3008F412C18E3009F04DC389E04B
:102BA0000E94FD0280919C048D7F80939C04809103
:102BB0002C01843019F085E080932C0181E0809312
:102BC0004B0185E00E94FD0237C3843009F48EC0BA
:102BD000853008F44DC0863009F46BC1873009F0A8
:102BE0002BC380911E028093C70DC0915E04D091CB
:102BF0005F042196D0935F04C0935E048091410CE2
:102C00009091420CC817D90708F416C383E3809348
:102C10001E0288E080935C010FC380911E028093A6
:102C2000C70D8CEC80931E0289E080935C01CFEF8E
:102C3000DFEFD0935F04C0935E04FEC2893009F4D5
:102C400050C18A3009F0F8C280911E028093C70DEE
:102C50008091500290915102892F992780931E02F2
:102C60008BE080935C0110925F0410925E04E4C2DA
:102C7000823009F4CBC0833009F0DEC20A3A09F48D
:102C80009AC1053509F497C1C0915E04D0915F04E3
:102C90002196D0935F04C0935E04C130D10509F43E
:102CA00042C2279708F457C282E080935C011092D9
:102CB0005F0410925E04C0C280911E028093C70D13
:102CC000C0915E04D0915F042196D0935F04C093BD
:102CD0005E04249708F4B0C240FF90C08CE080935B
:102CE0005C0110925F0410925E04A6C2E0912A017A
:102CF000F0912B0154815E3108F017C18091C80D0D
:102D00009091C90D982F8827202F3327822B932B42
:102D10009093C90D8093C80D46954695469547708A
:102D2000BC0102C0769567954A95E2F780915E04F2
:102D300090915F04E80FF91F6083EC012196D09316
:102D40005F04C0935E04595F052F11270C171D0700
:102D500008F007C10C171D0709F40EC1A69709F06A
:102D60006BC2E0912A01F0912B0185A124A140E0E2
:102D700050E09927982F88273327822B932B209177
:102D80005002309151028217930709F44AC1242F4F
:102D900044A3852F9927482F85A380915B0180FF4D
:102DA0000AC0842F9927982F88273327822B932BAB
:102DB000892B09F09BC10E94F6043EC280911E023D
:102DC0008093C70DC0915E04D0915F042196D0938B
:102DD0005F04C0935E04C130D10509F41DC124977E
:102DE00008F42AC28DE080935C011092C90D109204
:102DF000C80D10925F0410925E041EC2BB98BA9870
:102E00000E94EB028EE080935C0116C20A3A09F43C
:102E1000BAC0053509F4B7C010925F0410925E0481
:102E200090E080919C0481FF07C280FD03C099233C
:102E300009F086C18091970490919804009709F455
:102E4000FBC101979093980480939704892B09F014
:102E5000F3C180912C01843019F085E080932C011E
:102E60001092400C82E00E946415E6C180911E021F
:102E70008093C70DC0915E04D0915F042196D093DA
:102E80005F04C0935E048091C80D9091C90D20E04D
:102E90000AC0FAEB83389F0709F4AFC02F5F2830D0
:102EA00009F44DC0000F880F991F07FFF2CF816012
:102EB000F0CFC0915E04D0915F042196D0935F045F
:102EC000C0935E04C031D10508F07EC0CB30D1057F
:102ED00008F4B2C1CB58DB4FFE0184918093C70D3B
:102EE000ABC14090CB0D5090CC0D80911E028093D1
:102EF000C70DC0915E04D0915F042196D0935F040A
:102F0000C0935E048C3C09F48FC0F2018481992740
:102F10000796C817D90708F45CC0809150028093C7
:102F20001E028AE080935C0187C182E080935C018D
:102F300010925F0410925E040E94C3047DC19093BE
:102F4000C90D8093C80D629708F476C1E091CB0D4E
:102F5000F091CC0D80A58E7F80A78EE080935C01E0
:102F60006BC180915002909151020E94B1029093E6
:102F7000510280935002EECEC4E2D0E0D0935F04C1
:102F8000C0935E0459C1C0915E04D0915F04219644
:102F9000D0935F04C0935E04239758F083E080933E
:102FA0005C0110925F0410925E041092C90D1092A1
:102FB000C80D91E036CF802F9927982F88279093BE
:102FC000C90D8093C80D38C10E94EB02BB98BA9816
:102FD000F2CE8091CB0D9091CC0DC80FD91F688196
:102FE00060931E0280915002909151020E94B102A2
:102FF00090935102809350021FC19093C90D80930A
:10300000C80DE091CB0DF091CC0D80A5816080A71B
:103010008EE080935C0110C1BB98BA980E94EB02CD
:103020000BC141E050E0B3CE0E948E023B014C0147
:10303000E091CB0DF091CC0D65A7BB27A92D982D64
:10304000872D84A7C401AA27BB2783A7892D992789
:10305000AA27BB2782A7E091CB0DF091CC0D81A5CB
:10306000882309F4E4C084818D5FE80FF11D20817D
:10307000E1808281A3809927AA27BB27BA2FA92F95
:10308000982F8827332744275527522F4427332743
:103090002227FF24002711278701FF24EE242E2951
:1030A0003F29402B512BBB24CC24DD242A293B294A
:1030B0004C295D29822B932BA42BB52B86199709BC
:1030C000A809B9098383292F3A2F4B2F552722832B
:1030D0009D014427552721838B2F9927AA27BB279A
:1030E0008083C0915E04D0915F040FCF0081E180A6
:1030F0000E94D6041127102F0027FF240E291F2914
:103100000817190709F057CE86E080935C011092EA
:103110005F0410925E040E94DF04BB9ABA9A8AEAA6
:103120008093C70D89C0202F33278091C80D9091BF
:10313000C90D822B932B9093C90D8093C80D7CC031
:103140000E942A036F7070706F5F7F4F70939804B6
:103150006093970471C00E948E023B014C01C091A4
:10316000C80DD091C90D9C2F8827202F3327822B83
:10317000932B9093C90D8093C80D17E005C0115093
:103180001F3F09F459C0000FCC0FDD1F07FD4DC0D4
:1031900033E3CC3CD30799F7E0912A01F0912B015E
:1031A00084E080935C018DE1848310925F0410922F
:1031B0005E04109251021092500280912C018430D2
:1031C00019F085E080932C0182E080934B01812FE0
:1031D0008770880F880F880FE0915B01E77CE82BF0
:1031E000E0935B01E695E695E695E770FF27E35CE3
:1031F000FE4F8081681A710881089108E0912A01C8
:10320000F0912B0165A6BB27A92D982D872D84A7AA
:10321000C401AA27BB2783A7892D9927AA27BB27E3
:1032200082A780E00E946415AACFC160B1CFC0918F
:103230005E04D0915F0469CEFF91EF91DF91CF9151
:10324000BF91AF919F918F917F916F915F914F91BE
:103250003F912F911F910F91FF90EF90DF90CF90B2
:10326000BF90AF909F908F907F906F905F904F90A6
:103270000F900FBE0F901F9018951F920F920FB6D0
:103280000F9211241F932F933F934F935F936F934C
:103290007F938F939F93AF93BF93CF93DF93EF93DE
:1032A000FF93C4B1D5B178948FB7F8949927209142
:1032B0008203322F3695317021708FBF2223C1F5E2
:1032C00033988091FB03813009F459C0823009F0B2
:1032D00005C1332309F45DC01092FB038091460CB5
:1032E000882309F0FBC01FB7F89480912C0181302E
:1032F00009F45BC0813008F44FC0823009F464C027
:10330000833009F49AC080916E0C80932C01843034
:1033100009F456C084E080936E0C82E08093FB0336
:103320001092460C0E94E903812F99278FBFD6C0C7
:103330008FB7F89499278FBF2FB7F894332786B1AA
:10334000582F5770482F4072987D942B952B80747E
:10335000977B982B90619F77892F992786B9887DD5
:10336000842B852B87738061992786B9887D842B70
:10337000852B877B8069992786B92FBFAFC0332300
:1033800041F0D0936404C09363048CE00E94FD027A
:10339000A5C00E94E903A2C0E0912A01F0912B018F
:1033A000C7A38D2F992786A3AECFD093AB03C0932D
:1033B000AA0388E00E94FD0287E00E94FD02A3CFDD
:1033C00080E00E94580FB0CF2091400C2F5F2093D7
:1033D000400C80912D0190912E010C968C179D0729
:1033E000F8F48091A9038F5F8093A9038823D1F01B
:1033F00083E080934B0187E080935C0110925F042F
:1034000010925E0410925102109250028AEA809348
:103410001E028093C70D0E94DF04BB9ABA9A73CF35
:103420001092A90380919C0480FDE2CF253009F41D
:103430004AC082E00E94641566CF80912D01909170
:103440002E019C013695279536952795821B930B67
:103450008C179D07A0F08091400C8F5F8093400CEB
:103460008150863040F185E080932C0181E080938B
:103470004B0185E00E94FD020E948A0944CF87E04B
:103480000E94FD0280912D0190912E019C013695A4
:1034900027953695279536952795820F931FC81740
:1034A000D90708F030CFD093AB03C093AA0388E0CC
:1034B0000E94FD0228CF83E00E94641580E590E021
:1034C0000197F1F720CF0E942A036F7070706F5F31
:1034D0007F4F709398046093970415CFFF91EF91FD
:1034E000DF91CF91BF91AF919F918F917F916F911C
:1034F0005F914F913F912F911F910F900FBE0F90B1
:103500001F9018951F93182F6330D1F0643060F02E
:103510006530A9F1653048F583E00E94810464E0DC
:10352000812F0E94FA063AC0613089F16230B1F50C
:1035300082E00E94810462E0812F0E94FA062EC080
:103540008FB7F894282F332780E0CA9B0CC02FBF79
:10355000866099278093C60D1092C50D63E0812F78
:103560000E9400131BC081E0F2CF6630B9F41092C4
:10357000700410926F0466E00E9400130FC0109256
:1035800043031092420365E00E94001307C081E0EC
:103590000E94810461E0812F0E94FA061F91089524
:1035A0000F931F938A019B019927AA27BB27FC0130
:1035B0003597E532F10508F0C1C0EA5BFF4FEE0F29
:1035C000FF1F0590F491E02D0994423051056105EB
:1035D000710508F4A4C0642F77276770707085E0C8
:1035E0000E943D06ABC0642F77276770707081E042
:1035F0000E943D06A3C0423051056105710508F4E3
:1036000096C0642F77276770707086E00E943D0631
:1036100095C0423051056105710508F478C0642FEA
:1036200077276770707087E00E943D0687C061E071
:1036300080E00E94821A82C066E080E00E94821AC6
:103640007DC0642F77278CE00E943D0677C0642FF1
:1036500077278DE00E943D0671C040934B0C4BE4F0
:103660005CE0602F8CE00E94C5124BE45CE060E0FF
:103670008DE00E94C51262C0BA018EE00E943D0634
:103680005DC010924B0C4BE45CE060E08FE00E9468
:10369000C51254C040E0B80188E290E00E94BE0E1E
:1036A0004DC041E0B80189E290E00E94BE0E46C0E4
:1036B000642F77276170707089E00E943D063EC0DC
:1036C000642F7727617070708AE00E943D0636C0D3
:1036D000642F7727617070708BE00E943D062EC0CA
:1036E00065E080E00E94821A29C064E080E00E94C8
:1036F000821A24C0642F77276170707088E00E945E
:103700003D061CC062E080E00E94821A17C0642F50
:1037100077276170707084E00E943D060FC0642FAF
:1037200077276170707082E00E943D0607C0642FA9
:1037300077276170707083E00E943D061F910F91A2
:1037400008950E942D06AB01BC01209160043091C8
:103750006104F901E054FB4F80812F5F3F4F3093AC
:103760006104209360040E94D01A0895209160049F
:1037700030916104F901E054FB4F80812F5F3F4F8E
:10378000309361042093600440E050E060E070E01A
:103790000E94D01A0895EF92FF920F931F93CF9338
:1037A000DF93CDB7DEB724970FB6F894DEBF0FBE18
:1037B000CDBF182F43E063E00E944907082F42E085
:1037C00060E0812F0E944907182F81E090E002C03D
:1037D000880F991F0A95E2F70E9485077C01133034
:1037E00041F00E942D06012F26E0A7010E94360B12
:1037F0000FC00E945D0669837A838B839C836981F5
:103800007A818B819C8103E023E0A7010E94360B23
:1038100024960FB6F894DEBF0FBECDBFDF91CF91D7
:103820001F910F91FF90EF9008958F929F92BF92FA
:10383000CF92DF92EF92FF920F931F93CF93DF937C
:10384000CDB7DEB72A970FB6F894DEBF0FBECDBF57
:1038500040E060E00E944907C82E8091600490918A
:103860006104FC01E054FB4F0081019690936104D8
:1038700080936004E02EFF24FC82EB8247E067E047
:103880008B810E944907F82E46E064E08B810E94FC
:103890004907182F43E063E08B810E944907E82E17
:1038A00042E060E08B810E944907D82E133009F472
:1038B00054C0137081E090E0B82E01C0BB0C1A9583
:1038C000EAF701E010E01E830D83C80102C0880FF3
:1038D000991FFA94E2F70E9485074C01C80102C0C3
:1038E000880F991FEA94E2F70E9485077C0102C0C5
:1038F000000F111FCA94E2F71E830D838D810E9471
:1039000085079A8389836D2DC7010E946D06E98121
:10391000FA819F014427552762177307840795078B
:1039200020F08BE00E94F60F1BC0740100271127C6
:103930000E94EC3B2B2D3327442755270E94AD3B9B
:10394000E60EF71E081F191FEF82F88609871A87EF
:10395000C801B7010E94181003C074E0B72EB1CFA0
:103960002A960FB6F894DEBF0FBECDBFDF91CF9180
:103970001F910F91FF90EF90DF90CF90BF909F909D
:103980008F900895DF92EF92FF920F931F9340E084
:1039900060E00E944907D82E0E942D067B018C0111
:1039A00081E090E002C0880F991FDA94E2F70E944C
:1039B0008507AC0180910204909103048E0D9F1D38
:1039C00060911A0170911B010E94603C1F910F9140
:1039D000FF90EF90DF90089540E060E00E9449077B
:1039E00021E030E002C0220F331F8A95E2F7822FD8
:1039F0000E94850760E00E94EA0D089540E060E0C3
:103A00000E94490721E030E002C0220F331F8A954F
:103A1000E2F7822F0E9485079093610480936004EF
:103A2000089540E060E00E94490721E030E002C0D4
:103A3000220F331F8A95E2F7822F0E948507E091BB
:103A40000204F0910304E80FF91F8081882349F0F4
:103A50008091600490916104019690936104809339
:103A600060040895DF92EF92FF920F931F9340E05E
:103A700060E00E944907D82E809160049091610413
:103A8000FC01E054FB4F0081019690936104809308
:103A90006004112747E067E0802F0E944907E82E65
:103AA00046E060E0802F0E944907182F81E090E0F7
:103AB00002C0880F991FDA94E2F70E948507FF245D
:103AC0009C01A701612F80E00E94210D1F910F91A1
:103AD000FF90EF90DF900895BF92CF92DF92EF9228
:103AE000FF920F931F93CF93DF93CDB7DEB7289745
:103AF0000FB6F894DEBF0FBECDBF809160049091E9
:103B00006104FC01E054FB4F008101969093610435
:103B100080936004112747E067E0802F0E944907E7
:103B2000E82E46E064E0802F0E944907B82E43E06B
:103B300063E0802F0E944907D82E42E060E0802F8A
:103B40000E944907C82E01E010E0C80102C0880F9A
:103B5000991FEA94E2F70E9485077C0102C0000FDA
:103B6000111FDA94E2F7802F0E94850723E0C21626
:103B700049F06C2D0E946D060B2D2C2DA7010E9483
:103B8000360B1EC0E0910204F0910304E80FF91F08
:103B900080819181A281B3818D839E83AF83B88719
:103BA0008D819E81AF81B88589839A83AB83BC83E5
:103BB00069817A818B819C810B2DA7010E94360B34
:103BC00028960FB6F894DEBF0FBECDBFDF91CF9120
:103BD0001F910F91FF90EF90DF90CF90BF900895CD
:103BE0002F923F924F925F926F927F928F929F920D
:103BF000AF92BF92CF92DF92EF92FF920F931F93FB
:103C0000CF93DF93CDB7DEB725970FB6F894DEBF1D
:103C10000FBECDBFE0916004F0916104CF01019629
:103C2000E054FB4F00811127FC01E054FB4FE08082
:103C300001969093610480936004FF2447E067E05D
:103C4000802F0E944907B82E46E064E0802F0E9432
:103C50004907382E43E063E0802F0E944907C82EB1
:103C600042E060E0802F0E944907282E42E062E097
:103C70008E2D0E944907D82E41E060E08E2D0E94D3
:103C80004907F82E23E0321609F479C0232D23705A
:103C900081E090E001C0880F2A95EAF78D8301E06A
:103CA00010E0C80102C0880F991FBA94E2F70E9481
:103CB00085073C01C80102C0880F991FCA94E2F72A
:103CC0000E9485072C0102C0000F111FDA94E2F751
:103CD000802F0E9485078C018F2D8F5F0E94030823
:103CE0006B017C01622DC2010E946D064801AA246D
:103CF000BB24681579058A059B05E8F5E3E03E16C7
:103D0000A9F0A50194010E94EC3BED812E2F3327F1
:103D1000442755270E94AD3B660E771E032D222DAA
:103D2000A301C701B6010E94360B41C0F7FC2AC0AF
:103D3000C701B6010E94963A69837A838B839C837C
:103D4000622DC2010E946D06A50194010E94EC3B08
:103D5000ED812E2F3327442755270E94AD3B660E59
:103D6000771E69817A818B819C8103E0222DA301DA
:103D70000E94360B1CC08BE00E94F60F18C084E036
:103D80008D838DCFC701B6016170707080709070A7
:103D9000F694E794D794C7946C297D298E299F299E
:103DA0000E94963A9B01AC010E949339C5CF25969B
:103DB0000FB6F894DEBF0FBECDBFDF91CF911F913C
:103DC0000F91FF90EF90DF90CF90BF90AF909F90BA
:103DD0008F907F906F905F904F903F902F900895BD
:103DE0004F925F926F927F928F929F92AF92BF920B
:103DF000CF92DF92EF92FF920F931F93CF93DF93B7
:103E0000CDB7DEB728970FB6F894DEBF0FBECDBF93
:103E1000E0916004F0916104CF010196E054FB4F02
:103E200000811127FC01E054FB4FE0800196909344
:103E3000610480936004FF2447E067E0802F0E94C4
:103E40004907D82E46E064E0802F0E944907682E7B
:103E500043E063E0802F0E944907B82E42E060E013
:103E6000802F0E944907582E44E064E08E2D0E9466
:103E70004907882E43E063E08E2D0E944907982E63
:103E800042E060E08E2D0E944907782E23E0621602
:103E900009F488C0262D237081E090E0482E01C0EF
:103EA000440C2A95EAF701E010E0C80102C0880F2F
:103EB000991FDA94E2F70E9485076C01C80102C0DD
:103EC000880F991FBA94E2F70E9485075C01C80128
:103ED00002C0880F991F8A94E2F70E9485077C012F
:103EE00002C0000F111F9A94E2F7802F0E948507ED
:103EF0004C01652DC5010E946D06002711276E1526
:103F00007F058007910708F049C023E07216B1F0E1
:103F1000A80197010E94EC3B242D33274427552705
:103F20000E94AD3BC60ED71E672DC4010E946D06D0
:103F3000062D272DA6010E94360B37C0E091020402
:103F4000F0910304E80DF91D80819181A281B38174
:103F50008D839E83AF83B8878D819E81AF81B88525
:103F600089839A83AB83BC83652DC5010E946D064E
:103F7000A80197010E94EC3B242D332744275527A5
:103F80000E94AD3BC60ED71E69817A818B819C81D0
:103F9000062D23E0A6010E94360B07C08BE00E948D
:103FA000F60F03C0F4E04F2E7ECF28960FB6F8949C
:103FB000DEBF0FBECDBFDF91CF911F910F91FF905C
:103FC000EF90DF90CF90BF90AF909F908F907F90B9
:103FD0006F905F904F9008952F923F924F925F9213
:103FE0006F927F928F929F92AF92BF92CF92DF9209
:103FF000EF92FF920F931F93CF93DF93CDB7DEB76E
:1040000025970FB6F894DEBF0FBECDBF40E060E04D
:104010000E944907A82E8091600490916104FC01E0
:10402000E054FB4F008101969093610480936004FB
:10403000112747E067E0802F0E944907B82E46E02D
:1040400064E0802F0E944907282E43E063E0802F20
:104050000E944907C82E42E060E0802F0E94490775
:10406000382E83E0281609F477C0222D237081E0D2
:1040700090E001C0880F2A95EAF78D8301E010E0F7
:10408000C80102C0880F991FBA94E2F70E94850701
:104090002C01C80102C0880F991FCA94E2F70E9440
:1040A00085073C0102C0000F111FAA94E2F7802F80
:1040B0000E9485074C01AA24BB24632DC3010E94E2
:1040C0006D06681579058A059B0508F041C083E0F7
:1040D0002816E9F00E942D066B017C01632DC301B7
:1040E0000E946D06A50194010E94EC3BED812E2FEC
:1040F0003327442755270E94AD3B460E571E022DFD
:1041000026E0A201C701B6010E94360B28C00E941A
:104110005D0669837A838B839C83632DC3010E9430
:104120006D06A50194010E94EC3BED812E2F3327F3
:10413000442755270E94AD3B460E571E69817A8160
:104140008B819C8103E023E0A2010E94360B07C013
:104150008BE00E94F60F03C0E4E0ED838FCF25963D
:104160000FB6F894DEBF0FBECDBFDF91CF911F9188
:104170000F91FF90EF90DF90CF90BF90AF909F9006
:104180008F907F906F905F904F903F902F90089509
:104190000F931F93182F43E063E00E944907082FF5
:1041A00042E060E0812F0E94490780916004909175
:1041B0006104FC01E054FB4F10810196909361046F
:1041C0008093600481E090E002C0880F991F0A95F7
:1041D000E2F70E948507AA27BB27AC01BD01812F0A
:1041E0000E94D01A1F910F910895DF92EF92FF92D3
:1041F0000F931F93CF93DF93CDB7DEB728970FB6FA
:10420000F894DEBF0FBECDBF182F42E060E00E94E1
:104210004907D82E43E063E0812F0E944907082F09
:1042200045E064E0812F0E944907182F81E090E06B
:1042300002C0880F991F0A95E2F70E9485077C014A
:10424000812F8F5F0E94030823E0D21631F00D2DDD
:1042500026E0A7010E94360B14C069837A838B8302
:104260009C8389819A81AB81BC818D839E83AF833E
:10427000B8876D817E818F81988503E0A7010E94B8
:10428000360B28960FB6F894DEBF0FBECDBFDF9178
:10429000CF911F910F91FF90EF90DF900895AF9213
:1042A000BF92CF92DF92EF920F931F935B016C014D
:1042B0008091390481FF03C08D7F809339040E946F
:1042C0006105AB01BC01A1E0EA2E9601850183E006
:1042D0000E9442051F910F91EF90DF90CF90BF9009
:1042E000AF900895AF92BF92CF92DF92EF920F936B
:1042F0001F935B016C010E946105AB01BC01B1E041
:10430000EB2E9601850185E00E9442051F910F91D9
:10431000EF90DF90CF90BF90AF900895AF92BF9293
:10432000CF92DF92EF920F931F935B016C010E947B
:104330006105AB01BC0111E0E12E9601850180E031
:104340000E9442051F910F91EF90DF90CF90BF9098
:10435000AF90089580914B01843029F0853061F051
:10436000813089F0089560919202709193028827BC
:1043700099270E948E21089561E070E080E090E02E
:104380000E948E21089580911E0481FDEBCF90E064
:1043900080911F028F31B0F4992369F080919202CD
:1043A00090919302892B81F460E07AE080E090E0C4
:1043B0000E948E21089560E870E080E090E00E9405
:1043C0008E21089591E0E8CF6EE170E080E090E00A
:1043D0000E948E210895AF92BF92CF92DF92EF920A
:1043E0000F931F935B016C010E946105AB01BC013F
:1043F00001E0E02E9601850186E00E9442051F91B2
:104400000F91EF90DF90CF90BF90AF900895AF9253
:10441000BF92CF92DF92EF920F931F935B016C01DB
:104420008091300481FF03C08D7F809330040E940F
:104430006105AB01BC0181E0E82E9601850182E0B7
:104440000E9442051F910F91EF90DF90CF90BF9097
:10445000AF900895EF92FF920F931F93CF93DF9346
:104460007A018B01A901C0910204D091030420912B
:104470007D0330917E03C20FD31F9C01220F331F97
:10448000280F391F220F331FC20FD31F80911E0127
:1044900090911F01AA2797FDA095BA2FE81AF90A53
:1044A0000A0B1B0B17FD1CC0FE01E192F192019358
:1044B00011934183852F99278C83CE010E94C007D9
:1044C000892B91F08FEFE8168FEFF8068FEF080732
:1044D0008FE7180749F0C801B7010E94072204C0FE
:1044E000EE24FF248701E0CFDF91CF911F910F9140
:1044F000FF90EF900895CF92DF92EF92FF920F938B
:104500001F938091600490916104FC01E054FB4F83
:10451000008101969093610480936004112741E02B
:1045200061E0802F0E944907E82E40E060E0802F84
:104530000E944907D82E46E064E0802F0E94490778
:10454000C82E01E010E0C80102C0880F991FEA944C
:10455000E2F70E9485077C0102C0000F111FDA9468
:10456000E2F7802F0E9485078C010E942D064C2DBA
:104570000E94E707AB01BC019801C7010E942A22F3
:104580001F910F91FF90EF90DF90CF9008959F9231
:10459000AF92BF92CF92DF92EF92FF920F931F9351
:1045A0008091600490916104FC01E054FB4F008114
:1045B00001969093610480936004112747E065E0C1
:1045C000802F0E944907982E44E063E0802F0E94CC
:1045D0004907A82E42E062E0802F0E944907C82EBA
:1045E00041E061E0802F0E944907E82E40E060E052
:1045F000802F0E944907B82E01E010E0C80102C0D8
:10460000880F991FCA94E2F70E9485076C01C801C0
:1046100002C0880F991FEA94E2F70E9485077C0187
:1046200002C0000F111FBA94E2F7802F0E94850785
:104630008C016A2DC7010E946D06492D0E94E70773
:10464000AB01BC019801C6010E942A221F910F9163
:10465000FF90EF90DF90CF90BF90AF909F90089524
:104660009F92AF92BF92CF92DF92EF92FF920F9301
:104670001F938091600490916104FC01E054FB4F12
:10468000008101969093610480936004112743E0B8
:1046900063E0802F0E944907E82E42E061E0802F0E
:1046A0000E944907D82E40E060E0802F0E94490711
:1046B000982E01E010E0C80102C0880F991FEA940B
:1046C000E2F70E9485075C018D2D8F5F0E94030831
:1046D0006B017C0102C0000F111F9A94E2F7802F3A
:1046E0000E9485079C01B701A601C5010E942A22EC
:1046F0001F910F91FF90EF90DF90CF90BF90AF9000
:104700009F9008954F925F926F927F928F929F92A7
:10471000AF92BF92CF92DF92EF92FF920F931F93CF
:10472000CF93DF93CDB7DEB72A970FB6F894DEBFED
:104730000FBECDBF81E08093460180931901B3E0A5
:104740004B2E512C4C0E5D1E61E0C2010E94690C83
:10475000892B09F4DBC39B8180911901981711F013
:10476000909319012D813E812115310569F38091C6
:104770001401882349F73093610420936004A2E078
:104780006A2E712C6C0E7D1EB3014E010894811CA3
:10479000911CC4010E94F00599819130A9F2809189
:1047A0001401882389F6FA80892F9927AA27BB2725
:1047B000FC013297EF3BF10528F5E559FF4FEE0F6D
:1047C000FF1F0590F491E02D099442E060E08F2DE9
:1047D0000E944907182F0E942D06DC01CB011330DF
:1047E00009F434C3143008F447C3153009F483C303
:1047F000153008F46BC3163029F466E00E946D068C
:104800000E941810B301C5CF8F2D0E943C10B30138
:10481000C0CF8F2D0E94F520B301BBCF8F2D0E94FA
:10482000C820B301B6CF8F2D0E94CB1BB301B1CFEF
:1048300043E063E08F2D0E947907182F42E060E08B
:104840008F2D0E944907082F812F0E948507033072
:1048500009F4FCC2602F0E946D060E941810B3017B
:1048600098CF0091190142E061E08F2D0E94490725
:10487000182F40E060E08F2D0E9479070E94850785
:104880009C0140E050E06FEF802F810F0E94210DCE
:10489000B3017FCF42E062E08F2D0E947907082F9D
:1048A00041E061E08F2D0E947907182F40E060E021
:1048B0008F2D0E947907D82E802F0E9485077C01BA
:1048C000812F0E9485078C018D2D0E9485072091E4
:1048D000020430910304020F131FA701B801820FD5
:1048E000931F0E94603CB30154CF42E060E08F2DE3
:1048F0000E944907082F0E942D066B017C0103309E
:1049000009F4CAC20E942D0626E0A6010E94360BB9
:10491000B3013FCF41E060E08F2D0E944907182F7F
:104920000E942D066B017C01612FC6010E946D065D
:104930006150704080409040012F212FA6010E94BD
:10494000360BB30126CF41E060E08F2D0E9449076E
:10495000182F0E942D066B017C01612FC6010E9459
:104960006D066F5F7F4F8F4F9F4F012F212FA60145
:104970000E94360BB3010DCF41E061E08F2D0E9404
:104980007907082F40E060E08F2D0E947907182FEB
:10499000802F0E9485077C01812F0E94850720912E
:1049A00002043091030460911A0170911B01AC0163
:1049B000C701820F931F0E94603CB301EACE41E021
:1049C00060E08F2D0E9449072091600430916104BE
:1049D000F901E054FB4F10812F5F3F4F309361048A
:1049E000209360048F5F0E940308AB01BC01812FFC
:1049F0000E94D01AB301CDCE41E061E08F2D0E941C
:104A00007907082F40E060E08F2D0E947907182F6A
:104A1000802F0E9485076C01812F0E9485075C0111
:104A20002091170130911801121613060CF0EACEEE
:104A3000E1E0EE2EF12C04E010E009C00894E11C46
:104A4000F11C0C5F1F4F2E153F050CF4DBCEE091DF
:104A50002401F0912501E00FF11F828193818C15D3
:104A60009D0560F3A816B90648F36E2D80E090E02E
:104A70000E94690C0894E108F1080450104020914C
:104A8000170130911801DACF41E061E08F2D0E94CB
:104A90007907182F40E060E08F2D0E947907F82EEB
:104AA000812F0E9485078C018F2D0E948507000FA2
:104AB000111F2091260130912701200F311FE09115
:104AC000490CF0914A0CE20FF31F9183808380918F
:104AD000390481FD97CE62E070E080E090E00E94B2
:104AE0004F21B30156CE41E061E08F2D0E9479073E
:104AF000082F40E060E08F2D0E947907182F802F4B
:104B00000E9485077C01812F0E9485078C010E94ED
:104B10002D06611571058105910509F0A7C1109356
:104B2000610400936004B30134CE41E061E08F2D55
:104B30000E947907082F40E060E08F2D0E947907DE
:104B4000182F802F0E9485077C01812F0E948507E6
:104B5000AC01892B09F456CE20E030E0E0E0F0E033
:104B6000EE0DFF1D8091020490910304E80FF91FE0
:104B700010822F5F3F4FF9012417350789F7B301E2
:104B800008CE8F2D0E941715B30103CE8F2D0E94E2
:104B90009512B301FECD8F2D0E94321DB301F9CDC8
:104BA0008F2D0E94111DB301F4CD8F2D0E94FE1C8C
:104BB000B301EFCD8F2D0E94EC1CB301EACD8F2DF8
:104BC0000E94C21CB301E5CD8F2D0E94151CB301BC
:104BD000E0CD8F2D0E94EC1FB301DBCD8F2D0E9405
:104BE000F01EB301D6CD8F2D0E94F01DB301D1CDA3
:104BF0008F2D0E946C1DB301CCCD8F2D0E943023D0
:104C0000B301C7CD8F2D0E94C722B301C2CD8F2D16
:104C10000E947B22B301BDCD8F2D0E94B61BB30134
:104C2000B8CD8F2D0E94A11BB301B3CD8F2D0E9453
:104C30008911B301AECD8F2D0E94F514B301A9CD1A
:104C40008F2D0E94D314B301A4CD8F2D0E94B114D7
:104C5000B3019FCD8F2D0E948F14B3019ACD8F2D5C
:104C60000E946D14B30195CD8F2D0E944B14B3019A
:104C700090CD8F2D0E943414B3018BCD8F2D0E94C7
:104C80001D14B30186CD8F2D0E940614B30181CD72
:104C90008F2D0E94EF13B3017CCD8F2D0E94E9135D
:104CA000B30177CD0E942D06B30173CD8F2D0E94E5
:104CB0006011B3016ECD8F2D0E943311B30169CD08
:104CC0008F2D0E941311B30164CD8F2D0E94F3101C
:104CD000B3015FCD8F2D0E94D310B3015ACD8F2D1C
:104CE0000E94B310B30155CD8F2D0E949310B301D4
:104CF00050CD0E942D067B018C010E942D0620E0E4
:104D000030E040E050E0E616F7060807190709F41E
:104D1000BEC0CA01B9010E941810B3013ACD0E9469
:104D20002D067B018C010E942D06E626F72608271A
:104D30001927C801B7010E941810B3012ACD0E949B
:104D40002D067B018C010E942D0604C01595079548
:104D5000F794E7946A95D2F7C801B7010E9418103A
:104D6000B30117CD0E942D067B018C010E942D06F8
:104D700004C0EE0CFF1C001F111F6A95D2F7C8017A
:104D8000B7010E941810B30104CD0E942D067B01CB
:104D90008C010E942D06E622F72208231923C80160
:104DA000B7010E941810B301F4CC0E942D067B01BC
:104DB0008C010E942D06E62AF72A082B192BC80120
:104DC000B7010E941810B301E4CC0E942D067B01AC
:104DD0008C010E942D069B01AC01611571058105B6
:104DE0009105D1F560E070E080E090E00E9418103D
:104DF0008AE00E94F60FB301CCCC0E942D067B0105
:104E00008C010E942D069B01AC01C801B7010E94D4
:104E1000AD3B0E941810B301BCCC8F2D0E949F1295
:104E2000B301B7CC8F2D0E947C10B301B2CC8F2D73
:104E30000E946510B301ADCC8F2D0E945910B301B3
:104E4000A8CC8F2D0E944510B301A3CC0E94F00E78
:104E50000E94C513B3019DCCC801B7010E940E3C4E
:104E6000CA01B9010E941810B30193CCF0926104F9
:104E7000E0926004B3018DCC1130A1F11230E0F06A
:104E800062E00E946D060E941810B30182CC21E0FE
:104E900030E040E050E03DCF0E945D066F837887B0
:104EA00089879A876F81788589859A8523E0A6010D
:104EB0000E94360BB3016DCC60E00E946D0677272F
:104EC000882799270E941810B30163CC64E00E94E0
:104ED0006D06772767FD7095872F972F0E94181012
:104EE000B30157CC61E00E946D06882799270E9484
:104EF0001810B3014ECC65E00E946D06882777FD3F
:104F00008095982F0E941810B30143CC109246014F
:104F10000E94250380E090E02A960FB6F894DEBF49
:104F20000FBECDBFDF91CF911F910F91FF90EF90FA
:104F3000DF90CF90BF90AF909F908F907F906F90B9
:104F40005F904F9008950F931F932091000130912F
:104F500001012093EC03232F33272093EB038130AF
:104F6000E1F11092140160E070E081E00E943D06E2
:104F70000E9461056093B6047093B7048093B804EF
:104F80009093B90480911401882399F580EC94E002
:104F900090932501809324018091990490919A0423
:104FA000880F991F880F991F8C539B4F909327014F
:104FB00080932601909303048093020420915F0163
:104FC0003091600140E050E06FEF81E00E94210DE0
:104FD00080E090E00E9482230CC000915A010023DF
:104FE00009F4BFCF10E00E9499091F5F0117D9F79C
:104FF000B8CF1F910F9108956F927F928F929F92D9
:10500000AF92BF92CF92DF92EF92FF920F931F93D6
:10501000CF93DF93CDB7DEB76C970FB6F894DEBFB2
:105020000FBECDBF4B015C01CC24DD24E6E1F4E0F2
:10503000608561FF13C02081318142815381E4800A
:10504000F58006811781D501C401821B930BA40B47
:10505000B50B8E159F05A007B10748F40894C11C35
:10506000D11C399628E0C216D10411F727C260FF7F
:10507000ACC06D7F608723E0C21609F43FC12C15D8
:1050800008F4ACC0CC2009F421C182E0C81609F0B4
:1050900015C20E9461059B01AC01E090B604F0903E
:1050A000B7040091B8041091B9046093B6047093EA
:1050B000B7048093B8049093B904C0902601D090AF
:1050C000270180917D0390917E03C80ED91E81E057
:1050D00080931901E0912001F0912101309709F4AA
:1050E000EDC12E193F09400B510B79018A018081D6
:1050F0009181A281B381281739074A075B070CF019
:10510000B9C16FEF862E6FEF962E6FEFA62E6FE769
:10511000B62E109221011092200120916603309149
:1051200067032115310591F16624772480E090E032
:10513000FC01EE0FFF1FE80FF91FEE0FFF1FEC0D34
:10514000FD1D84819581892BD9F080819181A28177
:10515000B38188169906AA06BB0609F46AC18E199E
:105160009F09A00BB10B80839183A283B383B7FD0A
:1051700060C1CF010E94C007209166033091670390
:10518000C30101963C018217930790F280E090E002
:105190000E94822310921F0110921E01E0912001B3
:1051A000F0912101309709F489C160817181828178
:1051B00093816F3FEFEF7E07EFEF8E07EFE79E07DC
:1051C00009F47CC10E94072279C12E0D3F1D401FAA
:1051D000511F20833183428353834DCFA5E0CA16EC
:1051E00009F488C0CA1608F420C1B6E0CB1609F04D
:1051F00065C180916F0C9927982F88272091700C9A
:105200003327822B932B2091490130914A01820F41
:10521000931F0E94AF058823F1F180915D019927CA
:10522000982F882720915E013327822B932B8A8326
:10523000892F9927898320916F0C3327322F2227BA
:105240008091700C9927282B392B809149019091DE
:105250004A01280F391F2C83832F99278B83F9014B
:10526000EE0FFF1FE20FF31FEE0FFF1FEE0FFF1FEA
:10527000EE0FFF1FE054FB4F20E030E0DE011596FB
:1052800081918D932F5F3F4F28313105C9F7CE01B2
:1052900001960E94A40E8091490190914A010196C5
:1052A00090934A0180934901209161013327322F65
:1052B0002227409162015527242B352B8217930713
:1052C00008F4F6C081E080932901F8C08FB7F89404
:1052D000082F1127F02E80914B01843009F4B5C0BE
:1052E000853009F4BCC0813009F4CEC00E94AA21E7
:1052F000FFBEE4C081E00E94FD02E0C000912601F3
:10530000109127014091490C50914A0C6091E7039C
:105310007091E8036115710509F4D0C0D801A40F9C
:10532000B51F8D919C911197892B09F044C020E005
:1053300008C0EE0FFF1FEA0FFB1F80819181892BB0
:10534000D1F52F5FE22FFF27E617F70790F39801BB
:10535000CA016B014901880E991EA0902201B090EC
:105360002301C501B6010E94D83B7C018C01000FCE
:10537000111F080D191DD8012D913C9121153105E2
:1053800089F5E0E0F0E012C0CF018A0D9B1DB60167
:105390000E94D83B7C018C01000F111F080D191DC4
:1053A000D8012D913C9121153105E1F43196CE16AD
:1053B000DF0651F783C062E070E080E090E00E9479
:1053C0004F2120912601309127018091490C909125
:1053D0004A0CC090E703D090E803C114D10409F04F
:1053E000B9CF6CC040E050E06FEF81E00E94210D2A
:1053F000F801118210826091E7037091E803C70100
:1054000001960E94D83B90932301809322018091C2
:105410001E0190911F01019790931F0180931E011F
:1054200080E090E00E94822349C084E00E94FD0257
:1054300045C01192119211921192CF010E94D00D8C
:1054400020916603309167039BCE85E080934B01EA
:105450001092400C69E380E00E94BF0247CF0E9497
:10546000EB0283E00E94641580E590E00197F1F77C
:105470000FBF24C04C015D01C9018819990990939F
:105480001F0180931E0145CE90E080915C01833026
:1054900009F491E0992309F029CF80912C018430FF
:1054A00019F085E080932C0181E00E9464151ECFE5
:1054B0006CE271E080E090E00E94EB218EE00E94BF
:1054C000FD026C960FB6F894DEBF0FBECDBFDF9124
:1054D000CF911F910F91FF90EF90DF90CF90BF90F1
:1054E000AF909F908F907F906F900895AF92BF92F2
:1054F000CF92DF92EF920F931F9340914503552770
:105500006AE473E087E292E00E94603C8091490384
:105510009927E82F882361F08FB7F8949927FF2700
:10552000E770F070EE5CFE4F2081209304048FBF83
:1055300010914503209146033327322F2227809173
:1055400047039927282B392B809144038093260207
:1055500020932102232F3327209320020E94D60478
:1055600080932302892F99278093220282E28093DD
:1055700025028FB7F894282F332790915B0191FD76
:1055800052C080915C01882309F44DC092609093D1
:105590005B011093240280E292E09093CC0D809303
:1055A000CB0D1092490210924D0210924C021092B3
:1055B0004B0280E880934A022FBF1FB7F894909166
:1055C0009C04926090939C0480914B01843009F478
:1055D0005EC090FF4EC081E090E09093980480936D
:1055E0009704809146029927782F66278091470279
:1055F0009927682B792B77FD47C0609192027091B3
:105600009302E6E4F2E01182109246026115710500
:10561000F9F466E070E07093420C6093410C812FC6
:1056200099278FBF3AC02FBFA090E203B090E30349
:10563000C090E403D090E5030E946105AB01BC017A
:10564000A1E0EA2E9601850184E00E94420525C072
:105650008827992726E632E040E050E00E94AD3BE3
:10566000672F782F892F99276A5E7F4F8F4F9F4F23
:10567000D2CF0E942A036F7170706F5F7F4F70935B
:10568000980460939704ADCF60957095BACF87E08A
:105690000E94FD0290919C049CCF1F910F91EF906E
:1056A000DF90CF90BF90AF9008956F927F928F92CE
:1056B0009F92AF92BF92CF92DF92EF92FF920F93A1
:1056C0001F93CF93DF93CDB7DEB7E4970FB6F8946F
:1056D000DEBF0FBECDBFE82FFF27E331F10510F08D
:1056E0000C947A34E65DFE4FEE0FFF1F0590F491A7
:1056F000E02D09941FB7F89480919C0481FDE0C2CD
:105700008091920290919302892B09F4D9C290E082
:1057100080911F028F3108F091E0992309F4CEC2E5
:1057200090E080915C01833009F4B5C6992309F0BB
:10573000C5C20E94810981E080935C016F98B89A8C
:10574000C09880912C01843019F085E080932C0161
:1057500084E080934B010E94AA2120E0812F9927A9
:105760008FBF222311F40C947A340E94DB0F0C9427
:105770007A3480911401813009F478C380915A0100
:10578000882311F40C947A3480914601882311F017
:105790000C947A340E949909972E5C014091470C31
:1057A0005091480CC0900204D0900304F601E40F1D
:1057B000F51F21812095221F2227221F83E0821BB3
:1057C000282FE090E903F090EA0300E010E023C006
:1057D000802F99278E159F0518F5818199278F773E
:1057E000907033273C01629EC001639E900D729EB3
:1057F000900D11244E5F5F4F480F591FF601E40FC3
:10580000F51F21812095221F2227221F83E0821B62
:10581000282F0F5F1F4F8081A82FBB276A17C1F663
:105820006A1709F477C480E00E94FD020C947A3470
:105830000E94D009109209041092080410912901C5
:10584000123009F488C2133009F4E6C2113011F0A5
:105850000C947A34809148018F5F809348018330A3
:1058600008F085C474EFE72E71E0F72E012D112D9D
:1058700081E089831B821A8280916F0C9927982F6F
:1058800088272091700C3327822B932B8D83892FAF
:1058900099278C838FEF8093A7038093A603CE0173
:1058A00001960E947F0EC801B7010E9472210C94DC
:1058B0007A3480915001882309F416C290914E01E8
:1058C00082E2989FF0011124ACE4BCE0E856FD4F61
:1058D00001900D928150E1F78CE49CE00E94900AC7
:1058E00080914C0C9927813A09F4C3C2823A09F499
:1058F00050C3803A09F449C48CE49CE00E94900AA9
:1059000082E00E94FD020C947A3480917F038F5FC5
:1059100080937F0384E493E00E94F00A882309F0D7
:10592000E8C180914403813A61F0823A51F0803AB3
:1059300041F08C3810F40C947A34863910F00C94C1
:105940007A340E94762A0C947A3480917F038530D1
:1059500030F084E493E00E94C00A10927F0383E059
:105960000E94FD020C947A340E9437090C947A3418
:105970000E944D130C947A3480918103882309F49A
:10598000BDC10E9461050E94FC27B4C70E94610549
:105990005B016C018FB7F8949927109207048FBFB1
:1059A0002FEFE22E2FEFF22E2FEF022F2FE7122FE5
:1059B00060E0E6E1F4E0808581FF1AC0808191819A
:1059C000A281B38124813581468157813501460109
:1059D000681A790A8A0A9B0A261937094809590957
:1059E0002E153F05400751071CF479018A0161E03B
:1059F000399624E0EE35F207F1F6662309F47AC70A
:105A00001E141F04100611060CF097C2E092BC048D
:105A1000F092BD040093BE041093BF0481E0809314
:105A20008103A8019701C601B5010E94E20862C77F
:105A300080915001882309F45DC782E00E94FD0235
:105A400059C78FB7F89499272091AA033091AB03D7
:105A50008FBF80911702E82FFF27EE0FFF1FE35340
:105A6000F24F318320838F5F80931702893010F0CB
:105A70001092170280911F028F3118F48F5F80936C
:105A80001F026E010894C11CD11CD601EDECFDE093
:105A900082E101900D928150E1F7FF24B3E0AB2E3B
:105AA000B12CAC0EBD1EEE24850161E070E008C093
:105AB000E62E0E5F1F4F6F5F7F4F69307105C1F09B
:105AC0004B014E2D5527FA01EE0FFF1FEC0DFD1D6A
:105AD000D8012D913C91808191818217930740F3E9
