:100000000C9434000C9451000C9451000C94510049
:100010000C9451000C9451000C9451000C9451001C
:100020000C9451000C9451000C9451000C9451000C
:100030000C9451000C9451000C9440080C947908D5
:100040000C948E080C9451000C9441070C94AD074D
:100050000C940C080C9451000C9451000C94510019
:100060000C9451000C94510011241FBECFEFD8E026
:10007000DEBFCDBF12E0A0E0B1E0E6E9FAE702C0E2
:1000800005900D92AC33B107D9F716E0ACE3B2E0BE
:1000900001C01D92A13EB107E1F70E94C3320C944A
:1000A000493D0C940000FC015FB7F89440E0877074
:1000B000907021E030E002C0220F331F8A95E2F7F2
:1000C00083E0F695E7958A95E1F7ED56FB4F808141
:1000D00090E028233923232B09F041E05FBF842FD0
:1000E0000895982F8D57823068F480915202816074
:1000F0008093520280E28927809394048DE7809355
:10010000B10302C09093B1038091640081FF02C0EB
:1001100084E008952FB7F8948091B7049091B804C3
:10012000892B19F02FBF81E0089581EB93E0909324
:10013000B8048093B70481E090E09093BA04809370
:10014000B9041092BC041092BB048091C10080627B
:100150008093C1002FBF80E0089580915B02E82F5B
:10016000F0E0EE0FFF1FEE0FFF1FE054FB4F60812A
:1001700071813281938120915D02222351F08F5F42
:1001800080935B02863011F410925B022150209321
:100190005D02832F0895982F2FB7F894E82FF0E091
:1001A000E256FC4F80818F3F99F4E091DE06E9171B
:1001B00079F080915E058F3F19F490935E0504C03D
:1001C000F0E0E256FC4F90839093DE0680E001C0A1
:1001D00085E02FBF0895282F90915D029630D8F4C6
:1001E00080915C02E82FF0E0EE0FFF1FEE0FFF1F83
:1001F000DF01AE53BB4F4D935C93E054FB4F6183E3
:1002000020838F5F80935C02863011F410925C0231
:100210009F5F90935D0280913C02882311F40E94BD
:10022000CB000895FA01813971F42093D80388E254
:10023000608148ED53E00E94EB0089E260E048ED08
:1002400053E00E94EB000895982F80914D0288237F
:10025000A1F5992391F581E080934D0280912B01C6
:1002600080934E0220914202217020937703809167
:100270003001909131019093500280934F02809110
:1002800043028093510290E0222309F491E080918F
:100290004202867EE92FF0E0EE0FFF1FE45DFE4F85
:1002A000208131813093310120933001892B80935B
:1002B00042028AE00E94CB0008958091420280FFB2
:1002C00002C08B7F01C08D7F809342020895EF9220
:1002D000FF920F931F93F82F7A018B019FB7F89429
:1002E000209108043091090440910A0450910B04B4
:1002F00086B5A89B05C02F5F3F4F4F4F5F4F86B518
:100300009FBFE9E0FE9FF0011124ED5EFB4F829557
:100310008F7090E0A0E0B0E064E0220F331F441F34
:10032000551F6A95D1F7822B932BA42BB52BA0E0F8
:10033000B0E080839183A283B383E482F582068355
:1003400017838085836080878FE00E94CB001F9198
:100350000F91FF90EF900895682F8093E90390919B
:100360005D029630F8F480915C0220E030E040E0DD
:1003700050E0362F49EE53E0E82FF0E0EE0FFF1F7C
:10038000EE0FFF1FE054FB4F2083318342835383E2
:100390008F5F80935C02863011F410925C029F5F45
:1003A00090935D0290915D029630F8F480915C022A
:1003B00021E030E040E050E030E049EE53E0E82F4B
:1003C000F0E0EE0FFF1FEE0FFF1FE054FB4F208306
:1003D0003183428353838F5F80935C02863011F4B4
:1003E00010925C029F5F90935D0280913C02882393
:1003F00011F40E94CB0008959B01AC01E09115011E
:10040000F09116013497F0931601E0931501809155
:100410001004909111048E179F0738F4EA51FB4F96
:100420002083318342835383089584E10E94AC0189
:1004300081E08093140108959B01AC01E0911501C6
:10044000F09116013497F0931601E0931501809115
:100450001004909111048E179F0738F4EA51FB4F56
:100460002083318342835383089584E10E94AC0149
:1004700081E0809314010895623009F44DC0633027
:1004800028F4662379F0613041F416C0653091F1AB
:10049000663009F441C06430F9F020E030E040E01B
:1004A00050E067C0E091FC03F091FD03E80FF91FF5
:1004B0008081282F30E00DC0E091FC03F091FD0316
:1004C000E80FF91F908180E0218130E0822B932B8F
:1004D0009C0140E050E04DC0E091FC03F091FD0331
:1004E000E80FF91F8081282F332727FD3095432FF0
:1004F000532F3FC0E091FC03F091FD03E80FF91F7B
:10050000908180E0218130E0822B932B9C01442755
:1005100037FD4095542F2DC0E091FC03F091FD0371
:10052000E80FF91F808190E0A0E0B0E0582F442749
:1005300033272227818190E0A0E0B0E0DC019927F9
:100540008827282B392B4A2B5B2B838190E0A0E056
:10055000B0E0282B392B4A2B5B2B828190E0A0E066
:10056000B0E0BA2FA92F982F8827282B392B4A2B98
:100570005B2BB901CA0108950F931F93CF93DF93AB
:10058000122F032F9C01220F331F280F391F220F18
:10059000331F8091AF039091B003820F931FC091DE
:1005A000FC03D091FD03C80FD91F80911E019091CB
:1005B0001F01AA2797FDA095BA2F481B590B6A0B5C
:1005C0007B0B77FF04C040E050E060E070E0FE018C
:1005D000419351936193719311830C83E0912001B6
:1005E000F0912101309791F00081118122813381B6
:1005F000011511052105310549F088819981AA81EC
:10060000BB8180179107A207B307B4F4D0932101EF
:10061000C09320014F3F8FEF58078FEF68078FE798
:10062000780751F080911B0481FF03C08D7F809378
:100630001B0480E00E946701DF91CF911F910F9111
:100640000895EF92FF920F931F939FB7F894209114
:1006500008043091090440910A0450910B0486B5B6
:10066000A89B05C02F5F3F4F4F4F5F4F86B59FBF81
:1006700082958F7090E0A0E0B0E014E0220F331F6D
:10068000441F551F1A95D1F7822B932BA42BB52B02
:100690007C0100E010E02091ED033091EE034091E9
:1006A000EF035091F0038091E5039091E603A09150
:1006B000E703B091E803820F931FA41FB51FE21652
:1006C000F3060407150730F082179307A407B50750
:1006D00058F005C082179307A407B507C8F5E816B8
:1006E000F9060A071B07A0F59C01AD012E193F0969
:1006F000400B510B293031054105510568F188E067
:1007000090E0A0E0B0E0E80EF91E0A1F1B1FE09287
:10071000ED03F092EE030093EF031093F00388EFE4
:100720009FEFAFEFBFEFE80EF91E0A1F1B1F285007
:100730003040404050402093E5033093E60340931F
:10074000E7035093E80328E030E040E050E014C0B5
:1007500020E030E040E050E08093ED039093EE0322
:10076000A093EF03B093F0031092E5031092E60319
:100770001092E7031092E8038E2D8295807F2295D8
:10078000207F280F96B5981718F4281718F007C07F
:10079000281710F0921718F4291B922F01C090E02F
:1007A00086B58E5F890F8093F90387BDA99A8091E2
:1007B0006E00826080936E001F910F91FF90EF900A
:1007C00008951F931FB7F8948091DD06882341F4A4
:1007D00085E00E94CB00882319F481E08093DD0638
:1007E0001FBF1F9108958091520280FF2AC08E7F03
:1007F00080935202809194048093B10380916400AD
:1008000081FD37C12FB7F8948091B7049091B80457
:10081000892BA9F481EB93E09093B8048093B704FB
:1008200081E090E09093BA048093B9041092BC04E4
:100830001092BB048091C10080628093C1002FBFE1
:10084000089580919204843009F4C1C0853048F441
:10085000823039F1833008F054C0813009F004C18E
:100860000DC0863009F4C1C0863008F4B7C08730A7
:1008700009F4F2C0883009F0F7C0F1C08091EC03B0
:100880000E947100582F83E0809392042091E0062B
:1008900030E09091DF0680E0282B392B8091EC032B
:1008A00012C080915F050E947100582F83E08093F1
:1008B00092042091E00630E09091DF0680E0282B42
:1008C000392B80915F0590E028273927822F829568
:1008D0008F7090E0822793279C01322F2227329538
:1008E000307F28273927C901907045E0880F991F6C
:1008F0004A95E1F7822793279093E0068093DF06DD
:10090000B1C0E0911204F0E0EE0FFF1FEE50FC4F7B
:1009100080810E947100582F2091E00640911204BE
:10092000642F70E030E09091DF0680E0282B392BB7
:10093000FB01EE0FFF1FEE50FC4F808190E0282757
:100940003927822F82958F7090E0822793279C0110
:10095000322F22273295307F28273927C9019070FE
:10096000E5E0880F991FEA95E1F782279327909396
:10097000E0068093DF062091E3032F5F2093E303DB
:10098000413019F580914902E0914402F09145020D
:10099000E80FF11D30818F5F8093490290914802EA
:1009A000981720F482E08093F30330E0DB01AA0F74
:1009B000BB1FFD01EF50FC4F8081823031F02F3F93
:1009C00021F0AE50BC4F3C934DC084E042C08091BA
:1009D000DF060E947100582F85E03BC08091E00641
:1009E0000E947100582F86E034C09FB7F894809120
:1009F00052028E7F809352028EE78093B1039FBF95
:100A00008091640081FF02C054E022C02FB7F894A7
:100A10008091B7049091B804892B19F02FBF51E051
:100A200017C081EB93E09093B8048093B70481E002
:100A300090E09093BA048093B9041092BC04109291
:100A4000BB048091C10080628093C1002FBF50E041
:100A500087E08093920406C088E0809392040E940D
:100A6000E1030895552329F089E0809392040E94C0
:100A7000E10308951F938091640081FD3FC01FB77B
:100A8000F8948091B7049091B804009759F0609160
:100A9000B9047091BA0441E00E94F3031092B804C3
:100AA0001092B7048091870290918802892B21F0DF
:100AB00010928802109287028091C1008F7D8093EE
:100AC000C1008091C1008F7B8093C1008091C100E3
:100AD0008F778093C1008091C1008F7E8093C10089
:100AE0008091C100877F8093C10080916400826003
:100AF0008093640081E0809328011FBF80E01F91F4
:100B00000895809192048A3021F48091D903843031
:100B100021F081E080934102089587E00E94CB009C
:100B20001092410208950F931F93182F8091D903BB
:100B30008130D9F0813038F0823009F469C08330D7
:100B400009F075C192C0112309F498C11092DD0417
:100B50001092DC041092BD041092E1041092DA03AA
:100B600010920D0410920C0486C1112309F086C165
:100B700040910D0450E090910C0480E0482B592BDB
:100B8000262F30E024273527822F82958F7090E022
:100B9000822793279C01322F22273295307F2827E6
:100BA0003927C9019070B5E0880F991FBA95E1F710
:100BB0008227932790930D0480930C0482E0809306
:100BC000D9036093E104643409F031C18091420299
:100BD000982F917080FF03C08695869501C08695F9
:100BE000817009F024C180914202992311F0846040
:100BF00001C082608093420280914202877E8860B9
:100C000080934202109243028FEF80932B0136C1F2
:100C1000112309F00CC16093DA0340910D0450E0F8
:100C200090910C0480E0482B592B262F30E024278C
:100C30003527822F82958F7090E0822793279C0121
:100C4000322F22273295307F28273927C90190700B
:100C5000F5E0880F991FFA95E1F782279327909383
:100C60000D0480930C0483E007C18091BD048F3F85
:100C700009F4DDC0112309F461C0823008F4D7C043
:100C8000E091DC04EE2311F482E002C08E2F81504B
:100C9000E82FF0E0E452FB4F9281882311F4E2E068
:100CA00002C0E82FE150392F20E0F0E0E452FB4F82
:100CB000828190E0822B932B20910C0430910D04C3
:100CC0008217930709F0B3C080E00E94240130919D
:100CD000DA03E091FE032091FF038E2F8F5F8630B1
:100CE00010F090E001C0982F921761F0F0E0E25010
:100CF000FC4F32838093FE03863010F01092FE0387
:100D00000E94E1031092DD041092DC0494E09093C1
:100D1000D9031092BD041092E1041092DA031092EC
:100D20000D0410920C04809152028D7F8093520228
:100D300080914102882309F4A1C098C0823008F450
:100D400062C0E091DD04F0E0E452FB4F328120917B
:100D50004202822F869586958695837090E0813039
:100D6000910519F00297D1F409C0277E20612093E4
:100D700042021092430230932B0110C08091430233
:100D8000833260F4E0913001F0913101E80FF11D00
:100D90003083809143028F5F8093430250910C0413
:100DA00020910D048091DD04E82FF0E0E452FB4F28
:100DB00042818F5F8093DD04833010F01092DD0458
:100DC00030E0952F80E0282B392B842F90E02827C6
:100DD0003927822F82958F7090E0822793279C017C
:100DE000322F22273295307F28273927C90190706A
:100DF00075E0880F991F7A95E1F7822793279093E2
:100E00000D0480930C048091DC04E82FF0E0E452A0
:100E1000FB4F62838F5F8093DC04833010F010926D
:100E2000DC048091BD048F5F8093BD0427C01092C5
:100E3000DD041092DC0404E00093D9031092BD0499
:100E40001092E1041092DA0310920D0410920C0437
:100E5000809152028D7F8093520281E00E94240192
:100E600080914102882329F00093D9030E948105D3
:100E700005C0112319F081E08093D9031F910F91D0
:100E800008951F920F920FB60F9211242F933F9344
:100E90004F935F936F937F938F939F93AF93BF9382
:100EA000EF93FF938091C0008091C00084FD44C007
:100EB0008091C00082FD40C06091C60080915302C5
:100EC0008823C1F06E3719F481E060E010C0809192
:100ED00052026D3721F48260809352022DC081FF4F
:100EE00005C08D7F8093520280E2682780E00E94D7
:100EF000930522C0E0918702F09188023097B9F003
:100F000080918B0290918C02E80FF91F608301960B
:100F100090938C0280938B022091890230918A02F7
:100F20008217930749F410928802109287028091E9
:100F3000C1008F778093C100FF91EF91BF91AF9176
:100F40009F918F917F916F915F914F913F912F91E1
:100F50000F900FBE0F901F9018951F920F920FB613
:100F60000F9211242F933F934F935F936F937F932F
:100F70008F939F93AF93BF93EF93FF93E091B70449
:100F8000F091B8043097E9F02091BB043091BC0493
:100F90008091B9049091BA042817390791F0E20FB3
:100FA000F31F90812F5F3F4F3093BC042093BB040D
:100FB0008091C000837A80648093C0009093C600C3
:100FC0001AC08091C1008F7D8093C100309799F045
:100FD0006091BB047091BC048091B9049091BA04F3
:100FE0006817790741F41092B8041092B704CF0142
:100FF00040E00E94F303FF91EF91BF91AF919F9169
:101000008F917F916F915F914F913F912F910F90B1
:101010000FBE0F901F9018951F920F920FB60F9250
:1010200011242F933F934F935F936F937F938F93ED
:101030009F93AF93BF93EF93FF938091C1008F7BFA
:101040008093C10080915402882349F08091C000B0
:1010500085FF05C0109254028BE00E94CB00FF91E7
:10106000EF91BF91AF919F918F917F916F915F9120
:101070004F913F912F910F900FBE0F901F90189599
:101080001F920F920FB60F9211242F933F934F93FD
:101090005F936F937F938F939F93AF93BF93EF93E0
:1010A000FF9380916E008D7F80936E008091E503A9
:1010B0009091E603A091E703B091E8030097A105A2
:1010C000B10521F48EE00E94CB0002C00E942103F2
:1010D000FF91EF91BF91AF919F918F917F916F9110
:1010E0005F914F913F912F910F900FBE0F901F90E6
:1010F00018951F920F920FB60F9211248F93EF93B2
:10110000FF93EEE6F0E080818B7F8083FF91EF918B
:101110008F910F900FBE0F901F9018951F920F92F6
:101120000FB60F9211248F939F93AF93BF9380912B
:10113000080490910904A0910A04B0910B0401964F
:10114000A11DB11D8093080490930904A0930A0483
:10115000B0930B04BF91AF919F918F910F900FBEF1
:101160000F901F9018950F931F93CF93DF93782FB5
:101170008901452BB9F0A0911701B0911801E091B8
:101180002401F091250141E050E009C0868197815A
:1011900034960817190709F450C04F5F5F4FA41722
:1011A000B507A4F7C0911701D09118012196D093EB
:1011B0001801C093170112C0CC0FDD1FCC0FDD1F2B
:1011C000CA0FDB1FA40FB51F8D919D910D90BC918F
:1011D000A02D88839983AA83BB83E901C230D105FE
:1011E000F4F0A0912401B09125019E013595279539
:1011F000A901440F551F440F551FFD01E40FF51FB2
:101200008081781749F0909119017917A9F289170F
:1012100031F0871720F4D0CF8181861768F2CC0F88
:10122000DD1FCC0FDD1FE0912401F0912501EC0FB3
:10123000FD1F1383028361837083DF91CF911F9120
:101240000F910895CF93DF93EC01988180E029817D
:1012500030E0282B392B2115310549F080911901F7
:101260006FEF40E050E00E94B30819821882DF91CE
:10127000CF910895AF92BF92CF92DF92EF92FF92FB
:101280000F931F93CF93DF93A62EE0912601F09149
:101290002701E80FF91F2081C22EDD24C7FCD0945E
:1012A0003FE7C322DD24B22EBB1CBB24BB1C22E0C3
:1012B000B20E8C010F5F1F4FE801EE24FF2420C007
:1012C00032E0B31639F48091260190912701800F06
:1012D000911F0EC02091260130912701F901EC0FDA
:1012E000FD1F80818A1531F4CE010196820F931F74
:1012F0000E9422090894E11CF11C0E5F1F4F2396E7
:10130000EC14FD04ECF2DF91CF911F910F91FF904F
:10131000EF90DF90CF90BF90AF900895AC01809197
:101320005A028A3010F081E008959091590282E2C9
:10133000989FF0011124E757FA4FDA0182E20D90ED
:1013400001928150E1F7809159028F5F6AE00E941B
:10135000B53C9093590280915A028F5F80935A0254
:1013600080913301813011F080E0089510923301B3
:101370008DE00E94CB0080E00895E091FC03F091A5
:10138000FD03E60FF71F938180E0248130E0282BD6
:10139000392BA3E9B2E08BE101900D928150E1F786
:1013A00081E980938D028BE180938E0220939002DD
:1013B00030938F0210929102442319F081E08093C0
:1013C000910280919104809392028DE892E00E94B4
:1013D0008E090895873129F1883118F4843149F54F
:1013E00011C0883219F0893221F505C088E290E0F9
:1013F000BA0140E004C089E290E0BA0141E00E94F5
:10140000BD090895409364058CE0642F44E655E0DF
:101410000E94EB008DE060E044E655E00E94EB00A6
:101420000895109264058FE060E044E655E00E9464
:10143000EB000895AF92BF92CF92DF92EF92FF92AE
:101440000F931F93DF93CF93CDB7DEB728970FB6D7
:10145000F894DEBF0FBECDBF6D837E838F839887E8
:101460005A01233009F07DC02D813E814F8158857E
:10147000033009F43FC0043048F40130C1F0E0917A
:10148000FC03F091FD030230E8F40AC0053009F4D2
:101490004FC0053008F440C0063009F0CAC056C03D
:1014A000AE0EBF1ECA01B9010E94C4353FC00091F3
:1014B000FC031091FD030A0D1B1DCA01B9010E9416
:1014C000C43540C08F010A0D1B1DCA01B9010E941D
:1014D000C435F8016383272F382F492F55272283DE
:1014E0009C01442755272183692F7727882799272F
:1014F00060839FC0E091FC03F091FD03EA0DFB1DAA
:1015000029833A834B835C8389819A81AB81BC8137
:1015100080839183A283B3838091FC039091FD0328
:10152000A80EB91ECA01B9010E94C439F501E0CF65
:101530000091FC031091FD030A0D1B1DCA01B901A6
:101540000E94C439F8016183708373C00091FC0369
:101550001091FD030A0D1B1DCA01B9010E94C43977
:10156000B8CF243088F4CD80DE80EF80F88403305B
:1015700089F40091FC031091FD03040F151FC701AE
:10158000B6010E94183A22C0CD80DE80EF80F88438
:10159000033091F0043048F4013069F1E091FC032C
:1015A000F091FD030230A0F522C0053021F1053095
:1015B000D0F00630F1F528C00091FC031091FD0336
:1015C000040F151FC701B6010E94663969837A832B
:1015D0008B839C8389819A81AB81BC81F801808354
:1015E0009183A283B383E091FC03F091FD03EA0DA4
:1015F000FB1DC0821EC0E091FC03F091FD03EA0DCB
:10160000FB1DC182D08215C0E091FC03F091FD0367
:10161000EA0DFB1DC382BB27AF2D9E2D8D2D82832E
:10162000C701AA27BB2781838F2D9927AA27BB270C
:10163000808328960FB6F894DEBF0FBECDBFCF9142
:10164000DF911F910F91FF90EF90DF90CF90BF90AF
:10165000AF9008950F931F93CF93DF93EC01462F24
:101660008091170190911801892B19F420E030E046
:10167000A7C02097A1F0862F90E0880F991F880FB0
:10168000991FE0912401F0912501E80FF91F808155
:101690009181A281B38188839983AA83BB8380913E
:1016A0001701909118019C01220F331F220F331F45
:1016B0006091240170912501620F731F019790932F
:1016C000180180931701C42FD0E05AC0281739079A
:1016D00031F18091240190912501F9013196EE0FAD
:1016E000FF1FEE0FFF1FE80FF91FDE0113E0AA0F27
:1016F000BB1F1A95E1F7A80FB91F90818C9198171D
:1017000039F040911901941741F0841721F407C072
:10171000918111968C91891710F42F5F3F4FA09102
:101720002401B09125018901000F111F000F111F25
:10173000AD01400F511FFA019081FB018081981784
:1017400039F040911901941749F0841729F423C006
:10175000FA019181FB0181818917E8F4CC0FDD1F2B
:10176000CC0FDD1FCA0FDB1FA00FB11F8D919D9104
:101770000D90BC91A02D88839983AA83BB83E90136
:101780009E01220F331F809117019091180182173B
:1017900093070CF09BCFCC0FDD1FCC0FDD1FE0912A
:1017A0002401F0912501EC0FFD1FEB018881998147
:1017B000AA81BB8180839183A283B38321E030E03F
:1017C000C901DF91CF911F910F9108952F923F9200
:1017D0004F925F926F927F928F929F92AF92BF9241
:1017E000CF92DF92EF92FF920F931F93DF93CF93ED
:1017F000CDB7DEB7A2970FB6F894DEBF0FBECDBF50
:1018000081E080933C02809319010C948D2399818F
:1018100080911901981711F0909319012B813C8147
:101820002115310511F40C948D2380911401882326
:1018300011F00C948D23F901EA51FB4F90812F5F39
:101840003F4F3093900420938F04E2E0F1E020E0DA
:1018500030E08081981788F08181891770F0F90154
:10186000EE0FFF1FE20FF31FEE5FFE4F8281282F66
:101870002923809598230C9489232F5F3F4F33961B
:101880002630310531F7292F0C94892380911401DA
:10189000882311F00C948D23963209F4F2C5973207
:1018A00008F07BC0913109F409C39231D8F5993021
:1018B00009F4EAC19A30D8F4953009F458C1963049
:1018C00058F4933009F418C1943008F036C19230BE
:1018D00011F00C945E23F9C0973009F483C1009194
:1018E000150110911601983008F0B4C15FC19D3008
:1018F00009F458C29E3058F49B3009F418C2009184
:101900001501109116019C3008F030C2F4C19F30CF
:1019100009F483C20091150110911601903108F06D
:10192000A6C25FC29E3109F4F4C39F31D8F4953149
:1019300009F466C3963158F4933109F410C3009149
:10194000150110911601943108F033C3E1C29731AB
:1019500009F4B7C3973108F481C39D3111F00C9499
:101960005E23BAC3923209F46EC4933258F49032B3
:1019700009F41CC40091150110911601913208F070
:101980003DC4EFC3943209F4ABC40091150110912A
:101990001601953208F057C57EC4983411F40C94A2
:1019A0008224993408F047C0923311F40C94DE235A
:1019B0009333F8F49A3211F40C9401159B3258F4D5
:1019C000983209F445C620918F04309190049932E1
:1019D00008F052C76CC59C3211F40C9496179C32D7
:1019E00010F40C94F215903311F00C945E230C94C7
:1019F000B6239A3311F40C9453249B3370F496332A
:101A000011F40C942A24983311F40C943F24943349
:101A100011F00C945E230C940624903411F40C9471
:101A2000B71C943411F40C94FB1C9C3311F00C94EF
:101A30005E230C946824983611F40C94FA1F99369E
:101A400010F5983511F40C940A1F993570F49035FF
:101A500011F40C94CB24943511F40C94F0249C34A0
:101A600011F00C945E230C94A724903611F40C947E
:101A7000B61F943611F40C94D81F9C3511F00C94B9
:101A80005E230C941425903911F40C946D25913932
:101A900070F4983711F40C943925983811F40C949B
:101AA0005921903711F00C945E230C944E20903BFA
:101AB00011F40C949725903C11F40C94A522903AC3
:101AC00011F00C945E230C948225E0911501F091A5
:101AD00016013496F0931601E0931501EE51FB4F79
:101AE00060817181828193816095709580959095D8
:101AF0000E94FC010C945E23E0911501F091160107
:101B00003496F0931601E093150120E030E040E0B8
:101B100050E0EE51FB4F80819181A281B38100970B
:101B2000A105B10521F421E030E040E050E0CA0118
:101B3000B9010E94FC010C945E23E0911501F09123
:101B400016013496F0931601E0931501EE51FB4F08
:101B50006081718182819381909580957095619566
:101B60007F4F8F4F9F4F0E94FC010C945E23E091AA
:101B70001501F09116013496DF01AE51BB4F6D9106
:101B80007D918D919C913496F0931601E09315010F
:101B9000EE51FB4F2081318142815381621B730BD7
:101BA000840B950B0E94FC010C945E23F801349683
:101BB000DF01AE51BB4F6D917D918D919C9134961B
:101BC000F0931601E0931501EE51FB4F2081318116
:101BD00042815381620F731F841F951F0E94FC0175
:101BE0000C945E23E0911501F09116013496DF010B
:101BF000AE51BB4F6D917D918D919C913496F09338
:101C00001601E0931501EE51FB4FE080F180028157
:101C10001381E114F1040105110529F460E070E07D
:101C200080E090E009C0A80197010E94F73CAC0158
:101C3000CB01DA01BC01CD010E94FC01E114F104E9
:101C40000105110511F00C945E238AE00E94AC019D
:101C50000C945E23F8013496DF01AE51BB4F6D91B9
:101C60007D918D919C913496F0931601E09315012E
:101C7000EE51FB4F20813181428153810E94963C7D
:101C80000E94FC010C945E23E0911501F091160175
:101C90003496DF01AE51BB4F6D917D918D919C913A
:101CA0003496F0931601E0931501EE51FB4FE0805E
:101CB000F18002811381E114F1040105110529F479
:101CC00060E070E080E090E008C0A80197010E9409
:101CD000F73CC901DA01BC01CD010E94FC01E1140D
:101CE000F1040105110511F00C945E238AE00E94B5
:101CF000AC010C945E23F8013496DF01AE51BB4F6A
:101D00006D917D918D919C913496F0931601E093A5
:101D10001501EE51FB4F2081318142815381622BAD
:101D2000732B842B952B0E94FC010C945E23E09175
:101D30001501F09116013496DF01AE51BB4F6D9144
:101D40007D918D919C913496F0931601E09315014D
:101D5000EE51FB4F208131814281538162237323F5
:101D6000842395230E94FC010C945E23F801349691
:101D7000DF01AE51BB4F6D917D918D919C91349659
:101D8000F0931601E0931501EE51FB4F008004C063
:101D9000660F771F881F991F0A94D2F70E94FC01D3
:101DA0000C945E23E0911501F09116013496DF0149
:101DB000AE51BB4F6D917D918D919C913496F09376
:101DC0001601E0931501EE51FB4F008004C095957C
:101DD0008795779567950A94D2F70E94FC010C9439
:101DE0005E23F8013496DF01AE51BB4F6D917D91BA
:101DF0008D919C913496F0931601E0931501EE516C
:101E0000FB4F2081318142815381622773278427D0
:101E100095270E94FC010C945E23E0911501F0913E
:101E200016013496DF01AE51BB4F2D913D914D917E
:101E30005C913496F0931601E0931501EE24FF2493
:101E40008701EE51FB4F80819181A281B3812817D8
:101E500039074A075B0729F481E0E82EF12C012DB0
:101E6000112DC801B7010E94FC010C945E23F801FA
:101E70003496DF01AE51BB4F2D913D914D915C9158
:101E80003496F0931601E0931501EE24FF248701A8
:101E9000EE51FB4F80819181A281B38128173907D0
:101EA0004A075B0729F001E0E02EF12C012D112DEE
:101EB000C801B7010E94FC010C945E23E09115015A
:101EC000F09116013496DF01AE51BB4F2D913D913B
:101ED0004D915C913496F0931601E0931501EE2438
:101EE000FF248701EE51FB4F80819181A281B38154
:101EF000281739074A075B072CF011E0E12EF12C77
:101F0000012D112DC801B7010E94FC010C945E2324
:101F1000F8013496DF01AE51BB4F2D913D914D91AB
:101F20005C913496F0931601E0931501EE24FF24A2
:101F30008701EE51FB4F80819181A281B38182178D
:101F40009307A407B5072CF0B1E0EB2EF12C012D7F
:101F5000112DC801B7010E94FC010C945E23E09191
:101F60001501F09116013496DF01AE51BB4F2D9152
:101F70003D914D915C913496F0931601E0931501DB
:101F8000EE24FF248701EE51FB4F80819181A281D5
:101F9000B38182179307A407B5072CF4A1E0EA2EBA
:101FA000F12C012D112DC801B7010E94FC010C94E8
:101FB0005E23F8013496DF01AE51BB4F2D913D9168
:101FC0004D915C913496F0931601E0931501EE2447
:101FD000FF248701EE51FB4F80819181A281B38163
:101FE000281739074A075B072CF4F1E0EF2EF12C94
:101FF000012D112DC801B7010E94FC010C945E2334
:10200000E0911501F09116013496DF01AE51BB4FFE
:102010008D919D910D90BC91A02D3496F093160159
:10202000E0931501EE51FB4F408151816281738134
:102030000097A105B10539F420E030E041155105C4
:102040006105710511F021E030E0B901882777FDC5
:102050008095982F0E94FC010C945E23E09115015D
:10206000F09116013496DF01AE51BB4F8D919D91D9
:102070000D90BC91A02D3496F0931601E0931501BC
:10208000EE51FB4F20813181428153810097A105A0
:10209000B10519F420E030E00BC060E021153105F6
:1020A0004105510509F461E081E06827262F30E001
:1020B000B901882777FD8095982F0E94FC010C9428
:1020C0005E2380911501909116010496909316015C
:1020D000809315010C945E23E0911501F091160197
:1020E0003496DF01AE51BB4F6D917D918D919C91E6
:1020F0003496F0931601E0931501EE51FB4F2081C9
:102100003181428153810E949A370E941C020C94B3
:102110005E23E0911501F09116013496DF01AE5176
:10212000BB4F6D917D918D919C913496F0931601EA
:10213000E0931501EE51FB4F2081318142815381A3
:102140000E944638882329F060E070E080E090E04B
:1021500004C060E070E080E89FE30E941C020C94E1
:102160005E23F8013496DF01AE51BB4F6D917D9136
:102170008D919C913496F0931601E0931501EE51E8
:10218000FB4F20813181428153810E947638882320
:1021900029F460E070E080E090E004C060E070E06E
:1021A00080E89FE30E941C020C945E23E0911501DD
:1021B000F09116013496DF01AE51BB4F6D917D91C8
:1021C0008D919C913496F0931601E0931501EE5198
:1021D000FB4F20813181428153810E94D63887FF95
:1021E00005C060E070E080E090E004C060E070E076
:1021F00080E89FE30E941C020C945E23F801349651
:10220000DF01AE51BB4F6D917D918D919C913496C4
:10221000F0931601E0931501EE51FB4F20813181BF
:10222000428153810E94363918162CF460E070E028
:1022300080E090E004C060E070E080E89FE30E94EE
:102240001C020C945E23E0911501F0911601349666
:10225000DF01AE51BB4F6D917D918D919C91349674
:10226000F0931601E0931501EE51FB4F208131816F
:10227000428153810E94A63818162CF060E070E06D
:1022800080E090E004C060E070E080E89FE30E949E
:102290001C020C945E23F8013496DF01AE51BB4F53
:1022A0006D917D918D919C913496F0931601E09300
:1022B0001501EE51FB4F20813181428153810E94F3
:1022C000063987FD05C060E070E080E090E004C062
:1022D00060E070E080E89FE30E941C020C945E23A3
:1022E00080918F0490919004FC01EA51FB4FE081B2
:1022F00001969093900480938F04E130A1F0E13037
:1023000040F0E23009F45CC0E33011F00C945E233D
:1023100071C0609100017091010180E090E00E9425
:10232000FC010C945E239FB6F894A090DB03B09060
:10233000DC03C090DD03D090DE039501A60160E0D0
:1023400070E080E090E0EEE4AE2E03E8B02ECC2406
:10235000DD24EE24FF2400E010E00E944A346901ED
:102360007A0100E20E9445352F8B388F498F5A8FB2
:102370006B8F7C8F8D8F9E8FC701B6019695879549
:10238000779567952F89388D498D5A8D620F731F08
:10239000841F951F97FF05C09F776F5F7F4F8F4FFB
:1023A0009F4F6093DB037093DC038093DD03909376
:1023B000DE039FBE80E090E00E94FC010C945E234F
:1023C000E0911501F09116013496F0931601E09317
:1023D0001501EE51FB4F8081918160E00E943C022B
:1023E000262F30E040E050E0CA01B9010E94FC0114
:1023F0000C945E238FB7F89420910804309109045F
:1024000040910A0450910B0466B5A89B05C02F5F4C
:102410003F4F4F4F5F4F66B58FBF62956F7070E053
:1024200080E090E0B4E0220F331F441F551FBA959F
:10243000D1F7622B732B842B952B80E090E00E94C8
:10244000FC010C945E23F8013496F0931601E0939E
:102450001501EE51FB4F40815181628173812091C2
:102460008F0430919004F901EA51FB4F80812F5F76
:102470003F4F3093900420938F040E94EA090C94FC
:102480005E2320918F0430919004F901EA51FB4FB3
:1024900080812F5F3F4F3093900420938F0440E062
:1024A00050E060E070E00E94EA090C945E23F901BC
:1024B000EA51FB4F80812F5F3F4F30939004209370
:1024C0008F04482F50E0CA019695879581709070CF
:1024D000A1E0B0E002C0AA0FBB1F8A95E2F76A2F05
:1024E000CA0181709070E1E0F0E002C0EE0FFF1FC2
:1024F0008A95E2F77E2FA0E020E030E02C5F3F4F8E
:10250000CA01022E02C0959587950A94E2F72450DD
:10251000304080FD02C080E008C081E090E0022EE3
:1025200002C0880F991F0A94E2F7A80F2F5F3F4F50
:102530002330310519F7262F30E021503040F3E0E9
:10254000220F331FFA95E1F7EE24FF2440E01EC06E
:10255000423080F4E0918F04F0919004EA51FB4FF7
:10256000808190E0022E02C0880F991F0A94E2F742
:10257000E80EF91E80918F0490919004019690933B
:10258000900480938F044F5F28503040461700F32B
:10259000272F30E021503040E3E0220F331FEA952F
:1025A000E1F700E010E040E01EC0423080F4E0912E
:1025B0008F04F0919004EA51FB4F808190E0022E4D
:1025C00002C0880F991F0A94E2F7080F191F809123
:1025D0008F049091900401969093900480938F04BF
:1025E0004F5F28503040471700F3E0911501F091FC
:1025F00016013496F0931601E0931501EE51FB4F4E
:102600004081518162817381A23059F0A33081F001
:10261000A130C1F4CB01BA0128EE33E040E050E034
:102620000DC0CB01BA0120E63AEE40E050E006C012
:10263000CB01BA0120E83EEE46E350E00E94963C12
:10264000AB01BC01C70198010E94BC020C945E233F
:1026500080918F0490919004FC01EA51FB4F2081FE
:1026600001969093900480938F04DD2440E050E025
:1026700030E04B5F5F4FC901042E02C095958795EE
:102680000A94E2F74550504080FD02C080E008C047
:1026900081E090E0042E02C0880F991F0A94E2F7AF
:1026A000D80E4F5F5F4F4330510519F7C90163E002
:1026B000969587956A95E1F7817024FD02C060E0E8
:1026C00001C062E0680FC901969587959695879538
:1026D0008170907041E050E002C0440F551F8A9510
:1026E000E2F7742FC9019695879581709070A1E0EB
:1026F000B0E002C0AA0FBB1F8A95E2F71A2F217023
:10270000307081E090E002C0880F991F2A95E2F7AF
:10271000282F472F50E04150504093E0440F551F61
:102720009A95E1F7EE24FF2430E01EC0323080F4A9
:10273000E0918F04F0919004EA51FB4F808190E08A
:10274000042E02C0880F991F0A94E2F7E80EF91EC2
:1027500080918F04909190040196909390048093BF
:102760008F043F5F48505040371700F3412F50E02F
:102770004150504083E0440F551F8A95E1F7A0E097
:10278000B0E030E01EC0323080F4E0918F04F09170
:102790009004EA51FB4F808190E0042E02C0880F24
:1027A000991F0A94E2F7A80FB91F80918F049091A6
:1027B000900401969093900480938F043F5F48505B
:1027C0005040311700F3422F50E04150504003E099
:1027D000440F551F0A95E1F700E010E030E01EC0FD
:1027E000323080F4E0918F04F0919004EA51FB4F75
:1027F000808190E0042E02C0880F991F0A94E2F7AE
:10280000080F191F80918F04909190040196909366
:10281000900480938F043F5F48505040321700F37C
:10282000CD010E943C02AB01BC01B2E0DB1669F0B5
:10283000E3E0DE1689F0F1E0DF16C1F4CB01BA0166
:1028400028EE33E040E050E00DC0CB01BA0120E6B5
:102850003AEE40E050E006C0CB01BA0120E83EEE7F
:1028600046E350E00E94963CAB01BC01C7019801D1
:102870000E94BC020C945E23F901EA51FB4F808157
:102880002F5F3F4F3093900420938F04282F30E028
:10289000C90113E0969587951A95E1F781709070BC
:1028A00041E050E002C0440F551F8A95E2F7542FD3
:1028B000C90196958795982F917022FD02C080E0FE
:1028C00001C082E0082F090F0F5F2170307081E096
:1028D00090E002C0880F991F2A95E2F7D82E252F85
:1028E00030E021503040A3E0220F331FAA95E1F7DA
:1028F000EE24FF2440E01EC0423080F4E0918F04BB
:10290000F0919004EA51FB4F808190E0022E02C0CA
:10291000880F991F0A94E2F7E80EF91E80918F0440
:102920009091900401969093900480938F044F5F50
:1029300028503040451700F3202F30E02150304020
:10294000F3E0220F331FFA95E1F710E040E050E08A
:1029500060E070E024C01430B0F4E0918F04F09196
:102960009004EA51FB4F808190E0A0E0B0E0022E9D
:1029700004C0880F991FAA1FBB1F0A94D2F7480FE3
:10298000591F6A1F7B1F80918F04909190040196BC
:102990009093900480938F041F5F2850304010174D
:1029A000D0F2AD2DB0E01197E3E0AA0FBB1FEA957E
:1029B000E1F720E030E010E01DC0123080F4E0913B
:1029C0008F04F0919004EA51FB4F808190E00A2E31
:1029D00002C0880F991F0A94E2F7280F391F8091CF
:1029E0008F049091900401969093900480938F04AB
:1029F0001F5F18971D1508F3C7010E94BC020C94B5
:102A00005E2380918F0490919004FC01EA51FB4F6A
:102A1000208101969093900480938F04622F70E040
:102A2000CB01880F892F881F990B9195A1E0B0E009
:102A300002C0AA0FBB1F8A95E2F7EE2440E050E0E7
:102A40004C5F5F4FCB01042E02C0959587950A9489
:102A5000E2F74450504080FD02C080E008C081E0B1
:102A600090E0042E02C0880F991F0A94E2F7E80E46
:102A70004F5F5F4F4330510519F7CB0123E0969527
:102A800087952A95E1F781709070E1E0F0E002C04F
:102A9000EE0FFF1F8A95E2F7BE2FFF2440E050E0C3
:102AA000CB01042E02C0959587950A94E2F780FD2C
:102AB00002C080E008C081E090E0042E02C0880FD0
:102AC000991F0A94E2F7F80E4F5F5F4F43305105AC
:102AD00039F72A2F30E02150304093E0220F331F86
:102AE0009A95E1F700E010E040E01EC0423080F42B
:102AF000E0918F04F0919004EA51FB4F808190E0C7
:102B0000022E02C0880F991F0A94E2F7080F191FBE
:102B100080918F04909190040196909390048093FB
:102B20008F044F5F285030404A1700F32B2F30E0BE
:102B30002150304083E0220F331F8A95E1F740E0B7
:102B400050E060E01EC0623080F4E0918F04F091AC
:102B50009004EA51FB4F808190E0022E02C0880F62
:102B6000991F0A94E2F7480F591F80918F049091A2
:102B7000900401969093900480938F046F5F285087
:102B800030406B1700F3F3E0FF1609F5E091FC030A
:102B9000F091FD03E40FF51F80819181A281B38143
:102BA00089879A87AB87BC8789859A85AB85BC85E1
:102BB0008D879E87AF87B88B6D857E858F85988939
:102BC000A80123E00E2D0E941A0A0C945E23CA016C
:102BD0006F2D0E943C02A8012F2D0E2D0E941A0A73
:102BE0000C945E2380918F0490919004FC01EA5133
:102BF000FB4F20810196FC01EA51FB4FE0810196D9
:102C00009093900480938F04A22FB0E0CD01880FA1
:102C1000892F881F990B919521E030E002C0220F87
:102C2000331F8A95E2F7722F1D8A40E050E04C5F17
:102C30005F4FCD01042E02C0959587950A94E2F767
:102C40004450504080FD02C080E008C081E090E028
:102C5000042E02C0880F991F0A94E2F73D89380FAD
:102C60003D8B4F5F5F4F4330510509F7CD0113E0B6
:102C7000969587951A95E1F78170907041E050E044
:102C800002C0440F551F8A95E2F7142F1E8A40E0B8
:102C900050E0CD01042E02C0959587950A94E2F785
:102CA00080FD02C080E008C081E090E0042E02C0F8
:102CB000880F991F0A94E2F79E89980F9E8B4F5FA9
:102CC0005F4F4330510529F72E2F30E0C90196950B
:102CD00087959695879581709070A1E0B0E002C0CD
:102CE000AA0FBB1F8A95E2F76A2F9E2F9170E1FD14
:102CF00002C080E001C082E0282F290F2F5FBD892C
:102D0000B33019F4A4E09A2E08C08D8983709924F9
:102D1000939401C0990C8A95EAF7472F50E04150EF
:102D20005040F3E0440F551FFA95E1F74424552431
:102D300030E01EC0323080F4E0918F04F0919004B6
:102D4000EA51FB4F808190E0042E02C0880F991F4A
:102D50000A94E2F7480E591E80918F0490919004D6
:102D600001969093900480938F043F5F48505040A9
:102D7000371700F3412F50E041505040E3E0440F3B
:102D8000551FEA95E1F72224332430E01EC032308B
:102D900080F4E0918F04F0919004EA51FB4F808120
:102DA00090E0042E02C0880F991F0A94E2F7280EC3
:102DB000391E80918F049091900401969093900415
:102DC00080938F043F5F48505040311700F3462FE7
:102DD00050E04150504073E0440F551F7A95E1F7A1
:102DE000CC24DD2430E01EC0323080F4E0918F042A
:102DF000F0919004EA51FB4F808190E0042E02C0D4
:102E0000880F991F0A94E2F7C80ED91E80918F048B
:102E10009091900401969093900480938F043F5F6B
:102E200048505040361700F3422F50E04150504078
:102E300063E0440F551F6A95E1F730E0EE24FF246C
:102E4000870124C03430B0F4E0918F04F0919004F5
:102E5000EA51FB4F808190E0A0E0B0E0042E04C076
:102E6000880F991FAA1FBB1F0A94D2F7E80EF91EFC
:102E70000A1F1B1F80918F049091900401969093DC
:102E8000900480938F043F5F485050403217D0F237
:102E9000C1016E890E943C025601CC24DD246A15D2
:102EA0007B058C059D0528F08BE00E94AC010C94FD
:102EB0005E23692C772488249924ED89E33019F561
:102EC000C801B7010E94183A6D877E878F87988B5B
:102ED000C1016E890E943C02ED84FE840F85188931
:102EE000A60195010E94D53CA40193010E94963C45
:102EF000460E571EC801B701A2012E8903E00E94A9
:102F00001A0A0C945E23A60195010E94D53CA401E7
:102F100093010E94963C460E571EC801B701A201BC
:102F20002E890D890E941A0A0C945E2380918F04C9
:102F300090919004FC01EA51FB4F20810196FC0125
:102F4000EA51FB4FE08101969093900480938F04A7
:102F5000622F70E0CB01880F892F881F990B919504
:102F600021E030E002C0220F331F8A95E2F7A22F42
:102F70001A8A40E050E04C5F5F4FCB01042E02C044
:102F8000959587950A94E2F74450504080FD02C021
:102F900080E008C081E090E0042E02C0880F991FF5
:102FA0000A94E2F73A89380F3A8B4F5F5F4F43300C
:102FB000510509F7CB0143E0969587954A95E1F7CE
:102FC0008170907041E050E002C0440F551F8A9517
:102FD000E2F7B42F1B8A40E050E0CB01042E02C080
:102FE000959587950A94E2F780FD02C080E008C0BD
:102FF00081E090E0042E02C0880F991F0A94E2F746
:103000009B89980F9B8B4F5F5F4F4330510529F78A
:10301000F0E0CF0134E0969587953A95E1F781701D
:10302000907021E030E002C0220F331F8A95E2F752
:10303000522FCF0123E0969587952A95E1F781706D
:10304000907021E030E002C0220F331F8A95E2F732
:10305000622F1C8A20E030E0CF01022E02C095953D
:1030600087950A94E2F780FD02C080E008C081E005
:1030700090E0022E02C0880F991F0A94E2F74C8953
:10308000480F4C8B2F5F3F4F2330310529F78A893A
:10309000833019F494E0998B08C08A898370E1E049
:1030A00001C0EE0F8A95EAF7E98B2A2F30E0215014
:1030B000304083E0220F331F8A95E1F744245524E2
:1030C00040E01EC0423080F4E0918F04F091900403
:1030D000EA51FB4F808190E0022E02C0880F991FB9
:1030E0000A94E2F7480E591E80918F049091900443
:1030F00001969093900480938F044F5F2850304046
:103100004A1700F32B2F30E02150304003E0220F0C
:10311000331F0A95E1F72224332440E01EC04230D9
:1031200080F4E0918F04F0919004EA51FB4F80818C
:1031300090E0022E02C0880F991F0A94E2F7280E31
:10314000391E80918F049091900401969093900481
:1031500080938F044F5F285030404B1700F3252F8A
:1031600030E02150304013E0220F331F1A95E1F771
:10317000EE24FF2440E01EC0423080F4E0918F0432
:10318000F0919004EA51FB4F808190E0022E02C042
:10319000880F991F0A94E2F7E80EF91E80918F04B8
:1031A0009091900401969093900480938F044F5FC8
:1031B00028503040451700F3262F30E02150304092
:1031C000B3E0220F331FBA95E1F700E010E040E0D2
:1031D0001EC0423080F4E0918F04F0919004EA51D7
:1031E000FB4F808190E0022E02C0880F991F0A9445
:1031F000E2F7080F191F80918F04909190040196B7
:103200009093900480938F044F5F2850304046176E
:1032100000F3C1016B890E943C023B014C01570144
:10322000CC24DD246A157B058C059D0528F08BE0F8
:103230000E94AC010C945E233989232F30E040E0DA
:1032400050E02F8F38A349A35AA34C89433099F5F6
:10325000E091FC03F091FD03E00FF11F808191816B
:10326000A281B3818D879E87AF87B88B8D859E8520
:10327000AF85B88989879A87AB87BC87C1016B897D
:103280000E943C02E984FA840B851C85A601950105
:103290000E94D53C2F8D38A149A15AA10E94963C8D
:1032A000460E571EC801B701A20123E00A890E94F9
:1032B0001A0A0C945E23C8016C890E943C027B01AF
:1032C0008C01C401B301A60195010E94D53C2F8D4C
:1032D00038A149A15AA10E94963C460E571EC8012A
:1032E000B701A2012C890A890E941A0A0C945E2354
:1032F0004C5F5F4FCF01042E02C0959587950A94CD
:10330000E2F74450504080FD02C080E008C081E0F8
:1033100090E0042E02C0880F991F0A94E2F7280E4D
:103320004F5F5F4F4330510519F7CF01A3E09695EA
:103330008795AA95E1F781709070A1E0B0E002C096
:10334000AA0FBB1F8A95E2F7332440E050E0CF017B
:10335000042E02C0959587950A94E2F780FD02C07D
:1033600080E008C081E090E0042E02C0880F991F21
:103370000A94E2F7380E4F5F5F4F4330510539F73B
:10338000B3E02B1619F4F4E07F2E08C0822D837071
:103390007724739401C0770C8A95EAF7472F50E0A1
:1033A00041505040E3E0440F551FEA95E1F788246F
:1033B000992420E01EC0223080F4E0918F04F09127
:1033C0009004EA51FB4F808190E0042E02C0880FE8
:1033D000991F0A94E2F7880E991E80918F049091AC
:1033E000900401969093900480938F042F5F48502F
:1033F0005040271700F34A2F50E04150504073E0EF
:10340000440F551F7A95E1F7EE24FF2420E01EC0FB
:10341000223080F4E0918F04F0919004EA51FB4F48
:10342000808190E0042E02C0880F991F0A94E2F771
:10343000E80EF91E80918F0490919004019690936C
:10344000900480938F042F5F485050402A1700F358
:10345000432F50E04150504063E0440F551F6A95A0
:10346000E1F700E010E020E01EC0223080F4E0919F
:103470008F04F0919004EA51FB4F808190E0042E7C
:1034800002C0880F991F0A94E2F7080F191F809154
:103490008F049091900401969093900480938F04F0
:1034A0002F5F48505040231700F3C701632D0E943F
:1034B0003C025801CC24DD246A157B058C059D0552
:1034C00028F08BE00E94AC010C945E230091150162
:1034D00010911601472C552466247724E3E02E161C
:1034E00059F5F8013496F0931601E0931501EE5169
:1034F000FB4F80819181A281B3818D879E87AF87A9
:10350000B88BC701632D0E943C02ED84FE840F85B9
:103510001889A60195010E94D53CA30192010E9441
:10352000963C860E971EC801B701A40123E003E074
:103530000E941A0A0C945E230C5F1F4F1093160111
:1035400000931501C701632D0E943C020E511B4FD1
:10355000D801ED90FD900D911C91A60195010E945E
:10356000D53CA30192010E94963C860E971EC8018D
:10357000B701A40126E0022D0E941A0A0C945E23D2
:103580006C5F7F4FCD01062E02C0959587950A94FA
:10359000E2F76450704080FD02C080E008C081E026
:1035A00090E0062E02C0880F991F0A94E2F7280FB8
:1035B0006F5F7F4F6330710519F7CD0143E096953A
:1035C00087954A95E1F781709070E1E0F0E002C0E4
:1035D000EE0FFF1F8A95E2F70E2F60E0E0E0F0E0CB
:1035E000CD010E2E02C0959587950A94E2F780FDD5
:1035F00002C080E008C081E090E00E2E02C0880F7B
:10360000991F0A94E2F7680F3196E330F10541F70C
:10361000233019F484E0D82E07C02370DD24D3941E
:1036200001C0DD0C2A95EAF7412F50E0415050408F
:10363000B3E0440F551FBA95E1F7EE24FF2420E0D4
:103640001EC0223080F4E0918F04F0919004EA5182
:10365000FB4F808190E0042E02C0880F991F0A94CE
:10366000E2F7E80EF91E80918F0490919004019684
:103670009093900480938F042F5F485050402117FF
:1036800000F3402F50E041505040A3E0440F551F3D
:10369000AA95E1F7A0E0B0E020E01EC0223080F45F
:1036A000E0918F04F0919004EA51FB4F808190E00B
:1036B000042E02C0880F991F0A94E2F7A80FB91FC1
:1036C00080918F0490919004019690939004809340
:1036D0008F042F5F48505040201700F3432F50E0D5
:1036E00041505040F3E0440F551FFA95E1F700E0D8
:1036F00010E020E01EC0223080F4E0918F04F091B1
:103700009004EA51FB4F808190E0042E02C0880FA4
:10371000991F0A94E2F7080F191F80918F04909166
:10372000900401969093900480938F042F5F4850EB
:103730005040231700F3CD010E943C02980140E065
:1037400050E0621773078407950720F08BE00E9412
:10375000AC01B4C70E94D53C2D2D30E040E050E0D4
:103760000E94963C9B01AC01B70180E090E0620FA3
:10377000731F841F951F0E94FC01A0C7423080F474
:10378000E0918F04F0919004EA51FB4F808190E02A
:10379000062E02C0880F991F0A94E2F7A80FB91FDE
:1037A00080918F049091900401969093900480935F
:1037B0008F044F5F68507040421700F32091FC0364
:1037C0003091FD032E0D3F1D60911A0170911B0178
:1037D000C901AD010E94863C71C7A23080F4E0911E
:1037E0008F04F0919004EA51FB4F808190E0042E09
:1037F00002C0880F991F0A94E2F7680F791F809121
:103800008F049091900401969093900480938F047C
:10381000AF5F48505040A21700F3CB0160E00E9418
:103820003A094CC7A23080F4E0918F04F0919004E3
:10383000EA51FB4F808190E0042E02C0880F991F4F
:103840000A94E2F7680F791F80918F049091900499
:1038500001969093900480938F04AF5F485050403E
:10386000A21700F37093900460938F0427C7A230CF
:1038700080F4E0918F04F0919004EA51FB4F808135
:1038800090E0042E02C0880F991F0A94E2F7680F97
:10389000791F80918F0490919004019690939004E9
:1038A00080938F04AF5F48505040A21700F3E0911F
:1038B000FC03F091FD03E60FF71F8081882309F4D4
:1038C000FDC680918F04909190040196909390048E
:1038D00080938F04F3C6CA010E2E02C0959587957A
:1038E0000A94E2F780FD02C080E008C081E090E029
:1038F0000E2E02C0880F991F0A94E2F7680F3196C6
:10390000E730F10541F7A12FB0E01197E3E0AA0FEE
:10391000BB1FEA95E1F720E030E070E01DC0723097
:1039200080F4E0918F04F0919004EA51FB4F808184
:1039300090E00A2E02C0880F991F0A94E2F7280F20
:10394000391F80918F049091900401969093900478
:1039500080938F047F5F1897711708F3440F452FEA
:10396000441F550B519580E00E94B308A7C6922FC3
:10397000917021FD02C080E001C082E0082F090F94
:103980000F5F202F30E02150304043E0220F331FE3
:103990004A95E1F710E040E050E060E070E024C0BC
:1039A0001430B0F4E0918F04F0919004EA51FB4F91
:1039B000808190E0A0E0B0E0022E04C0880F991F43
:1039C000AA1FBB1F0A94D2F7480F591F6A1F7B1FFB
:1039D00080918F049091900401969093900480932D
:1039E0008F041F5F285030401017D0F2CB01BA016E
:1039F0000E94FC0163C6922F917021FD02C080E0FD
:103A000001C082E0890F813001F1813030F08230D5
:103A1000A1F1833009F052C644C0E0911501F09144
:103A200016013496F0931601E0931501EE51FB4F09
:103A300060817181828193816D837E838F8398877A
:103A40000E94183A0E941C0239C6E0911501F091BB
:103A500016013496F0931601E0931501EE51FB4FD9
:103A600060817181828193816D837E838F8398874A
:103A70000E9466390E941C0221C6E0911501F09156
:103A800016013496F0931601E0931501EE51FB4FA9
:103A900060817181828193810E94C4350E94FC0102
:103AA0000DC6E0911501F09116013496F0931601C0
:103AB000E0931501EE51FB4F60817181828193810A
:103AC0000E94C4350E94FC01F9C5623080F4E09187
:103AD0008F04F0919004EA51FB4F808190E0042E16
:103AE00002C0880F991F0A94E2F7080F191F8091EE
:103AF0008F049091900401969093900480938F048A
:103B00006F5F48505040671700F3422F50E041501C
:103B1000504093E0440F551F9A95E1F760E070E044
:103B2000A0E01EC0A23080F4E0918F04F0919004D8
:103B3000EA51FB4F808190E0042E02C0880F991F4C
:103B40000A94E2F7680F791F80918F049091900496
:103B500001969093900480938F04AF5F485050403B
:103B6000A21700F380E090E00AC0E091FC03F0911E
:103B7000FD03E80FF91FE00FF11F10820196861771
:103B8000970798F39BC5623080F4E0918F04F09121
:103B90009004EA51FB4F808190E0042E02C0880F10
:103BA000991F0A94E2F7080F191F80918F049091D2
:103BB000900401969093900480938F046F5F485017
:103BC0005040671700F3422F50E04150504083E0CF
:103BD000440F551F8A95E1F760E070E0A0E01EC039
:103BE000A23080F4E0918F04F0919004EA51FB4FF1
:103BF000808190E0042E02C0880F991F0A94E2F79A
:103C0000680F791F80918F04909190040196909392
:103C1000900480938F04AF5F48505040A21700F388
:103C2000E0911501F09116013496F0931601E0939E
:103C30001501EE51FB4F80819181A281B3810097E4
:103C4000A105B10529F01093900400938F0436C5A7
:103C50007093900460938F0431C5A23080F4E0919A
:103C60008F04F0919004EA51FB4F808190E0042E84
:103C700002C0880F991F0A94E2F7680F791F80919C
:103C80008F049091900401969093900480938F04F8
:103C9000AF5F48505040AB1700F3422F50E0415007
:103CA000504003E0440F551F0A95E1F7A0E0B0E053
:103CB00010E01EC0123080F4E0918F04F091900467
:103CC000EA51FB4F808190E0042E02C0880F991FBB
:103CD0000A94E2F7A80FB91F80918F049091900485
:103CE00001969093900480938F041F5F485050403A
:103CF000121700F3660F771F80916205909163059C
:103D0000680F791FE0912601F0912701E60FF71F58
:103D1000B183A0838091240481FDD0C481E042E07E
:103D200050E060E070E00E946701C8C4623080F437
:103D3000E0918F04F0919004EA51FB4F808190E074
:103D4000042E02C0880F991F0A94E2F7C80ED91EEC
:103D500080918F04909190040196909390048093A9
:103D60008F046F5F48505040671700F3422F50E0B8
:103D700041505040B3E0440F551FBA95E1F7EE248F
:103D8000FF2460E01EC0623080F4E0918F04F09167
:103D90009004EA51FB4F808190E0042E02C0880F0E
:103DA000991F0A94E2F7E80EF91E80918F04909112
:103DB000900401969093900480938F046F5F485015
:103DC0005040621700F301E010E01CC0C801880FEA
:103DD000991F880F991FE0912401F0912501E80FA8
:103DE000F91F828193818C159D0550F0E816F90624
:103DF00038F080E090E0602F0E942A0B01501040C4
:103E00000F5F1F4F80911701909118018017910744
:103E1000ECF654C4922F917021FD02C080E001C0E5
:103E200082E0082F090F0F5F80918F04909190041A
:103E3000FC01EA51FB4FF08001969093900480932F
:103E40008F04202F30E021503040F3E0220F331F49
:103E5000FA95E1F710E040E050E060E070E024C047
:103E60001430B0F4E0918F04F0919004EA51FB4FCC
:103E7000808190E0A0E0B0E0022E04C0880F991F7E
:103E8000AA1FBB1F0A94D2F7480F591F6A1F7B1F36
:103E900080918F0490919004019690939004809368
:103EA0008F041F5F285030401017D0F28F2D0E94D2
:103EB000EA0904C4623080F4E0918F04F091900428
:103EC000EA51FB4F808190E0042E02C0880F991FB9
:103ED0000A94E2F7080F191F80918F0490919004C3
:103EE00001969093900480938F046F5F48505040E8
:103EF000671700F3622F70E061507040E3E0660FD7
:103F0000771FEA95E1F7A0E0B0E040E01EC0423044
:103F100080F4E0918F04F0919004EA51FB4F80818E
:103F200090E0062E02C0880F991F0A94E2F7A80FAE
:103F3000B91F80918F049091900401969093900402
:103F400080938F044F5F68507040421700F32091B8
:103F5000FC033091FD03200F311F60911A01709115
:103F60001B01C901AD010E94863CA8C3922F91702C
:103F700021FD02C000E001C002E0090FE09115013F
:103F8000F09116013496F0931601E0931501EE516D
:103F9000FB4FE080F180C701602F0E943C026F5F01
:103FA0007F4F8F4F9F4FA701202F0E941A0A86C371
:103FB000922F917021FD02C000E001C002E0090FC4
:103FC000E0911501F09116013496F0931601E093FB
:103FD0001501EE51FB4FE080F180C701602F0E9478
:103FE0003C026150704080409040A701202F0E9409
:103FF0001A0A64C300E040E050E030E0C901042E3A
:1040000002C0959587950A94E2F780FD02C080E092
:1040100008C081E090E0042E02C0880F991F0A9426
:10402000E2F7080F4F5F5F4F4330510539F780913A
:104030001501909116010496909316018093150135
:10404000FC01EE51FB4F40815181DC01149603309D
:10405000B9F4B0931601A0931501AE51BB4F8D91E9
:104060009D910D90BC91A02D8D879E87AF87B88BB9
:104070006D857E858F85988923E00E941A0A1EC36C
:10408000B0931601A0931501AE51BB4F6D917D9178
:104090008D919C9126E00E941A0A10C360E040E0D6
:1040A00050E030E0C901042E02C0959587950A942E
:1040B000E2F780FD02C080E008C081E090E0042EBD
:1040C00002C0880F991F0A94E2F7680F4F5F5F4F95
:1040D0004330510539F7E0911501F09116013496FE
:1040E000F0931601E0931501EE51FB4F8081918111
:1040F000633031F1643028F46130A1F06230D0F4E3
:1041000008C06530E9F1653080F1663009F0D6C24B
:1041100041C060E00E943C0270E080E090E00E94BC
:10412000FC01CCC261E00E943C0280E090E00E9471
:10413000FC01C4C262E00E943C020E94FC01BEC2BB
:10414000E091FC03F091FD03E80FF91F808191815C
:10415000A281B3818D879E87AF87B88B6D857E8561
:104160008F8598890E941C02A9C264E00E943C02CB
:10417000772767FD7095872F972F0E94FC019EC2BD
:1041800065E00E943C02882777FD8095982F0E9469
:10419000FC0194C266E00E943C020E94FC018EC2B7
:1041A000623080F4E0918F04F0919004EA51FB4F6B
:1041B000808190E0042E02C0880F991F0A94E2F7D4
:1041C000E80EF91E80918F049091900401969093CF
:1041D000900480938F046F5F48505040671700F33E
:1041E000422F50E04150504073E0440F551F7A95E4
:1041F000E1F700E010E060E01EC0623080F4E09182
:104200008F04F0919004EA51FB4F808190E0042EDE
:1042100002C0880F991F0A94E2F7080F191F8091B6
:104220008F049091900401969093900480938F0452
:104230006F5F48505040621700F3432F50E04150E9
:10424000504063E0440F551F6A95E1F760E070E06D
:10425000A0E01EC0A23080F4E0918F04F0919004A1
:10426000EA51FB4F808190E0042E02C0880F991F15
:104270000A94E2F7680F791F80918F04909190045F
:1042800001969093900480938F04AF5F4850504004
:10429000A31700F32091FC033091FD03A901460F01
:1042A000571F200F311FCA01B901A7010E94863C88
:1042B00005C2B091190130E0C90196958795982FF4
:1042C000917022FD02C080E001C082E0A82FA90FFA
:1042D0002170307081E090E002C0880F991F2A950C
:1042E000E2F7782F482F50E04150504093E0440FC0
:1042F000551F9A95E1F720E030E060E01EC0623083
:1043000080F4E0918F04F0919004EA51FB4F80819A
:1043100090E0042E02C0880F991F0A94E2F7280F3C
:10432000391F80918F04909190040196909390048E
:1043300080938F046F5F48505040671700F38A2FB7
:104340008B0F6FEF40E050E00E94B308B7C1C90186
:10435000042E02C0959587950A94E2F780FD02C06D
:1043600080E008C081E090E0042E02C0880F991F11
:104370000A94E2F7680F4F5F5F4F4330510539F7FA
:104380002A2F30E02150304083E0220F331F8A95DE
:10439000E1F740E050E070E01EC0723080F4E09140
:1043A0008F04F0919004EA51FB4F808190E0022E3F
:1043B00002C0880F991F0A94E2F7480F591F809195
:1043C0008F049091900401969093900480938F04B1
:1043D0007F5F285030407A1700F36330A9F4E091F2
:1043E000FC03F091FD03E40FF51F80819181A28110
:1043F000B3818D879E87AF87B88B6D857E858F85CE
:1044000098890E941C025AC1CA010E943C020E9463
:10441000FC0154C1C901042E02C0959587950A94E8
:10442000E2F780FD02C080E008C081E090E0042E49
:1044300002C0880F991F0A94E2F7A80F4F5F5F4FE1
:104440004330510539F7272F30E02150304003E049
:10445000220F331F0A95E1F740E050E060E01EC0F4
:10446000623080F4E0918F04F0919004EA51FB4FA8
:10447000808190E0022E02C0880F991F0A94E2F713
:10448000480F591F80918F0490919004019690934A
:10449000900480938F046F5F28503040671700F3BB
:1044A0000091150110911601A330C9F4F80134965A
:1044B000F0931601E0931501EE51FB4F808191813D
:1044C000A281B3818D879E87AF87B88B6D857E85EE
:1044D0008F85988923E003E00E941A0AEFC0F80153
:1044E0003496F0931601E0931501EE51FB4F608175
:1044F00071818281938126E00A2F0E941A0ADEC010
:10450000623080F4E0918F04F0919004EA51FB4F07
:10451000808190E00A2E02C0880F991F0A94E2F76A
:10452000480F591F80918F049091900401969093A9
:10453000900480938F046F5F1897621708F360E010
:1045400070E0832F0E94EA09B9C000E040E050E02B
:1045500030E0C901042E02C0959587950A94E2F7D0
:1045600080FD02C080E008C081E090E0042E02C01F
:10457000880F991F0A94E2F7080F4F5F5F4F43308F
:10458000510539F7C90113E0969587951A95E1F71A
:104590008170907041E050E002C0440F551F8A9531
:1045A000E2F7A42FC901B4E096958795BA95E1F793
:1045B000982F917025FD02C080E001C082E0782F25
:1045C000790F7F5F2A2F30E021503040F3E0220F37
:1045D000331FFA95E1F740E050E060E01EC0623022
:1045E00080F4E0918F04F0919004EA51FB4F8081B8
:1045F00090E0022E02C0880F991F0A94E2F7480F3C
:10460000591F80918F04909190040196909390048B
:1046100080938F046F5F285030406A1700F3272F74
:1046200030E021503040E3E0220F331FEA95E1F7FC
:1046300060E0CC24DD24760124C06430B0F4E09145
:104640008F04F0919004EA51FB4F808190E0A0E04C
:10465000B0E0022E04C0880F991FAA1FBB1F0A9446
:10466000D2F7C80ED91EEA1EFB1E80918F049091CE
:10467000900401969093900480938F046F5F28506C
:1046800030406717D0F2CD82DE82EF82F8860330A9
:1046900081F48D819E81AF81B8858D879E87AF879C
:1046A000B88B6D857E858F85988923E00E941A0AD4
:1046B00005C0C701B60126E00E941A0A80918F0446
:1046C00090919004FC01EA51FB4F20810196909358
:1046D000900480938F04E2E0F1E040E050E08081BC
:1046E000281780F08181821768F0FA01EE0FFF1F12
:1046F000E40FF51FEE5FFE4F8281982F9095922375
:10470000282307C04F5F5F4F33964630510539F776
:10471000922F913011F00C94460CCE01019661E07D
:104720000E942A0B892B11F00C94070C10923C026A
:1047300080E00E94CB0080E090E0A2960FB6F89453
:10474000DEBF0FBECDBFCF91DF911F910F91FF90C4
:10475000EF90DF90CF90BF90AF909F908F907F9021
:104760006F905F904F903F902F900895217031E0AF
:1047700001C0330F2A95EAF780918F04909190043D
:10478000FC01EA51FB4F20810196909390048093A5
:104790008F04E22FF0E0CF01880F892F881F990B3B
:1047A0009195A1E0B0E002C0AA0FBB1F8A95E2F785
:1047B0007A2F222440E050E00C947819217031E0E7
:1047C00001C0330F2A95EAF780918F0490919004ED
:1047D000FC01EA51FB4F2081019690939004809355
:1047E0008F04A22FB0E0CD01880F892F881F990B6D
:1047F0009195E1E0F0E002C0EE0FFF1F8A95E2F72D
:104800001E2F20E060E070E00C94C01A2170F1E0EF
:1048100001C0FF0F2A95EAF72F2FE0911501F091C3
:1048200016013496F0931601E0931501EE51FB4FFB
:10483000E080F18002811381622F70E0615070404E
:1048400043E0660F771F4A95E1F7A0E0B0E040E053
:104850000C94DC1B217031E001C0330F2A95EAF77C
:10486000232F432F50E04150504033E0440F551F59
:104870003A95E1F760E070E0A0E00C940B1C217029
:1048800041E001C0440F2A95EAF7242F50E041503F
:10489000504093E0440F551F9A95E1F760E070E0B7
:1048A000A0E00C94301C217051E001C0550F2A95F6
:1048B000EAF7252F452F50E04150504083E0440F48
:1048C000551F8A95E1F760E070E0A0E00C94551C5C
:1048D000217011E001C0110F2A95EAF780918F0431
:1048E00090919004FC01EA51FB4F20810196909336
:1048F000900480938F04422F50E060E0E0E0F0E00D
:104900000C946B1C30E0C90196958795817090706E
:10491000A1E0B0E002C0AA0FBB1F8A95E2F77A2F90
:1049200021703070E1E0F0E002C0EE0FFF1F2A9529
:10493000E2F79F014A2F50E04150504013E0440FEE
:10494000551F1A95E1F700E010E060E0DCC830E0A8
:10495000C901969587958170907041E050E002C042
:10496000440F551F8A95E2F7742F2170307081E053
:1049700090E002C0880F991F2A95E2F79C0150E051
:1049800041505040A3E0440F551FAA95E1F700E0C5
:1049900010E060E016C930E0C901969587958170F6
:1049A0009070A1E0B0E002C0AA0FBB1F8A95E2F7A9
:1049B000BA2F21703070E1E0F0E002C0EE0FFF1F6F
:1049C0002A95E2F79F014A2F50E041505040E3E022
:1049D000440F551FEA95E1F760E070E0A0E05BC985
:1049E00030E0C901969587958170907041E050E064
:1049F00002C0440F551F8A95E2F7742F2170307062
:104A000081E090E002C0880F991F2A95E2F79C018F
:104A100050E04150504063E0440F551F6A95E1F764
:104A2000CC24DD2460E0A0C930E0C90196958795CB
:104A300081709070A1E0B0E002C0AA0FBB1F8A9500
:104A4000E2F77A2F21703070E1E0F0E002C0EE0F63
:104A5000FF1F2A95E2F79F014A2F50E04150504036
:104A600083E0440F551F8A95E1F700E010E060E015
:104A70003FCA822F90E09C01369527953695279561
:104A80002170307041E050E002C0440F551F2A955C
:104A9000E2F7742F9C013695279521703070A1E0C4
:104AA000B0E002C0AA0FBB1F2A95E2F79D018170FA
:104AB0009070E1E0F0E002C0EE0FFF1F8A95E2F790
:104AC0003E2F50E041505040B3E0440F551FBA957F
:104AD000E1F7EE24FF2460E081CB30E0C901A3E0E0
:104AE00096958795AA95E1F78170907041E050E026
:104AF00002C0440F551F8A95E2F7A42F60E040E002
:104B000050E025CC30E0C901F3E096958795FA9501
:104B1000E1F781709070A1E0B0E002C0AA0FBB1F66
:104B20008A95E2F77A2FA0E040E050E073CC822F24
:104B300090E0E3E096958795EA95E1F781709070B3
:104B4000E1E0F0E002C0EE0FFF1F8A95E2F72E2FA2
:104B500080918F0490919004FC01EA51FB4F3081C9
:104B600001969093900480938F04A22FB0E0119748
:104B700073E0AA0FBB1F7A95E1F740E050E060E0D8
:104B8000DCCC0F931F939091000120910101909331
:104B9000F8032093F703813049F400915D0210E09F
:104BA00003C00E94AD001F5F1017D8F310921401CC
:104BB0009FB7F894209108043091090440910A04A9
:104BC00050910B0486B5A89B05C02F5F3F4F4F4FF8
:104BD0005F4F86B59FBF82958F7090E0A0E0B0E0F8
:104BE00064E0220F331F441F551F6A95D1F7822BB3
:104BF000932BA42BB52BA0E0B0E08093D804909326
:104C0000D904A093DA04B093DB04809114018823C3
:104C100031F586EE94E090932501809324018091F4
:104C2000BE049091BF04880F991F880F991F865169
:104C30009B4F90932701809326019093FD038093CF
:104C4000FC03209160023091610281E06FEF40E04F
:104C500050E00E94B30880E090E00E94E60B1F91B4
:104C60000F910895A3E9B2E0FC0185E001900D9257
:104C70008150E1F782EA80938D0285E080938E0275
:104C80003091D60320E08091D70390E0822B932BC4
:104C90008093900290938F02109291028DE892E09F
:104CA0000E948E090895A3E9B2E0FC018CE1019015
:104CB0000D928150E1F781EA80938D028CE180931F
:104CC0008E028FEF8093900280938F021092910258
:104CD0008DE892E00E948E0908956F927F928F92E4
:104CE0009F92AF92BF92CF92DF92EF92FF920F937B
:104CF0001F93DF93CF93CDB7DEB76C970FB6F894C1
:104D0000DEBF0FBECDBF4B015C01E3E1F4E060E02C
:104D100070E0D084D1FEFEC1208131814281538177
:104D2000E480F58006811781D501C401821B930BB5
:104D3000A40BB50B8E159F05A007B10708F4EAC1B7
:104D4000D0FE04C08DEFD822D08608C02E0D3F1DA6
:104D5000401F511F2083318342835383623009F403
:104D60006DC1633030F4662359F0613009F0D9C168
:104D7000E9C0633009F464C1643009F0D2C164C190
:104D80009FB7F894209108043091090440910A04D7
:104D900050910B0486B5A89B05C02F5F3F4F4F4F26
:104DA0005F4F86B59FBF82958F7090E0A0E0B0E026
:104DB00064E0220F331F441F551F6A95D1F7822BE1
:104DC000932BA42BB52B9C0140E050E0E090D8043D
:104DD000F090D9040091DA041091DB042093D804F8
:104DE0003093D9044093DA045093DB046091260198
:104DF000709127018091AF039091B003680F791FE4
:104E000081E080931901E0912001F0912101309718
:104E100009F487C149015A018E189F08A00AB10AF6
:104E2000C080D180E280F3808C149D04AE04BF0466
:104E30004CF40FEFC02E0FEFD02E0FEFE02E0FE748
:104E4000F02E07C0C4018C199D0990931F01809317
:104E50001E0110922101109220018B0166247724FB
:104E600044C0D80114968D919C911597892BC1F15E
:104E70008D919D910D90BC91A02D8C159D05AE0539
:104E8000BF0511F4F8010DC09C01AD0128193909C5
:104E90004A095B09F801208331834283538357FF1A
:104EA00008C01192119211921192CF010E94220911
:104EB00017C0E0912001F0912101309769F08081C5
:104EC0009181A281B3810097A105B10529F028172E
:104ED00039074A075B0724F410932101009320014E
:104EE0000894611C711C0A5F1F4F80919A03909176
:104EF0009B036816790608F4B4CF80E090E00E9426
:104F0000E60B10921F0110921E01E0912001F0911A
:104F10002101309709F405C140815181628173817B
:104F20004F3FFFEF5F07FFEF6F07FFE77F0709F4D2
:104F3000F8C080911B0481FF03C08D7F80931B0408
:104F400080E0E1C020912601309127018091620527
:104F500090916305280F391F6091EA037091EB036C
:104F600040E009C0EE0FFF1FE20FF31F8081918127
:104F7000892B39F44F5FE42FF0E0E617F70790F341
:104F80000EC08091240481FF03C08D7F8093240490
:104F900081E042E050E060E070E00E946701C09074
:104FA0002601D09027018091620590916305C80E7B
:104FB000D91EA090EA03B090EB038090220190905C
:104FC0002301E0E0F0E036C0CF01880D991DB50166
:104FD0000E94C13C8C017C01EE0CFF1CEC0CFD1C02
:104FE000D7012D913C912115310519F181E06FEF29
:104FF00040E050E00E94B308F701118210826091F6
:10500000EA037091EB03C80101960E94C13C9093A2
:1050100023018093220180911E0190911F0101972D
:1050200090931F0180931E0180E090E00E94E60BA8
:1050300078C03196EA15FB0538F273C084E001C0F0
:1050400081E00E94CB006DC09091870580E02091A7
:10505000880530E0822B932B20913F023091400253
:10506000820F931F0E9453008823A1F130915E02AA
:1050700020E080915F0290E0822B932B8A839983BA
:105080003091870520E08091880590E0822B932B5A
:1050900020913F0230914002820F931F8C839B83AB
:1050A000FC01EE0FFF1FE80FF91F73E0EE0FFF1F6B
:1050B0007A95E1F7EA51FB4FDE0115969E01235EDA
:1050C0003F4F81918D93A217B307D9F7CE01019677
:1050D0000E94532680913F02909140020196909346
:1050E000400280933F023091620220E040916302CF
:1050F00050E0242B352B8217930740F484E04CE2D8
:1051000051E060E070E00E9467010BC081E0809395
:105110002A0107C06F5F7F4F39966630710509F02D
:10512000F8CD8FE00E94CB006C960FB6F894DEBFEE
:105130000FBECDBFCF91DF911F910F91FF90EF90E8
:10514000DF90CF90BF90AF909F908F907F906F90A7
:105150000895AC0180915702882321F481E0809367
:10516000320108959091550282E2989FF001112436
:10517000DA01E353FD4F82E201900D928150E1F795
:10518000809155028F5F65E00E94B53C9093550277
:1051900080915702815080935702882311F080E05C
:1051A000089581E08093320180E00895CF93DF93EA
:1051B000CBE6D2E0409179032EE733E0CE01B9018E
:1051C00050E00E94863C6091780350917A032091D0
:1051D0007B03409179034D3108F04BC0952F80E05F
:1051E00030E0282B392BFE0137972183309364025E
:1051F000668344838091460290914702892B09F08F
:1052000038C08FB7F8941092490210924A02F09376
:105210004502E093440222E030E0309347022093BD
:10522000460210924C0210924B02495F4093480292
:105230008FBF9FB7F894809192048A3011F49FBF7A
:1052400014C09FBF9FB7F8948091F303882311F097
:1052500080E005C081E08093F3031092F4039FBFC8
:10526000882319F00E94E1030FC0109247021092A8
:1052700046024091DF035091E0036091E103709199
:10528000E20382E00E946701DF91CF910895AC01B3
:1052900080915A02882321F481E08093330108959C
:1052A0009091580282E2989FF0011124DA01E757A9
:1052B000FA4F82E201900D928150E1F780915802FD
:1052C0008F5F6AE00E94B53C9093580280915A0229
:1052D000815080935A02882311F080E0089581E084
:1052E0008093330180E00895AC01809157028530AE
:1052F00010F081E008959091560282E2989FF001AB
:105300001124E353FD4FDA0182E20D9001928150A6
:10531000E1F7809156028F5F65E00E94B53C909363
:105320005602809157028F5F80935702809132011D
:10533000813011F080E00895109232018CE00E94DB
:10534000CB0080E00895AF92BF92CF92DF92EF92B0
:10535000FF920F931F93DF93CF93CDB7DEB7C15565
:10536000D0400FB6F894DEBF0FBECDBF873009F432
:10537000B0C5883098F4833009F417C4843038F409
:10538000813009F4A7C0823008F053C12AC08530AB
:1053900009F445C4863008F038C535C48C3011F4A2
:1053A0000C9494318D3058F4893009F497C58930C4
:1053B00008F491C58A3011F00C94B13221C68E30B8
:1053C00011F40C94AB318E3010F40C949A318F3070
:1053D00011F40C940E32803111F00C94B1320C9413
:1053E0009A3280911401813021F40E94AD000C9416
:1053F000B13280915D02882311F40C94B132809116
:105400003C02882311F00C94B1320E94AD00082FA9
:10541000D92E4091600550916105A091FC03B09197
:10542000FD03FD01E40FF51F2181221F2227221F0A
:105430002E5FE090F503F090F60310E019C030E025
:10544000818190E08F779070FC012E9FC0012F9F8B
:10545000900D3E9F900D11240296480F591FFD019B
:10546000E40FF51F2181221F2227221F2E5F1F5FBD
:10547000FD01E40FF51F8081681731F0812F90E066
:105480008E159F05E0F204C09A012F5F3F4F11F483
:1054900080E088C380911401882311F00C94B1320C
:1054A00000931A01D0921B0181E080931901C90178
:1054B000672F0E943A0980911E0190911F01019768
:1054C00090931F0180931E0180E090E00E94E60B04
:1054D0000C94B13200E010E0C8010E945300882310
:1054E00029F00F5F1F4F05301105B1F71092070427
:1054F0001092060480912A018230E9F1833009F488
:1055000070C0813011F00C94B13280913E028F5FF7
:1055100080933E02833038F484EFE82E81E0F82E49
:10552000012D112D0DC010923E0210920704109211
:10553000060400ECE02E07E2F02E09E0002F112D0A
:1055400081E089831B821A823091870520E0809157
:10555000880590E0822B932B8D839C838FEF809323
:10556000D7038093D603CE0101960E94322683E0B2
:10557000B801A70132C000E010E0C8010E9453004A
:10558000882329F00F5F1F4F05301105B1F7909167
:10559000620280E02091630230E0822B932B081797
:1055A000190710F00C94A83282E0898380932A01B5
:1055B00030915E0220E080915F0290E0822B932B7D
:1055C0008B839A830D831C83CE0101960E94322621
:1055D00083E044EF51E060E070E00E9467010C94CA
:1055E000B13200E010E0C8010E945300882339F076
:1055F0000F5F1F4F05301105B1F70C94A83283E0FF
:10560000898380932A0130915E0220E080915F02BD
:1056100090E0822B932B8B839A830D831C82D4CFB3
:105620009FBF84E080932A0181E00E94C1250C94F1
:10563000B132809157028823F1F09091550282E2B5
:10564000989FF0011124A5E6B5E0E353FD4F0190CA
:105650000D928150E1F785E695E00E94A92880919E
:105660006505813A09F412C1823A09F477C1803A9A
:1056700009F093C206C085E695E00E94A9280C9423
:10568000B13281E080931401E6EEF4E0119205E07E
:10569000EE35F007D9F780915D0200E010E0E82ECA
:1056A000FF2404C00E94AD000F5F1F4F0E151F05A1
:1056B000C8F330916B0520E080916C0590E0822B5F
:1056C000932B80935F0290935E0230916F0520E0F0
:1056D0008091700590E0822B932B809388059093A6
:1056E000870530916D0520E080916E0590E0822B5A
:1056F000932B80936302909362029091710580E0F6
:105700002091720530E0822B932B9093610280935D
:1057100060029091730580E02091740530E0822B47
:10572000932B90931104809310049091750580E061
:105730002091760530E0822B932B9093BF048093C9
:10574000BE049091770580E02091780530E0822BAF
:10575000932B90939B0380939A039091790580E01B
:1057600020917A0530E0822B932B9093EB0380936A
:10577000EA0390917B0580E020917C0530E0822B4C
:10578000932B9093B0038093AF0390917D0580E0BD
:1057900020917E0530E0822B932B909361058093BE
:1057A000600590917F0580E02091800530E0822B9C
:1057B000932B9093F6038093F5039091810580E0FD
:1057C0002091820530E0822B932B90936305809388
:1057D00062053FB7F8949091870580E02091880595
:1057E000622F70E0682B792B9091620280E020910B
:1057F0006302422F50E0482B592B460F571F415050
:1058000050408FEF80939304A1E0B0E018C0FB01FB
:1058100013E0F695E7951A95E1F7ED56FB4FCB01AE
:10582000877090708D0102C0000F111F8A95E2F7FA
:10583000C80180952081822380836F5F7F4F461748
:10584000570728F73FBF10923E0282E0898380937A
:105850002A0130915E0220E080915F0290E0822B6D
:10586000932B8B839A833091870520E08091880564
:1058700090E0822B932B8D839C8381E080933D026B
:10588000CE0101960E94322683E05AC080913604F0
:105890008D7F80933604ABE6B5E0FE013696AF010E
:1058A0009E01225E3F4F14968C911497819311961E
:1058B000E217F307C1F790916D0580E020916E0526
:1058C00030E0282B392BF901EE0FFF1FE20FF31FF9
:1058D00063E0EE0FFF1F6A95E1F7EA51FB4FDA0133
:1058E00088E10D9001928150E1F730916D0520E043
:1058F00080916E0590E0822B932B4FB7F894FC01BA
:1059000033E0F695E7953A95E1F7ED56FB4F877052
:10591000907021E030E002C0220F331F8A95E2F739
:105920008081822B80834FBF10923E029FB7F894F4
:10593000809193048F3F49F09FBF83E080932A01B9
:1059400044EF51E060E070E0C9C09FBF10923D029B
:1059500081E080932A010E94C1251FC180916B05BF
:10596000823009F491C0833009F4BBC0813009F062
:1059700014C150915E0240E080915F0290E0482B9C
:10598000592B90916C0580E020916D0530E0822BC1
:10599000932B8417950708F000C19FB7F894809166
:1059A00093048F3F09F08EC09FBF30915E0220E0CC
:1059B00080915F0290E0822B932B8F8F9E8F30918E
:1059C000620220E08091630290E0822B932B89A3F6
:1059D00098A33091870520E08091880590E0822B84
:1059E000932B8BA39AA380916002909161028DA367
:1059F0009CA380911004909111048FA39EA3809189
:105A0000BE049091BF0489A798A780919A039091B2
:105A10009B038BA79AA78091EA039091EB038DA734
:105A20009CA78091AF039091B0038FA79EA7809110
:105A300060059091610589AB98AB8091F5039091D9
:105A4000F6038BAB9AAB80916205909163058DABA9
:105A50009CABA3E9B2E0FE017E9688E101900D9235
:105A60008150E1F780EA80938D0288E180938E0275
:105A70008FEF8093900280938F02109291028DE8B5
:105A800092E00E948E0989C090915E0280E0209190
:105A90005F02422F50E0482B592B90916C0580E01B
:105AA00020916D0530E0822B932B4817590709F0A0
:105AB00074C0452B09F471C09FB7F894809193048A
:105AC0008F3F11F09FBF69C09FBF1092400210929C
:105AD0003F0284E04CE251E060E070E00E94670128
